:400000000080002011000000CD010000CD01000008B500F03DFA00F0E1F8000038B572B680250024204BED001C602A1C211C1F4800F021FD2A1C211C1D4800F01CFD022108
:400040003C201C4B1C4A1C601C4B1C6013780B431B4913700B788343283803430B70162113781C300B4313701222164B1A6000F081FB154A154B16491A60164B063A1A60C1
:400080008022154B12031A60082000F049FB082000F04EFB114B124A1C6003231360114A1360114B1C6038BD6CF02E4000300F4000400F400000024000700F400800044065
:4000C00001700F40300010400600008004010B403909000008010B4000010B400C020B403000304030003140000E3F400000000000000000000000000000000000000000E1
:4001000010B5064C2378002B07D1054B002B02D0044800E000BF0123237010BD6001002000000000900A000008B5084B002B03D00748084900E000BF07480368002B00D130
:4001400008BD064B002BFBD09847F9E700000000900A000064010020D0000020000000000047000000B50121C1B00B2000F0A8F8C1B2002913D001231148994300F083F818
:40018000802200215200684600F075FC0D48694600F04CFA80220C4B1A6000F0D5FA112000F0B4FAC30701D4002805D10021022000F086F8FFF7D4FF00F0D4F9FEE7C04621
:4001C000DCFE0300FE030000C000002008B500F01DFC03680C2B00D1FEE7FEE770B51049104B01394A1C15D000221E685C689D68A018AA4203D0B058A0500432F8E7021CCD
:40020000DC68151AA54202D0002520C2F9E710330139E7E700F000FCFFF7A4FFFEE7C04601000000E80A00000121104A10B51368141C8B43136000239A000D49032B01D8B6
:400240000C4989580C4801338150302BF4D1FFF7E5FE0022094B1A60094B1A68002A00D11A60012223681343236010BD00001040CD0100000000000000000020C800002041
:40028000C00000200047F0B5FF23051C9D432B1CC3B06E1C0191040AFF361A789446614602AA571BF9540133B342F6D16B461B79C0B21354111CA0B200F0B8F943B0F0BDEA
:4002C000013800B50B282FD80902494200F094FB06080A0C0E10141216191B20154B13E0154B16E0154B0AE0154B12E0154B0BE0154B09E0154B02E0154B00E0154BC91853
:4003000013E0154B05E0154BC9180878C0B210E0134BC9180A7848788B7800021B041843CB7810431B0603E000210B7848780002184300BDC0FF0300C1FF0300C5FF0300FE
:40034000C9FF0300D0FF0300D1FF0300D6FF0300D2FF0300D4FF0300D8FF0300DCFF0300E0FF0300F0B50121C7B00B20FFF7A8FF0021C3B203200393FFF7A2FF031C0133B2
:400380009AB23D4B02909B1A5B08D3189BB2042001210493FFF794FF030A9BB2C0B20093002802D001339BB200930026341C009BB7B29F422CD20325049BFB189BB21B0217
:4003C0000193029B581C019B38180133FF330593019B80B21978019C8C46624606A90C1BE254059A01339342F4D100F01FF9041E0CD0013DEDB2002DE3D1012303991F4894
:400400009943FFF740FF281C00F09CF90136CEE7002C2BD11A4B06AAE3181B78A354802301345B009C42F5D10026FF3B3DAA1370144A06A916703AAA1370D1220E485218E6
:40044000137000F0F3F8311C051C221C06A800F012FB0D4806A900F0E9F80543B54205D180220A4B1A6000F06FF902E0002000F069F947B0F0BDC046FF030000DCFE030037
:4004800000FE0300D4000020FE030000C000002038B5184B184D1A681023134000D12B602B68802B25D100210520FFF709FF0121041C0520FFF704FF0023E4B2C0B29C426C
:4004C00004D01C1C984205D0033403E0441EA0410224241A0220211C2B60FFF7F1FE002807D0012C05D8211C0220FFF7E9FEFFF7C9FE38BD00030B40C000002070B5061C45
:400500000320311CFFF7DCFE311C041C0420FFF7D7FE051C012E01D9062021E00134311C24020320FFF7CCFE61190024251C431C1B028B4209D21A78501EC0B2FD2800D8D1
:4005400001251219D4B20133F3E70120311CFFF7B7FE6442E4B28442DED1002DDCD0002070BD0000F8B50B200121FFF7A9FEC30701D5FFF7F7FE0020FFF7C0FF051C01206D
:40058000FFF7BCFF0223254C071C002105202370FFF796FE0626012808D1002D02D125702E1C03E0002F01D13E1C20702378022B0ED105200121FFF783FE012808D1002FFD
:4005C00002D120703E1C03E0002D01D12E1C25702378022B08D1002D01D1257006E0002F02D10123237001E0002E12D12478E4B2012C08D801210A486140FFF744FE0948DA
:40060000211CFFF740FE8022074B1A6000F09CF8F8BD002000F096F8F5E7C046D4000020D0FF0300D0FE0300C00000200023F0B5C7B0029303932C4B98424FD800294DD083
:400640008022051C520006A800F00CFA274B9D4201D8274B00E0274B0493FF23264C2749274A04AE736026600A60C04622680191120F0F2A02D12268134005E02268002394
:40068000120F0A2A00D023680293029F002F27D100F0ABF90397029B002B18D1194A2D040492049A184915430495019D2660124A2960C0462168090F0F2902D11368DBB271
:4006C00004E01168090F0A2900D013680293039B002B00D1039300F08CF901E004230293029847B0F0BDC046FF030000FF010000B6D70000B6D70001080010400400104023
:4007000004000080B6D80000050000801923021C02491A40086818400A60704700030B40024B8000C318186819607047400000201F2318401E3B8340181C014B18607047CF
:4007400000E100E001BE7047034A044913689BB20B4313607047C0460CED00E00400FA0508B5034B1B7B584300F036F908BDC046E0000020F0B5051C87B000F036F9EB1E3B
:40078000049003932D2B5BD8304B1B789D4204D82F4B1C782F4BE4B21EE02F4B1B789D4204D82E4B1C782E4BE4B215E02D4B1B789D4204D82C4B1C782C4BE4B20CE02C4B85
:4007C0001B789D4204D82B4B1C782B4BE4B203E02A4B1C782A4BE4B21B78039ADBB20193284B294F9A5C059302922F2A04D92A2D02D919263E6008E03F233E681E40029B10
:40080000B34205D2204B029A1A60052000F0E4F81B4B1E4AED182B780520DBB213601C4B019A1C601B4B1A60FFF79AFF029BB34206D9059B039A05209B5C3B6000F0CCF8D9
:40084000049800F0D6F807B0F0BDC04640F3FF0F41F3FF0F42F3FF0F43F3FF0F44F3FF0F45F3FF0F46F3FF0F47F3FF0F48F3FF0F49F3FF0F4AF3FF0F4BF3FF0F4CF3FF0F19
:400880004DF3FF0F940A00002CFF0B4028FF0B401CFF0B4020FF0B4008B500F0A6F8C021034A090213680B43136000F0A2F808BD00010B4010B5802400F097F80749084BAE
:4008C0000A68E4011A4022430A600A6813408022120213430B6000F08CF810BD00010B40FF3FFFFF70B5051C00F07FF80E4B041C1A68C0231B02134011D10C480C490540A8
:40090000281C0E680B4A3240104308600A68012B01D1FFF7C1FF201C00F06BF870BDFFF7C9FF0123E9E7C04600010B400404040010020B40FBFBFBFF042238B5224C236830
:40094000134213D021494B6813420CD0204B5D6A48681540A8434860596A914359629B69002B00D098470420FFF7BCFF80232268DB001A4215D015494A681A420DD0144A32
:40098000556A48682B4098434860516A114B0B405362D369002B00D098478020C000FFF7A1FF80232268DB021A420CD0074A52681A4204D0064B1B6A002B00D098478020EA
:4009C000C002FFF78FFF38BD10020B40F40000207C010020FFFBFFFF0230800803D00138FDD1C046C046C0467047EFF3108072B6704780F31088704702B47146490849003F
:400A0000095C49008E4402BC7047C046014B18687047C0465C0100200E4B70B500251E1C0D4CE41AA410A54204D0AB00F35898470135F8E700F046F8084B00251E1C084CF4
:400A4000E41AA410A54204D0AB00F35898470135F8E770BDD00A0000D00A0000D00A0000D80A0000002310B5934203D0CC5CC4540133F9E710BD031C8218934202D01970E8
:400A80000133FAE770470000000C0000DB00000000000000030405060708090A0B0C0E0F101112131415161718191B1C1D1E1F2021222325262728292A2B2E2F30313233FC
:400AC00034354300F8B5C046F8BC08BC9E4670472901000029020000F8B5C046F8BC08BC9E46704701010000F80A0000D0000020900000004800000000000000020000009B
:400B0000880A00008C0A0000010000000000E02EC05D00001800000000366E01F00000000404040000000000000000000000000000000000000000000000000000000000A8
:400B400000000000C20A00000000000000000000000000000000000000000000000000000000000000000000000000000000000000000000000000000000000000000000A9
:400B800000000000FC000020000000000000000000000000000000000000000000000000000000000000000000000000000000000000000000000000000000000000000019
:400BC00000000000000000000000000000000000000000000000000000000000000000000000000000000000000000000000000000000000000000000000000000000000F5
:400C000000800020110C0000811800008118000008B5024B83F3088800F052FE00800020F8B572B6802600242E4D0227F6002C60211C321C2C4802F05BF8211C321C2B48CE
:400C400002F056F83C202A4B2A4A1C602A4B2B491C6013782A4E3B4313700B788343283803430B70162113780B4313701222254B1A6001F089FB244801F0D6FC012001F039
:400C80008FFB302001F0AAFA204A214BFA201A608023204ADB0533601368C0001F4317601D4B1E4A1A6008221D4B1C602B6893432B6001F025FB1B4801F086FA80221A4B8F
:400CC00012061A608022194B12031A608023DB0533600323164A1360164A1360164B1C60F8BDC0466CF02E4000300F4000400F400000024000700F400800044001700F406E
:400D00000C020B4030001040001BB7000600008004010B4078002E407C002E402D3E000064F02E40DC05000008010B4000010B403000304030003140000E3F4010B5064CCF
:400D40002378002B07D1054B002B02D0044800E000BF0123237010BDE806002000000000A8CF010008B5084B002B03D00748084900E000BF07480368002B00D108BD064B7A
:400D8000002BFBD09847F9E700000000A8CF0100EC060020D0000020000000001FB5282836D00DD826282FD01ED8012849D1002000F090FE002301A8837102F095F840E072
:400DC000412829D008D82D283BD11E4B00211878012212F0DDF834E042282FD04F2830D1002014F0BFFE2CE04B88062B29D9062301A90B804B8000238B806433CB80114BBF
:400E000018780FF0B1FF1CE00F4B1B78042B18D1002000F05FFE14E00C4C0222201C01F05EFF0B4B01A90B810023607801938B8023780002184314F079FE02E00022034B20
:400E40001A701FBDFA190020F8190020EC190020052A000007B500F089F862B600F030F8012000F0C3F9002808D1134B1B78002B04D1013000F078FD01F084F90F4800F0ED
:400E8000BDFD002802D0032803D1FEE7684602F02FF800F08BF902F04FF8052000F0D8F9052001F07BF900F017F800F08FF80028F1D000F091F8EEE714FE03009D0D00004A
:400EC00008B504480378002B02D1012100F0E6F808BDC0460AFF030038B5194B194C1D782378AB4202D001232570638063880F2B06D1012000F07AF9002801D000236380E9
:400F00006388022D10D0002B01D00133638063881D2B14D9FA20400001F040F9012000F023FD01F02FF90AE0002B05D0064A1278012A01D00133638063883B2BEAD838BDD7
:400F4000F8190020D40000205408002008B5064B04201A6801321A6001221A7101F002FB01F098F808BDC0460407002010B5002401F04AFA134B14481C6001F077F8201C6C
:400F8000012101F065FA8021201C090201F0C6FA201C012101F07CFA082001F0A5FA0120142101F0BBFA0120022101F051FA0120011C01F06DFA0220FF3001F07FFA01F0EB
:400FC00015FA10BD040700204D0F0000014B1879C0B270470407002008B501F015FA012001F0F8FA01F002FA0022014B1A7108BD0407002010B5044C2378002B03D103F024
:401000004FF90123237010BD0C070020002310B5044A01329C5CC25C6240CA540133102BF6D110BD0C070020F0B50023071C89B00024124D6A1C9C540133102BF8D1381996
:4010400004A9FFF7E3FF2E1CFFF7D4FF0C481136011C361903AB1031019304AA1023009604F005FA681C311C102201F038FE802310345B009C42E2D109B0F0BD0C0700204E
:40108000ACCF0100002310B5002A05D0013A4418A45C1B19DBB2F7E7181C10BDF0B5FF23051C9D432B1CC3B06E1C0191040AFF361A789446614602AA571BF9540133B3420E
:4010C000F6D16B461B79C0B21354111CA0B200F0E9FF43B0F0BD0000013800B50B282FD80902494201F016FC06080A0C0E10141216191B20154B13E0154B16E0154B0AE08E
:40110000154B12E0154B0BE0154B09E0154B02E0154B00E0154BC91813E0154B05E0154BC9180878C0B210E0134BC9180A7848788B7800021B041843CB7810431B0603E011
:4011400000210B7848780002184300BDC0FF0300C1FF0300C5FF0300C9FF0300D0FF0300D1FF0300D6FF0300D2FF0300D4FF0300D8FF0300DCFF0300E0FF030010B5002133
:401180000520FFF7A9FF0121041C0520FFF7A4FFE4B2C3B2002C03D0181E05D0032003E0581E83410220C01A10BD000010B50D4C44342378002B13D1FFF71CFFFFF7DEFF2A
:4011C000094B587059781A1C022907D05978032904D05A781A700123237001E00223137010BDC0460C080020D8000020F8B5061C0320311CFFF770FF041C311C0420FFF733
:401200006BFF01342402271800240320311CFFF763FF251C01300002B84209D203785A1ED2B2FD2A00D801251C19E4B20130F3E70120311CFFF750FF6442E4B20623844225
:4012400003D16A4255416D422B40181CF8BD0000F0B5BC4C0121A54402900220FFF73CFF059000F07DFE62B60A230393029AFF23002A00D0131C96210EAE07AC301C49003B
:40128000221C00F0B5FE029B051C002B03D0039B013BDBB20393FFF799FE002801D0FFF79BFE039B002B02D0002DDFD101E0002D7BD12488062C00D857E233780420012BC3
:4012C00043D1F578B2782D021543EB1DA34200D94DE296225200934200D948E273195C7919799B79172B30D100232A1892B2002A09D0A4A8944F8018C0190078013A1B1869
:401300009BB292B2F3E75B4222029BB20A4308209A421AD157E08D4B45331B78012B00D023E28B4B2B40032B00D01EE2B7797679032D06D02F2104ABEA1E59A8C91801F09F
:40134000CEFC0920012C00D8B8E000240E2204ABD21801230EAD2B70230AEB700023211D14806870AC7089B2002909D0A4A8764E40188019007801391B189BB289B2F3E780
:40138000A4A9744809195B4208189BB2037072481B0A08180370714B0734CB181721281C1970A1B2962300F0F3FD029B002B00D15CE7664B45331B78012B00D156E7A523AE
:4013C0009B009D44F0BD72783479101C313814282DD95E4B05201C6C002CB7D045331B780520012BB1D104AB5D820AAD1A740FAE00210C22281C099601F07AFCAE6008A888
:40140000291CA0472623AC88FF339C4202D9AB68B34207D0AB68002B01D1002C04D12868C0B293E70E2090E70E201C1C8EE701F07BFA32004F0074009D001D0127014101AC
:4014400058019D0070017F011500D0FFD0FFD0FFD0FFD0FFD0FFD0FFD0FF72FF3B4B45331B78012B00D080E1012D00D07DE1012C00D978E1201CFFF7B9FE051E00D072E1AF
:401480002402374B6142C9180FA8382201F027FC5624281C5AE72D4B45331C78012C00D063E1002D00D060E12E4B5878C0B2FFF79DFE43424341281C337147E73F023E43AC
:4014C0006402294B341924029E4200D851E18DE01E4B45331B78012B00D046E1012D00D043E1012C00D940E103200021FFF7F4FD83B2580A844202D1DB05DB0D03E000233F
:40150000A0425B415B0233711B0A7371FF23B371FE3BF3710020042418E70C4B45331B78012B00D021E1012D00D01EE1201CFFF75DFE211C30710520FFF7CEFD0224707144
:40154000002003E76CFDFFFFA7FDFFFF0C080020FFFEFFFFACFDFFFFADFDFFFFAEFDFFFFC0FF0300D8000020FF010000BA4F342A10D13B1C45331B78012B00D0F5E0032DCC
:4015800000D0F2E03B1CCC32083359A80021DA8701F0AEFB3B1C45331E78012E00D0E4E0022D00D8E1E02F2108370497FF8F59ABD81904ABEA1EC91801F091FB8023033F45
:4015C000ED19ADB203205B009D424AD12E222D2104AB9B1804AA1B78521812781B021343049AD3879D4A934200D8D5E00A20ACE6059B002B00D0E6E000230024984A0132AC
:401600009C540133102BF8D159AB1F190AAE381C311CFFF7FBFCFFF7EDFC924808AB011C3A1C103101930096102303F020FF8E4B301C1919FFF7EAFC894B391C581C10226F
:4016400001F04DFB802310345B009C42DCD1281C854900F027FD031C5A1E93410A205B42184000247C4B0833DC876FE67A4B1A1C45321278012A78D100220833DA8794E62E
:40168000754B45331B78012B6FD1012D6DD1201CFFF7ACFD002866D1012C08D86540E9B27248FFF7FBFC7248211CFFF7F7FC714B5C7013E0684C231C45331B78012B54D1AF
:4016C0000834E08F2C334619FF339E424FDC59AB18180FA92A1C01F002FBE6870020041C34E6002D41D10AAA111C5E4B203311CB11C1594B0121181C1C1C08304834453335
:4017000021701970C5870FAB03CA03C30824281C1CE6514B45331B78012B26D1032D24D1B57973792D021D434C4B9D426AD95DE70B200121FFF7D0FC4022C30707D44D4B41
:401740005878C0B2FFF752FD002802D180224A4B1A600024404B48331C7000F003FC00F011FD0420F2E50C20EFE50420EDE50320EBE559A8FFF758FC231C611CFF31384AF6
:4017800018781132121BD25C824203D101338B42F5D1A3E70220D8E564021B19354C9DB22378311C002B00D00021FFF795FC80B2013080B2854200D31AE70024264B0A204F
:4017C0000833DC87C2E56378012B00D914E76178C9B2012910D80320FFF77EFC041C01210320FFF779FC0134A4B280B2A54200D202E7854200D9FFE60024174B0D2008332E
:40180000DC87A3E5600228180002FFF70DFC80221348002111305200FFF734FC071C012C15D12B1CFF3BFF3B012B10D8134B0520ED186B1E9D41EDB2291CFFF74DFC291CE7
:401840003F1A0620FFF748FCFFB23F1AFFB27F4237710020012479E50C080020FF0100000C070020ACCF01001D070020D0FF0300D0FE0300D8000020C000002001FEFFFF49
:4018800008B501F0DDF903680C2B00D1FEE7FEE7031C10B594240849084A0868A401C3189A1AA24201DC0B6005E001F0C9F90C2303600120404210BDDC000020081A002080
:4018C00070B51049104B01394A1C15D000221E685C689D68A018AA4203D0B058A0500432F8E7021CDC68151AA54202D0002520C2F9E710330139E7E701F0A8F9FFF7AAFAED
:40190000FEE7C04601000000B8D101000121104A10B51368141C8B43136000239A000D49032B01D80C4989580C4801338150302BF4D1FFF775F90022094B1A60094B1A6811
:40194000002A00D11A60012223681343236010BD0000104081180000000C000000000020C8000020C000002030B5051C0120C1B0854229D82B02154A5B429B181B7883422D
:4019800022D0002368406946114A9A1812785A548022013352009342F5D134AB18700D4800F080FB0023041C69460B4A9A181278CA548022013352009342F5D134AB0748FA
:4019C0001D7000F06FFB204341B030BDD0FF030000FF0300FF03000000FE0300FE0300000023034A1370034A1370034A13707047FD190020F9190020FC19002030B591B0DA
:401A0000051C23490BA8142201F069F9214C2378002B03D1FFF7E4FF012323700120002D34D01D4B1D606368002B07D11B4801F033F9031C60600320002B27D000211B253C
:401A400008A805AA06AB0181117016311D805D806944173D426008931D7101F087FB002814D1052301900093029061680C480D4A0BAB01F0D1FA002808D101220A4B0B48B6
:401A80001A7010321121FF3215F06EFA11B030BDD4CF010058080020F019002054120000CD1B000044100000F8190020E8CF010008B501F05FFA0022044B1A70044B5868F3
:401AC000904201D001F0F2F808BDC046F819002058080020021C10B50120022A2FD8184B1B78042B29D1174C2178194225D1164B002A08D1191C1D3050310880596C8230E3
:401B00000880A0300BE0012A0AD1191C962050310880C820596CC0000880FA20000148800A494033181C0A7012F0B6FB002806D1042223781343237001E00420FF3010BDBF
:401B4000F8190020FD190020E0000020FC1900207047437800781B021843704738B5838900250D2B1BD1041C291C0430221C333315F0ACFA051E0DD16068FFF7EAFF094B8A
:401B80001B68820702D58220400001E00620FF30211C98470121044A13788B431370281C38BDC046F0190020FD190020002382799A4208D1821D0378002B03D10130904235
:401BC000F9D100E00123181C70470000F0B50127974B85B01A78041C3A430D1C1A701E1C282800D17DE013D8062800D184E006D8B84224D0052800D00BE10A7879E0262882
:401C000000D1ABE000D9A7E0212800D18AE000E1432800D1CCE008D8412865D0422800D0F7E00022834B5A7064E04F2800D1E6E0502800D1EAE04C2800D0EAE0C3E007270E
:401C400002AB1F71002302AA03A8537103F008FE02AB03A81F715C7103F002FE764F3B68181C0093FFF7A2FF0190002808D0009801F06AF938680021FFF76AFF386822E043
:401C80001F213F206D4B6E4F1A786E4B02401B78920119406C4B09031B780A43034013436A4A381C11787F220A40520413431A0A3B701B0C7A70BB7001F046F9381C019977
:401CC000FFF746FF381C211CFFF742FF032011F069FF3F2302AA1371002303A8537111F07FFF04225A4B05E00222524800F0F7FF0022584B1A708CE00B78002B00D088E0BD
:401D00004B78002B0BD11022534B5449DA800132FF329A80524A6B60126852181A603378012229E01B789B0673D44E490B78102B01D10B3BCB703F4B187812F06BFA03A9A8
:401D40000880002803D0484B36201B68984701223378134333705CE00222C3E73C4B1978022956D032783A4253D004223078104204D00321197033789343EBE70820377847
:401D8000074203D01A7033788343E3E7032940D104232F4A1370354B1B78002B39D10120FFF798FE002834D10323294A137030E02C234988FF33994201D9962149002888DD
:401DC00013F080FE25E0081CFFF7C8FE33783B4202D0281C00F04CF83378DB0719D4002809D0122303A98B70AB89C87028680B8013F05EFE0DE0286813F000FF09E01B78D3
:401E00003B4206D0081C00F06DF802E0081C00F081F8112332781A4208D001223378201C93433370104B291C1B68984705B0F0BDFD190020FA190020340100207DF2FF0F33
:401E4000380100207BF2FF0F7CF2FF0F78F2FF0FF8190020F919002060080020441000005C080020C8020020F0190020FC19002010B58389021C112B0FD1164B0621FC33CD
:401E80005B6BDB0205D500210430402315F01EF9011C114A0120137818E00021102B17D13033043015F012F9011C0120094B0B4CFC331B6CA0705A68094B1A60D378927836
:401EC0001B021343044A07332380137883431370081C10BDE8CF0100FD19002068080020001A002008B543681B89102B0CD1007A012804D113F036FE0022044B1A800121C7
:401F0000034A13788B43137008BDC04668080020FD19002043681A89102A1AD1427A012A12D108211A680B4BFF311A60D37892781B02134307339BB2074A8B4201D8138026
:401F400000E01180012393700121044A13788B4313707047001A002068080020FD1900207047000008B5084B187811F0FBF8002802D0FFF79DFD08BD044B1B78022BF8D154
:401F800000F0DAFFF8E7C046FA190020F8190020F0B5154C85B0FC34636D071C58680D1C161CFFF7D6FD031C0420DB071AD5236C391C5C682A1C201C00F091FE10230B4A88
:401FC00001A950780B811378000218438D80019413F0B6FD002801D1358003E0002301203380404205B0F0BDE8CF0100FA190020F7B50A24071C161C5C430191002C1BD0D4
:4020000000F09AFF0F4DAB78012B10D100242A88019BAC709A4207D20B4B381C196800F05EFE2B88338008E03480062405E0012000F0B4F8013CE1E7103400F07DFF201C12
:40204000FEBDC04668080020001A002010B5041C00F0F3FAC021044AA40113688B432343136000F0EEFA10BD08E400E010B58024054B64001C60054B18660320FFF7E6FF47
:40208000034B1C6010BDC04680E100E00000002000E100E08022024B52001A607047C04680E200E00023F0B5C7B0029303932C4B98424FD800294DD08022051C520006A8BC
:4020C00000F00DFE274B9D4201D8274B00E0274B0493FF23264C2749274A04AE736026600A60C04622680191120F0F2A02D12268134005E022680023120F0A2A00D0236808
:402100000293029F002F27D100F097FA0397029B002B18D1194A2D040492049A184915430495019D2660124A2960C0462168090F0F2902D11368DBB204E01168090F0A29F1
:4021400000D013680293039B002B00D1039300F078FA01E004230293029847B0F0BDC046FF030000FF010000B6D70000B6D70001080010400400104004000080B6D8000031
:4021800005000080034A044913689BB20B4313607047C0460CED00E00400FA0510B5041C8022074B1202944205D9586800F03CFA044BE418F4E79868604300F035FA10BDA2
:4021C000D00200200080FFFF08B5034B1B7B584300F02AFA08BDC046D0020020F0B5051C87B000F02AFAEB1E049003932D2B5BD8304B1B789D4204D82F4B1C782F4BE4B2AC
:402200001EE02F4B1B789D4204D82E4B1C782E4BE4B215E02D4B1B789D4204D82C4B1C782C4BE4B20CE02C4B1B789D4204D82B4B1C782B4BE4B203E02A4B1C782A4BE4B22B
:402240001B78039ADBB20193284B294F9A5C059302922F2A04D92A2D02D919263E6008E03F233E681E40029BB34205D2204B029A1A60052000F0D8F91B4B1E4AED182B7827
:402280000520DBB213601C4B019A1C601B4B1A60FFF79AFF029BB34206D9059B039A05209B5C3B6000F0C0F9049800F0CAF907B0F0BDC04640F3FF0F41F3FF0F42F3FF0F7F
:4022C00043F3FF0F44F3FF0F45F3FF0F46F3FF0F47F3FF0F48F3FF0F49F3FF0F4AF3FF0F4BF3FF0F4CF3FF0F4DF3FF0F64D101002CFF0B4028FF0B401CFF0B4020FF0B40CD
:4023000001210F4A10B51368041C0B43802113600C4A0D4B09021A600C4A13680B431360002801D100200AE00120FFF74DFF084B1B68DB07F6D4013C002CF5D1102010BD86
:4023400060F02E400220000078002E4010002E400C002E4001200A4A136883431360022311689943116007492E330A689A43203B1A430A6007220B68934303430B6070478F
:4023800000F02E4000FF2E4008B5FFF7E3FF8021024A090613680B43136008BD00F02E400122104B70B51C681440002815D0904215D1022507261968A94319600A490A6823
:4023C000B2432A430A600A682E35AA43103D2A430A601A681043186001E0FFF7BBFF201C70BDC04600F02E4000FF2E4008B500F024F9C021034A090213680B43136000F0E4
:4024000020F908BD00010B4010B5802400F015F90749084B0A68E4011A4022430A600A6813408022120213430B6000F00AF910BD00010B40FF3FFFFF044BC0001B680130A1
:40244000C340181C012318407047C04610020B4038B5041C0D1CFFF7EFFF00280AD10321081CE400A0402940A140034A136883431943116038BDC0460C020B40034BC0005F
:402480001B68C340181C0323184070470C020B4038B5041C0D1CFFF7CFFF00280AD1E40002340121A540A1402C1C034A13688B431C43146038BDC0460C020B40094B1A68FA
:4024C00002431A60C20702D51A689207FCD5C20502D51A689205FCD5C20302D51A689203FCD5704710020B40094A10B51168136812685C0A4B082343520C1343DB0705D45D
:40250000044A054B11680B401843106010BDC04610020B400C020B40F7F7FFFF70B50E4D061C2B680C1C9B0FC920002B00D06C38FFF74AFE0949300181408440084A43206F
:4025400013688B43234313602B689B0F00D02438FFF73AFE70BDC0460C020B40FFFF000008020B4070B5051C00F067F80E4B041C1A68C0231B02134011D10C480C49054010
:40258000281C0E680B4A3240104308600A68012B01D1FFF72BFF201C00F053F870BDFFF733FF0123E9E7C04600010B400404040010020B40FBFBFBFF044B054A1968104075
:4025C0000843186019681142FCD1704710020B400808080010B5041E0FD1FFF74FFF032801D101301AE0201CFFF748FF022817D10630FFF7E1FF042010E0012810D1FFF76D
:402600003DFF032808D0201CFFF738FF022807D180200001FFF7D0FF8020C000FFF7A2FF10BD0000000000000230800803D00138FDD1C046C046C0467047EFF3108072B6CF
:40264000704780F310887047F0B5204C8D18031CC5B00120A54236D80020161C051C0F0A039304AC3B020291E41AB54204D3012829D90120404226E00028F8D15A1CFF32A7
:4026800001920090029999420BD8B54209D203991A78495DE1548A4201D001220092013501E01978E154019A01339342EAD1009B002B03D0381C04A9FFF7F4FC013C013740
:4026C000FF3C019BD1E745B0F0BDC046FFFF030001607047016070472B4B2C4A19782C4B09021B7819432B4B1B7812781B021343294A934204D1072909D1284B033906E0C2
:40270000D4221201934202D1042900D1234B244A1360244B244A1960244B1B7812781B021343234A134200D1224B234A23491360234A0B7812781B021343224A934204D0F8
:40274000214A934201D0052B00D1204B204A1360204B214A1B681268AA2A14D11F2B12D90B780E2B0FD11D4B1D4A1B7812781B0213431C4A13601C4B1C4A1B7812781B0263
:4027800013431B4A1360704759F1FF0F5EF1FF0F58F1FF0F5FF1FF0F580B0000580D00006C002E4074002E405AF1FF0F5BF1FF0FFFDFFFFF0220000078002E405DF1FF0F53
:4027C0005CF1FF0F0F0F000005050000050F000080002E40EC0F00F0E00F00F06DF2FF0F6CF2FF0F84002E406FF2FF0F6EF2FF0F94002E4008B5FFF7E7FC08BD08B5FFF7D2
:40280000CDFC08BD08B500F063F808BD08B500F067F808BD08B500F063F8034800F02EF8032000F031F808BD0D29000008B5024800F03AF808BDC0460D29000000487047A3
:40284000010200002B2070472B2070472B2070472B2070472B2070472B2070472B2070472B2070472B2070472B20704770472B20704770470120704701207047014B186756
:402880007047C0460000002010B5041CFFF7D5FEC021044AA40113688B4323431360FFF7D0FE10BD0CE400E010B58024054B64011C60054B18670320FFF7E6FF034B1C6005
:4028C00010BDC04680E100E00000002000E100E08022024B52011A607047C04600E100E08022024B52011A607047C04680E100E008B5FFF7A2FE0421034A13688B4313606E
:4029000030BFFFF79EFE08BD10ED00E008B51AF037FB08BD02B4714649084900095C49008E4402BC7047C04603B47146490840004900095E49008E4403BC70470022430807
:402940008B4274D303098B425FD3030A8B4244D3030B8B4228D3030C8B420DD3FF22090212BA030C8B4202D31212090265D0030B8B4219D300E0090AC30B8B4201D3CB03B1
:40298000C01A5241830B8B4201D38B03C01A5241430B8B4201D34B03C01A5241030B8B4201D30B03C01A5241C30A8B4201D3CB02C01A5241830A8B4201D38B02C01A5241DC
:4029C000430A8B4201D34B02C01A5241030A8B4201D30B02C01A5241CDD2C3098B4201D3CB01C01A524183098B4201D38B01C01A524143098B4201D34B01C01A52410309EA
:402A00008B4201D30B01C01A5241C3088B4201D3CB00C01A524183088B4201D38B00C01A524143088B4201D34B00C01A5241411A00D20146524110467047FFE701B5002040
:402A400000F0FCF802BDC0460029F7D003B5FFF775FF0EBC4243891A1847C04603460B437FD4002243088B4274D303098B425FD3030A8B4244D3030B8B4228D3030C8B422B
:402A80000DD3FF22090212BA030C8B4202D31212090265D0030B8B4219D300E0090AC30B8B4201D3CB03C01A5241830B8B4201D38B03C01A5241430B8B4201D34B03C01A84
:402AC0005241030B8B4201D30B03C01A5241C30A8B4201D3CB02C01A5241830A8B4201D38B02C01A5241430A8B4201D34B02C01A5241030A8B4201D30B02C01A5241CDD2DA
:402B0000C3098B4201D3CB01C01A524183098B4201D38B01C01A524143098B4201D34B01C01A524103098B4201D30B01C01A5241C3088B4201D3CB00C01A524183088B4201
:402B400001D38B00C01A524143088B4201D34B00C01A5241411A00D201465241104670475DE0CA0F00D04942031000D34042534000229C4603098B422DD3030A8B4212D3C9
:402B8000FC22890112BA030A8B420CD3890192118B4208D3890192118B4204D389013AD0921100E08909C3098B4201D3CB01C01A524183098B4201D38B01C01A5241430981
:402BC0008B4201D34B01C01A524103098B4201D30B01C01A5241C3088B4201D3CB00C01A524183088B4201D38B00C01A5241D9D243088B4201D34B00C01A5241411A00D211
:402C00000146634652415B10104601D34042002B00D54942704763465B1000D3404201B5002000F00BF802BD0029F8D003B5FFF715FF0EBC4243891A1847C0467047C04600
:402C4000014B18687047C046E40600200E4B70B500251E1C0D4CE41AA410A54204D0AB00F35898470135F8E71AF094FA084B00251E1C084CE41AA410A54204D0AB00F35833
:402C800098470135F8E770BDA0D10100A0D10100A0D10100A8D1010008B5034B011C186800F074F808BDC046E406002008B5034B011C186800F024F808BDC046E4060020C1
:402CC00030B50024944208D0035D651C0C5DA34201D0181B02E02C1CF4E7002030BD002310B5934203D0CC5CC4540133F9E710BD031C8218934202D019700133FAE7704772
:402D000030B500293ED004390B68002B00DAC9181D4A1368141C002B02D14B60116031E099420DD208680A189A4203D11368C3180B6053684B60216024E08A4203D8131C26
:402D40005A68002AF9D11D685C198C420BD10968691858181960904214D110685268091819605A600EE08C4202D90C23036009E008680C18944203D11468526800190860DA
:402D80004A60596030BDC046E8190020032370B5CC1C9C430834051C0C2C01D20C2405E0002C03DA0C2300202B6042E08C42F9D3204A1368101C191C002913D00A68121B7D
:402DC0000DD40B2A02D90A608B181FE08B4202D15A6802601BE04A685A600B1C17E00B1C4968E9E7144E3368002B03D1281C00F025F83060281C211C00F020F8031C421C02
:402E0000D0D00322C61C964386420AD11C60181C07210B301A1D8843821A0AD05142995007E0311A281C00F009F8431CBAD0331CECE770BDE8190020E419002038B500237B
:402E4000064C051C081C2360FEF722FD431C03D12368002B00D02B6038BDC046041A0020134A1088810703D08107890F401A001D11791030484381B25088820703D082077B
:402E8000920F801A001D800040180A494030098980B2CA0701D0503080B2890706D504495422091F09785143081880B270470000EA0200207808002010B502F03FF910BD2B
:402EC00010B502F01FFB10F07BF910BD10B502F021FB10F07DF910BD10B502F035F910BD10B502F047F910BD10B502F05FF910BD0121002807D0FF213631C18003210180CA
:402F000041800021818008467047000010B50848FF2400680534401C08D106480068002804D102F0A7F9FE2800D00024204610BD80040020E805002010B500F093FA10BD49
:402F400010B502F0EDF910BD10B50749044609780220002907D1204602F028FA002802D1204611F00BF810BD9604002010B502F04FFA10BD10B50CF06DFC02F0FBF802F0B0
:402F8000FFF9084C2078002801D000F075FA00F089FAFF2001F0A8FAFF2001F0B5FA0020207010BDE402002010B50CF053FC02F0E1F802F0E5F900F05FFA074908460C3898
:402FC0000CF02AFC002806D10CF04CFC002802D1024A0121117010BD78080020E402002070B504460120002C12D02368002B0FD0616800290CD0074D0622288920811846E2
:403000002968FFF76CFE6968606809780170002070BD000078080020FFB585B0002768460E9D07734F481C460078002802D0082009B0F0BD10990F9801900095029105A895
:4030400007C800F001F90028F2D16946264603AB84460873002C19D0002115E08A00B75A082F09D990198078002805D0083FB7521878401C187005E0002914D00027B7523B
:4030800090198770491CC9B2A942E7D360460028CED10F98002809D0109901F0EFFB002804D00120C4E701208446EFE702F062F82D480021416081600599016021888180BC
:4030C000022D07D3A1798171A17AC171A1890181218A418100211EE0481C19E082008B00A75AE65ABE46BE4211D26F463E80B4461E190296B678BE7001967646E652171951
:40310000029EBB78B3706646A652019EBE70401CA842E3D3491CA942DED3134822460C3000906846037B0799069800F015F90028B8D168460B4C007B60700B480C3002F0B2
:40314000C7F80028AED1084907480C310CF064FB0028A7D10CF086FB0028A3D10121217066E70000E40200206C080020F8B5054633480E460078002802D002242046F8BDE4
:40318000002E5BD000242F49002D16D02A89D0070DD02868002808D003881B3BE12B04D24088FB2801D81B2801D2012409E0900707D56868002804D1F7E700200881086036
:4031C0004860002CDAD11F482F8907811C481B21801D018041800421017119490020891C0870F80705D016480622801D2968FFF776FD1449B80703D56A6811481278827068
:403200000F480D46801D0860001F486002F0F4F80B48801D02F0E2F8288915F0D9FA288915F06AFC03461033FFF71AFE1F21C018890140180249308088809FE701249DE713
:40324000E402002078080020FFB58446384F1C460020BB883F78054602460646002F11D100290ED0029999420BD36146002908D0002C06D00A99002906D02E4B0B99994298
:4032800002D2012004B0F0BD002144E0AB001F19BF78002F3BD0E35A002B38D07B43591889B22B0000F04AF8050410161C253100A7782388BC46FF27233BEB37BB4222D2E4
:4032C0006346032B1FD322E0A388002B1FD0302B19D31CE02389002B19D0282B13D316E0A289002A13D01346134F233BBB420AD20DE0268A002A0AD033460F4F233BBB428F
:4033000001D2964203D901200EE0002001E000280AD16D1CEDB2099B9D42B7D31C2463435B1802998B42ACD89642AAD8AAE70000E402002079020000BAFF000030B47446B6
:40334000641E2578641CAB4200D21D46635D5B00E31830BC18470000FFB583B0002469460C801F4606468C80002806D00598002803D004983043800701D0012466E0002F91
:40338000FBD03449049809888842F6D3FFF74EFAFFF73CFA00F06AFC002855D100F0D4FD002851D12C49084601F09CFA05042D0C4AD12A480499066081800021C1800781E5
:4033C0000C98007AC00704D0684601F04BFF040007D10C98007A800703D501A801F06AFF0446BF1DFEB2002C20D13146059800F085F804001AD115F08DFB040016D16A4644
:403400001088928808368518144AF1B29088D288AEB29319984207D3401B801A80B201F053FD050007D000E0FF25012400F0B6FA002D04D008E0F8B200F044F9F6E700F032
:40344000D9FA07490120087000F022FC204607B0F0BD0000E8020020E935000084080020F002002010B503480078012801D101F0CDFB10BDF002002010B500F003FE0028D9
:4034800003D100F009FC002801D0FF2010BD0448007A801DC0B200F02DF9002010BD00008408002010B500F009FE01F04DFA0449002008608880C88008810249087010BDA8
:4034C00084080020F002002070B5084B0446DA889E8800205518B54206D81D68AA182260DA885118D98070BD032070BD84080020014800897047000084080020F0B587B03B
:4035000007460D4600208900009006916846FFF7DBFF844600285DD1304800990160002117E02E4B88001A680629115406D22C4C0419667882185670628805E0C419203C29
:40354000A67A8218567022891B68C018491C4280C9B2A942E5D300242DE0601CC2B2059025E01E4FA30039689600581840887118039604904E88B04217D938466F46FE8027
:40358000B6464F786E4677710297049F4F800168039F5E18767879184E700168764659184E800068029F18184770521CD2B2AA42D7D30598C4B2AC42CFD36046002809D1BC
:4035C00068460699FFF780FF8446002802D1054900980860604607B0F0BD0000F4020020C8D10100F80200207047000010B5002809D005494A68002A05D0011F0878800086
:40360000105801F00FFC10BDF402002010B50446FFF76EFFC0B2801DA0420CD307484068002808D0A100405801F06EFB002801D00470001D10BD002010BD0000F40200201D
:40364000F8B516460D460446FFF752FFC0B2801DA04203D20020C0430090F8BDB2B2E9B2684601F077FB0099481C03D0024AA000526811500098F8BDF4020020F8B50746EB
:40368000FFF736FF801DC6B20A49002005460C680DE06178002907D06188B94202D32078FFF7B4FF002804D1241D6D1CEDB2B542EFD3F8BDF402002010B5002801D0FFF73A
:4036C00095FF10BD70B506460948002504680BE06178002905D062882078121D0023FFF7AFFF241D6D1CEDB2B542F1D370BD0000F4020020F8B5084F064600243D6808E074
:40370000287879688000085801F038FC2D1D641CE4B2B442F4D3F8BDF4020020FFB581B00A9F16000C4620D000F0F2F8054604281BD0002F0CD03846FFF7A0FF20492A0147
:4037400051184860002810D03A460499FFF7C7FA1B4928010E504618778101980570200406D47D20C000444304E0FF2005B0F0BD6404640C00F0BAF80746042807D000F00C
:403780006BFAA0420BD800F067FA201A03E0204600F0C8FA0020F06035720020E6E700F05BFA009000F0D4FA00980121001B009000F008F902493A0151180098C860E6E7F0
:4037C00090080020F8B5060116483418217A042903D0E068002802D017E00020F8BD00F03BFA054600F0B4FA00F0A0F804280CD001010C480F18F8680021451900F0E2F846
:403800000020F860284600F08DFA6068054D002801D0FFF751FF042020720020A8516081E060DAE790080020FEB500266A46304601232549050169180D7A042D02D0C96896
:4038400000291BD000211154401CC0B20428F0D300246846005D002830D01B48210108184189476805680291002101604160042241810272C160002E02D015E01354E3E7B6
:4038800000F054F804280ED001010F4808180190C6680021304600F095F801980021C160304600F03FFA0126002D07D038460299A847002F02D03846FFF7FEFE641CE4B242
:4038C000042CC6D3FEBD0000900800200EB5002005216A4600901181508103486946006816F055FE0EBD0000FC020020074A0020010189180B7A042B02D0C968002903D075
:40390000401CC0B20428F3D370470000900800200549002002015218127A042A03D0401CC0B20428F6D370479008002030B50A4B04200A4C00210A011219157A042D06D01D
:40394000D268002A03D09A4201D808461346491CC9B20429EFD330BDFFFF00009008002070470000F8B500250B4F2E462801C419217A04290AD0042121723E50606800280D
:4039800002D0FFF799FE66606681E6606D1CEDB2042DEBD3F8BD00009008002030B50020074C05460423020111190B72A5504D60401C4D81C0B2CD600428F4D330BD000072
:4039C0009008002030B5094C00231A011219157A042D04D0D568002906D02D18D5605B1CDBB2042BF1D330BD2D1AF7E790080020002070471CB5002469460C7014200190A5
:403A00002346054A054816F0C7FD04480068401C00D1FF2420461CBD713A0000FC0200203EB5124A0146FF2000230124126800290DD0012914D0042908D1042069460093B4
:403A400008814B81104616F0A2FD80B23EBD68460093048143816946104616F093FDF4E768460093048143816946EBE7FC02002070B545890468416800890300FFF75EFCBC
:403A800008280509091E2228262800200AF0A0F81EE0022908D0C8B22A46214613F0A4FD2046FFF709FE13E002202A46214613F09BFD2946204600F00DF809E0002015F09F
:403AC0007BFC05E02046FFF7AFFE01E0FEF7D1FE002070BD014B0022DB6818470003002070B5448905680089022803D0032809D0FF2070BD2246094C0023A468294601208B
:403B0000A04708E0FFF7ECF9241DA2B20023294602200BF034FD002070BD000000030020704770470248002141600180418070470003002070B50C46002186B016460391A2
:403B4000012802D0022859D116E003A901200BF06BFD01281BD1039D324621462846FFF7BEF80095287801900220694608814E816846FFF7B5FF41E0214D002B686809D078
:403B8000049004A902200BF04FFD01281DD0022006B070BD002812D0298840182146FFF79EF828880024801980B228806988091D884206D12C801348FFF792FF03E00320A7
:403BC000E6E788421AD96C6018E004986860E278A378110219430B4A698000231060E3565360032313815181A1788170E178C1706178417021780170042028800020C7E724
:403C000000030020D00800203EB515460C46022803D004280CD000203EBD0091019002206946088107484A81006816F0B0FC07E013F0DAFC044B0022DB68294620469847D1
:403C400001203EBDFC02002000030020014AD1609060704700030020034801688068081A0A21484300097047DC08002010B5FEF7D1FD482204490548FFF731F80349012051
:403C8000C870002010BD0000E4D10100E00C002010B5FEF7B7FD10BD0020704770B5134C2368002B08D0207B1149C20705D04008400020738868A08070BD88680B4AA188A0
:403CC00080B29268814203D90A4D691A091802E0814202D2411A5118A160A080A0689842EAD316F071FC00F013F870BDDC080020C0102E40FFFF000010B508461946FFF7BE
:403D0000A5FF10BD704710B5FFF77EFF10BD000003480021016041608160C16070470000DC080020024610B5FF20002A0CD0FFF7EFFF064C0321207B0843207310010A21EA
:403D4000FEF782FE2060002010BD0000DC08002000B504480A21806848430209FFF7D8FF104600BDDC0800200248007B8007C00F70470000DC08002010B54B490868002808
:403D800002DA4A4B01221A70022290430860484800694549C00B4031096A0246C907C90F0A4259D0012000F09FFB3F480E216C30FEF790FC3E4820218430FEF78BFC3C48F2
:403DC00014219C30FEF786FC3948FF21C131A430FEF780FC3648FF212F31B030FEF77AFC33483449BC30FEF775FC31483249AC30FEF770FC30492E48491CB430FEF76AFC1C
:403E00002B482E49B830FEF765FC29482C49CC30FEF760FC26482B490830FEF75BFC24482949A830FEF756FC214828498830FEF751FC1F4826498C30FEF74CFC1C48192183
:403E4000C9029030FEF746FCFEF746FCFEF7F6FCC0B2022812D01FE000290BD0002101420AD0114801216030FEF734FC0120FEF7C5FC97E70121F2E7FF2010BD154916487B
:403E8000FEF728FC14481549001DFEF723FC124800210830FEF71EFC54200449C043891C0870002010BD000000F02E401003002000002E40320300002F3F00003102000099
:403EC00010520000EC160000FA12000031D000003AE300009956000080012E40F80F000070B50646581C80B245086D00002408E0304600F0C1F81055000A1119A41C487042
:403F0000A4B2AC42F4D3D80705D0D0182038D15CC47FD454C17770BD30B50A4C002100195B1E07E0541864782502545C2C430480891C89B29942F5DB994201D1515C018038
:403F400030BD000000102E4010B5FF2000F0CCFA0F49FF2048700E481021801D41800121417001700A490020C91C4870FFF704FF04000AD100F02EF907210648FEF7A8FBD7
:403F8000044807211830FEF7A3FB204610BD000010030020CC112E4070B5002405465B1E0AE0284600F068F8010A161971702D1D1055A41CADB2A4B29C42F2DB9C4203D1B0
:403FC000284600F059F8105570BD000070B500210A4D5B1E0AE0541864782602545C344346193480001D891C80B289B29942F2DB994202D1515C4019018070BD00102E401F
:40400000F0B50599091FCFB200217E1E0BE0541864782502545C2C43164D45192C80001D891C80B289B2B142F1DBFC0712D01C78515C24020F4A0C4381180C809C785D7801
:40404000001D210280B2294384182180001D80B2D9780CE059781A7809021143054A84182180001DD9789B78090280B2194380180180F0BD00102E4001494018008870470C
:4040800000102E4010B50B490020487000F0A2F8002000F04FFA002000F03CFA07210648FEF716FB044807211830FEF711FB002010BD000013030020CC112E4010B50C48A8
:4040C000007801280FD101F023F900F0DDF8002804D10848016A490849000162054802213030FEF7F7FA02490020C91E087010BD1303002040F02E4010B50B46062812D071
:4041000006DC01280CD0032801D1FFF7BBFF10BD0A28FCD00B28FAD105480078107010BDFFF712FF10BD1146184600F01FFA10BD16030020F8B5244DAC6A0127A007234E04
:40414000002816DA307806280ED1286A384328621F480069F903084381B21D481030FEF7B9FA042000F0C0F9174802212830FEF7AFFAE00718D001F035FA01280FD10020E7
:4041800001F03EFB062000F0AFF91049FF20C91E48707078002802D1686B384368630A4801212830FEF794FAE0050BD53078042802D1052000F098F90348FF2101312830AE
:4041C000FEF786FAF8BD000040F02E401303002000002E4010B503212348FEF77BFA0120FEF708FB20483038406A204C80076178800F890001431C480C38FEF76BFA607800
:40420000002808D0401E022181401820FEF70CFDC000083800E0B82081B21548FEF75AFA1348032109021438FEF754FA10481149B830FEF74FFA612189010F48FEF74AFAE8
:404240000D480321001FFEF745FA0C490C48FEF741FA0B480B496038FEF73CFA084801218838FEF737FA10BD70F02E4016030020D8102E4090890000041E2E40FF0F0000F6
:4042800058122E4020900000044800684007400F022801D0002070470120704700010B4038B5FEF7CBFA01F0B7F803211948FEF711FA0120FEF79EFA16483038406A042127
:4042C0008007800F084381B2009012480C38FEF701FA1148016802221143009189B2FEF7F9F9B8210D48FEF7F5F90C48032109021438FEF7EFF9094C5321D83C2046FEF72A
:40430000E9F907210648FEF7E5F954212046FEF7E1F938BD70F02E40001F2E40D8102E4098142E4000B5FFF7AFFF002805D009480168C908C900016000BD0748016A490815
:4043400049000162054801690122D2039143016100BD000000010B4040F02E4000002E400849087806280BD148780749002803D1486B400840004863C86A01221043C862F8
:40438000704700001303002040F02E400121002807D005494A8842804A7842700978017000210846704700001603002001480078704700001303002002484078022800D000
:4043C000012070471003002000B50300FEF7B6FF080D050D0B070507090D012000BD032000BD042000BD022000BDFF2000BD0000074A9168D26889B2064B92B2994204D197
:4044000005498A4201D1012100E000210170704780002E4033D000003FE30000014948707047000013030020F8B504460120002C52D0217808294FD2617804294CD26088E6
:40444000102166283DD800283BD065882348662D45801BD801270026BF020A2D33D90A212846FEF7F1FAC0B2072800D907200A2141438D4204D9691ACEB21F2E00D31F2663
:404480004101314339431648FEF722F9134D60786870217829701349496A8A0781001148920F11432430FEF715F9687800280CD0401E022181401820FEF7B6FBC000083850
:4044C00004E06180C1E72946DCE7B82081B204482030FEF7FFF80020F8BD000016030020B8102E4040F02E4010B50446FEF78EF9072C01D9FF2C01D102480470FEF782F9E5
:4045000010BD00001303002001494870704700001003002010B5064A012805D01921C9021046FEF7D7F810BD1D21C902F8E7000090002E4010B50A4A141D012808D009490A
:404540001046FEF7C7F808492046FEF7C3F810BD04491046891CFEF7BDF80349491DF3E788002E4031D000003AE3000070B50C460546FEF763F9C0B202280E49287804D0F1
:40458000FF2810D04C280CD810E0FF2809D10A4AD0680004800F032801D0087807E09069000A553803E00878207070BD4F382070087070BD1203002000002E40F0B5012252
:4045C000002834D0002932D00424420600D00524792342065B06D21800D0641C034600221EE00C2516466E43124D00277519AF72104F002ABB51696007D0661EB24209D119
:404600000D4E86197606760E05E05E06760E8027BE1B00E080269B198919521C2E81D2B2A242DED303480549006B002288611046F0BD0000680B0020790200001C030020C2
:4046400018B50020694608700A48006900280ED0132149014018047E684604704F21C900054800F0A7F8A04201D0012018BD002018BD00001C030020EC080020F1B582B00D
:4046800000206A4610700299002903D101F06EF900283AD11E4F00240C2126464E43F519A97A01291DD11B49B859896988420BD14F21C900786800F07DF86946087013229C
:4046C00079685201891808762A89B9596868FDF7BBFF00280CD028200299002905D0282803D0641CE4B2062CD6D3641CE1B20AE00021A972F0E70C224A43D219927A012A3E
:4047000004D0491CC9B20629F5D3FEBD2820FEBD680B00201C030020074900200C2242435218927A012A05D0401CC0B20628F5D30020704701207047680B0020F8B50E00E4
:404740000446154609D0194F19497868A04202D94018A04201D38D4201D90120F8BD31462046FEF7ADFA00281ED02A4631462046FEF7B5FAE8B200210C224A43D21913894A
:404780005568EE18A6420BD90126641B1B1B9672834209DA1469C01A044AC0B220329676491CC9B20629E7D30020F8BD680B002079020000034610B50020024604E09C5C6B
:4047C0002018521CC0B292B28A42F8D310BD000070B500F063F8084C064A216907480D46FEF77DFA05492846FFF7E8FEFFF728FF207070BD790200001C030020EC0800200D
:4048000010B500F04BF810BD002070470020054A002902D0012902D002E0906000E0D060002070471C03002070B5084C154608460549E26889182A46FEF751FAE0684019D2
:40484000E06028B270BD0000EC0800201C0300203EB50A226946FFF7E7FF044606480A2200686946FEF72CFA002802D00020C0433EBD20463EBD000020030020002802D048
:40488000044A914201D2FF20704703494A61086100207047790200001C030020024800218160C160704700001C03002070B5074C15460548A26880182A46FFF73FFFA0686C
:4048C0004019A06028B270BDEC0800201C03002010B503490A220968FFF7E8FF10BD00002003002010B50F4A002313600E4A13600E4B18600E4801600E49012008600E492C
:404900000860000290600E490C4808600D4914300860FF381538506000F0BEF800F0CCF9002010BD500300203803002064030020680300205403002044030020B00C0020F2
:40494000480300205C03002000207047014610B50020002910D0094B1A689C685118A14209D25868196080188A0704D08A07920F891A091D196010BD002010BD3803002081
:40498000F8B50024164E671E321F3D463168136806E01422624310328A58521C1BD0641C9C42F6D36A1C14D02C461422544322460C3288500C214843FFF7C8FF3168002893
:4049C00008510AD031680020103408517068401C70602846F8BD2546E4E73846F8BD000048030020F3B50026F64381B000281BDB1E490968884217D80299002914D01B4F3A
:404A0000142204463F1D54432546396810354859401C09D0FDF7FAFE38682F1F4159C359994203DBFDF7EEFE3046FEBD214608310091465801590C20704308180C22029991
:404A4000FEF74DF90948761C001D0068C159B14200D100260549009A091D865008684159491C4151FDF7CEFE0020FEBD44030020002803DB07490968884202D90020C04319
:404A8000704704491422091D09685043103008587047000044030020F0B500200D4A451E0346171F50600FE014260146714314680E1DA3510C46166808343351166808341D
:404AC00035511468401C635039688842ECD30020F0BD000048030020F3B50026F64381B0002841DB2349096888423DD8029900293AD0204F142204463F1D5443254639684F
:404B000010354859401C2FD0FDF780FE3868415900292BD0211D009146580C21005971430F46C1190C220298FEF7D9F811480021001D0068761C00590C34C01901604160FB
:404B400081600C48001D00680159B14200D100260849009A091D865008684159491E4151FDF750FE0020FEBD3046FEBDFDF74AFEFAE7000044030020FEB504460D4600200B
:404B80001E49089E0860471E009001900290002C11D0486885420ED2002A0CD0002E0AD0642E08D808460C3001681C2068430C18207A002801D03846FEBD01202260207285
:404BC0001846FFF7DDFE6060401C13D06681A6810A4827610C3067610179A94200D205710021684601810A462846029B00F040F82846FEBD00202072DDE700005003002008
:404C000038B50124009400F039F838BDFEB50027164EFF433D4600240EE01C20316860430818017A002906D04068FFF721FF002801D0254603E0641C3079A042EDDA681C36
:404C400012D01C2130684D434419FDF7DFFD69466068FFF741FF0546FDF7D4FD002DD9D1216868468847D5E7FEBD00005C03002038B50024009400F001F838BD1FB50022B7
:404C80000C49541E0A60002811DB496888420ED808491C220C31096850430818406801A9FFF7A0FE401C02D0002004B010BD2046FBE7000050030020F0B50021114A4D1E62
:404CC000174611710C3F0B46BD6016E008461C2460431668041D355114680646235014680836A3551468361DA353044616680A34335318301468491C255078688142E5D399
:404D00000020F0BD5C03002038B500210091002811DB0F49097888420DDA0D4D04010C3529680859002807D0201D0818694600F06FF9002801D0002038BDFDF767FD2868FF
:404D40000F34015D491E0155FDF75CFD009838BD6C030020F7B582B0002502986E1E06602E48D21C024017462D4A2C4610460C380178106805E02301C358002B0FD0641CB8
:404D8000E4B28C42F7D3711C28D03401211D40180191039900F02AF900281FD101E02646F1E71F48016820460C300F521C480399026820460E3011541948039902682046E4
:404DC0000F3011540398784300F0A0F8144900280968085102D00024009011E001251AE00F48016801980818009900F02CF9002801D0012502E00098C0190090641CE4B20C
:404E000003988442ECD3002D05D10298066004480179491C0171284605B0F0BDFCFF000078030020F8B50D4600216A468C461180002839DB23490978884235DA214B0401A5
:404E40000C3319680A59002A2ED020460C300B5A801C0E5C184670438018954224D3854222D2002006E007465F43BF18AF4206D0401CC0B2B042F6D36046002814D0114E7B
:404E8000271DC8190C366A46294600F006F900280AD168460088012808D030682946C01900F0D1F8002803D00120F8BD0020F8BDFDF7ACFC30680F34015D491C0155FDF780
:404EC000A1FCF3E76C030020F8B50F46002400F031F8002817D10C4900220B460C334A600EE021011D680E466A501D680C36AA53B61C1D680F31AA551D68641C6A54E4B256
:404F0000BC42EED31A71F8BD6C03002000280BD0C01C074A81085068890053884118994203D893685160181870470020704700006C030020F8B5064600200F4D0090297068
:404F40000C0121466846FEF7BFFA00280CD129460C3100980860301B001F84B221466846FEF7B2FA002801D0FF20F8BD6C800098A8600020F8BD00006C030020F8B50028C8
:404F800027DB19490978884223DA174C05010C342168485900281CD028460C30085A009028460E300E5C401C0E5420682F1DC01900F064F800280CD12068002445590EE0B8
:404FC000094829460C300068C01900F03CF8002801D00120F8BD00982D18641CE4B2B442EED30020F8BD00006C03002030B50D4604000BD0A800FFF789FF6060002805D079
:4050000000202570C0436080002030BD012030BD70B50D46040005D0002D03D00220205E002801DA012070BDFDF7F0FB0221615E60688900405828606088401E6080FDF72F
:40504000E1FB002070BD70B50D46040007D0002D05D002212078615E401E814201DB012070BDFDF7D3FB6088401C00B26080616880000D50FDF7C6FB002070BD10B50400E4
:4050800009D0227800216068FDF732FE0020C0436080002010BD012010BDF0B500231D46002802D00224045F0AE00120F0BD46689F00F6598E4201D1012503E05B1CDBB2E1
:4050C0009C42F4DA15700020F0BD00000148007870470000800300207CB505460024FDF7FFFEA8796946087000A8062229460130FDF7F5FD0021684609F054F80C2806D04A
:40510000072806D01F2806D0122806D006E0022404E0042402E0272400E0012420467CBD10B50024FDF7DCFE0021084609F03EF80C2800D10224204610BD00000148012136
:4051400041727047E80D002010B502280BD0032802D0042809D102E000F0F2FC05E000F09DFDFF2801D100F0ADFDFFF71FF9FFF72BF910BD10B500F0D5FDFFF717F9FFF7A9
:4051800023F910BD10B50024FFF7F4FF012808D10548818B03E0481E0140641CE4B20029F9D1204610BD000060102E4070B504460025FDF795FE002C06D0A079012803D8FB
:4051C000214603F033FF00E00125284670BD0000FEB505460D208001019000200C460090002D11D0002C0FD0FDF77AFE1B48878B008B74218646194860380180002028702B
:4052000001461748844622E001200090FEBD0120884086B21148019A603810180388028800883E4211D02E78761C2E7023701B0A6370A270120AE2702071000A60717046BA
:40524000C840C007C00FA071E41D491CC9B2604600788842DBD80098FEBD000060102E40200D002001460120002902D0502008800020704770B5084D0024284603F01DF93E
:40528000002807D0FDF72CFE284600F0EDFD012800D1FE24204670BD480D002001460120002903D00248007808700020704700008203002001460120002905D00348542224
:4052C0000078504308800020704700008203002010B502460D49FE2048700324104615F079FC002810D115F01DFC00280CD10AF0F7F9002808D100F063FF002804D109F010
:4053000051FA002800D10024204610BD8003002002480021018280210180704700102E4042680121002A08D00268002A05D004494A600449406888600021084670470000B9
:40534000E80D0020800300207CB505460024FDF7C7FDA8796946087000A8062229460130FDF7BDFC0021684608F02EFF0C2802D01F2802D002E0022400E0072420467CBDF3
:4053800010B5FF2415F09EFC002804D115F0CAFB002800D1002403490020486002494872204610BD80030020E80D002070B50025044600280ED0A07901280BD8FDF790FD3E
:4053C000A0790028204602D004F0D6FA03E004F0ABFA00E00125284670BD0000014610B50120002904D006220248FDF778FC002010BD00008C03002001460120002903D04F
:405400000878024908700020704700008203002010B506F04FFA10BD10B5002404F0B0FC002800D00124204610BD7CB5FF24069E079D00280BD0002909D0002A07D0002E33
:4054400005D0002D03D0002B01D01B2B01D901240BE00096019506F047F8042802D0052802D002E0292400E0002420467CBD7CB5FF24069E079D00280BD0002909D0002A30
:4054800007D0002D05D0002E03D0002B01D01B2B01D9012406E00096019506F06CF8042800D1002420467CBDF0B589B015460F4606460124FDF714FD002E20D0002F1ED066
:4054C000002D1CD0102239466846FDF708FC1022314604A8FDF703FC1021684615F09CFA102104A815F098FA2B46102204A9684606F012F81021284615F08EFA0024204652
:4055000009B0F0BD10B508F0C9FD09F0A5FF07F053FF10BD10B508F0C1FD06F0B1FA09F0F9FD10BD70B592B00E4605460024FDF7D7FC03F0DFFE00280AD001F0BBF8002868
:4055400006D0002D0ED0EA7F1F2A03D9012409E002242EE000A829460130FDF7C0FBE87F69460870002E0FD0002C22D1F27F1F2A01D901241DE008A831460130FDF7AFFB1D
:40558000F07F08A9087001E0002C12D10020002D04D010A9684601F0DBF80120002E04D010A908A801F07CF901E0002801D001F03DF8204612B070BD70B505460124FDF747
:4055C0008FFC002D04D00821284615F001F80024204670BD10B5FEF7E9FE012801D1FEF7EBFE10BD0148007A70470000E80D00201CB5FF206946087100200870FDF770FCED
:405600006A4601A90620FEF777FD6946002008561CBD000038B504460120002C20D0617801291DD800290BD0FF25E535FDF758FC0C4828180088C0B22070072803D00EE077
:40564000FF25CD35F2E70020694608706846FEF7CFFE69460878012801D108202070002038BD000000102E4010B507480024807B002806D00448203002F050FF012800D1F7
:40568000FE24204610BD0000280D0020F8B5012406460D46002925D013480078002808D0FDF71EFC694630460DF07EFF040003D018E000200880F8BD6846008802F068F97C
:4056C00006000ED002F0F9FE00280AD00748F121807A0840C00602D5308A288002E0022400E006242046F8BD80030020E00C0020014A0021926810478003002008B500221E
:405700006B461A7026280CD0094A342852680BD0352805D1900703D5002135200AF0C4F808BD19462620F9E7D007F9D03420F5E78003002001460020002902D0024A5160D6
:40574000704701207047000080030020F7B582B001A90DF029FF05004CD1FDF7C1FB6846808802F015F9040043D002F0A6FE00283FD0FF278820493700593E46002805D0B6
:405780001E49897A890601D5878AC68A204600F089FB01280ED005F02DFF50210A5B617901F06EF9283081B233463A46204605F09DF909E00096264604994036328A3B46FF
:4057C000084605F071F9F08220464030C28A04998A4200D9C182C18AA07804F085F80398012801D901200390A078039904F048FA00E00625284605B0F0BD0000E00C0020EC
:405800000149087270470000E80D002010B501F09FF810BDF8B50E4669460DF0C5FE05001BD1FDF75DFB6846008802F0B1F804000AD002F042FE00280FD0E08A002E05D0BC
:4058400001210843E08205E0062506E040084000E0820221204603F071F92846F8BD0000F8B504460120002C26D06178012902D92278092A20D8002905D0FF25E5352078BF
:40588000092803D004E0FF25CD35F8E708202070FDF726FB2078114F114E08280DD00020FEF748FE70780128207810D00D4969180880FE2070700020F8BD0120FEF73AFE66
:4058C0000720B8810549203188800120F2E7B8810248217820308180EBE70000C0112E408003002000102E40F8B50E4669460DF05BFE050033D1FDF7F3FA6846008802F0F0
:4059000047F8040019D002F0D8FD002826D01548F121807A0840C00621D520464030418A008A491C41430804C00C0F4986420CD326822079072802D011E006250FE0012090
:405940000870204601F0D2FA09E0002E07D100200870A078002103F0BDFA00E002252846F8BD0000E00C00208003002010B509480024807B00280BD0FEF718FD062801D008
:40598000032800D12824FFF76FFEFE2800D12824204610BD280D002070B50E46050001D0002400E00C4C002C11D0E28A500609D5D107C90F022004F043F9E08A4021884381
:4059C000E08204E0D107C90F012004F039F93146284603F007FD70BD480D0020F8B50546002004460D4E009013E022466946284601F0A4FA0098002801D015F0CDF8A8781D
:405A0000214603F0F7F9A878214603F0E5F9641CE4B2308AA042E8D8F8BD0000140E0020F7B58E462249086820308078002802D08446002338E0FF20FEBD1D4821210068D0
:405A40000D5CE9000A1856799779D47912794058B2420DD315F0A0F81548006820304178491C8907890F41708178491E8170E2E78118B61A0098F6B20160BC4212D1A642F9
:405A800004D290197146C0B20E7003E010197146C0B20C700299EA000D70054909685118087103E05B1CDBB26345C6D30020FEBDE8030020064A02235188891C89B251805F
:405AC000814201D8102900D9538050887047000092030020014840787047000092030020F8B50D460446FCF791FE144E3068034620339A78042A1CD0E178A77809020F4311
:405B00001978521C491C8907890F19709A70CA00845010184771316800205118087130681018C571306810188571FCF76BFE0020F8BDFCF767FEFF20F8BD0000E803002019
:405B4000F8B54E4CFEF732FC012847D14C480078002843D003F0CEFB00283FD007F0A0FF00283BD0474E7078C00703D000F0A8FD012833D0307E00287DD170780025002846
:405B80005BD0000706D540488089070B00F02EF9384370D13B484178684605F035FD21793A4CA2788918C9B2814262D803F0A2FB002860D0344860300789324E203603F0B1
:405BC00009F96846008803F051F903F029FA30490988884203D10120FEF786FC4BE02D49012008702748807B00281DD0002F1BD04036F07E002817D1234860300088214926
:405C00004000C031498981420AD26078002807D104F054F82049088A03221202104308822078002800D0257003F082F90120FEF7F5FB00F0B1FC174C15E003F05BFB00289A
:405C400019D0102403F0ECF9214603F07BF803F00DF9104C0120207003F06AF90020FEF7DDFB00F099FC20780128B4D1FEF75AFB25700020F8BDFF20F8BD0000200D002079
:405C800010030020280D0020A0102E40AA030020BC03002092030020E0112E4010B50848FF244078002809D103F024FB012805D1FEF704FA0720FEF717FC0024204610BD02
:405CC000280D002038B5FEF771FB012801D0002038BD03F00FFB00280AD0114C6078C00703D000F0EDFC012802D0207E002801D0FF2038BD617800290FD0684605F084FCA1
:405D0000022806D96846008803F0B0F8012003F019F90320FEF7E8FBD9E70020F7E70000280D002038B51E4CFEF740FB042813D0052811D0062812D003282AD007280AD172
:405D400000206946087002460120FEF7D5F9FEF72DFB0128FBD138BD00F03EFC38BD03F009F900F039FC03F095F98007800F0228F4D10C4841880029F0D05B21095D0029D9
:405D8000ECD101210170A07D0140022003F058FF38BD03F0F3F80120FEF7A6FB38BD0000480D0020AA030020F8B50646002403F0C5FF0546304603F0DBFF03460A480021EA
:405DC000068A0DE001228A401046174628401F40002803D0002F01D1224394B2491CC9B28E42EFD82046F8BD140E002070B500252C460A4E03E0002C01D0002000E03046DA
:405E00000079002803D02046FFF7CEFF0543641C2406240EEFD0284670BD0000480D00201CB50020694648706846FFF7F3FB01AA69460A20FEF760F96946042008561CBD0C
:405E400070B50D4601F0A4FD04000BD02079002808D0FDF745F8E178A0782A4603F070FB002070BD022070BDF8B50646002402F039FB05000CD1074F07E0B178204600F0B3
:405E800013FA012805D0641CE4B2F889A042F4D22846F8BD140E00200148007870470000200D00204030C07E002800D00120704700B500F001F800BD902148430749084AB7
:405EC00040186030417F491CC9B24177D289914201D300214177C8B270470000280D0020140E002013B501F053FD04000BD002F0E4FA002807D0214601AA0A310620FEF7A0
:405F0000FBF800201CBD02201CBD000010B50C4601F03EFD00280AD002F0CFFA002806D0224604490A20FEF7E7F8002010BD022010BD0000090D0020F3B581B0074601464A
:405F40000026029803F0F2FE0446002F01D0002500E0154D002D21D0284601F04FFD032C04D13946029803F03DFF06463846029902F032FF032C06D0002C10D0012138467F
:405F800001F02CFF03E03146384604F0F5F9284602F0BAFD0221284602F0D0FDFEBD3846029902F019FFFEBD480D002010B5044600F0DAFA002804D105F060FA002801D07E
:405FC0000C2010BD2078611C03F0DEFBFF2801D01F2010BD03F024FCFF280AD02178621C02F082FE044821780068026B601C904710BD072010BD0000D003002010B505F0AB
:406000003DFA002801D00C2010BD03F09FFB03480068C06A8047002010BD0000D003002070B50D460446102114F0F6FC10216018064614F0F1FC334610221946204605F0F2
:406040006BFA1021304614F0E7FC02202870204608F0CCFA70BD0000F8B504464078217802028006870FE0781143A67809050002090D0643084601F08BFC00210546F2B2AB
:40608000002812D0002C10D0022F0ED0032F0CD0002A0AD00279092A07D0002A05D0134A5A23527E1B5C9A4207D82889002108F08AF9204614F070FDFF21002914D10C48A3
:4060C000224600682946436930469847C0B2FF280AD128464030817EF2B2491C8176FF232146284600F00DF9F8BD0000E00C0020EC0300200020704710B5044605F0BEF9C0
:40610000002801D00C2010BD2078611C03F03CFBFF2808D003F068FA044821780068426B601C904710BD1F2010BD0000D003002010B500F0ADF908F035FB002010BD000051
:4061400010B504460F4802F0E9F9012817D00D4805222146B030FCF7C2FD0A490522B0310846C038FCF7BBFD01F016F8054880222038C17B1143C17300F0C6F910BD3A2034
:4061800010BD0000480D002010B5044600786178E2780843A17811430843217908436179084305D005F054F9002803D00C2010BD122010BD204603F0DFFB002010BD0000AC
:4061C00010B5FCF73BFB03F0DBFD044805F036FB03F014FA012000F003F810BDF00C0020F1B586B003A8009005A801902A489F22817A114081726846FCF7F2FE002849D1E4
:4062000069460989C90705D0244806990068C2686846904769460989890706D5002839D11F480068816A06988847002832D11D4E0025757075737571F575357675767575F9
:40624000B570F570B5713746F5730120D03738731F20F880FF2130467972A0300176457600F03EFB04F004FE02F008F900242046069902F0B5F8002803D1641C2406240ECA
:40628000F5D0FD720749BD72B573C0310D704D704D600D7207B0F0BDE00C0020EC030020D0030020280D002070B505460E46084603F044FD0446304603F05AFD0121A9408A
:4062C0000A46224001400A4301D0012070BD002070BD10B50446084603F04AFD0121A140014201D0012010BD002010BD10B5FEF75DF8032804D102F041FE0120FEF7F4F827
:4063000010BDFEB51C4616460F46054602F0FCFBA878FFF7CDFD02460190334639460094284600F00DF8002808D1A8780199FFF733FBFF2C02D1384614F02EFCFEBD0000AA
:40634000FFB585B005460E980C46FF2810D02B49C00009680A5840180179C0795278814201D9012601E09006860F6846038108E06078A1788006860FE078000201436846CC
:406380000181284602F0AEF8070007D021462846079A00F060FD384609B0F0BD304600F065FE04AE0346039002AA29460096204600F027FC3C20405D002818D0284602F0E6
:4063C00091F8012813D0684600890096C0B20190A878231DFF22079902F0B8FF68460089039BC2B2A878079903F0F2FBD3E7684600890021C0B20091E9E70000E803002095
:40640000F8B5002600253046FFF7CEFC07001DD090201149704340186030447F12E0601CFCF712FBCCB23846E040C007C00F07D02146304602F0C6FC21463046FFF77CFDFE
:406440006D1CEDB20548018AA942E8D8761C3606360ED7D0F8BD0000280D0020140E002070B50024094D03E0002C01D0002000E028464121095C012901D100F0A2FC641CAE
:406480002406240EF0D000F03FF870BD480D002010B503F0B3F80020FFF7A2FE14F012FC002010BDF8B5002400F004F90125012800D1012404F078FC012801D10220044310
:4064C000104F00203E4620360423082203E0002801D0002100E031460979002907D001290BD002290BD0114681402143CCB2401C0006000EEBD07C70F8BD2C43F7E71C439F
:40650000F5E70000280D002070B5144E0024F07BC00921D03546203503E0002C01D0002000E0284601F0D4FF012814D0641C2406240EF2D0F07B4006400EF073002403E064
:40654000002C01D0002000E0284600F03AFC641C2406240EF4D0002070BD0000280D002010B5FFF79FFF10BD10B5044608F002FB002802D1601C00F001F810BD1CB50024FC
:406580000094062269460194FCF79AFB002800D1122420461CBD000070B50E4CFCF74DF80546FDF703FF062802D02078012803D02846FCF746F870BDFCF79AF92846FCF7A6
:4065C00040F8FDF7F3FE0628F5D020780028E5D170BD00009203002010B5FCF72EF80446FDF7E4FE012809D0FDF7E0FE022805D0FCF77EF92046FCF724F8EEE72046FCF755
:4066000020F810BD10B50B4681791943817103D08078114603F062FA10BD10B582798A43827102D1807803F06DFA10BD30B50C4C0220A28A0B4B9978002901D0022906D179
:406640001D785B78EB18282B01D9032002E0032900D101205105490DC0020143A18230BDC0112E40A003002000B500F029F8002807D0012805D0032801D0042801D00020BF
:4066800000BD012000BD014600B50020C90701D000F010F800BD014600B50020C90701D000F008F800BD000001480068704700009803002001480088000A704720102E4010
:4066C0000448008B410501D5042070474007800F7047000000102E4010B502F0A1FC044602F0E8FC0146204602F0C2FC10BD000001484068704700009803002038B5044689
:40670000000610D5FFF7DCFF01280CD1684602F045FC6846007800F0A2FB012002F070FA0220FFF71DFF600708D507480179012904D1002101712620FEF7E0FF03480068E6
:4067400001692046884738BDA4030020D003002070B505460C49007800240870FFF7AAFF012803D1FFF7B8FF022803D3284603F06FF807E0284600F0F7F8040002D103488B
:4067800001210170204670BDA0030020E80D002070B50446FFF78EFF002801D00C2070BDA27B01211F48002A827801D00A4301E05208520082706279012A14D0C1784908BC
:4067C0004900C170184D2868016820468847207901280CD06188208804F062F92080207904280FD015E0C2780A43C270EAE72868C168E01D8847E01D03F0AAF80B48808CD5
:40680000208006E02868C168E01D8847E01D03F09FF8074920798870204603F027F8002070BD0000280D0020D0030020E00C0020A003002008B50178FFF73CFF814201D10D
:406840000C2008BD002914D0072069460870FFF70BFF012807D10121684600F0E5F8012801D0092008BDFFF7E1FE03F033F8012011E0FFF7F9FE012806D1684602F08EFB2B
:406880006846007800F020FB03F01AF8FFF712FF0028FBD10220FFF763FE002008BD000070B505460C49007800244870FFF702FF012803D1FFF710FF022803D3284603F0D6
:4068C000EDF807E0284600F069F8040002D1034801214170204670BDA0030020E80D002038B5684614F0EEF8002801D01F2038BD01210098C90201804180002505714571E3
:40690000857107214173857302F0B0FF009C202200212046FCF7ECF925702A460021601CFCF7E6F9204602F093FF204603F0B6F8009814F031F9062200210448FCF7D8F92B
:4069400002480C388560002038BD0000A4030020034A918A042319439182024948807047C0112E40A4030020F8B5044600256846009514F0A7F8002801D007250AE0064E95
:40698000009830602278611C401CFCF7A8F93168207808702846F8BD98030020F8B5044600256846009514F08DF8002801D007250AE0064E009870602278611C401CFCF708
:4069C0008EF97168207808702846F8BD980300200346084800B5834209D8184600F0D8FF002804D00089984201D1012000BD002000BD0000FF0E0000074A9179491C8906E8
:406A0000890E917138220A4092014907090E11430843024908407047280D0020FF0E0000C006C00E70470000F8B507460E4600240D4803E0002C01D0002500E005462979F0
:406A4000002905D0641C2406240EF3D00020F8BD0021204601F0C4FC2E712046FFF7CCFF28813C700120F8BD480D002010B504F0C1FD0222002100F003F802F04FFD10BD54
:406A800010B5094B40074907000F090F185A595A40185043C0086421FBF7D6FF002800D1012080B210BD00002CD20100F7B53D20405C88B015460C46002802D02878042873
:406AC00002D200200BB0F0BD6946087200262046FFF7E8F9012800D00126204603A938300191009023460327A17E34333246206A04F0C4FE02A8089900900B4601912046FD
:406B00003A4603A9243004F0CFFC02466846007A2870204601F050FC1046D3E7FFB587B00C4605461078694608723D20005D1746002826D000262046FFF7B4F9012800D0C5
:406B40000126204603A93830019100902346A17E34333246206A04F091FE02A80090291D019120462B1D03A924300A9A04F09CFC02006846007A388002D1204601F01CFCCA
:406B800010460BB0F0BDF0B505463C20405C89B016460C4600280CD0307869460873002806D000272046FFF77DF9012803D003E01F2009B0F0BD012703200890204604A901
:406BC0003830019100902346E17E34333A46E06904F054FE6846007B03A928180290009120462B46019504A92430089A04F0A8FC02466846007B3070204601F0E7FB10464D
:406C0000D7E7FFB505463C20405C89B016460C46002810D0084601F065FC01280BD0308869468883002809D000272046FFF73AF9012805D005E000200DB0F0BD0220FBE772
:406C40000127204603A93830019100902346E17E34333A46E06904F011FE291D2B1D07A8129A6D4607C5204603A924300C9A04F067FC02466846808B3080204601F0A6FBE1
:406C80001046D9E710B518490446484028D0002101231A468A40904221D0491C2029F8D300212046C840C243520618D0400616D0491C1929F5D3A0B2210C020AC3B28842EA
:406CC00001D193420BD01F21204600F0D4F9182805D8A00E062100F0CEF9022801D2002010BD012010BD0000D6BE898E70B50D460446FFF7D7F801280AD0E87AA97A000272
:406D00000143A07802F0D4FA012808D0002070BD00222421204603F0FFFD242070BD28214C200155204600F03DFD282070BD0000002801D0002000E003484030C07F012890
:406D400000D0002070470000480D00200146002049070ED50021084B03E0002901D0002200E01A461279022A04D0491C0906090EF3D0704701207047480D00200146002066
:406D800049070ED50021084B03E0002901D0002200E01A461279022A04D0491C0906090EF3D0704701207047480D002010B5044680346068002803D013F002FF00206060A6
:406DC00010BD38B50546002000902846FFF76AF801281FD1284601F070FB00281AD028792C46C01E40340300FCF7A8FA07050511110511141100284601F07AFB012806D0E5
:406E0000684613F06FFE002805D0012008E060780028FAD038BD2846009903F01FFC0220607038BD40304170704740308170704770B50546403528780C46052904D0002C7E
:406E400005D1801E022802D8022003F0D5FD2C7070BD0171704792001018C166704770B53C2501F0C3FD040004D020460021433002F04AF9FF222946204600F033FD002CA9
:406E800002D0A07801F02EFD70BD000010B5002801D0002000E00348002802D0008907F006FB10BD480D002010B5002801D0002000E00448002804D00179072901D100F067
:406EC00093F810BD480D002010B501F08FFD002802D0807801F006FD10BD10B54121095C012901D1FFF76DFF002010BD70B50546008A00281ED01049F122897A1140C9065A
:406F000018D5294640314A8A098A521C4A4392B2D10800D10121540801E0621A94B2A042FBD9FEF7D3F8012804D1298AA878224602F094FA70BD0000E00C002010B50023C3
:406F4000054C0B60248A944204D992001018C26E0A60C36610BD0000140E0020FEB5064600200090019080208559684613F0BAFD002801D00720FEBD20213046009FFFF71B
:406F80004CFB34464034A08AE080608AA080208A2081304603F0C0FDA88C218A884207D1288A618A884203D1688AA18A884203D0F07920210843F071688AA082288A608223
:406FC000A88C2082E98CE182FEF774FDE081208AFEF780FD60733946304603F067FB0120A0700198FEBD000038B5044600200090A079002814D14020015D052901D00E295D
:407000000ED1684613F06EFD002809D12046009903F060FC03481021C28A2046FFF7F2FA38BD0000E00C002010B50446807803F0A3FD204601F0E2FB002010BD10B50B4623
:4070400004460146184602F008FF002802D0204613F0ACFD10BD13B5044601AA11460620FDF74AF86846818861811CBD002800D102207047704770B500231A46491E0CE0E9
:407080000446D440E507ED0F541C0646E640F407E40FA54200D05B1C521C8A42F0D3D8B270BD0000F8B504462346401D543300909A1EA078911E01F095FF25464035A88AEE
:4070C000298A8000FBF7C0FC401E81B2688A884203D96982A07802F0FDFD698A8C20015120460021433002F00FF827480088E88104F080FAE989891C8AB26179FFF7C0FC06
:4071000002F00CFA04F076FA2A8A6179FFF7B8FC074602F0F7F9688A002806D01B49088A032212021043088202E0002002F0C6FD1648803801886E8A002E0CD03046484337
:407140001349FBF771FD0004000C01D0401C80B21049488002E00F4800214180288A704381B2A07802F0A8FCFF2228374932B9B21346204603F0BAFCE98AA07802F0B4FB68
:40718000A07801F067FEF8BD80102E40E0112E4071020000AA03002030B50021124C0A46A05C002308E0C50701D0491CC9B201290AD840085B1CDBB20028F4D1012903D88D
:4071C000521CD2B2052AEBD302290BD207488118C87B0122082B03D29A400243D0B200E01043C87330BD0000F80D0020280D00207FB504468034616805460E4618310822CF
:407200006846FBF76CFD31462031082202A8FBF766FD1021684613F0FFFB60681021083013F0FAFB60682B46083024331022694604F072F97FBD10B504460821FFF7EDF9F7
