:400000000080002011000000CD010000CD01000008B500F03DFA00F0E1F8000038B572B680250024204BED001C602A1C211C1F4800F021FD2A1C211C1D4800F01CFD022108
:400040003C201C4B1C4A1C601C4B1C6013780B431B4913700B788343283803430B70162113781C300B4313701222164B1A6000F081FB154A154B16491A60164B063A1A60C1
:400080008022154B12031A60082000F049FB082000F04EFB114B124A1C6003231360114A1360114B1C6038BD6CF02E4000300F4000400F400000024000700F400800044065
:4000C00001700F40300010400600008004010B403909000008010B4000010B400C020B403000304030003140000E3F400000000000000000000000000000000000000000E1
:4001000010B5064C2378002B07D1054B002B02D0044800E000BF0123237010BD6001002000000000900A000008B5084B002B03D00748084900E000BF07480368002B00D130
:4001400008BD064B002BFBD09847F9E700000000900A000064010020D0000020000000000047000000B50121C1B00B2000F0A8F8C1B2002913D001231148994300F083F818
:40018000802200215200684600F075FC0D48694600F04CFA80220C4B1A6000F0D5FA112000F0B4FAC30701D4002805D10021022000F086F8FFF7D4FF00F0D4F9FEE7C04621
:4001C000DCFE0300FE030000C000002008B500F01DFC03680C2B00D1FEE7FEE770B51049104B01394A1C15D000221E685C689D68A018AA4203D0B058A0500432F8E7021CCD
:40020000DC68151AA54202D0002520C2F9E710330139E7E700F000FCFFF7A4FFFEE7C04601000000E80A00000121104A10B51368141C8B43136000239A000D49032B01D8B6
:400240000C4989580C4801338150302BF4D1FFF7E5FE0022094B1A60094B1A68002A00D11A60012223681343236010BD00001040CD0100000000000000000020C800002041
:40028000C00000200047F0B5FF23051C9D432B1CC3B06E1C0191040AFF361A789446614602AA571BF9540133B342F6D16B461B79C0B21354111CA0B200F0B8F943B0F0BDEA
:4002C000013800B50B282FD80902494200F094FB06080A0C0E10141216191B20154B13E0154B16E0154B0AE0154B12E0154B0BE0154B09E0154B02E0154B00E0154BC91853
:4003000013E0154B05E0154BC9180878C0B210E0134BC9180A7848788B7800021B041843CB7810431B0603E000210B7848780002184300BDC0FF0300C1FF0300C5FF0300FE
:40034000C9FF0300D0FF0300D1FF0300D6FF0300D2FF0300D4FF0300D8FF0300DCFF0300E0FF0300F0B50121C7B00B20FFF7A8FF0021C3B203200393FFF7A2FF031C0133B2
:400380009AB23D4B02909B1A5B08D3189BB2042001210493FFF794FF030A9BB2C0B20093002802D001339BB200930026341C009BB7B29F422CD20325049BFB189BB21B0217
:4003C0000193029B581C019B38180133FF330593019B80B21978019C8C46624606A90C1BE254059A01339342F4D100F01FF9041E0CD0013DEDB2002DE3D1012303991F4894
:400400009943FFF740FF281C00F09CF90136CEE7002C2BD11A4B06AAE3181B78A354802301345B009C42F5D10026FF3B3DAA1370144A06A916703AAA1370D1220E485218E6
:40044000137000F0F3F8311C051C221C06A800F012FB0D4806A900F0E9F80543B54205D180220A4B1A6000F06FF902E0002000F069F947B0F0BDC046FF030000DCFE030037
:4004800000FE0300D4000020FE030000C000002038B5184B184D1A681023134000D12B602B68802B25D100210520FFF709FF0121041C0520FFF704FF0023E4B2C0B29C426C
:4004C00004D01C1C984205D0033403E0441EA0410224241A0220211C2B60FFF7F1FE002807D0012C05D8211C0220FFF7E9FEFFF7C9FE38BD00030B40C000002070B5061C45
:400500000320311CFFF7DCFE311C041C0420FFF7D7FE051C012E01D9062021E00134311C24020320FFF7CCFE61190024251C431C1B028B4209D21A78501EC0B2FD2800D8D1
:4005400001251219D4B20133F3E70120311CFFF7B7FE6442E4B28442DED1002DDCD0002070BD0000F8B50B200121FFF7A9FEC30701D5FFF7F7FE0020FFF7C0FF051C01206D
:40058000FFF7BCFF0223254C071C002105202370FFF796FE0626012808D1002D02D125702E1C03E0002F01D13E1C20702378022B0ED105200121FFF783FE012808D1002FFD
:4005C00002D120703E1C03E0002D01D12E1C25702378022B08D1002D01D1257006E0002F02D10123237001E0002E12D12478E4B2012C08D801210A486140FFF744FE0948DA
:40060000211CFFF740FE8022074B1A6000F09CF8F8BD002000F096F8F5E7C046D4000020D0FF0300D0FE0300C00000200023F0B5C7B0029303932C4B98424FD800294DD083
:400640008022051C520006A800F00CFA274B9D4201D8274B00E0274B0493FF23264C2749274A04AE736026600A60C04622680191120F0F2A02D12268134005E02268002394
:40068000120F0A2A00D023680293029F002F27D100F0ABF90397029B002B18D1194A2D040492049A184915430495019D2660124A2960C0462168090F0F2902D11368DBB271
:4006C00004E01168090F0A2900D013680293039B002B00D1039300F08CF901E004230293029847B0F0BDC046FF030000FF010000B6D70000B6D70001080010400400104023
:4007000004000080B6D80000050000801923021C02491A40086818400A60704700030B40024B8000C318186819607047400000201F2318401E3B8340181C014B18607047CF
:4007400000E100E001BE7047034A044913689BB20B4313607047C0460CED00E00400FA0508B5034B1B7B584300F036F908BDC046E0000020F0B5051C87B000F036F9EB1E3B
:40078000049003932D2B5BD8304B1B789D4204D82F4B1C782F4BE4B21EE02F4B1B789D4204D82E4B1C782E4BE4B215E02D4B1B789D4204D82C4B1C782C4BE4B20CE02C4B85
:4007C0001B789D4204D82B4B1C782B4BE4B203E02A4B1C782A4BE4B21B78039ADBB20193284B294F9A5C059302922F2A04D92A2D02D919263E6008E03F233E681E40029B10
:40080000B34205D2204B029A1A60052000F0E4F81B4B1E4AED182B780520DBB213601C4B019A1C601B4B1A60FFF79AFF029BB34206D9059B039A05209B5C3B6000F0CCF8D9
:40084000049800F0D6F807B0F0BDC04640F3FF0F41F3FF0F42F3FF0F43F3FF0F44F3FF0F45F3FF0F46F3FF0F47F3FF0F48F3FF0F49F3FF0F4AF3FF0F4BF3FF0F4CF3FF0F19
:400880004DF3FF0F940A00002CFF0B4028FF0B401CFF0B4020FF0B4008B500F0A6F8C021034A090213680B43136000F0A2F808BD00010B4010B5802400F097F80749084BAE
:4008C0000A68E4011A4022430A600A6813408022120213430B6000F08CF810BD00010B40FF3FFFFF70B5051C00F07FF80E4B041C1A68C0231B02134011D10C480C490540A8
:40090000281C0E680B4A3240104308600A68012B01D1FFF7C1FF201C00F06BF870BDFFF7C9FF0123E9E7C04600010B400404040010020B40FBFBFBFF042238B5224C236830
:40094000134213D021494B6813420CD0204B5D6A48681540A8434860596A914359629B69002B00D098470420FFF7BCFF80232268DB001A4215D015494A681A420DD0144A32
:40098000556A48682B4098434860516A114B0B405362D369002B00D098478020C000FFF7A1FF80232268DB021A420CD0074A52681A4204D0064B1B6A002B00D098478020EA
:4009C000C002FFF78FFF38BD10020B40F40000207C010020FFFBFFFF0230800803D00138FDD1C046C046C0467047EFF3108072B6704780F31088704702B47146490849003F
:400A0000095C49008E4402BC7047C046014B18687047C0465C0100200E4B70B500251E1C0D4CE41AA410A54204D0AB00F35898470135F8E700F046F8084B00251E1C084CF4
:400A4000E41AA410A54204D0AB00F35898470135F8E770BDD00A0000D00A0000D00A0000D80A0000002310B5934203D0CC5CC4540133F9E710BD031C8218934202D01970E8
:400A80000133FAE770470000000C0000DB00000000000000030405060708090A0B0C0E0F101112131415161718191B1C1D1E1F2021222325262728292A2B2E2F30313233FC
:400AC00034354300F8B5C046F8BC08BC9E4670472901000029020000F8B5C046F8BC08BC9E46704701010000F80A0000D0000020900000004800000000000000020000009B
:400B0000880A00008C0A0000010000000000E02EC05D00001800000000366E01F00000000404040000000000000000000000000000000000000000000000000000000000A8
:400B400000000000C20A00000000000000000000000000000000000000000000000000000000000000000000000000000000000000000000000000000000000000000000A9
:400B800000000000FC000020000000000000000000000000000000000000000000000000000000000000000000000000000000000000000000000000000000000000000019
:400BC00000000000000000000000000000000000000000000000000000000000000000000000000000000000000000000000000000000000000000000000000000000000F5
:400C000000800020110C0000811800008118000008B5024B83F3088800F052FE00800020F8B572B6802600242E4D0227F6002C60211C321C2C4802F05BF8211C321C2B48CE
:400C400002F056F83C202A4B2A4A1C602A4B2B491C6013782A4E3B4313700B788343283803430B70162113780B4313701222254B1A6001F089FB244801F0D6FC012001F039
:400C80008FFB302001F0AAFA204A214BFA201A608023204ADB0533601368C0001F4317601D4B1E4A1A6008221D4B1C602B6893432B6001F025FB1B4801F086FA80221A4B8F
:400CC00012061A608022194B12031A608023DB0533600323164A1360164A1360164B1C60F8BDC0466CF02E4000300F4000400F400000024000700F400800044001700F406E
:400D00000C020B4030001040001BB7000600008004010B4078002E407C002E402D3E000064F02E40DC05000008010B4000010B403000304030003140000E3F4010B5064CCF
:400D40002378002B07D1054B002B02D0044800E000BF0123237010BDE006002000000000ACC8010008B5084B002B03D00748084900E000BF07480368002B00D108BD064B85
:400D8000002BFBD09847F9E700000000ACC80100E4060020D0000020000000001FB5282836D00DD826282FD01ED8012849D1002000F090FE002301A8837102F091F840E081
:400DC000412829D008D82D283BD11E4B00211878012212F017F834E042282FD04F2830D1002014F041FD2CE04B88062B29D9062301A90B804B8000238B806433CB80114B04
:400E000018780FF0EDFE1CE00F4B1B78042B18D1002000F05FFE14E00C4C0222201C01F05EFF0B4B01A90B810023607801938B8023780002184314F0FBFC02E00022034B65
:400E40001A701FBD1E1A00201C1A0020101A0020052A000007B500F089F862B600F030F8012000F0C3F9002808D1134B1B78002B04D1013000F078FD01F084F90F4800F07E
:400E8000BDFD002802D0032803D1FEE701A802F02BF800F08BF902F034F8052000F0D8F9052001F07BF900F017F800F08FF80028F1D000F091F8EEE714FE03009D0D00006E
:400EC00008B504480378002B02D1012100F0E6F808BDC0460AFF030038B5194B194C1D782378AB4202D001232570638063880F2B06D1012000F07AF9002801D000236380E9
:400F00006388022D10D0002B01D00133638063881D2B14D9FA20400001F040F9012000F023FD01F02FF90AE0002B05D0064A1278012A01D00133638063883B2BEAD838BDD7
:400F40001C1A0020D40000204C08002008B5064B04201A6801321A6001221A7101F002FB01F098F808BDC046FC06002010B5002401F04AFA134B14481C6001F077F8201C58
:400F8000012101F065FA8021201C090201F0C6FA201C012101F07CFA082001F0A5FA0120142101F0BBFA0120022101F051FA0120011C01F06DFA0220FF3001F07FFA01F0EB
:400FC00015FA10BDFC0600204D0F0000014B1879C0B27047FC06002008B501F015FA012001F0F8FA01F002FA0022014B1A7108BDFC06002010B5044C2378002B03D103F03F
:4010000035F90123237010BD04070020002310B5044A01329C5CC25C6240CA540133102BF6D110BD04070020F0B50023071C89B00024124D6A1C9C540133102BF8D13819C0
:4010400004A9FFF7E3FF2E1CFFF7D4FF0C481136011C361903AB1031019304AA1023009604F07FF9681C311C102201F038FE802310345B009C42E2D109B0F0BD04070020DD
:40108000B0C80100002310B5002A05D0013A4418A45C1B19DBB2F7E7181C10BDF0B5FF23051C9D432B1CC3B06E1C0191040AFF361A789446614602AA571BF9540133B34211
:4010C000F6D16B461B79C0B21354111CA0B200F0E9FF43B0F0BD0000013800B50B282FD80902494201F016FC06080A0C0E10141216191B20154B13E0154B16E0154B0AE08E
:40110000154B12E0154B0BE0154B09E0154B02E0154B00E0154BC91813E0154B05E0154BC9180878C0B210E0134BC9180A7848788B7800021B041843CB7810431B0603E011
:4011400000210B7848780002184300BDC0FF0300C1FF0300C5FF0300C9FF0300D0FF0300D1FF0300D6FF0300D2FF0300D4FF0300D8FF0300DCFF0300E0FF030010B5002133
:401180000520FFF7A9FF0121041C0520FFF7A4FFE4B2C3B2002C03D0181E05D0032003E0581E83410220C01A10BD000010B50D4C44342378002B13D1FFF71CFFFFF7DEFF2A
:4011C000094B587059781A1C022907D05978032904D05A781A700123237001E00223137010BDC04604080020D8000020F8B5061C0320311CFFF770FF041C311C0420FFF73B
:401200006BFF01342402271800240320311CFFF763FF251C01300002B84209D203785A1ED2B2FD2A00D801251C19E4B20130F3E70120311CFFF750FF6442E4B20623844225
:4012400003D16A4255416D422B40181CF8BD0000F0B5BC4C0121A54402900220FFF73CFF059000F07DFE62B60A230393029AFF23002A00D0131C96210EAE07AC301C49003B
:40128000221C00F0B5FE029B051C002B03D0039B013BDBB20393FFF799FE002801D0FFF79BFE039B002B02D0002DDFD101E0002D7BD12488062C00D857E233780420012BC3
:4012C00043D1F578B2782D021543EB1DA34200D94DE296225200934200D948E273195C7919799B79172B30D100232A1892B2002A09D0A4A8944F8018C0190078013A1B1869
:401300009BB292B2F3E75B4222029BB20A4308209A421AD157E08D4B45331B78012B00D023E28B4B2B40032B00D01EE2B7797679032D06D02F2104ABEA1E59A8C91801F09F
:40134000CEFC0920012C00D8B8E000240E2204ABD21801230EAD2B70230AEB700023211D14806870AC7089B2002909D0A4A8764E40188019007801391B189BB289B2F3E780
:40138000A4A9744809195B4208189BB2037072481B0A08180370714B0734CB181721281C1970A1B2962300F0F3FD029B002B00D15CE7664B45331B78012B00D156E7A523AE
:4013C0009B009D44F0BD72783479101C313814282DD95E4B05201C6C002CB7D045331B780520012BB1D104AB5D820AAD1A740FAE00210C22281C099601F07AFCAE6008A888
:40140000291CA0472623AC88FF339C4202D9AB68B34207D0AB68002B01D1002C04D12868C0B293E70E2090E70E201C1C8EE701F07BFA32004F0074009D001D0127014101AC
:4014400058019D0070017F011500D0FFD0FFD0FFD0FFD0FFD0FFD0FFD0FF72FF3B4B45331B78012B00D080E1012D00D07DE1012C00D978E1201CFFF7B9FE051E00D072E1AF
:401480002402374B6142C9180FA8382201F027FC5624281C5AE72D4B45331C78012C00D063E1002D00D060E12E4B5878C0B2FFF79DFE43424341281C337147E73F023E43AC
:4014C0006402294B341924029E4200D851E18DE01E4B45331B78012B00D046E1012D00D043E1012C00D940E103200021FFF7F4FD83B2580A844202D1DB05DB0D03E000233F
:40150000A0425B415B0233711B0A7371FF23B371FE3BF3710020042418E70C4B45331B78012B00D021E1012D00D01EE1201CFFF75DFE211C30710520FFF7CEFD0224707144
:40154000002003E76CFDFFFFA7FDFFFF04080020FFFEFFFFACFDFFFFADFDFFFFAEFDFFFFC0FF0300D8000020FF010000BA4F342A10D13B1C45331B78012B00D0F5E0032DD4
:4015800000D0F2E03B1CCC32083359A80021DA8701F0AEFB3B1C45331E78012E00D0E4E0022D00D8E1E02F2108370497FF8F59ABD81904ABEA1EC91801F091FB8023033F45
:4015C000ED19ADB203205B009D424AD12E222D2104AB9B1804AA1B78521812781B021343049AD3879D4A934200D8D5E00A20ACE6059B002B00D0E6E000230024984A0132AC
:401600009C540133102BF8D159AB1F190AAE381C311CFFF7FBFCFFF7EDFC924808AB011C3A1C103101930096102303F09AFE8E4B301C1919FFF7EAFC894B391C581C1022F6
:4016400001F04DFB802310345B009C42DCD1281C854900F027FD031C5A1E93410A205B42184000247C4B0833DC876FE67A4B1A1C45321278012A78D100220833DA8794E62E
:40168000754B45331B78012B6FD1012D6DD1201CFFF7ACFD002866D1012C08D86540E9B27248FFF7FBFC7248211CFFF7F7FC714B5C7013E0684C231C45331B78012B54D1AF
:4016C0000834E08F2C334619FF339E424FDC59AB18180FA92A1C01F002FBE6870020041C34E6002D41D10AAA111C5E4B203311CB11C1594B0121181C1C1C08304834453335
:4017000021701970C5870FAB03CA03C30824281C1CE6514B45331B78012B26D1032D24D1B57973792D021D434C4B9D426AD95DE70B200121FFF7D0FC4022C30707D44D4B41
:401740005878C0B2FFF752FD002802D180224A4B1A600024404B48331C7000F003FC00F011FD0420F2E50C20EFE50420EDE50320EBE559A8FFF758FC231C611CFF31384AF6
:4017800018781132121BD25C824203D101338B42F5D1A3E70220D8E564021B19354C9DB22378311C002B00D00021FFF795FC80B2013080B2854200D31AE70024264B0A204F
:4017C0000833DC87C2E56378012B00D914E76178C9B2012910D80320FFF77EFC041C01210320FFF779FC0134A4B280B2A54200D202E7854200D9FFE60024174B0D2008332E
:40180000DC87A3E5600228180002FFF70DFC80221348002111305200FFF734FC071C012C15D12B1CFF3BFF3B012B10D8134B0520ED186B1E9D41EDB2291CFFF74DFC291CE7
:401840003F1A0620FFF748FCFFB23F1AFFB27F4237710020012479E504080020FF01000004070020B0C8010015070020D0FF0300D0FE0300D8000020C000002001FEFFFF64
:4018800008B501F0DDF903680C2B00D1FEE7FEE7031C10B594240849084A0868A401C3189A1AA24201DC0B6005E001F0C9F90C2303600120404210BDDC000020301A002058
:4018C00070B51049104B01394A1C15D000221E685C689D68A018AA4203D0B058A0500432F8E7021CDC68151AA54202D0002520C2F9E710330139E7E701F0A8F9FFF7AAFAED
:40190000FEE7C04601000000BCCA01000121104A10B51368141C8B43136000239A000D49032B01D80C4989580C4801338150302BF4D1FFF775F90022094B1A60094B1A6814
:40194000002A00D11A60012223681343236010BD0000104081180000000C000000000020C8000020C000002030B5051C0120C1B0854229D82B02154A5B429B181B7883422D
:4019800022D0002368406946114A9A1812785A548022013352009342F5D134AB18700D4800F080FB0023041C69460B4A9A181278CA548022013352009342F5D134AB0748FA
:4019C0001D7000F06FFB204341B030BDD0FF030000FF0300FF03000000FE0300FE0300000023034A1370034A1370034A13707047211A00201D1A0020201A002030B591B06B
:401A0000051C23490BA8142201F069F9214C2378002B03D1FFF7E4FF012323700120002D34D01D4B1D606368002B07D11B4801F033F9031C60600320002B27D000211B253C
:401A400008A805AA06AB0181117016311D805D806944173D426008931D7101F06DFB002814D1052301900093029061680C480D4A0BAB01F0B7FA002808D101220A4B0B48EA
:401A80001A7010321121FF3215F028F811B030BDD8C8010050080020141A002054120000CD1B0000441000001C1A0020ECC8010008B501F045FA0022044B1A70044B586819
:401AC000904201D001F0F2F808BDC0461C1A002050080020021C10B50120022A2FD8184B1B78042B29D1174C2178194225D1164B002A08D1191C1D3050310880596C8230C6
:401B00000880A0300BE0012A0AD1191C962050310880C820596CC0000880FA20000148800A494033181C0A7012F05CFA002806D1042223781343237001E00420FF3010BD1A
:401B40001C1A0020211A0020E0000020201A00207047437800781B021843704738B5838900250D2B1BD1041C291C0430221C333315F066F8051E0DD16068FFF7EAFF094B63
:401B80001B68820702D58220400001E00620FF30211C98470121044A13788B431370281C38BDC046141A0020211A0020002382799A4208D1821D0378002B03D101309042EB
:401BC000F9D100E00123181C70470000F0B50127974B85B01A78041C3A430D1C1A701E1C282800D17DE013D8062800D184E006D8B84224D0052800D00BE10A7879E0262882
:401C000000D1ABE000D9A7E0212800D18AE000E1432800D1CCE008D8412865D0422800D0F7E00022834B5A7064E04F2800D1E6E0502800D1EAE04C2800D0EAE0C3E007270E
:401C400002AB1F71002302AA03A8537103F082FD02AB03A81F715C7103F07CFD764F3B68181C0093FFF7A2FF0190002808D0009801F050F938680021FFF76AFF386822E06B
:401C80001F213F206D4B6E4F1A786E4B02401B78920119406C4B09031B780A43034013436A4A381C11787F220A40520413431A0A3B701B0C7A70BB7001F02CF9381C019991
:401CC000FFF746FF381C211CFFF742FF032011F08DFE3F2302AA1371002303A8537111F0A3FE04225A4B05E00222524800F0F7FF0022584B1A708CE00B78002B00D088E077
:401D00004B78002B0BD11022534B5449DA800132FF329A80524A6B60126852181A603378012229E01B789B0673D44E490B78102B01D10B3BCB703F4B187812F011F903A903
:401D40000880002803D0484B36201B68984701223378134333705CE00222C3E73C4B1978022956D032783A4253D004223078104204D00321197033789343EBE70820377847
:401D8000074203D01A7033788343E3E7032940D104232F4A1370354B1B78002B39D10120FFF798FE002834D10323294A137030E02C234988FF33994201D9962149002888DD
:401DC00013F002FD25E0081CFFF7C8FE33783B4202D0281C00F04CF83378DB0719D4002809D0122303A98B70AB89C87028680B8013F0E0FC0DE0286813F082FD09E01B7852
:401E00003B4206D0081C00F06DF802E0081C00F081F8112332781A4208D001223378201C93433370104B291C1B68984705B0F0BD211A00201E1A0020340100207DF2FF0FE9
:401E4000380100207BF2FF0F7CF2FF0F78F2FF0F1C1A00201D1A0020580800204410000054080020C8020020141A0020201A002010B58389021C112B0FD1164B0621FC3349
:401E80005B6BDB0205D500210430402314F0D8FE011C114A0120137818E00021102B17D13033043014F0CCFE011C0120094B0B4CFC331B6CA0705A68094B1A60D3789278BA
:401EC0001B021343044A07332380137883431370081C10BDECC80100211A002060080020241A002008B543681B89102B0CD1007A012804D113F0B8FC0022044B1A80012109
:401F0000034A13788B43137008BDC04660080020211A002043681A89102A1AD1427A012A12D108211A680B4BFF311A60D37892781B02134307339BB2074A8B4201D8138009
:401F400000E01180012393700121044A13788B4313707047241A002060080020211A00207047000008B5084B187811F035F8002802D0FFF79DFD08BD044B1B78022BF8D1D9
:401F800000F0BFFFF8E7C0461E1A00201C1A0020F0B5154C85B0FC34636D071C58680D1C161CFFF7D6FD031C0420DB071AD5236C391C5C682A1C201C00F091FE10230B4A59
:401FC00001A950780B811378000218438D80019413F038FC002801D1358003E0002301203380404205B0F0BDECC801001E1A0020F7B50A24071C161C5C430191002C1BD031
:4020000000F07FFF0F4DAB78012B10D100242A88019BAC709A4207D20B4B381C196800F05EFE2B88338008E03480062405E0012000F0B4F8013CE1E7103400F062FF201C48
:40204000FEBDC04660080020241A002010B5041C00F0F3FAC021044AA40113688B432343136000F0EEFA10BD08E400E010B58024054B64001C60054B18660320FFF7E6FF2B
:40208000034B1C6010BDC04680E100E00000002000E100E08022024B52001A607047C04680E200E00023F0B5C7B0029303932C4B98424FD800294DD08022051C520006A8BC
:4020C00000F00DFE274B9D4201D8274B00E0274B0493FF23264C2749274A04AE736026600A60C04622680191120F0F2A02D12268134005E022680023120F0A2A00D0236808
:402100000293029F002F27D100F097FA0397029B002B18D1194A2D040492049A184915430495019D2660124A2960C0462168090F0F2902D11368DBB204E01168090F0A29F1
:4021400000D013680293039B002B00D1039300F078FA01E004230293029847B0F0BDC046FF030000FF010000B6D70000B6D70001080010400400104004000080B6D8000031
:4021800005000080034A044913689BB20B4313607047C0460CED00E00400FA0510B5041C8022074B1202944205D9586800F03CFA044BE418F4E79868604300F035FA10BDA2
:4021C000D00200200080FFFF08B5034B1B7B584300F02AFA08BDC046D0020020F0B5051C87B000F02AFAEB1E049003932D2B5BD8304B1B789D4204D82F4B1C782F4BE4B2AC
:402200001EE02F4B1B789D4204D82E4B1C782E4BE4B215E02D4B1B789D4204D82C4B1C782C4BE4B20CE02C4B1B789D4204D82B4B1C782B4BE4B203E02A4B1C782A4BE4B22B
:402240001B78039ADBB20193284B294F9A5C059302922F2A04D92A2D02D919263E6008E03F233E681E40029BB34205D2204B029A1A60052000F0D8F91B4B1E4AED182B7827
:402280000520DBB213601C4B019A1C601B4B1A60FFF79AFF029BB34206D9059B039A05209B5C3B6000F0C0F9049800F0CAF907B0F0BDC04640F3FF0F41F3FF0F42F3FF0F7F
:4022C00043F3FF0F44F3FF0F45F3FF0F46F3FF0F47F3FF0F48F3FF0F49F3FF0F4AF3FF0F4BF3FF0F4CF3FF0F4DF3FF0F68CA01002CFF0B4028FF0B401CFF0B4020FF0B40D0
:4023000001210F4A10B51368041C0B43802113600C4A0D4B09021A600C4A13680B431360002801D100200AE00120FFF74DFF084B1B68DB07F6D4013C002CF5D1102010BD86
:4023400060F02E400220000078002E4010002E400C002E4001200A4A136883431360022311689943116007492E330A689A43203B1A430A6007220B68934303430B6070478F
:4023800000F02E4000FF2E4008B5FFF7E3FF8021024A090613680B43136008BD00F02E400122104B70B51C681440002815D0904215D1022507261968A94319600A490A6823
:4023C000B2432A430A600A682E35AA43103D2A430A601A681043186001E0FFF7BBFF201C70BDC04600F02E4000FF2E4008B500F024F9C021034A090213680B43136000F0E4
:4024000020F908BD00010B4010B5802400F015F90749084B0A68E4011A4022430A600A6813408022120213430B6000F00AF910BD00010B40FF3FFFFF044BC0001B680130A1
:40244000C340181C012318407047C04610020B4038B5041C0D1CFFF7EFFF00280AD10321081CE400A0402940A140034A136883431943116038BDC0460C020B40034BC0005F
:402480001B68C340181C0323184070470C020B4038B5041C0D1CFFF7CFFF00280AD1E40002340121A540A1402C1C034A13688B431C43146038BDC0460C020B40094B1A68FA
:4024C00002431A60C20702D51A689207FCD5C20502D51A689205FCD5C20302D51A689203FCD5704710020B40094A10B51168136812685C0A4B082343520C1343DB0705D45D
:40250000044A054B11680B401843106010BDC04610020B400C020B40F7F7FFFF70B50E4D061C2B680C1C9B0FC920002B00D06C38FFF74AFE0949300181408440084A43206F
:4025400013688B43234313602B689B0F00D02438FFF73AFE70BDC0460C020B40FFFF000008020B4070B5051C00F067F80E4B041C1A68C0231B02134011D10C480C49054010
:40258000281C0E680B4A3240104308600A68012B01D1FFF72BFF201C00F053F870BDFFF733FF0123E9E7C04600010B400404040010020B40FBFBFBFF044B054A1968104075
:4025C0000843186019681142FCD1704710020B400808080010B5041E0FD1FFF74FFF032801D101301AE0201CFFF748FF022817D10630FFF7E1FF042010E0012810D1FFF76D
:402600003DFF032808D0201CFFF738FF022807D180200001FFF7D0FF8020C000FFF7A2FF10BD0000000000000230800803D00138FDD1C046C046C0467047EFF3108072B6CF
:40264000704780F310887047F0B5204C8D18031CC5B00120A54236D80020161C051C0F0A039304AC3B020291E41AB54204D3012829D90120404226E00028F8D15A1CFF32A7
:4026800001920090029999420BD8B54209D203991A78495DE1548A4201D001220092013501E01978E154019A01339342EAD1009B002B03D0381C04A9FFF7F4FC013C013740
:4026C000FF3C019BD1E745B0F0BDC046FFFF030001607047016070472B4B2C4A19782C4B09021B7819432B4B1B7812781B021343294A934204D1072909D1284B033906E0C2
:40270000D4221201934202D1042900D1234B244A1360244B244A1960244B1B7812781B021343234A134200D1224B234A23491360234A0B7812781B021343224A934204D0F8
:40274000214A934201D0052B00D1204B204A1360204B214A1B681268AA2A14D11F2B12D90B780E2B0FD11D4B1D4A1B7812781B0213431C4A13601C4B1C4A1B7812781B0263
:4027800013431B4A1360704759F1FF0F5EF1FF0F58F1FF0F5FF1FF0F580B0000580D00006C002E4074002E405AF1FF0F5BF1FF0FFFDFFFFF0220000078002E405DF1FF0F53
:4027C0005CF1FF0F0F0F000005050000050F000080002E40EC0F00F0E00F00F06DF2FF0F6CF2FF0F84002E406FF2FF0F6EF2FF0F94002E4008B5FFF7E7FC08BD08B5FFF7D2
:40280000CDFC08BD08B500F063F808BD08B500F067F808BD08B500F063F8034800F02EF8032000F031F808BD0D29000008B5024800F03AF808BDC0460D29000000487047A3
:40284000010200002B2070472B2070472B2070472B2070472B2070472B2070472B2070472B2070472B2070472B20704770472B20704770470120704701207047014B186756
:402880007047C0460000002010B5041CFFF7D5FEC021044AA40113688B4323431360FFF7D0FE10BD0CE400E010B58024054B64011C60054B18670320FFF7E6FF034B1C6005
:4028C00010BDC04680E100E00000002000E100E08022024B52011A607047C04600E100E08022024B52011A607047C04680E100E008B5FFF7A2FE0421034A13688B4313606E
:4029000030BFFFF79EFE08BD10ED00E008B519F0B9FF08BD02B4714649084900095C49008E4402BC7047C04603B47146490840004900095E49008E4403BC70470022430882
:402940008B4274D303098B425FD3030A8B4244D3030B8B4228D3030C8B420DD3FF22090212BA030C8B4202D31212090265D0030B8B4219D300E0090AC30B8B4201D3CB03B1
:40298000C01A5241830B8B4201D38B03C01A5241430B8B4201D34B03C01A5241030B8B4201D30B03C01A5241C30A8B4201D3CB02C01A5241830A8B4201D38B02C01A5241DC
:4029C000430A8B4201D34B02C01A5241030A8B4201D30B02C01A5241CDD2C3098B4201D3CB01C01A524183098B4201D38B01C01A524143098B4201D34B01C01A52410309EA
:402A00008B4201D30B01C01A5241C3088B4201D3CB00C01A524183088B4201D38B00C01A524143088B4201D34B00C01A5241411A00D20146524110467047FFE701B5002040
:402A400000F0FCF802BDC0460029F7D003B5FFF775FF0EBC4243891A1847C04603460B437FD4002243088B4274D303098B425FD3030A8B4244D3030B8B4228D3030C8B422B
:402A80000DD3FF22090212BA030C8B4202D31212090265D0030B8B4219D300E0090AC30B8B4201D3CB03C01A5241830B8B4201D38B03C01A5241430B8B4201D34B03C01A84
:402AC0005241030B8B4201D30B03C01A5241C30A8B4201D3CB02C01A5241830A8B4201D38B02C01A5241430A8B4201D34B02C01A5241030A8B4201D30B02C01A5241CDD2DA
:402B0000C3098B4201D3CB01C01A524183098B4201D38B01C01A524143098B4201D34B01C01A524103098B4201D30B01C01A5241C3088B4201D3CB00C01A524183088B4201
:402B400001D38B00C01A524143088B4201D34B00C01A5241411A00D201465241104670475DE0CA0F00D04942031000D34042534000229C4603098B422DD3030A8B4212D3C9
:402B8000FC22890112BA030A8B420CD3890192118B4208D3890192118B4204D389013AD0921100E08909C3098B4201D3CB01C01A524183098B4201D38B01C01A5241430981
:402BC0008B4201D34B01C01A524103098B4201D30B01C01A5241C3088B4201D3CB00C01A524183088B4201D38B00C01A5241D9D243088B4201D34B00C01A5241411A00D211
:402C00000146634652415B10104601D34042002B00D54942704763465B1000D3404201B5002000F00BF802BD0029F8D003B5FFF715FF0EBC4243891A1847C0467047C04600
:402C4000014B18687047C046D80600200E4B70B500251E1C0D4CE41AA410A54204D0AB00F35898470135F8E719F016FF084B00251E1C084CE41AA410A54204D0AB00F358B9
:402C800098470135F8E770BDA4CA0100A4CA0100A4CA0100ACCA010008B5034B011C186800F074F808BDC046D806002008B5034B011C186800F024F808BDC046D8060020E5
:402CC00030B50024944208D0035D651C0C5DA34201D0181B02E02C1CF4E7002030BD002310B5934203D0CC5CC4540133F9E710BD031C8218934202D019700133FAE7704772
:402D000030B500293ED004390B68002B00DAC9181D4A1368141C002B02D14B60116031E099420DD208680A189A4203D11368C3180B6053684B60216024E08A4203D8131C26
:402D40005A68002AF9D11D685C198C420BD10968691858181960904214D110685268091819605A600EE08C4202D90C23036009E008680C18944203D11468526800190860DA
:402D80004A60596030BDC0460C1A0020032370B5CC1C9C430834051C0C2C01D20C2405E0002C03DA0C2300202B6042E08C42F9D3204A1368101C191C002913D00A68121B58
:402DC0000DD40B2A02D90A608B181FE08B4202D15A6802601BE04A685A600B1C17E00B1C4968E9E7144E3368002B03D1281C00F025F83060281C211C00F020F8031C421C02
:402E0000D0D00322C61C964386420AD11C60181C07210B301A1D8843821A0AD05142995007E0311A281C00F009F8431CBAD0331CECE770BD0C1A0020081A002038B5002331
:402E4000064C051C081C2360FEF722FD431C03D12368002B00D02B6038BDC046281A0020134A1088810703D08107890F401A001D11791030484381B25088820703D0820757
:402E8000920F801A001D800040180A494030098980B2CA0701D0503080B2890706D504495422091F09785143081880B270470000EA0200207008002010B502F09DFA10F0A1
:402EC000B9F810BD10B502F09FFA10F0BBF810BD10B502F0CAF810BD10B502F0DCF810BD10B502F0F5F810BD0121002807D0FA21C17003210170022141700021817008463F
:402F0000704710B500F094FA10BD10B502F086F910BD000010B50749044609780220002907D1204602F0BCF9002802D1204610F0CBFE10BD8A04002010B502F0E3F910BDB2
:402F400010B50CF0E3FA02F0A6F802F097F9084C2078002801D000F075FA00F08DFAFF2001F0A8FAFF2001F0B5FA0020207010BDE402002010B50CF0C9FA02F08CF802F006
:402F80007DF900F05FFA074908460C380CF0A0FA002806D10CF0C2FA002802D1024A0121117010BD70080020E402002070B504460120002C12D02368002B0FD061680029A9
:402FC0000CD0074D06222889208118462968FFF786FE6968606809780170002070BD000070080020FFB585B0002768460E9D07734F481C460078002802D0082009B0F0BD72
:4030000010990F9801900095029105A807C800F001F90028F2D16946264603AB84460873002C19D0002115E08A00B75A082F09D990198078002805D0083FB7521878401C6F
:40304000187005E0002914D00027B75290198770491CC9B2A942E7D360460028CED10F98002809D0109901F0A1FB002804D00120C4E701208446EFE702F00DF82D48002120
:40308000416081600599016021888180022D07D3A1798171A17AC171A1890181218A418100211EE0481C19E082008B00A75AE65ABE46BE4211D26F463E80B4461E1902967D
:4030C000B678BE7001967646E6521719029EBB78B3706646A652019EBE70401CA842E3D3491CA942DED3134822460C3000906846037B0799069800F015F90028B8D16846FF
:403100000B4C007B60700B480C3002F05FF80028AED1084907480C310CF0DAF90028A7D10CF0FCF90028A3D10121217066E70000E402002064080020F8B5054633480E463C
:403140000078002802D002242046F8BD002E5BD000242F49002D16D02A89D0070DD02868002808D003881B3BE12B04D24088FB2801D81B2801D2012409E0900707D56868AF
:40318000002804D1F7E70020088108604860002CDAD11F482F8907811C481B21801D018041800421017119490020891C0870F80705D016480622801D2968FFF790FD1449E0
:4031C000B80703D56A681148127882700F480D46801D0860001F486002F088F80B48801D02F076F8288915F03FF8288915F0D0F903461033FFF734FE1F21C018890140183F
:403200000249308088809FE701249DE7E402002070080020FFB58446384F1C460020BB883F78054602460646002F11D100290ED0029999420BD36146002908D0002C06D048
:403240000A99002906D02E4B0B99994202D2012004B0F0BD002144E0AB001F19BF78002F3BD0E35A002B38D07B43591889B22B0000F04AF8050410161C253100A778238823
:40328000BC46FF27233BEB37BB4222D26346032B1FD322E0A388002B1FD0302B19D31CE02389002B19D0282B13D316E0A289002A13D01346134F233BBB420AD20DE0268A6C
:4032C000002A0AD033460F4F233BBB4201D2964203D901200EE0002001E000280AD16D1CEDB2099B9D42B7D31C2463435B1802998B42ACD89642AAD8AAE70000E402002093
:4033000079020000BAFF000030B47446641E2578641CAB4200D21D46635D5B00E31830BC18470000FFB583B0002469460C801F4606468C80002806D00598002803D0049864
:403340003043800701D0012466E0002FFBD03449049809888842F6D3FFF768FAFFF756FA00F06AFC002855D100F0D4FD002851D12C49084601F04EFA05042D0C4AD12A48C8
:403380000499066081800021C18007810C98007AC00704D0684601F0F7FE040007D10C98007A800703D501A801F002FF0446BF1DFEB2002C20D13146059800F089F8040062
:4033C0001AD115F0F3F8040016D16A461088928808368518144AF1B29088D288AEB29319984207D3401B801A80B201F005FD050007D000E0FF25012400F0B6FA002D04D0D7
:4034000008E0F8B200F048F9F6E700F0D9FA07490120087000F022FC204607B0F0BD0000E8020020BD3500007C080020F002002010B503480078012801D101F07FFB10BDFB
:40344000F002002010B500F003FE002803D100F009FC002801D0FF2010BD0548007A801DC0B200F031F9034A0020107010BD00007C080020F002002010B500F005FE01F0A5
:40348000FBF90449002008608880C88008810249087010BD7C080020F002002070B5084B0446DA889E8800205518B54206D81D68AA182260DA885118D98070BD032070BD0E
:4034C0007C08002001480089704700007C080020F0B587B007460D4600208900009006916846FFF7DBFF844600285DD1304800990160002117E02E4B88001A680629115470
:4035000006D22C4C0419667882185670628805E0C419203CA67A8218567022891B68C018491C4280C9B2A942E5D300242DE0601CC2B2059025E01E4FA3003968960058189B
:4035400040887118039604904E88B04217D938466F46FE80B6464F786E4677710297049F4F800168039F5E18767879184E700168764659184E800068029F18184770521C7A
:40358000D2B2AA42D7D30598C4B2AC42CFD36046002809D168460699FFF780FF8446002802D1054900980860604607B0F0BD0000F4020020D0CA0100F80200207047000045
:4035C00010B5002809D005494A68002A05D0011F08788000105801F0BDFB10BDF402002010B50446FFF76EFFC0B2801DA0420CD307484068002808D0A100405801F01CFB78
:40360000002801D00470001D10BD002010BD0000F4020020F8B516460D460446FFF752FFC0B2801DA04203D20020C0430090F8BDB2B2E9B2684601F025FB0099481C03D087
:40364000024AA000526811500098F8BDF4020020F8B50746FFF736FF801DC6B20A49002005460C680DE06178002907D06188B94202D32078FFF7B4FF002804D1241D6D1CED
:40368000EDB2B542EFD3F8BDF402002010B5002801D0FFF795FF10BD70B506460948002504680BE06178002905D062882078121D0023FFF7AFFF241D6D1CEDB2B542F1D321
:4036C00070BD0000F4020020F8B5084F064600243D6808E0287879688000085801F0E6FB2D1D641CE4B2B442F4D3F8BDF4020020FFB581B00A9C16002BD000F0EFF80546AD
:40370000042826D0214F002C0BD02046FFF7A0FF2901C919486000281BD022460499FFF7DEFA1A4928010E5046187481019805707D20029CC000444300F0BEF8074604286F
:403740000AD000F06FFAA0420ED800F06BFA201A06E0FF2005B0F0BD204600F0C9FA0020F06035720020F5E700F05CFA009000F0D5FA00980121001B009000F009F90349F4
:403780003A0151180098C860E6E7000088080020F8B5060116483418217A042903D0E068002802D017E00020F8BD00F03BFA054600F0B4FA00F0A0F804280CD001010C482D
:4037C0000F18F8680021451900F0E2F80020F860284600F08DFA6068054D002801D0FFF755FF042020720020A8516081E060DAE788080020FEB500266A463046012325494D
:40380000050169180D7A042D02D0C96800291BD000211154401CC0B20428F0D300246846005D002830D01B48210108184189476805680291002101604160042241810272FB
:40384000C160002E02D015E01354E3E700F054F804280ED001010F4808180190C6680021304600F095F801980021C160304600F03FFA0126002D07D038460299A847002F93
:4038800002D03846FFF702FF641CE4B2042CC6D3FEBD0000880800200EB5002005216A4600901181508103486946006816F04FFB0EBD0000FC020020074A0020010189181C
:4038C0000B7A042B02D0C968002903D0401CC0B20428F3D370470000880800200549002002015218127A042A03D0401CC0B20428F6D370478808002030B50A4B04200A4CA8
:4039000000210A011219157A042D06D0D268002A03D09A4201D808461346491CC9B20429EFD330BDFFFF00008808002070470000F8B500250B4F2E462801C419217A042978
:403940000AD0042121723E506068002802D0FFF79DFE66606681E6606D1CEDB2042DEBD3F8BD00008808002030B50020074C05460423020111190B72A5504D60401C4D8125
:40398000C0B2CD600428F4D330BD00008808002030B5094C00231A011219157A042D04D0D568002906D02D18D5605B1CDBB2042BF1D330BD2D1AF7E788080020002070475B
:4039C0001CB5002469460C70142001902346054A054816F0C1FA04480068401C00D1FF2420461CBD3D3A0000FC0200203EB5124A0146FF2000230124126800290DD001299D
:403A000014D0042908D104206946009308814B81104616F09CFA80B23EBD68460093048143816946104616F08DFAF4E768460093048143816946EBE7FC02002070B54589AF
:403A40000468416800890300FFF75EFC08280509091E22282628002009F05AFF1EE0022908D0C8B22A46214613F078FB2046FFF70DFE13E002202A46214613F06FFB2946EF
:403A8000204600F00DF809E0002015F0E1F905E02046FFF7AFFE01E0FEF7EBFE002070BD014B0022DB6818470003002070B5448905680089022803D0032809D0FF2070BD61
:403AC0002246094C0023A46829460120A04708E0FFF702FA241DA2B20023294602200BF0C0FB002070BD000000030020704770470248002141600180418070470003002084
:403B000070B50C46002186B016460391012802D0022859D116E003A901200BF0EAFB01281BD1039D324621462846FFF7D8F80095287801900220694608814E816846FFF77A
:403B4000B5FF41E0214D002B686809D0049004A902200BF0CEFB01281DD0022006B070BD002812D0298840182146FFF7B8F828880024801980B228806988091D884206D1CD
:403B80002C801348FFF792FF03E00320E6E788421AD96C6018E004986860E278A378110219430B4A698000231060E3565360032313815181A1788170E178C1706178417074
:403BC00021780170042028800020C7E700030020C80800203EB515460C46022803D004280CD000203EBD0091019002206946088107484A81006816F0AAF907E013F0AEFA15
:403C0000044B0022DB6829462046984701203EBDFC02002000030020014AD1609060704700030020034801688068081A0A21484300097047D408002010B5FEF7EBFD48223D
:403C400004490548FFF74BF803490120C870002010BD0000ECCA0100D80C002010B5FEF7D1FD10BD0020704770B5134C2368002B08D0207B1149C20705D040084000207338
:403C80008868A08070BD88680B4AA18880B29268814203D90A4D691A091802E0814202D2411A5118A160A080A0689842EAD316F06BF900F013F870BDD4080020C0102E40CA
:403CC000FFFF000010B508461946FFF7A5FF10BD704710B5FFF77EFF10BD000003480021016041608160C16070470000D4080020024610B5FF20002A0CD0FFF7EFFF064CA6
:403D00000321207B0843207310010A21FEF79CFE2060002010BD0000D408002000B504480A21806848430209FFF7D8FF104600BDD40800200248007B8007C00F704700005A
:403D4000D408002010B54B490868002802DA4A4B01221A70022290430860484800694549C00B4031096A0246C907C90F0A4259D0012000F09FFB3F480E216C30FEF7AAFCA6
:403D80003E4820218430FEF7A5FC3C4814219C30FEF7A0FC3948FF21C131A430FEF79AFC3648FF212F31B030FEF794FC33483449BC30FEF78FFC31483249AC30FEF78AFCD8
:403DC00030492E48491CB430FEF784FC2B482E49B830FEF77FFC29482C49CC30FEF77AFC26482B490830FEF775FC24482949A830FEF770FC214828498830FEF76BFC1F489B
:403E000026498C30FEF766FC1C481921C9029030FEF760FCFEF760FCFEF710FDC0B2022812D01FE000290BD0002101420AD0114801216030FEF74EFC0120FEF7DFFC97E7BB
:403E40000121F2E7FF2010BD15491648FEF742FC14481549001DFEF73DFC124800210830FEF738FC54200449C043891C0870002010BD000000F02E401003002000002E40BE
:403E8000320300002F3F00003102000010520000EC160000FA12000031D000003AE300009956000080012E40F80F000070B50646581C80B245086D00002408E0304600F076
:403EC000C1F81055000A1119A41C4870A4B2AC42F4D3D80705D0D0182038D15CC47FD454C17770BD30B50A4C002100195B1E07E0541864782502545C2C430480891C89B235
:403F00009942F5DB994201D1515C018030BD000000102E4010B5FF2000F0CCFA0F49FF2048700E481021801D41800121417001700A490020C91C4870FFF704FF04000AD1B6
:403F400000F02EF907210648FEF7C2FB044807211830FEF7BDFB204610BD000010030020CC112E4070B5002405465B1E0AE0284600F068F8010A161971702D1D1055A41CA9
:403F8000ADB2A4B29C42F2DB9C4203D1284600F059F8105570BD000070B500210A4D5B1E0AE0541864782602545C344346193480001D891C80B289B29942F2DB994202D17F
:403FC000515C4019018070BD00102E40F0B50599091FCFB200217E1E0BE0541864782502545C2C43164D45192C80001D891C80B289B2B142F1DBFC0712D01C78515C2402C6
:404000000F4A0C4381180C809C785D78001D210280B2294384182180001D80B2D9780CE059781A7809021143054A84182180001DD9789B78090280B2194380180180F0BDF5
:4040400000102E40014940180088704700102E4010B50B490020487000F0A2F8002000F04FFA002000F03CFA07210648FEF730FB044807211830FEF72BFB002010BD0000EF
:4040800013030020CC112E4010B50C48007801280FD101F0BBF800F0DDF8002804D10848016A490849000162054802213030FEF711FB02490020C91E087010BD1303002029
:4040C00040F02E4010B50B46062812D006DC01280CD0032801D1FFF7BBFF10BD0A28FCD00B28FAD105480078107010BDFFF712FF10BD1146184600F01FFA10BD16030020F5
:40410000F8B5244DAC6A0127A007234E002816DA307806280ED1286A384328621F480069F903084381B21D481030FEF7D3FA042000F0C0F9174802212830FEF7C9FAE007B0
:4041400018D001F0C9F901280FD1002001F0D2FA062000F0AFF91049FF20C91E48707078002802D1686B384368630A4801212830FEF7AEFAE0050BD53078042802D10520F3
:4041800000F098F90348FF2101312830FEF7A0FAF8BD000040F02E401303002000002E4010B503212348FEF795FA0120FEF722FB20483038406A204C80076178800F89009A
:4041C00001431C480C38FEF785FA6078002808D0401E022181401820FEF726FDC000083800E0B82081B21548FEF774FA1348032109021438FEF76EFA10481149B830FEF788
:4042000069FA612189010F48FEF764FA0D480321001FFEF75FFA0C490C48FEF75BFA0B480B496038FEF756FA084801218838FEF751FA10BD70F02E4016030020D8102E406C
:4042400090890000041E2E40FF0F000058122E4020900000044800684007400F022801D0002070470120704700010B4038B5FEF7E5FA01F04BF803211948FEF72BFA01200A
:40428000FEF7B8FA16483038406A04218007800F084381B2009012480C38FEF71BFA1148016802221143009189B2FEF713FAB8210D48FEF70FFA0C48032109021438FEF7FE
:4042C00009FA094C5321D83C2046FEF703FA07210648FEF7FFF954212046FEF7FBF938BD70F02E40001F2E40D8102E4098142E4000B5FFF7AFFF002805D009480168C908BE
:40430000C900016000BD0748016A490849000162054801690122D2039143016100BD000000010B4040F02E4000002E400849087806280BD148780749002803D1486B400803
:4043400040004863C86A01221043C862704700001303002040F02E400121002807D005494A8842804A784270097801700021084670470000160300200148007870470000B5
:404380001303002002484078022800D0012070471003002000B50300FEF7B6FF080D050D0B070507090D012000BD032000BD042000BD022000BDFF2000BD0000074A91685F
:4043C000D26889B2064B92B2994204D105498A4201D1012100E000210170704780002E4033D000003FE30000014948707047000013030020F8B504460120002C52D02178CB
:4044000008294FD2617804294CD26088102166283DD800283BD065882348662D45801BD801270026BF020A2D33D90A212846FEF70BFBC0B2072800D907200A2141438D426F
:4044400004D9691ACEB21F2E00D31F264101314339431648FEF73CF9134D60786870217829701349496A8A0781001148920F11432430FEF72FF9687800280CD0401E0221B6
:4044800081401820FEF7D0FBC000083804E06180C1E72946DCE7B82081B204482030FEF719F90020F8BD000016030020B8102E4040F02E4010B50446FEF7A8F9072C01D962
:4044C000FF2C01D102480470FEF79CF910BD00001303002001494870704700001003002010B5064A012805D01921C9021046FEF7F1F810BD1D21C902F8E7000090002E4089
:4045000010B50A4A141D012808D009491046FEF7E1F808492046FEF7DDF810BD04491046891CFEF7D7F80349491DF3E788002E4031D000003AE3000070B50C460546FEF709
:404540007DF9C0B202280E49287804D0FF2810D04C280CD810E0FF2809D10A4AD0680004800F032801D0087807E09069000A553803E00878207070BD4F382070087070BD20
:404580001203002000002E40F0B50122002830D000292ED00424420600D00524792342065B06D21800D0641C034600221EE00C2516466E43104D00277519AF720E4F002AF8
:4045C000BB51696007D0661EB24209D10B4E86197606760E05E05E06760E8027BE1B00E080269B198919521C2E81D2B2A242DED300221046F0BD0000600B0020790200003B
:40460000F8B507460020002F03D101F029F9002827D1154E002421460C2251438D19AA7A012A0DD12A8971586868FEF70DF8002800D028200021A972002F05D0282803D0BE
:40464000641CE4B2062CE6D3641CE1B207E00C224A439219927A012A04D0491CC9B20629F5D3F8BD2820F8BD600B0020074900200C2242435218927A012A05D0401CC0B253
:404680000628F5D30020704701207047600B0020F8B50F000446164609D0184D18496868A04202D94018A04201D38E4201D90120F8BD39462046FEF703FB00281BD032464B
:4046C00039462046FEF70BFBF0B200210C224A43521913895668F718A74208D90127A41B1B1B9772834206DAC01A1469C0B2491CC9B20629EAD30020F8BD0000600B0020FE
:404700007902000010B500F061F80748054AC16806480C46FEF7E3FA04492046FFF734FF10BD0000790200001C030020E408002010B500F04BF810BD002070470020054A3D
:40474000002902D0012902D002E0506000E09060002070471C03002070B5084C154608460549A26889182A46FEF7B9FAA0684019A06028B270BD0000E40800201C030020E4
:404780003EB50A226946FFF7E7FF044606480A2200686946FEF794FA002802D00020C0433EBD20463EBD00001C030020002802D0044A914201D2FF20704703490A61C86096
:4047C00000207047790200001C0300200248002141608160704700001C03002070B5074C15460548626880182A46FFF751FF60684019606028B270BDE40800201C030020DA
:4048000010B503490A220968FFF7E8FF10BD00001C03002010B50F4A002313600E4A13600E4B18600E4801600E49012008600E490860000290600E490C4808600D4914309C
:404840000860FF381538506000F0BEF800F0CCF9002010BD48030020300300205C030020600300204C0300203C030020A80C0020400300205403002000207047014610B535
:404880000020002910D0094B1A689C685118A14209D25868196080188A0704D08A07920F891A091D196010BD002010BD30030020F8B50024164E671E321F3D463168136875
:4048C00006E01422624310328A58521C1BD0641C9C42F6D36A1C14D02C461422544322460C3288500C214843FFF7C8FF3168002808510AD031680020103408517068401C39
:4049000070602846F8BD2546E4E73846F8BD000040030020F3B50026F64381B000281BDB1E490968884217D80299002914D01B4F142204463F1D544325463968103548595A
:40494000401C09D0FDF762FF38682F1F4159C359994203DBFDF756FF3046FEBD214608310091465801590C20704308180C220299FEF7B5F90948761C001D0068C159B142CD
:4049800000D100260549009A091D865008684159491C4151FDF736FF0020FEBD3C030020002803DB07490968884202D90020C043704704491422091D096850431030085825
:4049C000704700003C030020F0B500200D4A451E0346171F50600FE014260146714314680E1DA3510C461668083433511668083435511468401C635039688842ECD300208F
:404A0000F0BD000040030020F3B50026F64381B0002841DB2349096888423DD8029900293AD0204F142204463F1D54432546396810354859401C2FD0FDF7E8FE386841591D
:404A400000292BD0211D009146580C21005971430F46C1190C220298FEF741F911480021001D0068761C00590C34C0190160416081600C48001D00680159B14200D1002642
:404A80000849009A091D865008684159491E4151FDF7B8FE0020FEBD3046FEBDFDF7B2FEFAE700003C030020FEB504460D4600201E49089E0860471E009001900290002C49
:404AC00011D0486885420ED2002A0CD0002E0AD0642E08D808460C3001681C2068430C18207A002801D03846FEBD0120226020721846FFF7DDFE6060401C13D06681A681C3
:404B00000A4827610C3067610179A94200D205710021684601810A462846029B00F040F82846FEBD00202072DDE700004803002038B50124009400F039F838BDFEB5002776
:404B4000164EFF433D4600240EE01C20316860430818017A002906D04068FFF721FF002801D0254603E0641C3079A042EDDA681C12D01C2130684D434419FDF747FE694601
:404B80006068FFF741FF0546FDF73CFE002DD9D1216868468847D5E7FEBD00005403002038B50024009400F001F838BD1FB500220C49541E0A60002811DB496888420ED894
:404BC00008491C220C31096850430818406801A9FFF7A0FE401C02D0002004B010BD2046FBE7000048030020F0B50021114A4D1E174611710C3F0B46BD6016E008461C24B5
:404C000060431668041D355114680646235014680836A3551468361DA353044616680A34335318301468491C255078688142E5D30020F0BD5403002038B50021009100286A
:404C400011DB0F49097888420DDA0D4D04010C3529680859002807D0201D0818694600F06FF9002801D0002038BDFDF7CFFD28680F34015D491E0155FDF7C4FD009838BDCB
:404C800064030020F7B582B0002502986E1E06602E48D21C024017462D4A2C4610460C380178106805E02301C358002B0FD0641CE4B28C42F7D3711C28D03401211D40183B
:404CC0000191039900F02AF900281FD101E02646F1E71F48016820460C300F521C480399026820460E30115419480399026820460F3011540398784300F0A0F8144900281C
:404D00000968085102D00024009011E001251AE00F48016801980818009900F02CF9002801D0012502E00098C0190090641CE4B203988442ECD3002D05D102980660044864
:404D40000179491C0171284605B0F0BDFCFF000070030020F8B50D4600216A468C461180002839DB23490978884235DA214B04010C3319680A59002A2ED020460C300B5A8B
:404D8000801C0E5C184670438018954224D3854222D2002006E007465F43BF18AF4206D0401CC0B2B042F6D36046002814D0114E271DC8190C366A46294600F006F90028F1
:404DC0000AD168460088012808D030682946C01900F0D1F8002803D00120F8BD0020F8BDFDF714FD30680F34015D491C0155FDF709FDF3E764030020F8B50F46002400F0F8
:404E000031F8002817D10C4900220B460C334A600EE021011D680E466A501D680C36AA53B61C1D680F31AA551D68641C6A54E4B2BC42EED31A71F8BD6403002000280BD0A9
:404E4000C01C074A81085068890053884118994203D8936851601818704700207047000064030020F8B5064600200F4D009029700C0121466846FEF711FB00280CD129462B
:404E80000C3100980860301B001F84B221466846FEF704FB002801D0FF20F8BD6C800098A8600020F8BD000064030020F8B5002827DB19490978884223DA174C05010C342D
:404EC0002168485900281CD028460C30085A009028460E300E5C401C0E5420682F1DC01900F064F800280CD12068002445590EE0094829460C300068C01900F03CF8002845
:404F000001D00120F8BD00982D18641CE4B2B442EED30020F8BD00006403002030B50D4604000BD0A800FFF789FF6060002805D000202570C0436080002030BD012030BD17
:404F400070B50D46040005D0002D03D00220205E002801DA012070BDFDF758FC0221615E60688900405828606088401E6080FDF749FC002070BD70B50D46040007D0002D28
:404F800005D002212078615E401E814201DB012070BDFDF73BFC6088401C00B26080616880000D50FDF72EFC002070BD10B5040009D0227800216068FDF79AFE0020C04371
:404FC0006080002010BD012010BDF0B500231D46002802D00224045F0AE00120F0BD46689F00F6598E4201D1012503E05B1CDBB29C42F4DA15700020F0BD00000148007886
:4050000070470000780300207CB505460024FDF763FFA8796946087000A8062229460130FDF75DFE0021684608F058FF0C2806D0072806D01F2806D0122806D006E00224BB
:4050400004E0042402E0272400E0012420467CBD10B50024FDF740FF0021084608F042FF0C2800D10224204610BD10B502280BD0032802D0042809D102E000F0DBFC05E0D6
:4050800000F086FDFF2801D100F096FDFFF774F9FFF780F910BD10B500F0BEFDFFF76CF9FFF778F910BD000010B50024FFF7F3FF012808D10548818B03E0481E0140641C2D
:4050C000E4B20029F9D1204610BD000060102E4070B504460025FDF7FFFE002C06D0A079012803D8214603F0EFFE00E00125284670BD0000FEB505460D208001019000202D
:405100000C460090002D11D0002C0FD0FDF7E4FE1B48878B008B742186461948603801800020287001461748844622E001200090FEBD0120884086B21148019A6038101858
:405140000388028800883E4211D02E78761C2E7023701B0A6370A270120AE2702071000A60717046C840C007C00FA071E41D491CC9B2604600788842DBD80098FEBD0000B0
:4051800060102E40180D002001460120002902D0502008800020704701460120002903D00248007808700020704700007A03002001460120002905D0034854220078504356
:4051C00008800020704700007A03002010B502460D49FE2048700324104615F0DBF9002810D115F07FF900280CD10AF0DFF8002808D100F047FF002804D109F06FF900280B
:4052000000D10024204610BD7803002002480021018280210180704700102E4042680121002A08D00268002A05D004494A600449406888600021084670470000E00D002028
:40524000780300207CB505460024FDF745FEA8796946087000A8062229460130FDF73FFD0021684608F04CFE0C2802D01F2802D002E0022400E0072420467CBD10B5FF240A
:4052800015F000FA002804D115F01AFA002800D10024024900204860204610BD7803002070B50025044600280ED0A07901280BD8FDF712FEA0790028204602D004F0AAFA07
:4052C00003E004F07FFA00E00125284670BD0000014610B50120002904D006220248FDF7FEFC002010BD00008403002001460120002903D008780249087000207047000021
:405300007A03002010B506F04DFA10BD10B5002404F084FC002800D00124204610BD7CB5FF24069E079D00280BD0002909D0002A07D0002E05D0002D03D0002B01D01B2B6D
:4053400001D901240BE00096019506F039F8042802D0052802D002E0292400E0002420467CBD7CB5FF24069E079D00280BD0002909D0002A07D0002D05D0002E03D0002B51
:4053800001D01B2B01D9012406E00096019506F05EF8042800D1002420467CBDF0B589B015460F4606460124FDF796FD002E20D0002F1ED0002D1CD0102239466846FDF78C
:4053C0008EFC1022314604A8FDF789FC1021684615F002F8102104A814F0FEFF2B46102204A9684606F004F81021284614F0F4FF0024204609B0F0BD10B508F0EFFC09F082
:405400009DFE07F051FE10BD10B508F0E7FC06F0ABFA09F0FBFC10BD70B592B00E4605460024FDF759FD03F0B3FE00280AD001F097F8002806D0002D0ED0EA7F1F2A03D995
:40544000012409E002242EE000A829460130FDF746FCE87F69460870002E0FD0002C22D1F27F1F2A01D901241DE008A831460130FDF735FCF07F08A9087001E0002C12D1F7
:405480000020002D04D010A9684601F0B7F80120002E04D010A908A801F058F901E0002801D001F019F8204612B070BD70B505460124FDF711FD002D04D00821284614F092
:4054C00067FD0024204670BD10B5FEF755FF012801D1FEF757FF10BD0148007A70470000E00D00201CB5FF206946087100200870FDF7F2FC6A4601A90620FEF7E3FD694653
:40550000002008561CBD000038B504460120002C20D0617801291DD800290BD0FF25E535FDF7DAFC0C4828180088C0B22070072803D00EE0FF25CD35F2E700206946087048
:405540006846FEF73BFF69460878012801D108202070002038BD000000102E4010B507480024807B002806D00448203002F02CFF012800D1FE24204610BD0000200D002053
:40558000F8B5012406460D46002925D013480078002808D0FDF7A0FC694630460DF028FF040003D018E000200880F8BD6846008802F044F906000ED002F0D5FE00280AD074
:4055C0000748F121807A0840C00602D5308A288002E0022400E006242046F8BD78030020D80C0020014A0021926810477803002008B500226B461A7026280CD0094A3428F2
:4056000052680BD0352805D1900703D50021352009F0A6FF08BD19462620F9E7D007F9D03420F5E77803002001460020002902D0024A5160704701207047000078030020E1
:40564000F7B582B001A90DF0D3FE05004CD1FDF743FC6846808802F0F1F8040043D002F082FE00283FD0FF278820493700593E46002805D01E49897A890601D5878AC68AD6
:40568000204600F071FB01280ED005F01FFF50210A5B617901F04AF9283081B233463A46204605F06DF909E00096264604994036328A3B46084605F041F9F08220464030E5
:4056C000C28A04998A4200D9C182C18AA07804F059F80398012801D901200390A078039904F01CFA00E00625284605B0F0BD0000D80C00200149087270470000E00D0020BA
:4057000010B501F07BF810BDF8B50E4669460DF06FFE05001BD1FDF7DFFB6846008802F08DF804000AD002F01EFE00280FD0E08A002E05D001210843E08205E0062506E0C8
:4057400040084000E0820221204603F045F92846F8BD0000F8B504460120002C26D06178012902D92278092A20D8002905D0FF25E5352078092803D004E0FF25CD35F8E7C4
:4057800008202070FDF7A8FB2078114F114E08280DD00020FEF7B4FE70780128207810D00D4969180880FE2070700020F8BD0120FEF7A6FE0720B8810549203188800120D2
:4057C000F2E7B8810248217820308180EBE70000C0112E407803002000102E40F8B50E4669460DF005FE050033D1FDF775FB6846008802F023F8040019D002F0B4FD002821
:4058000026D01548F121807A0840C00621D520464030418A008A491C41430804C00C0F4986420CD326822079072802D011E006250FE001200870204601F0AEFA09E0002E1E
:4058400007D100200870A078002103F091FA00E002252846F8BD0000D80C00207803002010B509480024807B00280BD0FEF784FD062801D0032800D12824FFF76FFEFE28BA
:4058800000D12824204610BD200D002070B50E46050001D0002400E00C4C002C11D0E28A500609D5D107C90F022004F017F9E08A40218843E08204E0D107C90F012004F07C
:4058C0000DF93146284603F0DBFC70BD400D0020F8B50546002004460D4E009013E022466946284601F080FA0098002801D014F033FEA878214603F0CBF9A878214603F0AB
:40590000B9F9641CE4B2308AA042E8D8F8BD0000080E0020F7B58E462249086820308078002802D08446002338E0FF20FEBD1D48212100680D5CE9000A1856799779D4792D
:4059400012794058B2420DD314F006FE1548006820304178491C8907890F41708178491E8170E2E78118B61A0098F6B20160BC4212D1A64204D290197146C0B20E7003E026
:4059800010197146C0B20C700299EA000D70054909685118087103E05B1CDBB26345C6D30020FEBDE0030020064A02235188891C89B25180814201D8102900D95380508818
:4059C000704700008A03002001484078704700008A030020F8B50D460446FCF717FF144E3068034620339A78042A1CD0E178A77809020F431978521C491C8907890F1970DF
:405A00009A70CA00845010184771316800205118087130681018C571306810188571FCF7F1FE0020F8BDFCF7EDFEFF20F8BD0000E0030020F8B54E4CFEF79EFC012847D114
:405A40004C480078002843D003F0A2FB00283FD007F09CFE00283BD0474E7078C00703D000F084FD012833D0307E00287DD17078002500285BD0000706D540488089070B97
:405A800000F02EF9384370D13B484178684605F027FD21793A4CA2788918C9B2814262D803F076FB002860D0344860300789324E203603F0DDF86846008803F025F903F08D
:405AC000FDF930490988884203D10120FEF7F2FC4BE02D49012008702748807B00281DD0002F1BD04036F07E002817D123486030008821494000C031498981420AD26078D6
:405B0000002807D104F028F82049088A03221202104308822078002800D0257003F056F90120FEF761FC00F08DFC174C15E003F02FFB002819D0102403F0C0F9214603F02D
:405B40004FF803F0E1F8104C0120207003F03EF90020FEF749FC00F075FC20780128B4D1FEF7C6FB25700020F8BDFF20F8BD0000180D002010030020200D0020A0102E4003
:405B8000A2030020B40300208A030020E0112E4010B50848FF244078002809D103F0F8FA012805D1FEF770FA0720FEF783FC0024204610BD200D002038B5FEF7DDFB0128E6
:405BC00001D0002038BD03F0E3FA00280AD0114C6078C00703D000F0C9FC012802D0207E002801D0FF2038BD617800290FD0684605F076FC022806D96846008803F084F81F
:405C0000012003F0EDF80320FEF754FCD9E70020F7E70000200D002038B51E4CFEF7ACFB042813D0052811D0062812D003282AD007280AD100206946087002460120FEF704
:405C400041FAFEF799FB0128FBD138BD00F01AFC38BD03F0DDF800F015FC03F069F98007800F0228F4D10C4841880029F0D05B21095D0029ECD101210170A07D0140022077
:405C800003F02CFF38BD03F0C7F80120FEF712FC38BD0000400D0020A2030020F8B50646002403F099FF0546304603F0AFFF03460A480021068A0DE001228A4010461746F1
:405CC00028401F40002803D0002F01D1224394B2491CC9B28E42EFD82046F8BD080E002070B500252C460A4E03E0002C01D0002000E030460079002803D02046FFF7CEFF67
:405D00000543641C2406240EEFD0284670BD0000400D00201CB50020694648706846FFF7F3FB01AA69460A20FEF7CCF96946042008561CBD70B50D4601F080FD04000BD081
:405D40002079002808D0FDF7C7F8E178A0782A4603F044FB002070BD022070BD0148007870470000180D00204030C07E002800D00120704700B500F001F800BD9021484356
:405D80000749084A40186030417F491CC9B24177D289914201D300214177C8B270470000200D0020080E002013B501F047FD04000BD002F0D8FA002807D0214601AA0A3186
:405DC0000620FEF77FF900201CBD02201CBD000010B50C4601F032FD00280AD002F0C3FA002806D0224604490A20FEF76BF9002010BD022010BD0000010D0020F3B581B01B
:405E0000074601460026029803F0DEFE0446002F01D0002500E0154D002D21D0284601F043FD032C04D13946029803F029FF06463846029902F01EFF032C06D0002C10D014
:405E40000121384601F020FF03E03146384604F0DFF9284602F0A6FD0221284602F0BCFDFEBD3846029902F005FFFEBD400D002010B5044600F0CEFA002804D105F06AFA80
:405E8000002801D00C2010BD2078611C03F0CAFBFF2801D01F2010BD03F010FCFF280AD02178621C02F06EFE044821780068026B601C904710BD072010BD0000C8030020F1
:405EC00010B505F047FA002801D00C2010BD03F08BFB03480068C06A8047002010BD0000C803002070B50D460446102114F074FA10216018064614F06FFA334610221946EF
:405F0000204605F075FA1021304614F065FA02202870204608F006FA70BD0000F8B504464078217802028006870FE0781143A67809050002090D0643084601F07FFC0021CC
:405F40000546F2B2002812D0002C10D0022F0ED0032F0CD0002A0AD00279092A07D0002A05D0134A5A23527E1B5C9A4207D82889002108F0C4F8204614F0EEFAFF2100297A
:405F800014D10C48224600682946436930469847C0B2FF280AD128464030817EF2B2491C8176FF232146284600F00DF9F8BD0000D80C0020E40300200020704710B5044684
:405FC00005F0C8F9002801D00C2010BD2078611C03F028FBFF2808D003F054FA044821780068426B601C904710BD1F2010BD0000C803002010B500F0A1F908F06FFA0020AD
:4060000010BD000010B504460F4802F0DDF9012817D00D4805222146AC30FCF760FE0A490522AC310846BC38FCF759FE01F00AF8054880222038C17B1143C17300F0BAF9C1
:4060400010BD3A2010BD0000400D002010B5044600786178E2780843A17811430843217908436179084305D005F05EF9002803D00C2010BD122010BD204603F0CBFB0020A5
:4060800010BD000010B5FCF7D9FB03F0C7FD044805F04CFB03F000FA012000F003F810BDE80C0020F1B586B003A8009005A801902A489F22817A114081726846FCF776FF91
:4060C000002849D169460989C90705D0244806990068C2686846904769460989890706D5002839D11F480068816A06988847002832D11D4E0025757075737571F5753576CE
:4061000075767575B570F570B5713746F5730120CC3738731F20F880FF2130467972A0300176457600F032FB04F018FE02F0FCF800242046069902F0A9F8002803D1641CA7
:406140002406240EF5D0FD720749BD72B573C0310D704D704D600D7207B0F0BDD80C0020E4030020C8030020200D002070B505460E46084603F030FD0446304603F046FDC2
:406180000121A9400A46224001400A4301D0012070BD002070BD10B50446084603F036FD0121A140014201D0012010BD002010BD10B5FEF7E1F8032804D102F02DFE0120E2
:4061C000FEF778F910BDFEB51C4616460F46054602F0E8FBA878FFF7CDFD02460190334639460094284600F00DF8002808D1A8780199FFF74BFBFF2C02D1384614F0ACF9C2
:40620000FEBD0000FFB585B005460E980C46FF2810D02B49C00009680A5840180179C0795278814201D9012601E09006860F6846038108E06078A1788006860FE078000244
:40624000014368460181284602F0A2F8070007D021462846079A00F054FD384609B0F0BD304600F059FE04AE0346039002AA29460096204600F01BFC3C20405D002818D0C5
:40628000284602F085F8012813D0684600890096C0B20190A878231DFF22079902F0A4FF68460089039BC2B2A878079903F0DEFBD3E7684600890021C0B20091E9E70000B5
:4062C000E0030020F8B5104F002500242846FFF7E5FC060012D00EE03046E040C007C00F07D02146284602F0BBFC21462846FFF785FD641CE4B2388AA042EDD86D1C2D0622
:406300002D0EE2D0F8BD0000080E002070B50024094D03E0002C01D0002000E028464121095C012901D100F0A2FC641C2406240EF0D000F03FF870BD400D002010B503F032
:40634000ABF80020FFF7AEFE14F09CF9002010BDF8B5002400F004F90125012800D1012404F098FC012801D102200443104F00203E4620360423082203E0002801D000219C
:4063800000E031460979002907D001290BD002290BD0114681402143CCB2401C0006000EEBD07C70F8BD2C43F7E71C43F5E70000200D002070B5144E0024F07BC00921D08E
:4063C0003546203503E0002C01D0002000E0284601F0D4FF012814D0641C2406240EF2D0F07B4006400EF073002403E0002C01D0002000E0284600F03AFC641C2406240E3A
:40640000F4D0002070BD0000200D002010B5FFF79FFF10BD10B5044608F048FA002802D1601C00F001F810BD1CB500240094062269460194FCF744FC002800D112242046A5
:406440001CBD000070B50E4CFCF7F7F80546FDF793FF062802D02078012803D02846FCF7F0F870BDFCF744FA2846FCF7EAF8FDF783FF0628F5D020780028E5D170BD000087
:406480008A03002010B5FCF7D8F80446FDF774FF012809D0FDF770FF022805D0FCF728FA2046FCF7CEF8EEE72046FCF7CAF810BD10B50B4681791943817103D08078114621
:4064C00003F05AFA10BD10B582798A43827102D1807803F065FA10BD30B50C4C0220A28A0B4B9978002901D0022906D11D785B78EB18282B01D9032002E0032900D1012075
:406500005105490DC0020143A18230BDC0112E409803002000B500F029F8002807D0012805D0032801D0042801D0002000BD012000BD014600B50020C90701D000F010F873
:4065400000BD014600B50020C90701D000F008F800BD000001480068704700009003002001480088000A704720102E400448008B410501D5042070474007800F704700004E
:4065800000102E4010B502F099FC044602F0E0FC0146204602F0BAFC10BD000001484068704700009003002038B50446000610D5FFF7DCFF01280CD1684602F03DFC6846FC
:4065C000007800F0A2FB012002F068FA0220FFF71DFF600708D507480179012904D1002101712620FFF704F80348006801692046884738BD9C030020C803002070B50546B5
:406600000C49007800240870FFF7AAFF012803D1FFF7B8FF022803D3284603F067F807E0284600F0F7F8040002D1034801210170204670BD98030020E00D002070B5044635
:40664000FFF78EFF002801D00C2070BDA27B01211F48002A827801D00A4301E05208520082706279012A14D0C17849084900C170184D2868016820468847207901280CD0BF
:406680006188208804F056F92080207904280FD015E0C2780A43C270EAE72868C168E01D8847E01D03F0A2F80B48808C208006E02868C168E01D8847E01D03F097F80749FB
:4066C00020798870204603F01FF8002070BD0000200D0020C8030020D80C00209803002008B50178FFF73CFF814201D10C2008BD002914D0072069460870FFF70BFF0128E4
:4067000007D10121684600F0E5F8012801D0092008BDFFF7E1FE03F02BF8012011E0FFF7F9FE012806D1684602F086FB6846007800F020FB03F012F8FFF712FF0028FBD1C8
:406740000220FFF763FE002008BD000070B505460C49007800244870FFF702FF012803D1FFF710FF022803D3284603F0E5F807E0284600F069F8040002D1034801214170D0
:40678000204670BD98030020E00D002038B5684613F078FE002801D01F2038BD01210098C90201804180002505714571857107214173857302F0A8FF009C2022002120465D
:4067C000FCF796FA25702A460021601CFCF790FA204602F08BFF204603F0AEF8009813F0BBFE062200210448FCF782FA02480C388560002038BD00009C030020034A918A0F
:40680000042319439182024948807047C0112E409C030020F8B5044600256846009513F031FE002801D007250AE0064E009830602278611C401CFCF752FA31682078087083
:406840002846F8BD90030020F8B5044600256846009513F017FE002801D007250AE0064E009870602278611C401CFCF738FA7168207808702846F8BD900300200346084810
:4068800000B5834209D8184600F0D8FF002804D00089984201D1012000BD002000BD0000FF0E0000074A9179491C8906890E917138220A4092014907090E114308430249EF
:4068C00008407047200D0020FF0E0000C006C00E70470000F8B507460E4600240D4803E0002C01D0002500E005462979002905D0641C2406240EF3D00020F8BD0021204662
:4069000001F0C4FC2E712046FFF7CCFF28813C700120F8BD400D002010B504F0D7FD0222002100F003F802F047FD10BD10B5094B40074907000F090F185A595A40185043A1
:40694000C0086421FCF780F8002800D1012080B210BD000034CB0100F7B53D20405C88B015460C46002802D02878042802D200200BB0F0BD6946087200262046FFF7F4F902
:40698000012800D00126204603A938300191009023460327A17E34333246206A04F0E6FE02A8089900900B46019120463A4603A9243004F0E5FC02466846007A2870204641
:4069C00001F050FC1046D3E7FFB587B00C4605461078694608723D20005D1746002826D000262046FFF7C0F9012800D00126204603A93830019100902346A17E343332467E
:406A0000206A04F0B3FE02A80090291D019120462B1D03A924300A9A04F0B2FC02006846007A388002D1204601F01CFC10460BB0F0BDF0B505463C20405C89B016460C4670
:406A400000280CD0307869460873002806D000272046FFF789F9012803D003E01F2009B0F0BD012703200890204604A93830019100902346E17E34333A46E06904F076FED9
:406A80006846007B03A928180290009120462B46019504A92430089A04F0BEFC02466846007B3070204601F0E7FB1046D7E7FFB505463C20405C89B016460C46002810D09C
:406AC000084601F065FC01280BD0308869468883002809D000272046FFF746F9012805D005E000200DB0F0BD0220FBE70127204603A93830019100902346E17E34333A46D9
:406B0000E06904F033FE291D2B1D07A8129A6D4607C5204603A924300C9A04F07DFC02466846808B3080204601F0A6FB1046D9E710B518490446484028D0002101231A46B2
:406B40008A40904221D0491C2029F8D300212046C840C243520618D0400616D0491C1929F5D3A0B2210C020AC3B2884201D193420BD01F21204600F0D4F9182805D8A00E26
:406B8000062100F0CEF9022801D2002010BD012010BD0000D6BE898E70B50D460446FFF7E3F801280AD0E87AA97A00020143A07802F0CCFA012808D0002070BD002224218E
:406BC000204603F0F3FD242070BD28214C200155204600F03DFD282070BD0000002801D0002000E003484030C07F012800D0002070470000400D00200146002049070ED501
:406C00000021084B03E0002901D0002200E01A461279022A04D0491C0906090EF3D0704701207047400D00200146002049070ED50021084B03E0002901D0002200E01A467F
:406C40001279022A04D0491C0906090EF3D0704701207047400D002010B5044680346068002803D013F08CFC0020606010BD38B50546002000902846FFF776F801281FD1AE
:406C8000284601F070FB00281AD028792C46C01E40340300FCF738FB07050511110511141100284601F07AFB012806D0684613F0F9FB002805D0012008E060780028FAD0B4
:406CC00038BD2846009903F013FC0220607038BD40304170704740308170704770B50546403528780C46052904D0002C05D1801E022802D8022003F0C9FD2C7070BD01712C
:406D0000704792001018C166704770B53C2501F0BBFD040004D020460021433002F042F9FF222946204600F033FD002C02D0A07801F026FD70BD000010B5002801D000208B
:406D400000E00348002802D0008907F04CFA10BD400D002010B5002801D0002000E00448002804D00179072901D100F093F810BD400D002010B501F087FD002802D080788B
:406D800001F0FEFC10BD10B54121095C012901D1FFF76DFF002010BD70B50546008A00281ED01049F122897A1140C90618D5294640314A8A098A521C4A4392B2D10800D188
:406DC0000121540801E0621A94B2A042FBD9FEF715F9012804D1298AA878224602F08CFA70BD0000D80C002010B50023054C0B60248A944204D992001018C26E0A60C36655
:406E000010BD0000080E0020FEB5064600200090019080208559684613F044FB002801D00720FEBD20213046009FFFF74CFB34464034A08AE080608AA080208A20813046F0
:406E400003F0B4FDA88C218A884207D1288A618A884203D1688AA18A884203D0F07920210843F071688AA082288A6082A88C2082E98CE182FEF798FDE081208AFEF7A4FD21
:406E800060733946304603F05BFB0120A0700198FEBD000038B5044600200090A079002814D14020015D052901D00E290ED1684613F0F8FA002809D12046009903F054FC75
:406EC00003481021C28A2046FFF7F2FA38BD0000D80C002010B50446807803F097FD204601F0DAFB002010BD10B50B4604460146184602F000FF002802D0204613F036FB58
:406F000010BD13B5044601AA11460620FDF7DAF86846818861811CBD002800D102207047704770B500231A46491E0CE00446D440E507ED0F541C0646E640F407E40FA54291
:406F400000D05B1C521C8A42F0D3D8B270BD0000F8B504462346401D543300909A1EA078911E01F08DFF25464035A88A298A8000FBF76AFD401E81B2688A884203D9698294
:406F8000A07802F0F5FD698A8C20015120460021433002F007F827480088E88104F096FAE989891C8AB26179FFF7C0FC02F004FA04F08CFA2A8A6179FFF7B8FC074602F055
:406FC000EFF9688A002806D01B49088A032212021043088202E0002002F0BEFD1648803801886E8A002E0CD0304648431349FBF71BFE0004000C01D0401C80B21049488065
:4070000002E00F4800214180288A704381B2A07802F0A0FCFF2228374932B9B21346204603F0AEFCE98AA07802F0ACFBA07801F05FFEF8BD80102E40E0112E407102000026
:40704000A203002030B50021124C0A46A05C002308E0C50701D0491CC9B201290AD840085B1CDBB20028F4D1012903D8521CD2B2052AEBD302290BD207488118C87B012294
:40708000082B03D29A400243D0B200E01043C87330BD0000EC0D0020200D00207FB504468034616805460E46183108226846FBF716FE31462031082202A8FBF710FE1021D8
:4070C000684613F089F960681021083013F084F960682B46083024331022694604F088F97FBD10B504460821FFF7EDF910212046FFF7E9F92079052822D0062820D00828C9
:407100001DD12189002006F0B9FF072020712046FEF72AFE012819D00E212046FFF7DEFD002158200155204601F03CFB2046FFF793FD2046FFF730FE2046FFF724FE10BDF8
:4071400020890122002106F07DFFDEE70521E4E7FFB581B01F4604460821FFF7B4F910212046FFF7B0F92079082803D0092804D0042503E00425012601E0092500262046CC
:4071800001F0E8F800212046FFF7A8FD25712046FFF762FD0398002E02D0012808D00BE001280AD120890022029906F04BFF04E02189029806F062FF0127204600214030BC
:4071C0000176012F07D0204601F0ECFA2046FFF7DAFD05B0F0BD02990173204603F012FB054605480121C28A2046FFF761F9002DEFD109202071ECE7D80C002070B50C4619
:407200000546FEF7B1FD012809D108212846FFF75AF90023012221462846FFF799FF70BD10B5044601F096F82046FFF715FD00212046FFF753FD10BD70B505461A24FEF76E
