:4000000000800020110000008D0300008D03000008B500F039FB00F0D5F9C04638B51222184B1A6001F046FD174801F065FB012001F060FD302001F027FC144A144B1A605E
:40004000144C8025ED052560134A116802230B431360124A124B1A60124A136808218B431360FA20C00001F0C1FC0F4801F002FC802212060D4B1A60802212030C4B1A60F2
:40008000256038BD30001040001BB7000600008004010B400C020B4078002E406A2D00007C002E406CF02E40DC05000008010B4000010B4010B572B60022284B1A60002473
:4000C00010E0274863001A195200821891881B195B001A5AC31858880004104300F0D8F90134E4B2012CECD9EE2212061D4B1A6099231B041C4A13601C4A13601C4A136003
:400100001C4B197802220A431A701B4802783C218A4328390A430270197816220A431A703022164B1A60164A164B1A6080229200154B1A60E13AFF3A144B1A60C0229202EC
:40014000134B1A60C022134B1A60D8221204124B1A60FFF763FF00F08BF910BD6CF02E40304E01000000024000500F4010500F4030500F4000700F4001700F400000044002
:400180000020DB00080004400C0004400001044008010440000304400803044010B5064C2378002B07D1054B002B02D0044800E000BF0123237010BD881300200000000054
:4001C000C04C010008B5084B002B03D00748084900E000BF07480368002B00D108BD064B002BFBD09847F9E700000000C04C01008C130020C00C00200000000038B5114B23
:400200001B78023B012B1CD8032002F0FFFF051C01F07BFA041C032D0AD103F0E6F9042803D003F0E2F9062808D101F017FC05E003F0DBF9022801D001F002FC201C01F09C
:4002400068FA38BDFC25002000B583B04F2835D880001B4B1B589F46002000F0E9FE2DE04B88062B2AD906236A4613805380002393806433D380134B187869460BF038FF03
:400280001CE0002000F0D4FE18E009780E4801F051FF13E00D4B1B78042B0FD1002000F0C7FE0BE00A48022201F033FF06E00022074B1A7002E000200FF014F803B000BDA9
:4002C000C44C010004260020044E0100FC250020B424002000B585B00A4A13881B0492881343039303AB009304236A469380064B5B88138168460021002200230FF0E2FD34
:4003000005B000BD48550100E853010000B583B0124B1A6800929A8869468A809B798B7100220F4B1A6062B60E4800F025FE022007216A4601F0A8F80B4B18880FF056FDE3
:400340000A4B18880FF052FDFFF7C4FF02F066FFFFF754FF00F038FCF8E7C046284E0100B82400204902000034550100CC4E010070B5161C002405E04D1C087800F040FC00
:400380000134291CB442F7DB301C70BDFEE7C04608B5031C094A1068C318094A9A1A8021C9008A4202DC054A136005E001F076FE0C2303600120404208BDC046C40C0020FE
:4003C0001026002070B50F4E0F4D13E029686B68AC68002202E001C901C30432A242FAD1E868002202E0002102C304328242FAD11035013E002EE9D101F056FEFFF786FFBC
:40040000FEE7C046010000004056010008B5124A136801218B43136000230AE0032B03D89A000E49505800E00D4899000D4A885001332F2BF2D9FFF73DFE00220A4B1A601B
:400440000A4B1B68002B01D1084B1A60024A116801230B43136008BD00001040000000008D03000000000020C8000020C00000200323044A1360044A13600022034B1A6011
:400480007047C0463000304030003140000E3F4008B50A1C002101F045FE08BD002306E04218013A12789B189BB2013989B20029F6D1584280B2704730B5002307E01C1881
:4004C0002478E4B2CD5CAC4205D101339BB29342F5D3002000E0022030BDC0460047C04608B58022024B1A6001F0B8F908BDC046C0000020F0B583B00D1C6B469E1DDA8023
:4005000001230B704870141CAA70130ACB70171DB9B2281CFFF7C2FFE855631D000AE854A31D1722EA540734A1B2281C321C962301F078F803B0F0BD70B5051C0E1C141CB4
:40054000002802D0002001F087F9002004E0013CAB191B5D1818C0B2002CF8D170BDC04608B50C2857D880003A4B1B589F4609024942394B9C466144012351E009024942A0
:40058000364B9C46614404234AE009024942344B9C466144022343E009024942314B9C46614404233CE0090249422F4B9C466144012335E0090249422C4B9C46614401239A
:4005C0002EE0090249422A4B9C466144022327E009024942274B9C466144022320E009024942254B9C466144022319E009024942224B9C466144042312E009024942204B2C
:400600009C46614401230BE0090249421D4B9C466144042304E0002001F01EF902230021012B02D10878C0B200E00020022B03D10A78487800021043042B0AD10A784B784E
:400640001B021A4388780004031C1343C8780006184308BD3C4E0100C0FF0300C1FF0300C5FF0300C9FF0300D0FF0300D1FF0300D6FF0300D2FF0300D4FF0300D8FF03007E
:40068000DCFF0300E0FF030008B50D4B1B68DB0602D400220B4B1A600A4B1B68802B0ED10022084B1A6002200021FFF759FF002805D002200021FFF753FFFFF70FFF08BD06
:4006C00000030B40C000002070B5051C0320291CFFF746FF441C24020420291CFFF740FF24180320291CFFF73BFF013000020023002608E001784A1ED2B2FD2A00D80126FC
:400700005B18DBB20130A042F4D35B42DCB20120291CFFF725FF844203D1002E03D1062002E0062000E0002070BDC046F0B55F4656464D464446F0B4C84CA544051C00F082
:4007400059FF62B600239B4600270A249946002D01D1FF2300E02B1C52A896214900C04A02AEB446624400F093FF002D01D0013CE4B2002C01D00028E9D1002800D010E219
:40078000B74B02AA944663441B88062B24D952AA1278012A22D152A9CA78120289780A439146111C07329A421AD896235B009A4218D84A1D52AB9E5C3202081D1E5C164381
:4007C00006315B5C172B0FD181B252A8FFF766FEB0420BD100260AE0042608E0042606E0032604E0032602E0042600E00826002E00D07CE152AB1A7992465A78131C313BE2
:40080000D9B2142900D946E18B009649CB589F46012F00D06DE14B46002B00D06CE10020FFF752FF4342434152AA13710122B1E1012F00D063E14B46032B04D00423FF3382
:40084000994500D05EE152AA93791B025279134398464B46032B08D0DA1E07A84821FF3102AB9C46614401F054FC5346012B00D94BE15802404400027B4B984500D90A26C5
:40088000002E00D044E107A980225200FFF714FE061C00227EE1012F00D03BE14B46012B00D03AE15346012B00D939E16F4B1B681B685A0CD2B2924502D1DB03DB0D05E04B
:4008C000924501D9002301E080239B0052AA13711B0A5371FF239371FE3BD371042259E1342A0ED1012F00D01DE14B46032B00D01CE107A80021CC3201F014FC80235B0005
:400900009B46012F00D014E14B46022B00D813E107A85844DA1E4821FF3102AB9C46614401F0F7FB5B464B449BB20422FF32934200D004E152AA93791B02527913439B46DF
:40094000494B9B4500D90A26002E00D0FFE053465802584480B2454B1B681A68130A9BB2FF21114201D001339BB2984200D2F3E007A900F0D5FE002800D00A2600239B467A
:400980000133FF339946002204E1012F00D106E104260022FEE0012F00D0E5E05B464B4496225200934200D9E1E007A8584453A94A4601F0AEFB5B464B449BB29B4600227A
:4009C000E8E04B46002B00D0D4E004AA284B03CB03C253AA04AB03CB03C200239B4601270822D7E0012F00D0C7E04B46032B00D0C6E052AA93791B02527913439846534656
:400A0000590241440902184B984500D90A26002E00D0B8E0002080225200FFF78DFD019053465B0243449BB25246012A11D1114A93420ED105200021FFF792FD019B1B1AAD
:400A4000DBB2984606200021FFF78AFD43461B1AD8B2424252AB1A7101229BE084FDFFFF6E020000704E0100FF010000C80C0020C44E0100FF0300000020FFF725FE00283D
:400A800002D180224E4B1A6000F0B6FD00F0E6FE042600227EE04B4B1B68002B75D0012F76D102A90A700A1C4946518053AA039200210491059104AE069202A8311C9847E4
:400AC000B2882623FF339A4203D953AB0699994207D0069B002B01D1002A05D1049BDEB258E00E26002255E00E26002252E0002250E0042600224DE0042600224AE00426B7
:400B0000002247E00426002244E00926002241E000223FE0042600223CE00426002239E00426002236E00426002233E00426002230E0042600222DE0042600222AE000238D
:400B40009B460133FF3399460326002222E080235B00994600221DE000239B460133FF3399460A26002215E00426002212E0032600220FE0042600220CE00426002209E091
:400B80000426002206E0002204E00526002201E005260022301C52A9FFF7ACFC01E000239B46002D00D1D2E5012F00D1CFE59F239B009D443CBC90469946A246AB46F0BDDD
:400BC000C0000020A413002008B50020FFF77CFD002801D0062200E00022074B1B68402B01D0002A05D00022034B1A600020FFF79DFDFFF775FC08BDC00000200000000019
:400C0000FEB5494652465B460EB407462E4909688A462E4A12682E48022101F0BDF803002A480068C0182A4901F0B6F806001F3EB346234A126801219140C9430C00012506
:400C4000002600F062FD814651460B6823400B605846043000F050FD3800F040284090400B68234003430B60584600F045FD0136072EF1D900200130012090400B6823400C
:400C800003430B605846063000F036FD484600F040FDC046C046C0460EBC894692469B46FEBDC046C046C046C046C046C046C046C046C046C046C046C046C046C046C04658
:400CC000D80C0020D40C0020D00C00203010002000C20100C046C046C046C046C046C0467047C046014B18607047C046A813002000B585B0002816D1002916D1012A16D179
:400D00001978642915D8C0000C490818418801A80181828001930021002200230FF0D2F8002808D108E0012006E0012004E0012002E0012000E0012005B000BDCC4E010013
:400D400000B585B0002812D1002912D1012A12D1C0000B490818418801A8018182800193002100220FF078F8002806D106E0012004E0012002E0012000E0012005B000BD73
:400D8000CC4E010000B585B000281AD100291AD1012A1AD8002A03D1173101AA118105E0C0000C4A1018818801AA118101A88380069B0193002100220FF04EF8002806D196
:400DC00006E0012004E0012002E0012000E0012005B000BDCC4E010030B583B01E4B1B68002B32D08389172B31D17E33FF331B4AD358DB0422D5041C04300021221C402376
:400E00000FF060F8051E1AD123886A46138000239370D3700193606800F0A0F9C30706D50D4B1B682420FF306946984707E00A4B1B68922040006946984700E00625084AF4
:400E4000137801218B43137002E0002500E00025281C03B030BDC046A8130020E84E01000726002030B587B001AC20800C1C1D1C081C111C1A1C0A9BFFF73AFF00281ED1E3
:400E8000104B1B78022B15D1C733FF330E4AD358586800F063F9C3070FD5E4000B4B1C19638803A90B810A9B03938D8001980EF007FA04E00420FF3001E08020400007B0A7
:400EC00030BDC046FC250020E84E0100CC4E010070B5002905D11A4CE67F00230022002510E0174C2034E67FF7E7E25C002A0DD00133DBB2E15C0839012902D99B18DBB260
:400F000000E00125B34201D2002DEED0002D16D0D218D1B20133DBB21A1C02E0A5540132D2B28A4209D2D51A455D002DF6D104E0A318002018700132D2B29142F8D870BDF5
:400F4000DC0C002008B5FFF7CBFE00F0D3FB00F097FA08BD08B50023044A1370044A1370044A1370FFF7EEFF08BDC04607260020002600200626002010B590B0041C0BA831
:400F80001F49142201F0C5F81E4B1B78002B04D1FFF7E0FF01221B4B1A70002C2CD01A4B1C6008A805AA426006AB0893002101811B31198059801739197100231370123187
:400FC000694401F0E3FF002817D1052300930023019302930D480E49AE2212010BAB02F043F8002809D101220A4B1A700A4838218F320EF0E3FE00E0012010B010BDC04605
:40100000D44E0100AC130020E425002055120000D0000020FC250020E84E010008B502F0C7F80022014B1A7008BDC046FC25002008B5022833D81E4B1B78042B31D11D4BBD
:401040001B785B0730D400280CD11B4B1A1C40321E21118290225200596C0A805B6C20325A800EE001280CD1134B1A1C403296211182C822D200596C0A805B6CFA22120107
:401080005A800E4B18700C4840300CF097FF00280CD1084A117804230B43137006E0012004E00420FF3001E00420FF3008BDC046FC25002007260020DC0C00200626002028
:4010C00008B50DF02DF8034A117808230B43137008BDC046072600207047C04610B500281DD0104B9A6B5468998EC9B2002302E0E2540133DBB28B4202D2C25C002AF7D125
:401100008B4202D2E31800221A70041C0021FFF7DFFE201C0121FFF7DBFE002000E0012010BDC046E84E010010B5002812D00A4B9B6B5C681978002302E0C2540133DBB2A0
:401140008B4202D2E25C002AF7D1C31800221A70002000E0012010BDE84E010003784078000218437047C0460170090A4170704738B583890B2B20D1041C04300021221CE6
:4011800035330EF09FFE051E11D16068FFF7E6FF830706D50A4B1B6882204000211C984705E0074B1B680620FF30211C9847054A137801218B43137000E00025281C38BD93
:4011C000E425002007260020024B00225A701A707047C0460426002010B582B0041CFFF7C7FF124B1B78DB0704D5002802D1201CFFF7F2FD0D4B1B78DB0702D5201C00F045
:4012000079F90A4B1B78DB070ED4002809D001A912238B70A3890B80C87020680EF012F802E020680EF0AAF802B010BD072600208379002B07D000200BE0C25C002A07D137
:401240000133DBB200E00023052BF6D9002000E001207047F0B583B0051C0C1C794A117801230B431370502800D9DAE08300764AD3589F4601AE0727377000237370301C3D
:4012800002F022F8377001237370301C02F01CF86E4B1E68301CFFF7CBFF00280CD0301C01F0C0FF694E30680021FFF715FF30680121FFF711FF25E0654B1B78654A12781C
:4012C0003F210A4092010B401343634A127820390A4012031343614A127860310A40520413435F4E33701A0A72701B0CB370301C01F098FF301C0021FFF7EEFE301C0121DE
:40130000FFF7EAFE03200CF009FD01A83F230370002343700CF020FD0422524B1A7080E02278514B1A707CE02378002B79D16378002B07D14D4B0822DA8088329A804C4A00
:401340001A6063603F4A137801218B43137068E03C4B1B789B0664D4464B1B78102B02D10522444BDA70444B187842490CF0E6FD344A117801230B43137052E00222394BDD
:401380001A704EE00422374B1A704AE0354B1B78022B46D02B4A1278D20742D5294A1278520708D503222F4B1A70264A137804218B43137035E0234A1278120708D50422DF
:4013C000284B1A701F4A137808218B43137028E0032B26D10422234B1A7022E02648211C022200F096FE00221F4B1A7019E0FFF7EBFE16E06188162900D9172120880DF020
:401400002BFF0EE0201CFFF7E7FE0AE00D4B1B78DB0706D5201C00F0ADF802E0201C00F0C1F8084B1A7811231A4209D0054A137801218B431370114B1B68281C211C984779
:4014400003B0F0BD07260020F0530100300D00207CF2FF0F7DF2FF0F7BF2FF0F78F2FF0F340D0020FC25002000260020B0130020B00B00201C10002004260020E4250020CD
:401480007047C0467047C04600B585B008280FD840000A4B1818438801A80381818001920021002200230EF00DFD002802D102E0012000E0012005B000BDC04634550100F1
:4014C00000B585B008280ED84000094B1818438801A8038181800192002100220EF0BCFC002802D102E0012000E0012005B000BD3455010010B5021C8389382B11D1184B11
:401500001849CB58DB0405D50430002140230EF0D9FC00E00620144A137801218B4313701CE0372B19D10430002109330EF0CAFC8923DB000B4AD3585A680C4B1A60D378FF
:401540001B0292780A4C1343073323800121A170054A13788B43137000E0002010BDC0463C040000E84E01000726002008260020B813002008B543681B89372B0DD1037AC4
:40158000012B05D101200DF0ADFE0022034B1A80034A137801218B43137008BDB81300200726002043681A89372A1BD1427A012A13D11A680C4B1A60D3781B02927813438D
:4015C00007339BB2094A13800822FF32934201D9064B1A800122054B9A70054A137801218B4313707047C04608260020B8130020072600207047C04608B5084B18780CF023
:4016000025FA002802D005E001F008FE044B1B78022BF9D0FFF702FD08BDC04604260020FC250020F0B585B0061C0C1C151C154B154AD3585868FFF791FDC3071ED58923A6
:40164000DB00114AD3585F68381C311C221C00F060FD01A98C80019737230B810B4A13785078000218430DF02BFE002801D12C8005E000232B800120404200E0042005B002
:40168000F0BDC0465C040000E84E010004260020F8B5071C0D1C161C64225A43141C1DE001F0BCFD114B9B78012B13D10F4B00229A701A88AA4209D20D4B1968381C00F0E6
:4016C00028FD0A4B1B88338000240AE000233380062406E0642000F0CDF8643C002CDFD1103401F09BFD201CF8BDC046B8130020082600207047C0460230800803D00138F1
:40170000FDD1C046C046C0467047EFF3108072B6704780F310887047002070470020704730B5C5B0002343934293344B984260D800295ED0041C02A88022520000F0E9FCAE
:401740002F4B9C4201D92F4B00E02F4B0093FF2301932E4B6A461A602D492E4A1160C0461B681B0F0F2B04D1284B1B68FF22134008E0264B1B681B0F0A2B02D0234B1B68EE
:4017800000E000234393439B002B34D1FFF7BDFF051CFFF7C1FF4290439B002B1FD11E4B0093009B200418430090184B6A461A601A49184A1160C0461B681B0F0F2B04D1C3
:4017C000124B1B68FF22134008E0104B1B681B0F0A2B02D00D4B1B6800E000234393429B002B02D1FFF79AFF4290281CFFF791FF01E004234393439845B030BDFF03000047
:40180000FF010000B6D70001B6D70000080010400400008004001040B6D800000500008010B5041CFFF771FF07231C40E40404490B68044A134023430B60FFF76AFF10BD33
:4018400000010B40FFFFC7FF024B1B68012018407047C0460C002E4001BE7047034A13681B041B0C02490B43136070470CED00E00400FA0508B5034B1B7A5843FFF73CFF49
:4018800008BDC04624100020F0B557464E46C0B483B0041CFFF739FF0190E71E2D2F74D83F4B1B78DBB2A34208D33E4B1B78DBB29A463D4B1B78DBB2994631E03B4B1B785C
:4018C000DBB2A34208D33A4B1B78DBB29A46394B1B78DBB2994623E0374B1B78DBB2A34208D3364B1B78DBB29A46354B1B78DBB2994615E0334B1B78DBB2A34208D3324B5E
:401900001B78DBB29A46314B1B78DBB2994607E02F4B1B78DBB29A462E4B1B78DBB299462D4BDE5D2F2E09D92A2C07D919222B4B1A600520FFF7E0FE192503E0274B1D68EF
:401940003F231D40AE4206D2234BDA5D234B1A600520FFF7D1FE1F4B9C4664442378DBB21F4A13601F4B52461A601F4B4A461A600520FFF77FFFAE420AD9174BDA5D174B1A
:401980001A600520FFF7B8FE02E00020FFF764FF0198FFF7BEFE03B00CBC91469A46F0BD40F3FF0F41F3FF0F42F3FF0F43F3FF0F44F3FF0F45F3FF0F46F3FF0F47F3FF0F33
:4019C00048F3FF0F49F3FF0F4AF3FF0F4BF3FF0F4CF3FF0F4DF3FF0F505501002CFF0B4028FF0B401CFF0B4020FF0B4010B5041C0F4A116801230B4313600E4A0E4B1A60FD
:401A00000E4A1368802109020B431360002809D100200CE00120FFF72DFFFFF715FF002804D1013C002CF5D1102000E0002010BD60F02E400220000078002E4010002E409E
:401A400008B5FFF762FE044A136804218B43136030BFFFF75EFE08BD10ED00E030B583B0FFF753FE041C0E4A13685B005B0813600C4B1B889BB20C4A13600C4A11680423B8
:401A80000B4313600A4D2B6801930220FFF7C8FE30BF019B2B60201CFFF73BFE03B030BD00000B4052F2FF0F0C000B4010ED00E000010B4010B50D4B1A6801218A431A60C3
:401AC0001A68022082431A60094A10683024A043203C204310601068093CA043014311601A68802109060A431A6010BD00F02E4000FF2E4038B51D4B1B6801241C4000286B
:401B000002D0012816D02BE0184B19680122914319601968022081431960154B19682E3081432038014319601968093881430A431A6018E00D4B1A6802218A431A600C4A8E
:401B400010680725A84301431160116830208143103801431160196801220A431A6002E00020FFF779FE201C38BDC04600F02E4000FF2E400160704701607047324B1A787C
:401B80001202324B1B781A43314B1B781B02314909780B4330498B4201D1072A06D0D42109018B4206D1042A04D102E02B4B042200E02A4B2A490B602A4B1A602A4B1B78C2
:401BC0001B022A4A1278134380229201934202D0002B02D002E0264B00E0254B254A1360254B1B781B02254A12781343244A934205D0244A934204D0052B05D103E0224B22
:401C000002E0214B00E0204B204A1360204B1B681B09204A1268AA2A15D1012B13D9164B1B780E2B0FD11C4B1B781B021B4A127813431B4A13601B4B1B781B021A4A127821
:401C400013431A4A1360704759F1FF0F58F1FF0F5FF1FF0F5EF1FF0F580B0000580D00006C002E4074002E405BF1FF0F5AF1FF0F0220000078002E405DF1FF0F5CF1FF0F20
:401C80000F0F000005050000050F000080002E40EC0F00F0E00F00F06DF2FF0F6CF2FF0F84002E406FF2FF0F6EF2FF0F94002E4008B5FFF7DFFD08BD08B500F04BF808BD7D
:401CC00008B500F04FF808BD08B500F04BF8034800F02AF8032000F02DF808BD911D000008B5024800F046F808BDC046911D000000487047010200002B2070472B2070477F
:401D00002B2070472B2070472B2070472B2070472B2070472B2070472B2070472B2070472B2070477047C046014B18677047C0460000002010B5041CFFF7E7FC044A1368A5
:401D4000C0218B43A4011C431460FFF7E2FC10BD0CE400E080225201014B1A607047C04600E100E080225201014B1A607047C04680E100E010B5041CFFF7F4FF201CFFF7D9
:401D8000D3FF0320FFF7D6FFFFF7E4FF10BDC04608B512F081FF08BD002243088B4274D303098B425FD3030A8B4244D3030B8B4228D3030C8B420DD3FF22090212BA030C9D
:401DC0008B4202D31212090265D0030B8B4219D300E0090AC30B8B4201D3CB03C01A5241830B8B4201D38B03C01A5241430B8B4201D34B03C01A5241030B8B4201D30B03E8
:401E0000C01A5241C30A8B4201D3CB02C01A5241830A8B4201D38B02C01A5241430A8B4201D34B02C01A5241030A8B4201D30B02C01A5241CDD2C3098B4201D3CB01C01AE3
:401E4000524183098B4201D38B01C01A524143098B4201D34B01C01A524103098B4201D30B01C01A5241C3088B4201D3CB00C01A524183088B4201D38B00C01A52414308CA
:401E80008B4201D34B00C01A5241411A00D20146524110467047FFE701B5002000F0FCF802BDC0460029F7D003B5FFF775FF0EBC4243891A1847C04603460B437FD40022DB
:401EC00043088B4274D303098B425FD3030A8B4244D3030B8B4228D3030C8B420DD3FF22090212BA030C8B4202D31212090265D0030B8B4219D300E0090AC30B8B4201D3BF
:401F0000CB03C01A5241830B8B4201D38B03C01A5241430B8B4201D34B03C01A5241030B8B4201D30B03C01A5241C30A8B4201D3CB02C01A5241830A8B4201D38B02C01A2B
:401F40005241430A8B4201D34B02C01A5241030A8B4201D30B02C01A5241CDD2C3098B4201D3CB01C01A524183098B4201D38B01C01A524143098B4201D34B01C01A5241ED
:401F800003098B4201D30B01C01A5241C3088B4201D3CB00C01A524183088B4201D38B00C01A524143088B4201D34B00C01A5241411A00D201465241104670475DE0CA0F65
:401FC00000D04942031000D34042534000229C4603098B422DD3030A8B4212D3FC22890112BA030A8B420CD3890192118B4208D3890192118B4204D389013AD0921100E005
:402000008909C3098B4201D3CB01C01A524183098B4201D38B01C01A524143098B4201D34B01C01A524103098B4201D30B01C01A5241C3088B4201D3CB00C01A5241830847
:402040008B4201D38B00C01A5241D9D243088B4201D34B00C01A5241411A00D20146634652415B10104601D34042002B00D54942704763465B1000D3404201B5002000F040
:402080000BF802BD0029F8D003B5FFF715FF0EBC4243891A1847C0467047C046014B18687047C046801300200E4B70B500251E1C0D4CE41AA410A54204D0AB00F3589847E3
:4020C0000135F8E713F0AAFA084B00251E1C084CE41AA410A54204D0AB00F35898470135F8E770BD2856010028560100285601003056010030B50024944208D0035D651CFE
:402100000C5DA34201D0181B02E02C1CF4E7002030BD002310B5934203D0CC5CC4540133F9E710BD031C8218934202D019700133FAE770470FB40B4B13B51C68002C05D06F
:40214000A369002B02D1201C00F050F805AB201CA168049A019300F05BF916BC08BC04B01847C0468013002008B5024900F0AEF808BDC046F12C0000002310B5041C036023
:402180004360836081814366C281036143618361191C08225C30FFF7C5FF054B24626362044BA362044BE362044B236310BDC0466129000089290000C1290000ED290000B3
:4021C00070B568254B1E5D430E1C291C743100F09FF8041E08D000212A1C016046600C30A0606832FFF79EFF201C70BD836913B5002B28D18364C3640365134B134A1B68C3
:4022000082620193984201D101238361041C00F01FF86060201C00F01BF8A060201C00F017F80421E06000226068FFF7A5FFA06809210122FFF7A0FFE06812210222FFF7A9
:402240009BFF0123A36113BD8455010069210000F8B51D4B061C1D68AB69002B02D1281CFFF7C4FF4835AC686B68013B05D40C22A75E002F10D06834F7E72B68002B06D1D3
:40228000301C0421FFF79CFF2860002801D02D68E9E70C23336016E00123201C5B42E3810233A38167662760A760676027616761A7615C30391C0822FFF734FF201C676310
:4022C000A763A764E764F8BD84550100F7B5041C071C002601914834002C16D06368A5680093009B013B00930DD4AB89012B08D90E22AB5E013304D0381C291C019B98476E
:4023000006436835EDE72468E6E7301CFEBD0000032370B5CC1C9C430834051C0C2C01D20C2405E0002C03DA0C2300202B6042E08C42F9D3204A1368101C191C002913D003
:402340000A68121B0DD40B2A02D90A608B181FE08B4202D15A6802601BE04A685A600B1C17E00B1C4968E9E7144E3368002B03D1281C00F0E3FA3060281C211C00F0DEFAEA
:40238000031C421CD0D00322C61C964386420AD11C60181C07210B301A1D8843821A0AD05142995007E0311A281C00F0C7FA431CBAD0331CECE770BDB0240020AC24002033
:4023C000936810B5013B9360002B05DA9469A34208DBCBB20A2B05D01368581C10601970C8B201E000F008FB10BDF8B5061C0F1C141CD518AC4208D02178301C3A1CFFF787
:40240000DFFF0134431CF5D100E00020F8BD0000F0B59FB0061C0F1C02920593002804D08369002B01D1FFF7E1FE794B9F4201D1776808E0774B9F4201D1B76803E0764B12
:402440009F4200D1F768BB891B070AD53B69002B07D0002306AD6B6120336B761033AB763DE0301C391C00F033FB0028F1D001204042CAE0059A111D12680591002A7EDBB4
:402480000992013423782E2B00D189E021786348032200F0C5FC002808D0604B0134C01A40238340181C2B68184328602178631C5B4806220293297600F0B2FC002800D1CC
:4024C00091E0584B002B00D084E00722059B07339343083305936B69039A9B186B61029C2378002B04D1029BE31A049311D003E0252BF8D00134F3E7049B301C391C029A9C
:40250000FFF773FF431C7BD06A69049B944663446B612378002B73D00122002352426A6002A95432521801342B60EB60AB601370AB6521783C48052200F072FC002809D036
:40254000394B0134C01A01238340181C2B6818432860EEE72B68DA0604D55322202102A8121811701A0704D553222B2102A81218117022782A2A00D17CE7099B05E05242BC
:40258000EA60022213432B607BE72278303A092A04D80A214B4301349B18F6E7099371E763782A2B09D1059B02341A1D1B680592002B0DDA01235B420AE000230134227805
:4025C000303A092A04D80A214B4301349B18F6E707935BE705AB0093301C291C3A1C134B00E000BF07E005AB0093301C291C3A1C0E4B00F08BF80390039B013300D06AE77E
:40260000BB895B0600D532E70B981FB0F0BDC04688550100A8550100C8550100EE550100F255010000000000E8550100EB230000F7B5171C01930A698B6800900C1C9342AA
:4026400000DA131C221C3B6043321278002A01D001333B6023689B0602D53B6802333B60062523681D401ED0231C43331B785A1E9341226892061CD53020E1184031C8709F
:40268000211C5A1C45310978A21840320233D1700FE0221C0123009801991932089EB047431C0ED00135E3683A689B1A9D42F0DBDAE7221C009801994332089DA847431C0B
:4026C00002D10120404220E006232068E1683A6803400025042B03D18D1AEB43DB171D40A3682269934201DD9B1AED180027AF420ADA221C0123009801991A32089EB047BD
:40270000431CDED00137F2E70020FEBDF0B58BB006920A1C43320793059004920A7E0C1C109B6E2A00D1A8E011D8632A22D009D8002A00D1B2E0582A00D0C2E045310A70C2
:402740007C4A4FE0642A1DD0692A1BD0B9E0732A00D1A7E009D86F2A29D0702A00D0B0E0202209680A43226037E0752A1FD0782A33D0A6E00E1C1A684236111D19601368D8
:402780003370A1E021681A68080606D4490604D5111D19600023D55E02E0111D19601568002D3BDA2D23049A6D42137036E021681A68080606D4490604D51568111D196020
:4027C000ADB202E0111D196015685A4B227E03930A276F2A1DD108271BE0221C782145321170554A19680392081D226818600D68100602D4500600D5ADB2D30702D520232D
:402800001A4322601027002D03D1202322689A432260231C002243331A7002E00A27454B03936368A360002B03DB0422216891432160002D02D1049E002B0ED0049E281C4F
:40284000391CFFF72FFB039B013E5B5C281C3370391CFFF7A1FA051EF1D1082F09D12368DB0706D563682269934202DC3023013E3370049B9B1B23612BE009681A68080621
:4028800007D4490605D5111D19601368A28A1A8004E0111D1960136862691A600023049E236116E01A68111D196016680021301C626800F0B5FA002801D0801B6060636806
:4028C00003E0261C42363270012323610023049A1370079B05980093211C069B09AAFFF7A7FE431C02D10120404221E0236905980699321C079DA847431CF4D023689B07E0
:4029000005D4099BE068984212DA181C10E00025E368099A9B1A9D42F3DA221C0123059806991932079EB047431CDCD00135EFE70BB0F0BDF95501000A56010038B50023B0
:40294000064C051C081C2360FDF722FD431C03D12368002B00D02B6038BDC0460C26002038B50C1C0E25495F00F0ACFA002803DB636D1B18636503E0A289024B1340A38170
:4029800038BDC046FFEFFFFFF8B51E1C8B89051C0C1C171CDB0505D50E23C95E0022022300F0D2F9A289054B281C1340A3813A1C0E23E15E331C00F077F8F8BDFFEFFFFF5A
:4029C00038B50C1C0E25495F00F0BEF9A389421C03D1054A1340A38104E0802252011343A381606538BDC046FFEFFFFF08B50E23C95E00F0E1F808BD70B5051C0E1C141CDA
:402A0000002804D08369002B01D1FFF7EFFB234B9C4201D16C6808E0214B9C4201D1AC6803E0204B9C4200D1EC68A369A360A3891B070AD52369002B07D023682269F6B2EE
:402A4000981A636998420FDB08E0281C211C00F03FF80028F1D0012040421DE0281C211C00F046F90028F6D1A3680130013BA36023685A1C22601E706369984205D0A38929
:402A8000301CDB0708D50A2E06D1281C211C00F02FF90028DFD1301C70BDC04688550100A8550100C855010038B5051C0020074C2060081C111C1A1CFDF75AFC431C03D10D
:402AC0002368002B00D02B6038BDC0460C260020354B70B51D68061C0C1C002D05D0AB69002B02D1281CFFF781FB304B9C4201D16C6808E02E4B9C4201D1AC6803E02D4BBB
:402B00009C4200D1EC68A3899AB2110723D4D10607D409220120326037321343A381404240E0530713D5616B002908D0231C4433994202D0301C00F07FF9002363632422A1
:402B4000A3899343A38100236360236923600822A3891343A3812369002B0BD1A023A2899B00134080229200934203D0301C211C00F0FEF80123A289134005D00023A36013
:402B800063695B42A36103E0910700D46369A36000202369834205D1130603D540231A43A281013870BDC0468013002088550100A8550100C855010038B50023064C051CD3
:402BC000081C236000F0B6F9431C03D12368002B00D02B6038BDC0460C260020F7B58A89051C0C1C13075ED44B68002B02DC0B6C002B1ADDE76A002F17D000232E682B60AA
:402C000080235B011A4001D0626D15E0281C216A0123B847021C431C0ED12B68002B0BD01D2B01D0162B02D12E6000205EE04021A3890B43A38159E0A3895B0706D563683A
:402C4000D21A636B002B01D0236CD21A0023281C216AE76AB847A389421C06D12A68002A03D01D2A01D0162A19D10022626022692260DB0405D5431C02D12B68002B00D144
:402C80006065616B2E600029CFD0231C4433994202D0281C00F0D0F80020606326E040221343A38122E00F69002FBED00B680F60DB1B01930023920700D14B69A360019B86
:402CC000002BB2DD281C216A3A1C019BA66AB047002806DC40220120A38940421343A38104E0019B3F181B1A0193E8E7FEBD000038B50B69051C0C1C002B01D100201CE0B0
:402D0000002804D08369002B01D1FFF76FFA0B4B9C4201D16C6808E0094B9C4201D1AC6803E0084B9C4200D1EC680C22A35E002BE4D0281C211CFFF751FF38BD8855010094
:402D4000A8550100C855010038B5051C0020074C2060081C111C1A1C00F004F9431C03D12368002B00D02B6038BDC0460C260020F0B58B8991B09B0706D50B1C47330B60AE
:402D80000B6101234B6145E00C1C0E23C95E061C002904DA8023A5891D4010D10CE001AA00F0A4F80028F5DBF023029D1B021D40194BED186B425D418027FF0001E0002553
:402DC0004027301C391CFFF7A3FA00280CD1A3899A051FD402221343A381231C4733236023610123636115E080220C4BB362A38920601343A38120616761002D0AD00E2385
:402E0000E15E301C00F084F8002803D00122A3891343A38111B0F0BD00E0FFFF69210000C9B28218904204D003788B4202D00130F8E700207047000030B500293ED00439EC
:402E40000B68002B00DAC9181D4A1368141C002B02D14B60116031E099420DD208680A189A4203D11368C3180B6053684B60216024E08A4203D8131C5A68002AF9D11D6803
:402E80005C198C420BD10968691858181960904214D110685268091819605A600EE08C4202D90C23036009E008680C18944203D114685268001908604A60596030BDC0467E
:402EC000B024002038B5051C0020074C2060081C111C1A1C00F04EF8431C03D12368002B00D02B6038BDC0460C26002038B50023064C051C081C111C236000F023F8431CCE
:402F000003D12368002B00D02B6038BD0C26002038B50023064C051C081C236000F01AF8431C03D12368002B00D02B6038BDC0460C26002058220120014B40421A6070470E
:402F40000C26002058220120014B40421A6070470C2600205822024B00201A607047C0460C26002058220120014B40421A6070470C26002058220120014B40421A6070471D
:402F80000C26002000660100DD000000F8B5054633480E460078002802D002242046F8BD002E5BD000242F49002D16D02A89D0070DD02868002808D003881B3BE12B04D23F
:402FC0004088FB2801D81B2801D2012409E0900707D56868002804D1F7E70020088108604860002CDAD11F482F8907811C481B21801D018041800421017119490020891C57
:403000000870F80705D016480622801D2968FFF780F81449B80703D56A681148127882700F480D46801D0860001F486002F0E8FA0B48801D02F0D6FA28890EF02FF8288904
:403040000EF0A8F90346103300F012FC1F21C018890140180249308088809FE701249DE734100020BC130020FFB585B0002768460E9D07734C481C460078002802D0082035
:4030800009B0F0BD10990F9801900095029105A807C800F035FC0028F2D16946264603AB84460873002C19D0002115E08A00B75A082F09D990198078002805D0083FB7523E
:4030C0001878401C187005E0002915D00027B75290198770491CC9B2A942E7D360460028CED10F9800280AD0109901F0A3FD0006000E04D00120C3E701208446EEE702F05F
:40310000FDF92948002101610C300599016021888180022D03D3A1798171A17AC17100211EE0481C19E082008B00A75AE65ABE46BE4211D26F463E80B4461E190296B67847
:40314000BE7001967646E6521719029EBB78B3706646A652019EBE70401CA842E3D3491CA942DED3114800906846037B22460799069800F04DFC002882D168460A4C007B14
:4031800060700A4802F0EAF90028B4D1204607490C3007F099FD0028ADD107F0BBFD0028A9D1012121706BE734100020BC13002010B507F0A7FD02F0A1F902F0EFF900F0E7
:4031C000B7FC00F0CFFC02490020087010BD00003410002010B507F095FD02F08FF902F0DDF900F0A5FC0749074807F06DFD002807D107F08FFD002803D1034A01210C3AF8
:40320000117010BDBC1300204010002010B502F05FF910BD10B502F071F910BD10B500F07DFC10BD10B50749044609780220002907D1204602F0BFF9002802D120460AF0AE
:4032400063FE10BDA411002010B502F05FF910BD1CB5FF206946087100200870FFF7DAFF6A4601A9062001F08DFA6946002008561CBD000038B504460120002C20D06178A5
:4032800001291DD800290BD0FF25E535FFF7C2FF0C4828180088C0B22070072803D00EE0FF25CD35F2E7002069460870684601F08BFB69460878012801D10820207000207B
:4032C00038BD000000102E40F8B504460120002C26D06178012902D92278092A20D8002905D0FF25E5352078092803D004E0FF25CD35F8E708202070FFF78CFF2078114F8C
:40330000114E08280DD0002000F01EFA70780128207810D00D4969180880FE2070700020F8BD012000F010FA0720B8810549203188800120F2E7B8810248217820308180B5
:40334000EBE70000C0112E40D010002000102E400121002807D005494A8842804A7842700978017000210846704700006E100020F8B504460120002C52D0217808294FD240
:40338000617804294CD26088102166283DD800283BD065882348662D45801BD801270026BF020A2D33D90A212846FEF77BFDC0B2072800D907200A2141438D4204D9691A80
:4033C000CEB21F2E00D31F264101314339431648FEF7D0FB134D60786870217829701349496A8A0781001148920F11432430FEF7C3FB687800280CD0401E02218140182082
:40340000FEF740FEC000083804E06180C1E72946DCE7B82081B204482030FEF7ADFB0020F8BD00006E100020B8102E4040F02E4070B505460124FFF7EDFE002D04D008218F
:4034400028460EF077FE0024204670BDF7B582B069460AF05BFB050041D1FFF7DBFE6846008803F02DFD040038D004F0CAF8002834D0FF278820493700593E46002805D088
:403480001849897A890601D5878AC68A204602F0A9FA01280DD006F0C7F850210A5B617902F058FF283081B233463A46204605F05DFE20464030C28A04998A4200D9C18252
:4034C000C18AA07805F030F80398012801D901200390A078039905F02DF900E00625284605B0F0BD24180020F8B50E4669460AF00DFB050033D1FFF78DFE6846008803F08F
:40350000DFFC040019D004F07CF8002826D01548F121807A0840C00621D520464030418A008A491C41430804C00C0F4986420CD326822079072802D011E006250FE0012077
:403540000870204603F0C2F809E0002E07D100200870A078002104F0C9FB00E002252846F8BD000024180020D0100020F8B5012406460D46002925D013480078002808D060
:40358000FFF748FE694630460AF0C0FA040003D018E000200880F8BD6846008803F090FC06000ED004F02DF800280AD00748F121807A0840C00602D5308A288002E002246C
:4035C00000E006242046F8BDD0100020241800200121002807D0C221C1700321017001214170002181700846704710B501F0CAF9012801D101F0CCF910BDF0B589B0154666
:403600000F4606460124FFF705FE002E20D0002F1ED0002D1CD0102239466846FEF779FD1022314604A8FEF774FD102168460EF0A5FF102104A80EF0A1FF2B46102204A9A6
:40364000684605F0A5FF102128460EF097FF0024204609B0F0BD000038B5FEF749FB01F0DBFF03211548FEF787FA0120FEF720FB12483038406A04218007800F084381B2A2
:4036800000900E480C38FEF777FAB8210C48FEF773FA0B48032109021438FEF76DFA084C5321D83C2046FEF767FA07210548FEF763FA54212046FEF75FFA38BD70F02E4076
:4036C000D8102E4098142E407CB5FF24069E079D00280BD0002909D0002A07D0002D05D0002E03D0002B01D01B2B01D9012406E00096019505F07BFF042800D1002420466C
:403700007CBD7CB5FF24069E079D00280BD0002909D0002A07D0002E05D0002D03D0002B01D01B2B01D901240BE00096019505F017FF042802D0052802D002E0292400E03C
:40374000002420467CBD000010B50A4A141D012808D009491046FEF70FFA08492046FEF70BFA10BD04491046891CFEF705FA0349491DF3E788002E4031D000003AE300003B
:4037800010B5064A012805D01921C9021046FEF7F3F910BD1D21C902F8E7000090002E4001460120002903D0024A002012880A8070470000B811002010B50122002803D090
:4037C00011490B88984201D9012010BD14234968434359182039C9890C4B994208D0DB1E994205D05B1C994202D05B1C994209D1C108074B44075A5C640F0120A040824358
:403800005A540022104610BD0012002003280000941E0020014608B5012000290AD0002003460090064A074800F0D8FA0006000E01D0022008BD034A0121521E117008BDF3
:403840006DAD00004911002010B5084C02202178012906D1607800F011FB0006000E01D0022010BD0021217010BD000048110020134A1088810703D08107890F401A001D58
:4038800011791030484381B25088820703D08207920F801A001D800040180A494030098980B2CA0701D0503080B2890706D504495422091F09785143081880B27047000044
:4038C0003A100020BC13002070B504460120002C12D02368002B0FD0616800290CD0074D06222889208118462968FEF712FC6968606809780170002070BD0000BC130020E7
:40390000FFB58446384F1C460020BB883F78054602460646002F11D100290ED0029999420BD36146002908D0002C06D00A99002906D02E4B0B99994202D2012004B0F0BD21
:40394000002144E0AB001F19BF78002F3BD0E35A002B38D07B43591889B22B0000F04AF8050410161C253100A7782388BC46FF27233BEB37BB4222D26346032B1FD322E0A8
:40398000A388002B1FD0302B19D31CE02389002B19D0282B13D316E0A289002A13D01346134F233BBB420AD20DE0268A002A0AD033460F4F233BBB4201D2964203D90120EB
:4039C0000EE0002001E000280AD16D1CEDB2099B9D42B7D31C2463435B1802998B42ACD89642AAD8AAE700003410002079020000BAFF000030B47446641E2578641CAB42AE
:403A000000D21D46635D5B00E31830BC18470000FFB583B0002469460C801F4606468C80002806D00598002803D004983043800701D0012467E0002FFBD0344904980988E0
:403A40008842F6D3FEF74CF9FEF73AF900F06CFC002856D100F0CAFD002852D12C49084601F01CF905042D0C4BD12A480499066081800021C18007810C98007AC00704D068
:403A8000684601F054FD040007D10C98007A800703D501A801F054FD0446BF1DFEB2002C21D13146059800F089F804001BD10DF07FFC0406240E16D16A461088928808362E
:403AC0008518144AF1B29088D288AEB29319984207D3401B801A80B201F0D2FB050007D000E0FF25012400F0B7FA002D04D008E0F8B200F047F9F6E700F0DAFA0649012097
:403B0000087000F023FC204607B0F0BD38100020A93C0000C81300204810002010B503480078012801D101F04DFA10BD4810002010B500F0F9FD002803D100F00BFC0028AE
:403B400001D0FF2010BD0548007A801DC0B200F031F9034A0020107010BD0000C81300204810002010B500F0FBFD01F0C9F80449002008608880C88008810249087010BDCE
:403B8000C81300204810002070B5084B0446DA889E8800205518B54206D81D68AA182260DA885118D98070BD032070BDC81300200148008970470000C8130020F0B587B021
:403BC00007460D4600208900009006916846FFF7DBFF844600285DD1304800990160002117E02E4B88001A680629115406D22C4C0419667882185670628805E0C419203C63
:403C0000A67A8218567022891B68C018491C4280C9B2A942E5D300242DE0601CC2B2059025E01E4FA30039689600581840887118039604904E88B04217D938466F46FE8060
:403C4000B6464F786E4677710297049F4F800168039F5E18767879184E700168764659184E800068029F18184770521CD2B2AA42D7D30598C4B2AC42CFD36046002809D1F5
:403C800068460699FFF780FF8446002802D1054900980860604607B0F0BD00004C10002050560100501000207047000010B5002809D005494A68002A05D0011F08788000E6
:403CC000105801F08BFA10BD4C10002010B50446FFF76EFFC0B2801DA0420CD307484068002808D0A100405801F0EAF9002801D00470001D10BD002010BD00004C10002097
:403D0000F8B516460D460446FFF752FFC0B2801DA04203D20020C0430090F8BDB2B2E9B2684601F0F3F90099481C03D0024AA000526811500098F8BD4C100020F8B5074644
:403D4000FFF736FF801DC6B20A49002005460C680DE06178002907D06188B94202D32078FFF7B4FF002804D1241D6D1CEDB2B542EFD3F8BD4C10002010B5002801D0FFF70D
:403D800095FF10BD70B506460948002504680BE06178002905D062882078121D0023FFF7AFFF241D6D1CEDB2B542F1D370BD00004C100020F8B5084F064600243D6808E047
:403DC000287879688000085801F0B4FA2D1D641CE4B2B442F4D3F8BD4C100020FFB581B00A9C16002BD000F0F1F80546042826D0214F002C0BD02046FFF7A0FF2901C91915
:403E0000486000281BD022460499FEF782F91A4928010E5046187481019805707D20029CC000444300F0C0F8009004280AD000F071FAA0420ED800F06DFA201A06E0FF208E
:403E400005B0F0BD204600F0CBFA0020B08135720020F5E700F05EFA074600F0D7FA381B87B23846012100F00BF900980101024808188781E6E70000D4130020F8B50601C7
:403E800017483418217A042903D0A089002802D018E00020F8BD00F03DFA054600F0B6FA00F0A2F804280DD001010D480F18B88941198DB2002100F0E3F80020B88128461C
:403EC00000F08EFA6068064D002801D0FFF754FF042020720020A8516081A081D9E70000D4130020FEB500266A46304601232549050169180D7A042D02D0898900291BD08D
:403F000000211154401CC0B20428F0D300246846005D002830D01B482101081841894768056802910021016041600422418102728181002E02D015E01354E3E700F054F8E6
:403F400004280ED001010F480818019086890021304600F095F8019800218181304600F03FFA0126002D07D038460299A847002F02D03846FFF700FF641CE4B2042CC6D329
:403F8000FEBD0000D41300200EB5002005216A460090118150810348694600680EF0A9F80EBD000054100020074A0020010189180B7A042B02D08989002903D0401CC0B2CD
:403FC0000428F3D370470000D41300200549002002015218127A042A03D0401CC0B20428F6D37047D413002030B50A4B04200A4C00210A011219157A042D06D09289002A42
:4040000003D09A4201D808461346491CC9B20429EFD330BDFFFF0000D413002070470000F8B500250B4F2E462801C419217A04290AD0042121723E506068002802D0FFF793
:404040009BFE66606681A6816D1CEDB2042DEBD3F8BD0000D413002030B50020074C05460423020111190B72A5504D60401C4D81C0B28D810428F4D330BD0000D413002059
:4040800030B5094C00231A011219157A042D04D09589002906D02D1895815B1CDBB2042BF1D330BD2D1AF7E7D4130020002070471CB5002469460C70142001902346054ACD
:4040C00005480EF01BF804480068401C00D1FF2420461CBD2D410000541000203EB5124A0146FF2000230124126800290DD0012914D0042908D104206946009308814B81E1
:4041000010460DF0F6FF80B23EBD6846009304814381694610460DF0E7FFF4E768460093048143816946EBE75410002070B545890468416800890300FFF75CFC082805090E
:40414000091E22282628002005F0D0FC1EE0022908D0C8B22A4621460CF02CF92046FFF70BFE13E002202A4621460CF023F92946204600F00DF809E000200DF0A1FC05E071
:404180002046FFF7AFFE01E0FDF7CCFD002070BD014B0022DB6818475810002070B5448905680089022803D0032809D0FF2070BD2246094C0023A46829460120A04708E0F3
:4041C000FFF728F8241DA2B200232946022006F02CFC002070BD000058100020704770470248002141600180418070475810002070B50C46002186B016460391012802D0B9
:40420000022859D116E003A9012006F06EFC01281BD1039D324621462846FDF77AFF0095287801900220694608814E816846FFF7B5FF41E0214D002B686809D0049004A9AD
:40424000022006F052FC01281DD0022006B070BD002812D0298840182146FDF75AFF28880024801980B228806988091D884206D12C801348FFF792FF03E00320E6E78842CC
:404280001AD96C6018E004986860E278A378110219430B4A698000231060E3565360032313815181A1788170E178C1706178417021780170042028800020C7E7581000206C
:4042C000141400203EB515460C46022803D004280CD000203EBD0091019002206946088107484A8100680DF004FF07E00CF062F8044B0022DB6829462046984701203EBDF7
:404300005410002058100020014AD1609060704758100020034801688068081A0A214843000970472014002010B5FDF7CDFC482204490548FDF7EDFE03490120C870002014
:4043400010BD00006C5601002418002010B5FDF7B3FC10BD0020704770B5134C2368002B08D0207B1149C20705D04008400020738868A08070BD88680B4AA18880B29268AE
:40438000814203D90A4D691A091802E0814202D2411A5118A160A080A0689842EAD30DF0C5FE00F013F870BD20140020C0102E40FFFF000010B508461946FFF7A5FF10BD15
:4043C000704710B5FFF77EFF10BD000003480021016041608160C1607047000020140020024610B5FF20002A0CD0FFF7EFFF064C0321207B0843207310010A21FDF752FD02
:404400002060002010BD00002014002000B504480A21806848430209FFF7D8FF104600BD201400200248007B8007C00F704700002014002010B544490868002802DA434B63
:4044400001221A70022290430860414800693E49C00B4031096A08425ED0012000F0D0FA3B483C497C30FDF787FB37480E216C30FDF782FB364820218430FDF77DFB344875
:4044800014219C30FDF778FB3148FF21C131A430FDF772FB2E48FF212F31B030FDF76CFB2B482D49BC30FDF767FB29482B49AC30FDF762FB29492648491CB430FDF75CFBF2
:4044C00023482749B830FDF757FB21482549CC30FDF752FB1E4824490830FDF74DFB1C482249A830FDF748FB194821498830FDF743FB17481F498C30FDF73EFB144819217F
:40450000C9029030FDF738FBFDF738FBFDF7F0FBC0B2022802D00FE0FF2010BD16491748FDF72AFB15481649001DFDF725FB134800210830FDF720FB54200449C043891C8A
:404540000870002010BD000000F02E406810002000002E4055650000320300002F3F00003102000010520000EC160000FA12000031D000003AE300009956000080012E4076
:40458000F80F000070B50646581C80B245086D00002408E0304600F0C1F81055000A1119A41C4870A4B2AC42F4D3D80705D0D0182038D15CC47FD454C17770BD30B50A4CB0
:4045C000002100195B1E07E0541864782502545C2C430480891C89B29942F5DB994201D1515C018030BD000000102E4010B5FF2000F006FA0F49FF2048700E481021801D17
:4046000041800121417001700A490020C91C4870FFF710FF04000AD100F01AF907210648FDF7A8FA044807211830FDF7A3FA204610BD000068100020CC112E4070B50024C6
:4046400005465B1E0AE0284600F068F8010A161971702D1D1055A41CADB2A4B29C42F2DB9C4203D1284600F059F8105570BD000070B500210A4D5B1E0AE054186478260281
:40468000545C344346193480001D891C80B289B29942F2DB994202D1515C4019018070BD00102E40F0B50599091FCFB200217E1E0BE0541864782502545C2C43164D451926
:4046C0002C80001D891C80B289B2B142F1DBFC0712D01C78515C24020F4A0C4381180C809C785D78001D210280B2294384182180001D80B2D9780CE059781A7809021143B5
:40470000054A84182180001DD9789B78090280B2194380180180F0BD00102E40014940180088704700102E4010B50B490020487000F08EF80020FFF707F80020FFF720F886
:4047400007210648FDF716FA044807211830FDF711FA002010BD00006B100020CC112E4010B506480078012803D102210448FDF703FA02490020C91E087010BD6B10002017
:4047800070F02E4010B50B46062812D006DC01280CD0032801D1FFF7C7FF10BD0A28FCD00B28FAD105480078107010BDFFF71EFF10BD1146184600F039F910BD6E10002068
:4047C000F8B5204DAC6A0127A0071F4E002816DA307806280ED1286A384328621B480069F903084381B219481030FDF7C5F9042000F006F9134802212830FDF7BBF9E007D8
:4048000011D0062000F0FCF80F49FF20C91E48707078002802D1686B38436863094801212830FDF7A7F9E0050BD53078042802D1052000F0E5F80348FF2101312830FDF7D5
:4048400099F9F8BD40F02E406B10002000002E4010B503212348FDF78FF90120FDF728FA20483038406A204C80076178800F890001431C480C38FDF77FF96078002808D0B5
:40488000401E022181401820FDF7FCFBC000083800E0B82081B21548FDF76EF91348032109021438FDF768F910481149B830FDF763F9612189010F48FDF75EF90D480321B4
:4048C000001FFDF759F90C490C48FDF755F90B480B496038FDF750F9084801218838FDF74BF910BD70F02E406E100020D8102E4090890000041E2E40FF0F000058122E4064
:4049000020900000044800684007400F022801D0002070470120704700010B4000B5FFF7F1FF002805D009480168C908C900016000BD0748016A490849000162054801690F
:404940000122D2039143016100BD000000010B4040F02E4000002E400849087806280BD148780749002803D1486B400840004863C86A01221043C862704700006B10002003
:4049800040F02E4001480078704700006B10002002484078022800D0012070476810002000B50300FFF726F8080D050D0B070507090D012000BD032000BD042000BD0220F2
:4049C00000BDFF2000BD0000074A9168D26889B2064B92B2994204D105498A4201D1012100E000210170704780002E4033D000003FE3000001494870704700006B1000207C
:404A000010B50446FDF75CF9072C01D9FF2C01D102480470FDF750F910BD00006B10002001494870704700006810002070B50C460546FDF75DF9C0B202280E49287804D0ED
:404A4000FF2810D04C280CD810E0FF2809D10A4AD0680004800F032801D0087807E09069000A553803E00878207070BD4F382070087070BD6A10002000002E40F0B5012228
:404A8000002830D000292ED00424420600D00524792342065B06D21800D0641C034600221EE00C2516466E43104D00277519AF720E4F002ABB51696007D0661EB24209D160
:404AC0000B4E86197606760E05E05E06760E8027BE1B00E080269B198919521C2E81D2B2A242DED300221046F0BD0000AC16002079020000074900200C2242435218927A44
:404B0000012A05D0401CC0B20628F5D30020704701207047AC160020F8B50F000446164609D0184D18496868A04202D94018A04201D38E4201D90120F8BD39462046FDF72B
:404B4000D9FA00281BD0324639462046FDF7E1FAF0B200210C224A43521913895668F718A74208D90127A41B1B1B9772834206DAC01A1469C0B2491CC9B20629EAD3002087
:404B8000F8BD0000AC1600207902000010B500F061F80748054AC16806480C46FDF7B9FA04492046FFF76AFF10BD000079020000741000203014002010B500F04BF810BDA0
:404BC000002070470020054A002902D0012902D002E0506000E09060002070477410002070B5084C154608460549A26889182A46FDF78FFAA0684019A06028B270BD00002B
:404C000030140020741000203EB50A226946FFF7E7FF044606480A2200686946FDF76AFA002802D00020C0433EBD20463EBD000074100020002802D0044A914201D2FF2065
:404C4000704703490A61C8600020704779020000741000200248002141608160704700007410002070B5074C15460548626880182A46FFF751FF60684019606028B270BD40
:404C8000301400207410002010B503490A220968FFF7E8FF10BD00007410002010B50F4A002313600E4A13600E4B18600E4801600E49012008600E490860000290600E4901
:404CC0000C4808600D4914300860FF381538506000F0BEF800F0CCF9002010BDA010002088100020B4100020B8100020A410002094100020F417002098100020AC100020BF
:404D000000207047014610B50020002910D0094B1A689C685118A14209D25868196080188A0704D08A07920F891A091D196010BD002010BD88100020F8B50024164E671E90
:404D4000321F3D463168136806E01422624310328A58521C1BD0641C9C42F6D36A1C14D02C461422544322460C3288500C214843FFF7C8FF3168002808510AD0316800209D
:404D8000103408517068401C70602846F8BD2546E4E73846F8BD000098100020F3B50026F64381B000281BDB1E490968884217D80299002914D01B4F142204463F1D544392
:404DC0002546396810354859401C09D0FCF778FF38682F1F4159C359994203DBFCF76CFF3046FEBD214608310091465801590C20704308180C220299FDF78BF90948761CEA
:404E0000001D0068C159B14200D100260549009A091D865008684159491C4151FCF74CFF0020FEBD94100020002803DB07490968884202D90020C043704704491422091D38
:404E400009685043103008587047000094100020F0B500200D4A451E0346171F50600FE014260146714314680E1DA3510C461668083433511668083435511468401C63504B
:404E800039688842ECD30020F0BD000098100020F3B50026F64381B0002841DB2349096888423DD8029900293AD0204F142204463F1D54432546396810354859401C2FD0FE
:404EC000FCF7FEFE3868415900292BD0211D009146580C21005971430F46C1190C220298FDF717F911480021001D0068761C00590C34C0190160416081600C48001D006804
:404F00000159B14200D100260849009A091D865008684159491E4151FCF7CEFE0020FEBD3046FEBDFCF7C8FEFAE7000094100020FEB504460D4600201E49089E0860471ED0
:404F4000009001900290002C11D0486885420ED2002A0CD0002E0AD0642E08D808460C3001681C2068430C18207A002801D03846FEBD0120226020721846FFF7DDFE6060AC
:404F8000401C13D06681A6810A4827610C3067610179A94200D205710021684601810A462846029B00F040F82846FEBD00202072DDE70000A010002038B50124009400F040
:404FC00039F838BDFEB50027164EFF433D4600240EE01C20316860430818017A002906D04068FFF721FF002801D0254603E0641C3079A042EDDA681C12D01C2130684D43C2
:405000004419FCF75DFE69466068FFF741FF0546FCF752FE002DD9D1216868468847D5E7FEBD0000AC10002038B50024009400F001F838BD1FB500220C49541E0A60002888
:4050400011DB496888420ED808491C220C31096850430818406801A9FFF7A0FE401C02D0002004B010BD2046FBE70000A0100020F0B50021114A4D1E174611710C3F0B461F
:40508000BD6016E008461C2460431668041D355114680646235014680836A3551468361DA353044616680A34335318301468491C255078688142E5D30020F0BDAC100020A7
:4050C00038B500210091002811DB0F49097888420DDA0D4D04010C3529680859002807D0201D0818694600F06FF9002801D0002038BDFCF7E5FD28680F34015D491E0155AD
:40510000FCF7DAFD009838BDBC100020F7B582B0002502986E1E06602E48D21C024017462D4A2C4610460C380178106805E02301C358002B0FD0641CE4B28C42F7D3711CBD
:4051400028D03401211D40180191039900F02AF900281FD101E02646F1E71F48016820460C300F521C480399026820460E30115419480399026820460F30115403987843E1
:4051800000F0A0F8144900280968085102D00024009011E001251AE00F48016801980818009900F02CF9002801D0012502E00098C0190090641CE4B203988442ECD3002DF5
:4051C00005D10298066004480179491C0171284605B0F0BDFCFF0000C8100020F8B50D4600216A468C461180002839DB23490978884235DA214B04010C3319680A59002A85
:405200002ED020460C300B5A801C0E5C184670438018954224D3854222D2002006E007465F43BF18AF4206D0401CC0B2B042F6D36046002814D0114E271DC8190C366A46ED
:40524000294600F006F900280AD168460088012808D030682946C01900F0D1F8002803D00120F8BD0020F8BDFCF72AFD30680F34015D491C0155FCF71FFDF3E7BC10002074
:40528000F8B50F46002400F031F8002817D10C4900220B460C334A600EE021011D680E466A501D680C36AA53B61C1D680F31AA551D68641C6A54E4B2BC42EED31A71F8BD99
:4052C000BC10002000280BD0C01C074A81085068890053884118994203D89368516018187047002070470000BC100020F8B5064600200F4D009029700C0121466846FEF7D3
:4053000043FC00280CD129460C3100980860301B001F84B221466846FEF736FC002801D0FF20F8BD6C800098A8600020F8BD0000BC100020F8B5002827DB19490978884203
:4053400023DA174C05010C342168485900281CD028460C30085A009028460E300E5C401C0E5420682F1DC01900F064F800280CD12068002445590EE0094829460C3000683F
:40538000C01900F03CF8002801D00120F8BD00982D18641CE4B2B442EED30020F8BD0000BC10002030B50D4604000BD0A800FFF789FF6060002805D000202570C043608024
:4053C000002030BD012030BD70B50D46040005D0002D03D00220205E002801DA012070BDFCF76EFC0221615E60688900405828606088401E6080FCF75FFC002070BD70B5BA
:405400000D46040007D0002D05D002212078615E401E814201DB012070BDFCF751FC6088401C00B26080616880000D50FCF744FC002070BD10B5040009D022780021606816
:40544000FCF770FE0020C0436080002010BD012010BDF0B500231D46002802D00224045F0AE00120F0BD46689F00F6598E4201D1012503E05B1CDBB29C42F4DA15700020EB
:40548000F0BD00000148007870470000D01000207CB505460024FDF7BDFEA8796946087000A8062229460130FCF733FE0021684604F0E2FD0C2804D0072804D01F2804D0D4
:4054C00004E0022402E0042400E0272420467CBD10B502280BD0032802D0042809D102E000F0E8F805E000F093F9FF2801D100F0A3F9FFF747FAFFF753FA10BD10B500F06D
:40550000CBF9FFF73FFAFFF74BFA10BD70B504460025FDF77FFE002C06D0A079012803D8214602F06DFC00E00125284670BD01460120002902D050200880002070470000B7
:4055400001460120002905D003485422007850430880002070470000D210002010B502460D49FE204870032410460DF0E5F8002810D10DF089F800280CD105F013FB002851
:4055800008D100F093FB002804D104F0F9FF002800D10024204610BDD010002010B5FF240DF042F9002804D10DF05CF9002800D10024204610BD70B50025044600280ED002
:4055C000A07901280BD8FDF725FEA0790028204602D002F0F1FF03E002F0C6FF00E00125284670BD014610B50120002904D006220248FCF78EFD002010BD0000D4100020CE
:4056000001460120002903D0087802490870002070470000D210002010B5002403F0FAF8002800D00124204610BD000070B50E46050001D0002400E00C4C002C11D0E28AA8
:40564000500609D5D107C90F022003F053F8E08A40218843E08204E0D107C90F012003F049F83146284602F027FD70BD8C180020F8B50546002004460D4E009013E0224671
:405680006946284601F04AF80098002801D00DF035F8A878214602F0FDFAA878214602F0EBFA641CE4B2308AA042E8D8F8BD000044190020FEB54E4DFFF764F9012849D189
:4056C0004C480078002845D002F07EFC002841D004F04AF900283DD0474C6078C00703D000F0E6FC012835D0207E00287DD16078002600285BD0000706D540488089070B61
:4057000000F02EF9384370D13B484178684603F095FF044628793A4DA9784018C1B2A14261D802F051FC00285FD0344860300089314F0190203702F09DFA6846008802F067
:40574000C7FA02F057FB2F490988884203D10120FFF756F949E02C49012008702648807B00281BD00198002818D04037F87E002814D12248603000884000A0420AD968785A
:40578000002807D102F0E4FF2049088A03221202104308822878002800D02E7002F0C6FA0120FFF727F900F0F5FB174C15E002F00BFC002819D0102402F01CFB214602F00C
:4057C00011FA02F085FA104C0120207002F0AEFA0020FFF70FF900F0DDFB20780128B6D1FFF79CF826700020FEBDFF20FEBD000064180020681000206C180020A0102E408D
:40580000E0100020F2100020DA100020E0112E4010B50848FF244078002809D102F0D4FB012805D1FEF79CFF0720FFF7E9F80024204610BD6C18002038B5FFF7A3F80128EB
:4058400001D0002038BD02F0BFFB00280AD0114C6078C00703D000F02BFC012802D0207E002801D0FF2038BD617800290FD0684603F0E4FE022806D96846008802F028FA51
:40588000012002F059FA0320FFF7BAF8D9E70020F7E700006C18002038B51E4CFFF772F8042813D0052811D0062812D003282AD007280AD100206946087002460120FEF79D
:4058C00061FFFFF75FF80128FBD138BD00F082FB38BD02F049FA00F07DFB02F0C5FA8007800F0228F4D10C4841880029F0D05B21095D0029ECD101210170A07D014002207B
:4059000002F0F8FE38BD02F033FA0120FFF778F838BD00008C180020E0100020F8B50646002402F055FF0546304602F06BFF03460A480021068A0DE001228A4010461746C2
:4059400028401F40002803D0002F01D1224394B2491CC9B28E42EFD82046F8BD4419002070B500252C460A4E03E0002C01D0002000E030460079002803D02046FFF7CEFFA3
:405980000543641C2406240EEFD0284670BD00008C1800201CB50020694648706846FDF769FC01AA69460A20FEF7ECFE6946042008561CBD10B50C4601F082FA002809D054
:4059C0000179002906D0C1788078224602F0FAFB002010BD022010BD0148007870470000641800204030C07E002800D00120704700B500F001F800BD8C2148430749084A0B
:405A000040186030417F491CC9B24177D289914201D300214177C8B2704700006C1800204419002013B501F04BFA04000BD001F0E8FD002807D0214601AA0A310620FEF7DF
:405A4000A1FE00201CBD02201CBD000010B50C4601F036FA00280AD001F0D3FD002806D0224604490A20FEF78DFE002010BD022010BD00004D180020F3B581B0074601466D
:405A80000026029802F09CFE0446002F01D0002500E0154D002D21D0284601F047FA032C04D13946029802F0E7FE06463846029902F0E2F8032C06D0002C10D00121384655
:405AC00001F03AFB03E03146384603F0D1F8284601F0C0FF0221284601F0D6FFFEBD3846029902F0C9F8FEBD8C18002010B5044603F008FD002801D00C2010BD2078611C63
:405B000002F062FCFF2801D01F2010BD02F0A8FCFF280AD02178621C02F036F8044821780068026B601C904710BD072010BD0000F810002010B503F0E5FC002801D00C208F
:405B400010BD02F023FC03480068C06A8047002010BD0000F810002070B50D46044610210CF00CFD1021601806460CF007FD334610221946204603F00BFD102130460CF093
:405B8000FDFC02202870204604F052FC70BD0000F8B504464078217802028006870FE0781143A67809050002090D0643084601F087F900210546F2B2002812D0002C10D0D7
:405BC000022F0ED0032F0CD0002A0AD00279092A07D0002A05D0134A5A23527E1B5C9A4207D82889002104F058FB20460CF086FDFF21002914D10C482246006829464369B9
:405C000030469847C0B2FF280AD128464030817EF2B2491C8176FF232146284600F0DDF8F8BD000024180020101100200020704710B5044603F066FC002801D00C2010BD83
:405C40002078611C02F0C0FBFF2808D002F0F8FA044821780068426B601C904710BD1F2010BD0000F810002010B504F089FC00F057F9002010BD10B5044600786178E2780C
:405C80000843A17811430843217908436179084305D003F029FC002803D00C2010BD122010BD204602F088FC002010BD10B5FCF71FF802F0AFFD044803F0AAFD02F0CAFA25
:405CC000012000F003F810BD34180020F1B586B003A8009005A8019025489F22817A114081726846FDF7F0FD00283FD169460989C90705D01F4806990068C26868469047D3
:405D000069460989890706D500282FD11A480068816A06988847002828D1184E0025757075737571F575357675767575B570F570B5713746F5730120BC3738731F20F88019
:405D4000FF2130467972A0300175457500F076FA00242046069901F0FFFB002803D1641C2406240EF5D0FD72BD72B57307B0F0BD2418002010110020F81000206C180020FE
:405D800070B505460E46084602F022FD0446304602F038FD0121A9400A46224001400A4301D0012070BD002070BD10B50446084602F028FD0121A140014201D0012010BDA9
:405DC000002010BD10B5FEF7DDFD032804D101F0CFFF0120FEF714FE10BDFEB51C4616460F46054601F036FEA878FFF701FE02460190334639460094284600F00DF8002833
:405E000008D1A8780199FFF711FCFF2C02D138460CF074FCFEBD0000FFB585B005460E980C46FF2810D02B49C00009680A5840180179C0795278814201D9012601E09006DF
:405E4000860F6846038108E06078A1788006860FE0780002014368460181284601F0DCFB070007D021462846079A00F0EBFB384609B0F0BD304600F099FC04AE03460390CC
:405E800002AA29460096204600F025FB3C20405D002818D0284601F0BFFB012813D0684600890096C0B20190A878231DFF22079902F0B6F868460089039BC2B2A8780799F3
:405EC00002F0F6FBD3E7684600890021C0B20091E9E700000C110020F8B5104F002500242846FFF71BFD060012D00EE03046E040C007C00F07D02146284601F0B3FE214615
:405F00002846FFF7B9FD641CE4B2388AA042EDD86D1C2D062D0EE2D0F8BD00004419002010B502F097F90020FFF7D0FE0CF07CFC002010BDF8B5002400F0B4F801230128A7
:405F400000D10124104F00203E4620360425082203E0002801D0002100E031460979002907D001290BD002290BD0114681402143CCB2401C0006000EEBD07C70F8BD1C4379
:405F8000F7E72C43F5E700006C18002010B5FFF7D1FF10BD70B50E4CFBF7B7FB0546FEF7F1FC062802D02078012803D02846FBF7B0FB70BDFBF744FD2846FBF7AAFBFEF773
:405FC000E1FC0628F5D020780028E5D170BD0000DA10002010B5FBF798FB0446FEF7D2FC012809D0FEF7CEFC022805D0FBF728FD2046FBF78EFBEEE72046FBF78AFB10BD96
:4060000010B50B4681791943817103D08078114602F01CFB10BD10B582798A43827102D1807802F027FB10BD30B50C4C0220A28A0B4B9978002901D0022906D11D785B7888
:40604000EB18282B01D9032002E0032900D101205105490DC0020143A18230BDC0112E40DB10002000B500F023F8002807D0012805D0032801D0042801D0002000BD01200D
:4060800000BD014600B50020C90701D000F00AF800BD014600B50020C90701D000F002F800BD000001480088000A704720102E400448008B410501D5042070474007800F7F
:4060C0007047000000102E4038B50446000610D5FFF7EEFF01280CD1684601F059FE6846007800F0B3FA012001F01CFD0220FFF74DFF0348006801692046884738BD0000D1
:40610000F810002010B5034A0178117002F0C0F9002010BDDB10002070B50446FFF7C2FF002801D00C2070BDA27B01211F48002A827801D00A4301E05208520082706279CE
:40614000012A14D0C17849084900C170184D2868016820468847207901280CD06188208803F000F82080207904280FD015E0C2780A43C270EAE72868C168E01D8847E01D1A
:4061800002F006FA0B48808C208006E02868C168E01D8847E01D02F0FBF9074920798870204602F083F9002070BD00006C180020F810002024180020DB10002008B5017835
:4061C000FFF770FF814201D10C2008BD002914D0072069460870FFF745FF012807D10121684600F08BF8012801D0092008BDFFF71BFF02F08FF9012011E0FFF733FF012806
:4062000006D1684601F0C4FD6846007800F052FA02F076F9FFF746FF0028FBD10220FFF7B5FE002008BD000010B5034A0178517002F0ECF9002010BDDB10002038B56846CF
:406240000CF0F2F9002801D01F2038BD01210098C90201804180002505714571857107214173857302F022F9009C202200212046FBF758FF25702A460021601CFBF752FF88
:40628000204602F005F9204602F0C0F900980CF035FA042200210248FBF744FF002038BDDB1000200346084800B5834209D8184600F006FE002804D00089984201D1012036
:4062C00000BD002000BD0000FF0E0000074A9179491C8906890E917138220A4092014907090E114308430249084070476C180020FF0E0000C006C00E70470000F8B5074692
:406300000E4600240D4803E0002C01D0002500E005462979002905D0641C2406240EF3D00020F8BD0021204601F016F92E712046FFF7CCFF28813C700120F8BD8C18002010
:4063400010B503F071F90222002100F003F801F02DFF10BD10B5094B40074907000F090F185A595A40185043C0086421FBF79AFD002800D1012080B210BD0000B456010000
:40638000F7B53D20405C88B015460C46002802D02878042802D200200BB0F0BD6946087200262046FFF71EFB012800D00126204603A938300191009023460327A17E343398
:4063C0003246206A03F03EFA02A8089900900B46019120463A4603A9243003F0A1F802466846007A2870204601F0A2F81046D3E7FFB587B00C4605461078694608723D20A1
:40640000005D1746002826D000262046FFF7EAFA012800D00126204603A93830019100902346A17E34333246206A03F00BFA02A80090291D019120462B1D03A924300A9A15
:4064400003F06EF802006846007A388002D1204601F06EF810460BB0F0BDF0B505463C20405C89B016460C4600280CD0307869460873002806D000272046FFF7B3FA012897
:4064800003D003E01F2009B0F0BD012703200890204604A93830019100902346E17E34333A46E06903F0CEF96846007B03A928180290009120462B46019504A92430089A07
:4064C00003F07AF802466846007B3070204601F039F81046D7E7FFB505463C20405C89B016460C46002810D0084601F095F801280BD0308869468883002809D000272046D4
:40650000FFF770FA012805D005E000200DB0F0BD0220FBE70127204603A93830019100902346E17E34333A46E06903F08BF9291D2B1D07A8129A6D4607C5204603A9243089
:406540000C9A03F039F802466846808B3080204600F0F8FF1046D9E770B50D460446FFF741FA01280AD0E87AA97A00020143A07801F008FD012808D0002070BD00222421B9
:40658000204602F041FD242070BD28214C200155204600F0A3FB282070BD0000002801D0002000E003484030C07F012800D00020704700008C1800200146002049070ED53F
:4065C0000021084B03E0002901D0002200E01A461279022A04D0491C0906090EF3D07047012070478C1800200146002049070ED50021084B03E0002901D0002200E01A466F
:406600001279022A04D0491C0906090EF3D07047012070478C18002010B5044680346068002803D00CF07EF80020606010BD40304170704740308170704740300170704701
:406640000171704792001018C166704770B53C2501F080F9040004D020460021433001F031FCFF222946204600F0D4FB002C02D0A07801F0F1F870BD10B5002801D00020C9
:4066800000E00348002802D0008903F04DFE10BD8C18002010B5002801D0002000E00448002804D00179072901D100F047F810BD8C18002010B501F04DF9002802D080782D
:4066C00001F0CAF810BD00207047000070B50546008A00281ED01049F122897A1140C90618D5294640314A8A098A521C4A4392B2D10800D10121540801E0621A94B2A04284
:40670000FBD9FEF7BFFE012804D1298AA878224601F00EFD70BD00002418002010B50023054C0B60248A944204D992001018C26E0A60C36610BD00004419002038B5044612
:4067400000200090A079002814D14020015D052901D00E290ED168460BF076FF002809D12046009902F02EFC03481021C28A2046FFF746FC38BD00002418002010B50B4668
:4067800004460146184602F0ABF8002802D020460BF0BEFF10BD13B5044601AA11460620FDF7F0FF6846818861811CBD002800D10220704770470000F8B504462346401D9B
:4067C000543300909A1EA078911E01F0FDFA25464035A88A298A8000FBF764FB401E81B2688A884203D96982A07801F0BDFF20460021433001F066FB27480088E88102F00E
:4068000013FFE989891C8AB26179FFF7A3FD01F0CDFC02F009FF2A8A6179FFF79BFD074601F0B8FC688A002806D01C49088A032212021043088202E0002001F089FF1748EA
:40684000803801886E8A002E0CD0304648431449FBF718FC0004000C01D0401C80B21149488002E00F4800214180288A704381B2A07801F0D9FEFF2228374932B9B213468E
:40688000204602F073FCE98AA07801F04DFEA07801F012FAF8BD000080102E40E0112E4071020000E01000207FB504468034616805460E46183108226846FBF72AFC314656
:4068C0002031082202A8FBF724FC102168460BF055FE6068102108300BF050FE60682B46083024331022694602F052FE7FBD10B504460821FFF78FFB10212046FFF78BFBC8
:40690000207905281FD006281DD008281AD12189002003F081FC072020712046FFF762F8014620464030012913D00E21017000210176204600F0A2FF2046FFF76DFE20463E
:40694000FFF7C4FE10BD20890122002103F048FCE1E70521EAE70000FFB581B01F4604460821FFF758FB10212046FFF754FB2079082803D0092804D0042203E004220125D7
:4069800001E009220025204600F032FE264600204036307022712046FFF73EFE0398002D02D0012808D00BE001280AD120890022029903F015FC04E02189029803F02CFC1C
:4069C000012700203076012F04D0204600F056FF05B0F0BD02983073204602F041FB054605480121C28A2046FFF70AFB002DEFD109202071ECE700002418002070B50C4613
:406A00000546FEF7EFFF012809D108212846FFF702FB0023012221462846FFF79DFF70BD10B5044600F0E4FD2046FFF7F5FD00214034217010BD70B505461A24FEF7D2FF2C
:406A4000012809D108212846FFF7E5FA0023012221462846FFF780FF70BD0000F8B50446002000900E4668460BF0EEFD002801D00D20F8BD8420005908212030009D00F07D
:406A80001AFA20460421383000F015FA002E02D1204600F0E9FD2946204602F022FA0E480821C28A2046FFF7ABFA204600F057FF25464035002808D0204600F023F80028BF
:406AC00001D0092028700020F8BD08202870204600F0C0FFF7E7000024180020014610B540310A460978082906D0092907D00A2901D100F091F810BD0B20107010BD00F00F
:406B000001F810BD70B50446007925464035052805D0062803D008280FD00C2070BD03220621204602F070FA0D480821C28A2046FFF766FA1120287010E0062028732046E8
:406B400002F08EFA0646AA8A0A20424301212046FFF756FA002E01D109202071002070BD2418002038B504460020009068460BF06BFD002801D00D2038BD2046009D00F035
:406B8000B1F908202071204600F06EFD2946204602F0DAF900213D2001550F2040210855204600F057FF002038BD00B5024600F01FFD10214032117000BD10B50446FEF7A7
:406BC00011FF012809D04020005D112805D100231A4606212046FFF7BFFE10BD10B5FFF786FE10BD38B504460021684600910BF02BFD00280CD12046009902F026FA0548FE
:406C00000821C28A2046FFF7FBF90D204034207038BD00002418002038B504460021684600910BF011FD002801D00D2038BD2046009902F0FFF905480821C28A2046FFF74B
:406C4000DFF90C2040342070002038BD2418002000787047F8B50025002801D0002400E01A4C002C28D0204600F0CBFC002823D0207903281CD005281CD026464036B18AF5
:406C8000A07801F0DBFCB078012815D10021204601F043FE274680373868002802D00BF041FD3D600020B0702079072805D007E0042000E006202071F8BD2046FFF706FDDD
:406CC0000221204600F0E0FEF8BD00008C18002010B54C22115400F04CF810BD10B50446FF21FFF798F909202071A07801F0CCFC10BD000038B5FF216A461180002801D0D6
:406D0000002400E0084C002C0DD011460620FDF739FD684601882046FFF73DFD03480068C1692046884738BD8C1800201011002010B504468079002809D022214C20015564
:406D4000FF212046FFF767F9204600F012F810BD10B5037902464032002B03D01173092B02D003E0002100E02221117300F001F810BDFEB5044600890027009027812079A8
:406D800026464036002817D0012815D002280AD112E002AA01A9204601F090FD002807D101980BF0B5FC204601F0B0FD0028F0D02046FEF75DFCB7762546803528680028B9
:406DC00002D00BF0AFFC2F606868002802D00BF0A9FC6F60317B002919D0009800F064F8A078002100F082FF2046FFF7A9FAA07801F0B2F8A07800F02FFDFF212046FFF7A5
:406E00000AF90B20FFF7C2F800F068FCFEBD1F213173E2E7F8B517460E46054602F000FC04003CD020460C3001F03CF82046062200211830FBF776F9204606220021123001
:406E4000FBF770F91648224600683946436A28469847074626702846FEF7C4FD012148406070002D10D02889608028464030C1782171002E0FD169796171018AE180418ACF
:406E80002181808A608106E00648008BC005C00F2071002060803946204603F040F9F8BDF810002000102E400A4610B50146002003F052FA10BD10B50BF03CF910BD0000AB
:406EC00000B50146FFF716FA002801D0002000E00348002802D002898A4200D0002000BD8C18002038B5044680346068002806D168460BF0B9FB002801D100986060606861
:406F000038BD000010B5014600F086FB0128887802D0FEF771FD10BD8C214843024940186030007F10BD00006C18002070B5054604464035A87F012811D1A1788C20084AE1
:406F4000484380186030067F3046FEF719FF002805D10220A877A078314601F0B7F870BD6C18002010B50C4CA07A002813D0FEF7B3FF0A48027F417F408B00F0B7FB012805
:406F800009D10020A07200F019FF05498989090B01D000F03BFA10BD281900206C180020A0102E4070477047490510B5490F0B00FCF720FD060704080C0C0F073E21FFF7D3
:406FC00087FE10BD0821FFF7C3FE10BDFFF7D1FE10BDFFF7ADFE10BDF8B507460025002D01D0002600E0204E00F096FE3046403044890021418100F0AFFE304600F001FBE8
:4070000001282BD1A00702D52846FFF723FEE00602D52846FFF76EFEA00601D5FEF75CFF600601D500F014FB200602D5284600F01DF8600702D5284600F02CFA380402D54F
:407040002846FFF727FB780402D52846FFF714FBE00703D021463046FFF7A6FF6D1C2D062D0EBCD0F8BD00008C180020F8B5002801D0002400E0284C002C4BD02546403551
:40708000A878012846D1FF278820493700593E46002805D02149897A890601D5878AC68A2046FEF79FFC012834D002F0BDFA2A8A6179FFF74FF9009001F06CF80098334687
:4070C000283081B23A46204602F050F8E98AA07801F02AFA12480188688A124E002810D048431149FAF7CEFF0004000C01D0401C80B27080A07DC107C90F002001F0FAFA44
:4071000001E000207080288A698A484381B2A07801F08AFAF8BD00008C1800202418002060112E40E01000207102000001490968096808471011002070B50D460026194A7A
:407140000146002801D0002401E014462034002C26D0204600F060FA01280AD18C20484380186030007FFEF70BFE002801D101F0F7FE0D48006881692046884700280CD0AA
:4071800020464030817EA94202D3491B817600E086762089294603F080F8204600F05AFC70BD00006C1800201011002070B503460088FFF785FE040013D000F022FA002838
:4071C0000FD02079092819D02546997840352973204601F045FF0646A878012803D0AA8A02E0022070BDEA880A20424301212046FEF706FF002E01D109202071002070BD5E
:407200000EB5002217216B460292198100905A810120029B00990BF02AFB0EBDF8B518480024807A002822D1164E0025B089000B22E0204600F060FE1249A03940180788C1
