:400000000040002011000000B9740000B974000080B500AF07F054FA80B500AF314B12221A6007F037FD304B181C07F061FB012007F040FD302007F06BFB2C4B2C4A1A6028
:400040002C4B8022D2051A602B4B2B4A126802210A431A60294B2A4A1A602A4B294A126808218A431A60FA23DB00181C07F09CFB254B181C07F0B2FC244B254A1A60254BC8
:40008000254A1A60254BBC2292011A60214B244A1A60244BE82252011A601E4B224A1A60224BA022D2001A601A4B214A1A60214B822212061A60204B802212031A601F4BA6
:4000C00043221A601E4B42221A601E4B41221A601D4B40221A60074B8022D2051A60BD4680BDC04630001040001BB70004010B40060000800C020B4078002E407C002E4074
:400100006A2D00006CF02E40DC0500000C03014000DF01000000014043FF00800803014042FF00800403014041FF00800003014040FF008008010B4000010B402C01014024
:400140001C010140180101400801014080B582B000AF72B64F4B00221A604F4B01221A70FB1D00221A7023E0FB1D1A78131C5B009B185B00494A9B183B603B681A785978D2
:4001800009020A43997809040A43DB781B061343191C3B681A795B791B0213439BB2081C191C07F011FAFB1D1A78FB1D01321A70FB1D1B78012BD7D9394A3A4B101C191CE9
:4001C00007F012FA384B802252001A80374B01221A70374B374A1A60374BEE221A60374B992212041A60364B802292041A60354B992212041A60344B802252051A60334BF8
:40020000992212041A60324B04221A60314A314B1B78DBB202210B43DBB213702E4A2E4B1B78DBB23C218B43DBB214210B43DBB21370284A274B1B78DBB216210B43DBB24C
:400240001370264B10221A60254B264A1A60264B30221A60254BF22212031A60244B802252011A60234BD0221A60234BD82212041A60224B10221A60214B03221A60214BF4
:4002800024221A60FFF7C8FE07F0EEF9BD4602B080BDC0466CF02E401C700F4000DC00000CDC00002CDC000000600F4002600F4000000240000003EE0005024000500F4002
:4002C00008500F4010500F4014500F4030500F402000104000700F4001700F4000000440080004400060D80000010440080104400C01044000030440080304401803044097
:40030000000504400805044010B5064C2378002B07D1054B002B02D0044800E000BF0123237010BDA80C002000000000289E000008B5084B002B03D00748084900E000BFCB
:4003400007480368002B00D108BD064B002BFBD09847F9E700000000289E0000AC0C0020E80B00200000000080B500AF62B600F0A1F9074B1B7BDBB2012B07D1044B0022DB
:400380001A730A2007F006FB00F024FEF1E7C046CC0C002090B585B000AF041C3960101C191CFB1D221C1A70BB1D021C1A707B1D0A1C1A700D23FB1800221A700E23FB1888
:4003C000012252421A8001F091F97B1D1B78181C01F09CF901F0C0F9FB1D1878BB1D1A782023FB181B78396807F026FC07F0A6FD021C0D23FB181A700D23FB181B7802226E
:4004000013400CD11F4B1B781A1C0123134006D10D23FB181A7880239B001340E6D001F06DF901F08BF907F0ABFD0D23FB181B780222134004D00E23FB1800221A8019E06A
:400440000D23FB181A7880239B00134005D00E23FB18012252421A800CE00A4B1B781A1C0123134006D00E23FB18012252421A8001F072F90E23FB181B881BB2181CBD4679
:4004800005B090BDB90E002090B585B000AF041C3960101C191CFB1D221C1A70BB1D021C1A707B1D0A1C1A700D23FB1800221A700E23FB18012252421A8001F017F97B1D4B
:4004C0001B78181C01F022F901F046F9FB1D1878BB1D1A782023FB181B78396807F03AFC07F02CFD021C0D23FB181A700D23FB181B78012213400CD11F4B1B781A1C0123A5
:40050000134006D10D23FB181A7880239B001340E6D001F0F3F801F011F907F031FD0D23FB181B780122134004D00E23FB1800221A8019E00D23FB181A7880239B001340FA
:4005400005D00E23FB18012252421A800CE00A4B1B781A1C0123134006D00E23FB18012252421A8001F0F8F80E23FB181B881BB2181CBD4605B090BDB90E002090B58DB0EE
:4005800002AF041C081C111C3B60FB1D221C1A70BB1D021C1A703B1D0A1C1A801E4BFB613B683B620823FB18BA1D12781A702723FB1800221A7012E02723FB181B780133B9
:4005C0003A6A11780822BA18D1543B6A01333B622723FB181A782723FB1801321A702723FB181B789BB23A1D12889A42E4D83B1D1B88DBB20133DAB2FB1D18780823F9183C
:40060000002300931923FFF7C5FE031CFB61FB69181CBD460BB090BDFFFF000090B587B002AF041C081C111C3B60FB1D221C1A70BB1D021C1A703B1D0A1C1A80134BFB6089
:40064000FB1D1978BA1D02230093081C111C01220523FFF79FFE031CFB60FB68002B0DD13B1D1B88DAB2FB1D18783968012300931423FFF709FF031CFB6001E007F000FC23
:40068000FB68181CBD4605B090BDC046FFFF000080B500AF024B01221A73BD4680BDC046CC0C002080B500AFFFF7F2FF07F09AFCBD4680BD80B582B000AF07F033FA012088
:4006C000002103F00FFB031C7B607B68002B07D1444B1B88012293439AB2424B1A8006E0404B1B88012213439AB23E4B1A8000F005FB031C7B607B68002B07D1394B1B886B
:40070000022293439AB2374B1A8006E0354B1B88022213439AB2334B1A8004F081FB324B1B6801221A43304B1A602F4B1B68012213405A1E9341DBB20120191C02F074FD86
:4007400001F062F804F06CFB274B1B6802221A43254B1A60244B1B68022213405A1E9341DBB20420191C02F05FFD01F04DF804F057FB1D4B1B68802212011A431A4B1A6032
:40078000194B1A6880231B0113405A1E9341DBB21320191C02F048FD01F036F804F040FB114B1B688022D2001A430F4B1A600E4B1A688023DB0013405A1E9341DBB213203F
:4007C000191C02F031FD01F01FF8084B181C00F011F8074B181C07F01DFC7B68181CBD4602B080BDC80C0020CC0C00200000A040A506000080B584B000AF78600A23FB18D6
:40080000DB4A1A800023FB6004F00AFBD94B1B680122134018D00A23FB181B88181C09F093F8031C181C796808F0CCFB031C181C08F0FEF9031C9BB20120191C02F0A4F95C
:40084000021CFB681343FB60CA4B1B680222134018D00A23FB181B88181C09F075F8031C181C796808F0AEFB031C181C08F0E0F9031C9BB20420191C02F086F9021CFB6822
:400880001343FB60BB4B1B680422134018D00A23FB181B88181C09F057F8031C181C796808F090FB031C181C08F0C2F9031C9BB21020191C02F068F9021CFB681343FB602B
:4008C000AC4B1B684022134018D00A23FB181B88181C09F039F8031C181C796808F072FB031C181C08F0A4F9031C9BB20F20191C02F04AF9021CFB681343FB609D4B1A687E
:4009000080235B02134018D00A23FB181B88181C09F01AF8031C181C796808F053FB031C181C08F085F9031C9BB20F20191C02F02BF9021CFB681343FB608E4B1A68802301
:400940001B01134018D00A23FB181B88181C08F0FBFF031C181C796808F034FB031C181C08F066F9031C9BB21220191C02F00CF9021CFB681343FB607E4B1A6880235B01CC
:40098000134018D00A23FB181B88181C08F0DCFF031C181C796808F015FB031C181C08F047F9031C9BB21120191C02F0EDF8021CFB681343FB606F4B1A688023DB00134063
:4009C00018D00A23FB181B88181C08F0BDFF031C181C796808F0F6FA031C181C08F028F9031C9BB21320191C02F0CEF8021CFB681343FB605F4B1A6880235B00134018D099
:400A00000A23FB181B88181C08F09EFF031C181C796808F0D7FA031C181C08F009F9031C9BB20A20191C02F0AFF8021CFB681343FB60504B1A6880239B00134018D00A2367
:400A4000FB181B88181C08F07FFF031C181C796808F0B8FA031C181C08F0EAF8031C9BB20920191C02F090F8021CFB681343FB60404B1B680822134018D00A23FB181B883F
:400A8000181C08F061FF031C181C796808F09AFA031C181C08F0CCF8031C9BB20220191C02F072F8021CFB681343FB60314B1B681022134018D00A23FB181B88181C08F00F
:400AC00043FF031C181C796808F07CFA031C181C08F0AEF8031C9BB20E20191C02F054F8021CFB681343FB60224B1B682022134018D00A23FB181B88181C08F025FF031C23
:400B0000181C796808F05EFA031C181C08F090F8031C9BB20B20191C02F036F8021CFB681343FB60134B1A6880239B01134018D00A23FB181B88181C08F006FF031C181C9E
:400B4000796808F03FFA031C181C08F071F8031C9BB21420191C02F017F8021CFB681343FB60044B1A6880235B0313401DD003E065040000CC0C00200A23FB181B88181C3A
:400B800008F0E2FE031C181C796808F01BFA031C181C08F04DF8031C9BB22D20191C01F0F3FF021CFB681343FB60524B1A688023DB03134018D00A23FB181B88181C08F09F
:400BC000C3FE031C181C796808F0FCF9031C181C08F02EF8031C9BB22920191C01F0D4FF021CFB681343FB60424B1A6880239B03134018D00A23FB181B88181C08F0A4FE86
:400C0000031C181C796808F0DDF9031C181C08F00FF8031C9BB22C20191C01F0B5FF021CFB681343FB60334B1A6880239B02134018D00A23FB181B88181C08F085FE031C70
:400C4000181C796808F0BEF9031C181C07F0F0FF031C9BB20B20191C01F096FF021CFB681343FB60234B1A688023DB02134018D00A23FB181B88181C08F066FE031C181C82
:400C8000796808F09FF9031C181C07F0D1FF031C9BB21420191C01F077FF021CFB681343FB60144B1B688022134018D00A23FB181B88181C08F048FE031C181C796808F0FB
:400CC00081F9031C181C07F0B3FF031C9BB20320191C01F059FF021CFB681343FB60064B7A681A6000F090FDFB68181CBD4604B080BDC046CC0C0020EC0B002080B58CB004
:400D000000AF04F08DF83B1D00221A603B1D00225A603B1D00229A603B1D0022DA603B1D00221A613B1D00225A613B1D00229A613B1D0022DA613B1D00221A620823BB62A9
:400D400005F01AFC021C254B1A603B1D181C01F065F9234B1B68DA02224B1A60204B5B68DA02204B5A601E4B9B681F4A94466344DA021C4B9A601D4B1B68181CB96A07F0D6
:400D8000BDFD031CDA03174BDA60184B5B68181CB96A07F0B3FD031CDA03124B1A61134B9B68181CB96A07F0A9FD031CDA030D4B5A610A4B1B6803221340032B06D1094BDC
:400DC000181C01F05BF80023FB6202E001235B42FB62FB6A181CBD460CB080BDDC0C0020780D0020E00C002000C0FFFF840D002080B586B000AF0C23FB1800221A60002224
:400E00005A6000229A60624B1B680122134011D0604B1B88012B0DD15F4B1B68002B06D05E4B1B68002B02D15C4B01221A60594B00221A80564B1B680222134011D0584BE2
:400E40001B88012B0DD1544B1B68002B06D0554B1B68002B02D1534B01221A60504B00221A804B4B1B680422134006D04E4B1B88012B02D14C4B00221A804C4B1B88012B93
:400E800014D1434B1A6880235B0213400BD00C23FB18181C04F064FE0C23FA18444B101C191C06F0C1FA414B00221A80384B1B680822134006D03F4B1B88012B02D13D4B0C
:400EC00000221A80324B1B681022134006D03A4B1B88012B02D1384B00221A80374B1B88012B17D12A4B1A6880239B02134011D00C23FB18181C04F04BFE0C23FA183B1C86
:400F0000101C191C03F074FD3A1C294B101C191C06F08AFA2A4B1B88012B02D1284B00221A801B4B1A6880235B03134006D0254B1B88012B02D1234B00221A80144B1A68D2
:400F400080239B03134006D01F4B1B88012B02D11D4B00221A800E4B1A688023DB03134006D01A4B1B88012B02D1184B00221A80074B1A6880231B01134006D0144B1B787E
:400F8000012B02D1124B00221A70BD4606B080BDCC0C0020040D0020DC0C00204C0D0020060D0020500D0020080D00200E0D0020680D00200A0D00200C0D0020100D002027
:400FC000140D0020160D0020180D00201A0D00209E0D0020F0B5B1B000AFB223FB1800221A80B023FB1800221A80AE23FB1800221A800023A822BA181360A023FB18002251
:401000001A6000229A809423FB1800221A6000225A6000229A608823FB1800221A6000225A6000229A602423FB181A1C6223101C00211A1C08F0F0FEB223FB18181C03F0BD
:401040007FFEB223FB181B889BB21A1C254B134000D12CE32223FB1800221A80A823F9182223FA182423FB18081C111C1A1C04F035FA031E00D0FFE21B4B5C681B681A1C42
:4010800022431AD0194B19685A68174B5C681B68C91AA2410B1C141C2222BA181288151C0022161C181C211C2A1C331C07F052FD031C0C1C0E4A136054600C4B5C681B688F
:4010C000094A13605460C0E2B023F918AE23FA18A823FB18081C111C1A1C04F047FA031E08D0BDE202230000A00E0020A80E0020600D0020B023FB181B889BB21BB2002BB7
:4011000039DAF04B01221A809423FB18181C04F09DFC04F0E1FD021CEB4B1A6003F0F4F9031C1A1C01239340181C08F00DFC031C181C191C07F0CAFD031C181C9D21C905F3
:4011400007F040FF031CBC22BA181360BC23FB181868DE4908F028F9031CBC22BA1813609423F918BC23FB181A68D94B081C111C1A1C03F091FCB023FB181B881A1C80233A
:40118000DB01134000D1D8E01423FB1800221A6000225A6000229A600823FB1800221A6000225A6000229A60CA4B01221A80A023FB18181C04F062FC03F0B4F8031C1A1CA5
:4011C00001239340181C08F0BFFB031C181CC24908F0EAF8031C181C8E21C90507F0F2FE031CB822BA181360B823FB181868BB4908F0DAF8031CB822BA181360A023FB1895
:401200001B881AB21423FB181A60A023FB185B881AB21423FB185A60A023FB189B881AB21423FB189A601423F918B823FB181A68AB4B081C111C1A1C03F02EFC03F072F83A
:40124000031C1A1C01239340181C08F07DFB031C181CA14908F0A8F8031C181C9321C90507F0B0FE031CB822BA181360B823FB1818689A4908F098F8031CB822BA181360DA
:40128000A023FB18181C04F01BFCA023FB181B881AB20823FB181A60A023FB185B881AB20823FB185A60A023FB189B881AB20823FB189A600823F918B823FB181A68894B22
:4012C000081C111C1A1C03F0E7FB874B1B68022213402DD01423FB181B685A011423FB181A601423FB185B685A011423FB185A601423FB189B685A011423FB189A609423CE
:40130000F9181423FA180823FB18081C111C1A1C04F0EEFB9423F918B823FB181A68734B081C111C1A1C03F0B7FB714B01221A8004F0DEFC021C6F4B1A60B023FB181B886D
:401340001A1C202313401CD06B4B01221A809423FB18181C04F064FC04F0D6FC021C674B1A60DE239B05B422BA1813609423F918B423FB181A68624B081C111C1A1C03F0C9
:401380008BFBB023FB181B881A1C80239B0113405BD09423FB18181C04F02AFC9423FB181B68181C08F0D0FA031C181CDE21890507F0FAFF031C1A1C524B1A609423FB18CA
:4013C0005B68181C08F0C0FA031C181CDE21890507F0EAFF031C1A1C4A4B5A609423FB189B68181C08F0B0FA031C181CDE21890507F0DAFF031C1A1C424B9A60414B1A68A3
:401400003F4B1B68101C191C08F000F9031C1A1C3D4B1A603B4B5A68394B5B68101C191C08F0F4F8031C1A1C374B5A60354B9A68334B9B68101C191C08F0E8F8031C1A1C00
:40144000314B9A60314B01221A80B023FB181B881A1C80231B0113400ED02D4B01221A808823FB18181C04F07BFB8823FA18294B101C191C03F012FAB023FB181B881A1C2D
:401480008023DB00134050D0234B01221A808823FB18181C04F07CFB04F04CFC031C181C08F052FA031C181C9C21C90507F08AFD031C181C08F028FA021C184B1A60882371
:4014C000FA182DE0040D00204C0D00200AE81C4168130020080D002000007A4335FA8E3CE0130020EC130020CC0C002074130020060D0020500D00200A0D0020580D002011
:40150000B81300209C130020801300200C0D00200E0D0020A8130020100D0020540D0020644B101C191C03F0B9F9B023FB181B881A1C80235B00134034D08823FB18181C76
:4015400004F03EFB5C4B1A688023DB02134006D08823FA18594B101C191C05F065FF564B1A6880239B01134019D08823FA18544B101C191C03F092F904F0D2FB031C181C64
:4015800008F0E2F9031C181C9C21C90507F01AFD031C181C08F0B8F9021C4A4B1A604A4B01221A80AE23FB181B881A1C8023134034D0464B181C04F04BFB454B181C04F083
:4015C0005DFB3D4B1A688023DB03134014D03F4B1B881B0A9BB21A1C1023134003D03D4B02221A7008E0394B1B881A1C1023134002D0384B01221A702F4B1A6880235B03A3
:40160000134002D0344B01221A802B4B1A688023DB03134002D0314B01221A80AE23FB181B881A1C8023DB0013400CD0224B1A6880239B03134006D0294B181C04F034FBE4
:40164000284B01221A80FFF7D3FB2223FB181B885A1E91B22222BA181180002B00D033E5A823FB181B68002B00D105E0A823FB181B68002B00D0F1E4B023FB181B881A1CD4
:401680001023134013D00C4B1A688023DB0013400DD000237B603B1D181C00F077F97A68114B1B689A4202D07A680F4B1A60BD4631B0F0BDC4130020CC0C00203C0D002042
:4016C0008C1300205C0D0020140D0020940D0020980D0020960D0020160D00201A0D00209C0D0020180D0020B00E002080B500AF06F024FD06F09EFDBD4680BD80B500AFF2
:4017000006F02EFD06F0A8FDBD4680BD80B582B000AF021CFB1D1A70064B1B7801221343DAB2044B1A70044BFA1D12781A70BD4602B080BDB80E0020BA0E002080B500AFF7
:40174000044B1B7801229343DAB2024B1A70BD4680BDC046B80E002080B500AF044B1B7801229343DAB2024B1A70BD4680BDC046B90E002080B586B000AFB9607A600E2372
:40178000FB18021C1A800E23FB181B88D9B2BB689AB27B686920FEF7F1FE031C7B617B69181CBD4606B080BD80B586B000AFB9607A600E23FB18021C1A800E23FB181B8834
:4017C000D9B2BB689AB27B686920FEF727FF031C7B617B69181CBD4606B080BD80B582B000AF78607B68181C06F0D4F8BD4602B080BDC04680B582B000AF7860012006F09B
:40180000C9F8BD4602B080BD80B500AF00F084FE031C181CBD4680BD80B500AF00F006FA031C181CBD4680BD80B582B000AF78607B68181C00F0C0F9031C181CBD4602B0EF
:4018400080BDC04680B582B000AF78607B68181C00F0D0F9031C181CBD4602B080BDC04680B582B000AF78607B68181C00F01EFA031C181CBD4602B080BDC04680B582B05D
:4018800000AF021CBB1D1A80BB1D1B88181C00F031FA031C181CBD4602B080BD80B582B000AF021CBB1D1A80BB1D1B88181C00F047FA031C181CBD4602B080BD80B582B0A8
:4018C00000AF021CBB1D1A80BB1D1B88181C00F05DFA031C181CBD4602B080BD80B582B000AF78600A1CBB1C1A807A68BB1C00215B5E101C191C00F06BFA031C181CBD464A
:4019000002B080BD80B582B000AF78607B68181C00F064FC031C181CBD4602B080BDC04680B582B000AF78607B68181C00F070FC031C181CBD4602B080BDC04680B582B005
:4019400000AF78607B68181C00F084FC031C181CBD4602B080BDC04680B582B000AF021CBB1D1A803123181CBD4602B080BDC04680B582B000AF78607B68181C00F0B8FC3F
:40198000031C181CBD4602B080BDC04680B584B000AF78600023BB600823FB18181CFFF7E7FF031CFB60BA68064B1B68D21A7B681A607B681A68044B1A60FB68181CBD46DF
:4019C00004B080BDBC0E0020C00E002080B582B000AF78607B68181C00F0CEF8031C181CBD4602B080BDC04680B582B000AF78607B68181C00F0D4F8BD4602B080BDC0465F
:401A000080B582B000AF021CBB1D1A80BB1D00229B5E181C00F09EFC031C181CBD4602B080BDC04680B582B000AF021CBB1D1A80BB1D00229B5E181C00F0CEFC031C181C2A
:401A4000BD4602B080BDC04680B582B000AF7860054B1B687A68D21A044B1A600023181CBD4602B080BDC046C00E0020BC0E002080B500AF0023181CBD4680BD80B584B00B
:401A800000AFB9607A600E23FB18021C1A800E23FB181988BA687B68081C111C1A1C05F003F9031C181CBD4604B080BD80B584B000AFB9607A600E23FB18021C1A800E23A7
:401AC000FB181988BA687B68081C111C1A1C05F00BF8031C181CBD4604B080BD80B582B000AF7860081C111CBB1C021C1A803B1C0A1C1A807968BB1C1A883B1C1B88081C0A
:401B0000111C1A1C03F00AF8031C181CBD4602B080BDC04680B582B000AF021C3960BB1D1A80BB1D00229A5E3B68101C191C05F0EFFA031C181CBD4602B080BD80B582B043
:401B400000AF786039607A683B68101C191C05F0A3FA031C181CBD4602B080BD80B582B000AF78607B68181C05F0B6FA031C181CBD4602B080BDC04680B582B000AF7860A5
:401B8000054B064A181C111C9022FFF7A7FF031C181CBD4602B080BD349E0000AA37000080B582B000AF78607B68802252011A80BD4602B080BDC04680B584B000AF786096
:401BC0007B681B12DAB20823FB181A707B68DAB20823FB185A700823FB18402002211A1CFFF74CFF031CFB60FB68181CBD4604B080BDC04680B584B000AF78607B681B12C7
:401C0000DAB2094B1A707B68DAB2074B5A70064B422002211A1CFFF731FF031CFB60FB68181CBD4604B080BDC40E002080B582B000AF3B1C00221A603B1C402002211A1C6D
:401C4000FFF71CFF031C7B603B1C422002211A1CFFF714FF021C7B689B187B603B1C4C2002211A1CFFF70AFF021C7B689B187B603B1C4E2002211A1CFFF700FF021C7B68F1
:401C80009B187B603B1C8A2002211A1CFFF7F6FE021C7B689B187B607B68002B01D07B6800E00023181CBD4602B080BD80B584B000AF78600823FB1800221A807B689BB2BE
:401CC0001AB20823FB18101C191CFFF723FF031C4C2002211A1CFFF7D1FE031CFB60FB68002B01D0FB6800E00023181CBD4604B080BDC04680B584B000AF021CBB1D1A80A3
:401D00000823FB1800221A80BB1D1B881AB20823FB18101C191CFFF7FDFE021CFF235B00181C0221FFF7AAFE031CFB60FB68002B01D0FB6800E00023181CBD4604B080BDDB
:401D400080B584B000AF021CBB1D1A800823FB1800221A80BB1D1B881AB20823FB18101C191CFFF7D7FE031C8A2002211A1CFFF785FE031CFB60FB68002B01D0FB6800E059
:401D80000023181CBD4604B080BDC04680B584B000AF021CBB1D1A80BB1D1B881B0A9BB2DAB20823FB181A70BB1D1B88DAB20823FB185A700823FB184E2002211A1CFFF7DF
:401DC0005DFE031CFB60FB68181CBD4604B080BD90B587B000AF78600A1CBB1C1A800C23FB1800221A8000237B617B680C2B26D87B689A00204BD3181B689F46BE237B61DC
:401E00001DE0BA237B611AE0B6237B6117E0B2237B6114E0AC237B6111E0A8237B610EE0A0237B610BE0A4237B6108E0BC237B6105E0B8237B6102E0B4237B61C0467B6985
:401E40009CB2BB1C00229A5E0C23FB18101C191CFFF760FE031C201C02211A1CFFF70EFE031C3B613B69002B01D03B6900E00023181CBD4607B090BDE0D5000080B584B01B
:401E800000AF78600823FB1800221A607B681A680823FB18101C191CFFF750FE021C584B181C0421FFF7EAFD031CFB607B6804331A680823FB18101C191CFFF73FFE021C7C
:401EC000DD23DB00181C0421FFF7D8FD021CFB689B18FB607B6808331A680823FB18101C191CFFF72BFE021C464B181C0421FFF7C5FD021CFB689B18FB60FB68002B01D048
:401F0000FB6879E07B680C331A680823FB18101C191CFFF713FE021C3B4B181C0421FFF7ADFD031CFB607B6810331A680823FB18101C191CFFF702FE021C344B181C042151
:401F4000FFF79CFD021CFB689B18FB607B6814331A680823FB18101C191CFFF7EFFD021C2B4B181C0421FFF789FD021CFB689B18FB60FB68002B01D0FB683DE07B68183311
:401F80001A680823FB18101C191CFFF7D7FD021C204B181C0421FFF771FD031CFB607B681C331A680823FB18101C191CFFF7C6FD021CFD23DB00181C0421FFF75FFD021C88
:401FC000FB689B18FB607B6820331A680823FB18101C191CFFF7B2FD021C0F4B181C0421FFF74CFD021CFB689B18FB60FB68002B01D0FB6800E00023181CBD4604B080BDE8
:40200000E4060000EC060000B4080000B8080000BC080000E4070000EC07000090B585B000AF78600823FB1800221A60644A0823FB18101C04211A1CFFF738FD031CFB60B3
:402040000823FB18181CFFF789FD021C7B681A60DD23DA000823FB18101C04211A1CFFF725FD021CFB689B18FB607B681C1D0823FB18181CFFF772FD031C2360514A082356
:40208000FB18101C04211A1CFFF710FD021CFB689B18FB607B6808331C1C0823FB18181CFFF75CFD031C2360474A0823FB18101C04211A1CFFF7FAFC031CFB607B680C335D
:4020C0001C1C0823FB18181CFFF748FD031C23603E4A0823FB18101C04211A1CFFF7E6FC021CFB689B18FB607B6810331C1C0823FB18181CFFF732FD031C2360344A082365
:40210000FB18101C04211A1CFFF7D0FC021CFB689B18FB607B6814331C1C0823FB18181CFFF71CFD031C23602A4A0823FB18101C04211A1CFFF7BAFC031CFB607B681833A2
:402140001C1C0823FB18181CFFF708FD031C2360FD23DA000823FB18101C04211A1CFFF7A5FC021CFB689B18FB607B681C331C1C0823FB18181CFFF7F1FC031C2360164A72
:402180000823FB18101C04211A1CFFF78FFC021CFB689B18FB607B6820331C1C0823FB18181CFFF7DBFC031C2360FB68002B01D0FB6800E00023181CBD4605B090BDC046F7
:4021C000E4060000EC060000B4080000B8080000BC080000E4070000EC07000080B584B000AF78607A680823FB18101C191CFFF7A5FC021C98235B00181C0421FFF73EFC20
:40220000031CFB60FB68181CBD4604B080BDC04680B584B000AF78600823FB1800221A607A680823FB18101C191CFFF787FC021C86235B00181C0421FFF720FC031CFB60C8
:40224000FB68002B01D0FB6800E00023181CBD4604B080BD80B584B000AF78600823FB1800221A607B681A680823FB18101C191CFFF764FC021CB623DB00181C0421FFF72C
:40228000FDFB031CFB607B6804331A680823FB18101C191CFFF752FC021CB823DB00181C0421FFF7EBFB021CFB681343FB607B6808331B689BB21AB20823FB18101C191C99
:4022C000FFF728FC021C094B181C0221FFF7D6FB021CFB681343FB60FB68002B01D0FB6800E00023181CBD4604B080BDE405000080B584B000AF78600823FB1800221A6062
:40230000D8239A000823FB18101C04211A1CFFF7CDFB031CFB60FB68002B01D0FB6815E00823FB181B781B020822BA1852789B181B020822BA1892789B181B020822BA18FE
:40234000D2789B181A1C7B681A600023181CBD4604B080BD80B586B000AF021CBB1D1A80BB1D00229B5E202B18D89A00194BD3181B689F4680239B047B6111E08023DB04C8
:402380007B610DE080231B057B6109E080235B057B6105E080239B057B6101E0202315E07A690C23FB18101C191CFFF7C7FB021CF0235B00181C0421FFF760FB031C3B61A1
:4023C0003B69002B01D03B6900E00023181CBD4606B080BD14D6000080B586B000AF021CBB1D1A80BB1D00229B5E202B18D89A00194BD3181B689F4680231B037B6111E0CB
:402400008023DB027B610DE080239B027B6109E080235B027B6105E080231B027B6101E0202314E07A690C23FB18101C191CFFF785FB021C094B181C0421FFF71FFB031CE3
:402440003B613B69002B01D03B6900E00023181CBD4606B080BDC04698D60000F404000080B586B000AF021CBB1D1A800C23FB1800221A700C23FB1800225A700C23FB18DB
:4024800000229A700C23FB180022DA70BB1D00229B5E042B1DD89A001D4BD3181B689F461623FB1800221A8015E01623FB1801221A8010E01623FB1803221A800BE01623B1
:4024C000FB1807221A8006E01623FB180F221A8001E0202317E01623FB1800229A5E0C23FB18101C191CFFF715FB021C094B181C0221FFF7C3FA031C3B613B69002B01D008
:402500003B6900E00023181CBD4606B080BDC0461CD700000A03000080B582B000AF3B1C00221A703B1C00225A703B1C00229A703B1C0022DA703B1C9E2002211A1CFFF7BE
:402540009DFA031C7B603B1C9A2002211A1CFFF795FA021C7B6813437B603B1C8C2004211A1CFFF78BFA021C7B6813437B603B1C842004211A1CFFF781FA021C7B68134380
:402580007B603B1C962002211A1CFFF777FA021C7B6813437B603B1C922002211A1CFFF76DFA021C7B6813437B603B1C802004211A1CFFF763FA021C7B6813437B603B1C22
:4025C0009C2002211A1CFFF759FA021C7B6813437B603B1C982002211A1CFFF74FFA021C7B6813437B603B1C942002211A1CFFF745FA021C7B6813437B603B1C8820022185
:402600001A1CFFF73BFA021C7B6813437B607B68181CBD4602B080BD80B582B000AF021CFB1D1A70FB1D1B785B09DBB21A1C074B9200D358FA1D12781F210A400121914029
:402640000A1C1340181CBD4602B080BD200F002080B584B000AF786039600E23FB18012252421A8020E07B681B78181CFFF7D4FF031E16D07B685B78191C0C23FB18104A4D
:4026800049008A5A1A800E23FA180C23FB1812881B889A4205D90E23FB180C22BA1812881A807B6802337B603B685A1E3A60002BD9D10E23FB181B88181CBD4604B080BDD3
:4026C0002C0C002090B585B000AF041C081C111CBB1D221C1A803B1D021C1A80FB1C0A1C1A700023FB60BB1D1B881C4A93422FD0BB1D1B881A4A5A43111C3B1D1B88FA226E
:4027000092005343081C191C06F0F8F8031C1A1C0A23FB181A80FB1C1A783B1D0A2179181B8809884B4399B20E4B5200D152FB1C1A780A23FB181B88013B9BB29BB21BB23C
:40274000101C191CFFF7CAF8021CFB681343FB60FB68181CBD4605B090BDC046FFFF000065040000C80E002080B584B000AF021CBB1D1A800E23FA18BB1D1B8899B2C8296D
:4027800000D9C82313800E23FB181B88064A5343181CFA23990006F0B1F8031C9BB2181CBD4604B080BDC0466504000090B583B000AFBC1D304B181C1421FFF749FF031C28
:4027C00023802E4B1B88002B0BD02D4B598BBA1DBB1D1C880B1C98B2A1B2884200D9231C1380284B1B88002B0BD0254B998BBA1DBB1D1C880B1C98B2A1B2884200D9231C83
:402800001380214B1B88002B0BD01D4BD98BBA1DBB1D1C880B1C98B2A1B2884200D9231C13802720FFF7F8FE031E04D11420FFF7F3FE031E07D0BA1DBB1D1B8899B2052991
:4028400000D9052313801F20FFF7E6FE031E04D10B20FFF7E1FE031E07D0BA1DBB1D1B8899B2052900D905231380BB1D1B88181CBD4603B090BDC04684D70000140F002008
:402880002C0C0020180F0020160F002090B583B000AFBC1D0F4B181C0E21FFF7D9FE031C23801F20FFF7B8FE031E04D10B20FFF7B3FE031E07D0BA1DBB1D1B8899B2052972
:4028C00000D905231380BB1D1B88181CBD4603B090BDC046ACD7000090B585B000AF0023FB603B1D00221A800A23FC18FFF75EFF031C23800823FC18FFF7C8FF031C23803A
:40290000BA1C0A23FB18082179180C881B8898B2A1B2884200D9231C13800A23FB181B888C4A934204D00A23FB18BA1C12881A800823FB181B88874A934204D00823FB1839
:40294000BA1C12881A800A23FB181B88814A934200D18CE03C1D0A23FB181B88181CFFF703FF031C23807C4B1B883A1D12889A4222D03B1D1B88181C00F078FF021CFB6823
:402980001343FB603B1D1B88181C00F0A7FF021CFB681343FB603B1D1B88013B9BB29BB21BB2181C01F0F2FA021CFB681343FB60694B3A1D12881A80684B181C0421FFF74D
:4029C00047FE031C1A1C3B1D1B88101C191C0022FFF778FE021CFB681343FB60604B181C0221FFF735FE031C1A1C3B1D1B88101C191C0722FFF766FE021CFB681343FB6090
:402A0000584B181C0521FFF723FE031C1A1C3B1D1B88101C191C0C22FFF754FE021CFB681343FB60BC1D504B181C0121FFF710FE031C23804D4B1B88002B0BD04C4B598BDD
:402A4000BA1DBB1D1C880B1C98B2A1B2884200D9231C1380BB1D1A883B1D1B88101C191C0C22FFF72FFE021CFB681343FB600823FB181B88374A934266D03C1D0823FB186D
:402A80001B88181CFFF770FE031C2380394B1B883A1D12889A420FD03B1D1B88DBB2013BDBB2181C01F04EFA021CFB681343FB60304B3A1D12881A802F4B181C0421FFF787
:402AC000C7FD031C1A1C3B1D1B88101C191C0122FFF7F8FD021CFB681343FB60274B181C0221FFF7B5FD031C1A1C3B1D1B88101C191C0A22FFF7E6FD021CFB681343FB60C8
:402B00001F4B181C0621FFF7A3FD031C1A1C3B1D1B88101C191C0522FFF7D4FD021CFB681343FB60174B181C0421FFF791FD031C1A1C3B1D1B88101C191C0622FFF7C2FD9C
:402B4000021CFB681343FB60FB68181CBD4605B090BDC046FFFF0000760C0020C8D70000D0D70000D4D70000E0D70000140F00202C0C0020780C0020E4D70000ECD700007C
:402B8000F0D70000FCD7000090B585B000AF021CFB1D1A703B1D0A1C1A8000F031FF3B1D1B88002B02D13B1D01221A803B1D1A88FA239B009A4203D93B1DFA2292001A8042
:402BC000FB1D1B782E2B00D9ABE09A00624BD3181B689F46614B3A1D12881A80A2E05F4B3A1D12881A839DE05C4B3A1D1288DA815A4B3A1D12889A8494E0584B3A1D1288B6
:402C00005A838FE0554B3A1D12885A808AE0534B3A1D12889A8285E0504B3A1D12885A814E4B3A1D12881A847CE04C4B3A1D12889A814A4B3A1D12885A84484B3A1D1288ED
:402C4000DA846FE0454B3A1D1288DA806AE0434B3A1D1288DA8265E0404B3A1D12881A8160E03E4B3A1D12881A855BE03B4B3A1D1288DA8756E0394B3A1D12889A86374B92
:402C80003A1D462112885A524CE0344B3A1D402112885A5246E0314B3A1D1288DA8341E02E4B3A1D12885A853CE02C4B3A1D12885A8737E0294B3A1D12881A86274B3A1DC3
:402CC000422112885A522DE0244B3A1D12885A86224B3A1D442112885A52204B3A1D482112885A521EE01D4B3A1D12889A8519E01A4B3A1D12889A8714E0184B3A1D1288D0
:402D0000DA850FE0154B3A1D12885A820AE0134B3A1D12881A8705E0104B3A1D12889A8300E0C046FFF7D8FD031CFB6001F024F9031C1C1C01F0F6FA031C201C191C01F0FE
:402D4000FDF9021CFB681343FB6000F063FEFB68181CBD4605B090BD04D800002C0C002080B584B000AF3960111CFB1D021C1A70BB1D0A1C1A700023FB603B68002B02D1C5
:402D800001235B425AE13B6800221A60FB1D1B782E2B00D94EE19A00AA4BD3181B689F46A94B1A88BB1D1B78101C191C01F01CF9021C3B681A6040E1A34B1A8BBB1D1B7828
:402DC000101C191C01F010F9021C3B681A6034E19D4BDA89BB1D1B78101C191C01F004F9021C3B681A6028E1974B5A8BBB1D1B78101C191C01F0F8F8021C3B681A601CE133
:402E0000914B5A88BB1D1B78101C191C01F0ECF8021C3B681A6010E18B4B9A8ABB1D1B78101C191C01F0E0F8021C3B681A6004E1854B5A89BB1D1B78101C191C01F0D4F81C
:402E4000021C3B681A60F8E07F4B9A89BB1D1B78101C191C01F0C8F8021C3B681A60ECE0794BDA88BB1D1B78101C191C01F0BCF8021C3B681A60E0E0734BDA8ABB1D1B78AF
:402E8000101C191C01F0B0F8021C3B681A60D4E06D4B1A89BB1D1B78101C191C01F0A4F8021C3B681A60C8E0674B1A8DBB1D1B78101C191C01F098F8021C3B681A60BCE015
:402EC000614BDA8FBB1D1B78101C191C01F08CF8021C3B681A60B0E05B4B9A8EBB1D1B78101C191C01F080F8021C3B681A60A4E0554B40229A5ABB1D1B78101C191C01F03C
:402F000073F8021C3B681A6097E04F4BDA8BBB1D1B78101C191C01F067F8021C3B681A608BE0494B5A8DBB1D1B78101C191C01F05BF8021C3B681A607FE0434B5A8FBB1D3F
:402F40001B78101C191C01F04FF8021C3B681A6073E03D4B1A8EBB1D1B78101C191C01F043F8021C3B681A6067E0374B42229A5ABB1D1B78101C191C01F036F8021C3B6867
:402F80001A605AE0304B5A8EBB1D1B78101C191C01F02AF8021C3B681A604EE02A4B9A8DBB1D1B78101C191C01F01EF8021C3B681A6042E0244B9A8FBB1D1B78101C191C82
:402FC00001F012F8021C3B681A6036E01E4BDA8DBB1D1B78101C191C01F006F8021C3B681A602AE0184B5A8ABB1D1B78101C191C00F0FAFF021C3B681A601EE0124B1A8F7A
:40300000BB1D1B78101C191C00F0EEFF021C3B681A6012E00C4B9A8BBB1D1B78101C191C00F0E2FF021C3B681A6006E03B6800221A6002E03B6800221A60FB68181CBD4686
:4030400004B080BDC0D80000C80E002080B586B000AF786039603B6800221A8000237B6131E07B695B013B611A4B7A699200D358FB6022E0FB680122134018D03B695B00D9
:403080007A68D2180A23FB1812881A800A23FB1800229B5E01330AD03B681B889AB20A23FB181B8813439BB29AB23B681A80FB685B08FB603B6901333B61FB68002BD9D1F9
:4030C0007B6901337B617B69012BCADDBD4606B080BDC046200F002080B586B000AFBA607B600F23FB18021C1A700E23FB180A1C1A701623FB1800221A803D4B1B88002B8C
:4031000003D13C4B1B88002B06D07B681B88082213439AB27B681A800F23FB181B78292B00D961E00F23FB181B785B00BA68D2181623FB1812881A801623FB1800229B5E55
:40314000013300D150E00E23FB181B78002B27D00F23FB181B785B09DBB2181C0F23FB181B785B09DBB21A1C234B9200D3580F22BA1812781F210A40012191400A1C134374
:40318000191C1D4B8200D1507B681B889AB21623FB181B8813439BB29AB27B681A8022E00F23FB181B785B09DBB2181C0F23FB181B785B09DBB21A1C0F4B9200D3580F225C
:4031C000BA1812781F210A40012191400A1CD2431A40111C084B8200D150BA687B68101C191CFFF733FFC046BD4606B080BDC046140F0020180F0020200F002080B500AFF1
:40320000074B1B68074A134004D1054B5B681822134001D0012300E00023181CBD4680BD200F0020188E01E680B584B000AF021CFB1D1A70BB1D0A1C1A700023FB6000F08A
:40324000DFFB114B1B78002B08D00F4B00221A7000F0B0FC021CFB681343FB60FB1D1978BB1D1A78084B081C111C1A1C00F00EF8021CFB681343FB6000F0CCFBFB68181C4B
:40328000BD4604B080BDC0467A0C002090B587B000AF3A60FB1D021C1A70BB1D0A1C1A7000237B611223FB1800221A801023FB1800221A800023FB60FB1D1B78112B0BD11B
:4032C000BB1D1B78002B04D0634B802212011A8002E0614B00221A80FB1D1B78122B0BD1BB1D1B78002B04D05C4B802292011A8002E05A4B00221A80FB1D1B782C2B0DD156
:40330000BB1D1B78002B06D0554B8022D2001A80FEF7AEFB02E0524B00221A80FB1D1B782B2B0AD1BB1D1B78002B03D04D4B20221A8002E04B4B00221A80FB1D1B782D2BAA
:4033400004D1BB1D1B78181C00F034FAFB1D1B78292B04D1BB1D1B78181C00F057FAFB1D1878BB1D1978404A404BFFF7B5FE3F4B1B88181CFEF758FA031C7B61394B1B886E
:40338000002B0CD0394B1B88394A13439BB2181CFEF766FA021C7B6913437B6108E0334B1B88181CFEF75CFA021C7B6913437B612E4B1B889BB21BB2002B08DA2D4B1B88E2
:4033C0008022D20113439AB22A4B1A8006E0294B1B88294A13409AB2264B1A80234B1B881A1C4023134008D0224B1B888022920113439AB21F4B1A8006E01E4B1B881F4A72
:4034000013409AB21B4B1A801D4B1B88002B08D0184B1A881A4B1B8813439AB2154B1A800DE0174B1B889BB2DB4399B2114B1B889AB20B1C13409BB29AB20E4B1A80084BEA
:403440001B88002B1ED00B4B1A88054B1B8813439AB2084B1A8023E02A0F00202C0F0020180F0020160F002030D700001A0F00200880FFFF1C0F0020FFBFFFFFFFDFFFFF1A
:40348000140F0020A74B1B889BB2DB4399B2A64B1B889AB20B1C13409BB29AB2A24B1A80FB1D1B782B2B0BD1BB1D1B78002B07D01223FB181222BA18128804210A431A80C6
:4034C000994B1B88181CFEF7BDF9021C7B6913437B61964B1B68964A134004D1934B5B681822134007D01023FB181022BA18128801210A431A808D4B1B688E4A134005D178
:403500008A4B5A68BA239B00134007D01023FB181022BA18128802210A431A80814B1B88002B03D1844B1B88002B07D01023FB181022BA18128802210A431A807F4B1B8827
:40354000002B07D01023FB181022BA18128802210A431A80754B1B68794A134004D1734B5B688422134007D01023FB181022BA18128808210A431A806C4B1B68714A1340A0
:4035800007D01023FB181022BA18128804210A431A801023FB181B880122134008D01223FB181222BA181288802149000A431A801223FB181222BA181288A02189000A43D5
:4035C0001A80614B1A88614B1B88134399B21223FB181222BA1812880A431A805C4B1B881A1C8023DB00134007D01223FB181222BA18128840210A431A80554B1B881A1C53
:403600001723134006D11223FB181A8880231B01134008D01223FB181222BA1812888021C9010A431A80404B1B881A1C8023134008D01223FB181222BA1812888021C90193
:403640000A431A80384B1B881A1C8023DB00134009D01223FB181222BA18128810210A431A80FEF705FA3A4B1B881A1C80235B00134007D01223FB181222BA1812880821D2
:403680000A431A801223FB181B88181CFEF716F9021C7B6913437B61FFF71EF9021C7B6913437B6100F068FC031C1C1C00F03AFE031C201C191C00F041FD021C7B691343A2
:4036C0007B61234B1B88002B12D1184B1A6880239B0213400CD1184B1B88002B08D13B6801221A7000F0B8FA021C7B6913437B611023FB181B88802213439BB2181C00F0F8
:40370000BBFF021C7B6913437B611023FB181B88082213401ED11023FB181B880422134028D017E0180F00201C0F0020200F0020188E01E60A8E9EE2160F0020140F0020E7
:403740000C481083400000102A0F00202C0F00201A0F00201023FB181022BA18128804218A431A801023FB181022BA18128808210A431A801023FB181B88181CFEF78EF819
:40378000021C7B6913437B61FB1D1B78132B0CD1BB1D1B78002B08D00C23FB18181CFEF7E7F8FB68181CFEF74FF97B69181CBD4607B090BD80B582B000AF021CFB1D1A708E
:4037C000FB1D1B789AB20F4B1A80FB1D1B78002B06D00D4B80221A800020FEF7BDF80EE02920FEF719FF031E06D1074B00221A800020FEF7B1F802E00120FEF7ADF8BD462C
:4038000002B080BD120F0020140F002080B582B000AF021CFB1D1A70FB1D1B78002B0AD00B4B80221A800B4B1B88002B0DD10120FEF792F809E0074B1B88002B05D1044B2D
:4038400000221A800020FEF787F8BD4602B080BD140F0020120F002080B500AF024B1B78181CBD4680BDC046280F002080B584B000AF021CBB1D1A800023BB60154BFB604C
:40388000BB1D1B880A2B0BD002DC052B05D012E00B2B08D0162B0AD00DE00E4BFB600DE00D4BFB600AE080239B04FB6006E08023DB04FB6002E0074BFB60C046FB68181CC8
:4038C000FEF72EF8031CBB60BB68181CBD4604B080BDC0462EBAE8005D74D10180B586B000AF021CBB1D1A8000237B610823FB1800221A6000225A6000229A60BB1D1B88B9
:40390000052B08D80823FB18314A1A600823FB18304A5A6050E0BB1D1B880A2B08D80823FB182D4A1A600823FB182C4A5A6043E0BB1D1B880B2B0CD80823FB18284A1A6093
:403940000823FB18274A5A600823FB1801229A6032E0BB1D1B88142B08D80823FB18224A1A600823FB18214A5A6025E0BB1D1B88162B08D80823FB18194A1A600823FB1856
:40398000184A5A6018E0BB1D1B884B2B08D80823FB18174A1A600823FB18164A5A600BE0BB1D1B88E12B07D80823FB18124A1A600823FB18114A5A600823FB18181CFDF793
:4039C000BDFF031C7B617B69181CBD4606B080BD7DD2273D832DD8029224493A6EDBB60533333333CDCCCC0C25499234DBB66D0B55555515ABAAAA2A666666069A99993994
:403A000080B500AF024B00221A70BD4680BDC0467C0C002080B500AF044B01221A700220012100F00FF8BD4680BDC0467C0C002080B500AF024B1B78181CBD4680BDC04674
:403A40007C0C002080B584B000AF021CFB1D1A70BB1D0A1C1A700023FB60FB1D1B78012B02D0022B45D091E0BB1D1B78002B1FD0494B1B781A1C0123134039D1464B5B789D
:403A800040229343DAB2444B5A70444B062001211A1CFDF76FFE031CFB603F4B1B7801221343DAB23C4B1A700120FDF7A3FE6DE0394B1B781A1C0123134019D0364B5B78CA
:403AC00040221343DAB2344B5A70344B062001211A1CFDF74FFE031CFB602F4B1B7801229343DAB22C4B1A700120FDF783FE4DE04CE0294B9B7B01221340DBB2002B44D033
:403B0000BB1D1B78002B20D0FFF792FF031E3CD0214B1B781A1C0223134036D11E4B5B7820221343DAB21C4B5A701C4B062001211A1CFDF71FFE031CFB60174B1B7802227D
:403B40001343DAB2144B1A701FE0134B1B781A1C0223134019D0104B5B7820229343DAB20D4B5A700D4B062001211A1CFDF702FE031CFB60084B1B7802229343DAB2064BFE
:403B80001A700120FDF736FEFFE7C046FB68181CBD4604B080BDC046F8130020F913002080B500AF024B1B78181CBD4680BDC046F813002080B582B000AF00237B600120C0
:403BC0000121FFF73FFF031C7B60224BDB7B022B0CD1204BDB7810221343DAB21D4BDA701C4BDB780320191C02F05EFEFB1C47221A70FB1C072001211A1C02F0CBFD021C4C
:403C00007B6813437B60134B9B7B02221340DBB2002B11D00F4BDB78402252421343DAB20C4BDA700B4BDB780320191C02F03CFE021C7B6813437B6002200121FFF702FF2C
:403C4000021C7B6813437B607B68181CBD4602B080BDC046F813002080B582B000AFFB1C7F221A70FB1C072001211A1C02F092FD031C7B6001200021FFF7E4FE021C7B6854
:403C800013437B607B68181CBD4602B080BDC04680B584B000AF0823FB1800221A80BB1D181CFDF7A1FEBB1D1B881B0A9BB2DAB20823FB181A70BB1D1B88DAB20823FB188D
:403CC0005A70A8235A000823FB18101C02211A1C02F060FD031CFB60FB68181CBD4604B080BDC04680B584B000AF021C3960FB1D1A700023FB600B23FB1800221A708E4B03
:403D0000181C0021122206F087F88B4B01225A70894B7F229A70884BFA1D1278DA730B23FB18002001211A1C02F020FE021CFB681343FB60814B032001211A1C02F016FE3A
:403D4000021CFB681343FB60FFF734FF021CFB681343FB607A4B30221A70794B052001211A1C02F017FD021CFB681343FB60724BDB7B022B03D1704B1022DA7002E06E4BB6
:403D80000022DA706C4BDB780320191C02F08CFD021CFB681343FB603B68181CFDF716FE021CFB681343FB60FB68002B01D0FB68BEE0614B9A7B02210A439A73FFF768FF7C
:403DC000021CFB681343FB60FDF726FD021CFB681343FB60C8239B00181CFDF74FFD021CFB681343FB60564B02221A70544B102001211A1C02F0CEFC021CFB681343FB60B8
:403E00004F4B01221A704E4B122001211A1C02F0C1FC021CFB681343FB60494BE4221A70474B262001211A1C02F0B4FC021CFB681343FB60424B752001211A1C02F096FD10
:403E40003F4B1B7808221343DAB23D4B1A703C4B752001211A1C02F09DFC374B0122DA72354B01229A720A2000F06CF80A2000F08DF8032000F036FA021CFB681343FB60D6
:403E8000002000F011FB021CFB681343FB607620002102F009FD021CFB681343FB6068201F2102F001FD021CFB681343FB6068201E2102F0F9FC021CFB681343FB60662083
:403EC000002102F0F1FC021CFB681343FB606720002102F0E9FC021CFB681343FB60184B862001211A1C02F0FFFD021CFB681343FB60134B1B781A1C0823134001D0312394
:403F000016E00D4B9A7B01210A439A730A4B9B7B01221340DBB2002B03D002200121FFF791FDFFF799FE021CFB681343FB60FB68181CBD4604B080BDF8130020FB130020CB
:403F4000310F002080B582B000AF021CFB1D1A70FB1D1A78074B1A7180235A00FB1D101C01211A1C02F016FC031C181CBD4602B080BDC046F813002080B500AF024B1B79AC
:403F8000181CBD4680BDC046F813002080B584B000AF021CBB1D1A800C23FB1800221A80104BBA1D12881A81BB1D00229B5E1B129BB2DAB20C23FB181A70BB1D1B88DAB283
:403FC0000C23FB185A7088235A000C23FB18101C02211A1C02F0DEFB031C181CBD4604B080BDC046F813002090B587B000AF021CBB1D1A807B1D0A1C1A7000237B61002381
:404000003B610F23FB1800221A700E23FB1800221A70454B1B7C002B05D1444BA82001211A1C02F0A3FC0F23FB183F4A127C1A700E23FC18FFF7E2F8031C23700F23FB18A9
:404040001B785BB2002B1FDBBB1D1B88384A5343181C384904F052FC031C1A1C364B5A430E23FB181B78002B06D00F23FB181B7831498C46634400E02F4B101C191C04F02C
:404080003DFC031C3B6126E00F23FB180F22BA1812787F210A401A70BB1D1B88244A5343181C244904F02AFC031C1A1C224B5343191C0E23FB181B78002B05D00F23FB18DD
:4040C0001B781D4AD31A00E01B4B081C191C04F015FC031C3B617B1D1B78012B0CD0022B0DD0002B1AD13B69181CFA23990004F075FB031C7B6111E03B697B610EE03B6937
:40410000181CFA23990004F069FB031C1A1C131CDB009B1A9B009B187B61C0467B69181CBD4607B090BDC046F81300200814002040420F0065040000F6040000F0B595B08F
:4041400000AF031CB9622F22BA1813700023BB645C4B1B7C002B09D15B4BA82001211A1C02F004FC021CBB6C1343BB64574B584CBB63FC63574B00243B637C63514B1B7C80
:40418000DBB25BB2002B3CDA0122BB6A9A40131C3B6200237B62386A796ABA6BFB6B04F01DFD031C0C1C191C221C2F23FB181B780133BB61DB17FB61081C111CBA69FB69F0
:4041C00004F00CFD031C0C1C181C211C3D4B1B7C1A1C7F231340404AD31A3B61DB177B613A697B6904F0DAFC031C0C1C181C211C3A6B7B6B04F0D2FC031C0C1C3B647C64C3
:404200003BE00122BB6A9A40131CBB600023FB60B868F968BA6BFB6B04F0E0FC031C0C1C191C221C2F23FB181B7801333B60DB177B60081C111C3A687B6804F0CFFC031C9B
:404240000C1C191C221C1F4B1B7C2348844663441D1CDB171E1C081C111C2A1C331C04F09DFC031C0C1C181C211C3A6B7B6B04F095FC031C0C1C3B647C647B6C002B06D177
:404280007B6C002B06D13B6C144A934202D9134BFB6401E03B6CFB64114B1B68FA6C9A420AD0FB6C181CFDF72DFB021CBB6C1343BB640B4BFA6C1A60BB6C181CBD4615B0F7
:4042C000F0BDC046F813002008140020AF75665683F00000A0860100F6040000FFFFFF7F340F002080B584B000AF78607B68DAB20B4B1A737B68181C00F01EF8031CFB6078
:40430000074B1A797B68101C191CFFF717FF021CFB681343FB60FB68181CBD4604B080BDF813002080B500AF024B1B7B181CBD4680BDC046F813002080B586B000AF786002
:4043400000233B617B68032B01DD1623A5E00223FF331A1C0F23FB18101C01211A1C02F005FB021C3B6913433B610F23FB181B783F229343DAB20F23FB181A707B685B002D
:40438000DAB20F23FB181B781343DBB201221343DAB20F23FB181A700223FF331A1C0F23FB18101C01211A1C02F0F4F9021C3B6913433B6181235A000E23FB18101C012169
:4043C0001A1C02F0D3FA021C3B6913433B610E23FB181B7807229343DAB20E23FB181A70304B9B7A082B21D006DC022B14D0042B17D0012B0BD032E0202B21D002DC102BB9
:4044000019D02CE0402B20D0802B23D027E01723FB1800221A7027E01723FB1801221A7022E01723FB1802221A701DE01723FB1803221A7018E01723FB1804221A7013E0AF
:404440001723FB1805221A700EE01723FB1806221A7009E01723FB1807221A7004E01723FB1800221A70C0460E23FB181A781723FB181B781343DAB20E23FB181A700E23EE
:40448000FB181A7881235B00181C111C02F00CFA021C3B6913433B613B69181CBD4606B080BDC046F813002080B584B000AF78607B68DAB2134B5A737B68181C00F02EF895
:4044C000031CFB6002227B689A40131C9BB21BB2181CFDF795FA021CFB681343FB6002227B689A40131C9BB21BB2181CFDF79AFA021CFB681343FB60FB68181CBD4604B0C9
:4045000080BDC046F813002080B500AF024B5B7B181CBD4680BDC046F813002080B586B000AF786000233B617B68032B01DD162399E08A235A000F23FB18101C01211A1C3F
:4045400002F014FA021C3B6913433B610F23FB181B783F229343DAB20F23FB181A70444BDB7A012B0ED97B685B00DAB20F23FB181B781343DBB239221343DAB20F23FB181F
:404580001A700CE07B685B00DAB20F23FB181B78DBB21343DBB2DAB20F23FB181A700F23FB181A788A235B00181C111C02F07CF9021C3B6913433B612D4BDB7A202B1DD8B0
:4045C0009A002C4BD3181B689F461723FB1800221A7018E01723FB1800221A7013E01723FB1801221A700EE01723FB1802221A7009E01723FB1803221A7004E01723FB1881
:4046000000221A70C0461623FF331A1C0E23FB18101C01211A1C02F0A9F9021C3B6913433B610E23FB181B7803229343DAB20E23FB181A700E23FB181A781723FB181B7835
:404640001343DAB20E23FB181A700E23FB181A781623FF33181C111C02F026F9021C3B6913433B613B69181CBD4606B080BDC046F81300207CD9000080B584B000AF7860DF
:404680000023FB601D4B9B787F3B5A425341DBB2191C7B68802213400B4329D0174B00229A707B680222134002D1144B38229A707B680122134006D1104B9B78072213439B
:4046C000DAB20E4B9A707B680422134006D10B4B9B7840221343DAB2084B9A70084B072001211A1C02F056F8021CFB681343FB60FB68181CBD4604B080BDC046F81300208E
:40470000FA130020B0B584B000AFF860B9607A60FB681A68BB681B68101C191C02F06EFB041CFB6804331A68BB6804331B68101C191C02F063FB031CE418FB6808331A686D
:40474000BB6808331B68101C191C02F057FB031CE418FB680C331A68BB680C331B68101C191C02F04BFB031CE2187B681A607B681C1DFB6804331A68BB681B68101C191C41
:4047800002F03CFB051CFB681A68BB6804331B68101C191C02F032FB031CED1AFB6808331A68BB680C331B68101C191C02F026FB031CED1AFB680C331A68BB6808331B68A3
:4047C000101C191C02F01AFB031CEB1823607B6808331C1CFB6804331A68BB680C331B68101C191C02F00AFB051CFB681A68BB6808331B68101C191C02F000FB031CED1AA2
:40480000FB6808331A68BB681B68101C191C02F0F5FA031CED18FB680C331A68BB6804331B68101C191C02F0E9FA031CEB1A23607B680C331C1CFB681A68BB680C331B684A
:40484000101C191C02F0DAFA031C5D42FB6804331A68BB6808331B68101C191C02F0CEFA031CED1AFB6808331A68BB6804331B68101C191C02F0C2FA031CED18FB680C3343
:404880001A68BB681B68101C191C02F0B7FA031CEB182360BD4604B0B0BDC04690B58BB000AF786039607A681823FB18101C191C02F0BAFD1823F9184C4A0823FB18081CDF
:4048C000111C1A1CFFF71EFF0823FB181B68002B42DB0823FB185B68181C05F035F8031C181CC221890504F05FFD031C1A1C3B681A603B681C1D0823FB189B68181C05F016
:4049000023F8031C181CC221890504F04DFD031C23603B6808331C1C0823FB18DB68181C05F012F8031C181CC221890504F03CFD031C23603B680C331C1C0823FB181B6880
:40494000181C05F001F8031C181CC221890504F02BFD031C236045E00823FB185B685B42181C04F0F1FF031C181CC221890504F01BFD031C1A1C3B681A603B681C1D08236F
:40498000FB189B685B42181C04F0DEFF031C181CC221890504F008FD031C23603B6808331C1C0823FB18DB685B42181C04F0CCFF031C181CC221890504F0F6FC031C23606D
:4049C0003B680C331C1C0823FB181B685B42181C04F0BAFF031C181CC221890504F0E4FC031C2360BD460BB090BDC046800C002080B58AB000AF786039607A681823FB18A8
:404A0000101C191C02F010FD1823F918214A0823FB18081C111C1A1CFFF774FE0823FB181B68002B17DB0823FB185A683B681A603B6804330822BA1892681A603B6808330F
:404A40000822BA18D2681A603B680C330822BA1812681A601AE00823FB185B685A423B681A603B6804330822BA18926852421A603B6808330822BA18D26852421A603B685D
:404A80000C330822BA18126852421A60BD460AB080BDC046800C002090B589B000AFF860B9607A601C49FA681423FB18081C111C1A1C02F0B5FA1423FB181B68181C04F0E1
:404AC00043FF031C181CB96804F06EFC031C1A1C7B681A607B681C1D1423FB185B68181C04F032FF031C181CB96804F05DFC031C23607B6808331C1C1423FB189B68181C34
:404B000004F022FF031C181CB96804F04DFC031C2360BD4609B090BD800C002080B58EB000AF7860081C111CBB1C021C1A803B1C0A1C1A8000237B620C23FB18181C0021D0
:404B4000112205F069F97B68FB622A23FB18BA1C12881A803223FB183A1C12881A8046E02A23FB181B880F2B03D82A23FB181B8800E010237B633223FB181B88FF221A4057
:404B80007B6BD21880235B009A4209DD3223FB181B88FF221A407B6BD318013BFF3B7B637A6B3223FB181988FB6A081C111C1A1C02F07AF8031C3B623B6A002B01D03B6A7A
:404BC00084E07B6BFA6AD318FB627B6B9AB22A23FB182A21791809888A1A1A807B6B99B23223FB183222BA1812888A181A802A23FB181B88002BB3D17B68FB622A23FB189B
:404C0000BA1C12881A803223FB183A1C12881A8056E02A23FB181B880F2B03D82A23FB181B8800E010237B633223FB181B88FF221A407B6BD21880235B009A4209DD3223CB
:404C4000FB181B88FF221A407B6BD318013BFF3B7B637A6B3223FB1819880C23FB18081C111C1A1C01F040FF031C3B623B6A002B02D07B6A01337B627B6B0C22B918FA6A5A
:404C8000081C111C1A1C05F09BF8031E02D001235B421BE07B6BFA6AD318FB627B6B9AB22A23FB182A21791809888A1A1A807B6B99B23223FB183222BA1812888A181A80D2
:404CC0002A23FB181B88002BA3D10023181CBD460EB080BD80B584B000AF021CFB1D1A700023FB600B23FB18682001211A1C01F03DFE021CFB681343FB600B23FB181B7814
:404D00001F229343DAB20B23FB181A700B23FB181A78FB1D1B781343DAB20B23FB181A700B23FB18682001211A1C01F033FD021CFB681343FB60FB68181CBD4604B080BDDB
:404D400080B584B000AF78600023FB607B68002B02D07B6800221A800B23FB18192001211A1C01F003FE031CFB607B68002B05D00B23FB181B789AB27B681A800B23FB1847
:404D8000182001211A1C01F0F1FD031CFB607B68002B0AD07B681A880B23FB181B781B029BB213439AB27B681A80FB68181CBD4604B080BD80B584B000AF78600023FB6047
:404DC0007B68002B01D1162323E00823FB18702002211A1C01F0CAFD031CFB60FB68002B07D00E4B40221A607B6800221A60FB680FE00823FB181B781B021A1C7B681A6052
:404E00007B681B680822BA1852789A187B681A60FB68181CBD4604B080BDC046380F002080B584B000AF8023DB007B600F23FB1800221A700023BB603CE0314BDB78402252
:404E40009343DAB22E4BDA702D4BDB787F221340DAB22B4BDA702A4BDB780320191C01F023FD021CBB681343BB601F20FFF732FF021CBB681343BB601E20FFF72BFF021C8B
:404E8000BB681343BB601F4B00221A713B1D181CFFF790FF021CBB681343BB60BB68002B01D0BB6828E00F23FB181A780F23FB1801321A707B68002B04D00F23FB181B78A7
:404EC000052BBAD90E4BDB7840221343DAB20C4BDA700B4BDB78802252421343DAB2084BDA70074BDB780320191C01F0DDFC021CBB681343BB60BB68181CBD4604B080BD3C
:404F0000F8130020380F002080B586B000AF7860396000233B6124E03A683B69D31A102B00D910230E22BA1813800E23FB1819887A683B69D31872201A1C01F017FD031C40
:404F40007B617B69002B06D0FFF76AFF094B41221A607B690AE00E23FB181B883A69D3183B613A693B689A42D6D37B69181CBD4606B080BD380F002080B586B000AFF8604F
:404F8000B9607A607B68002B02D07B6800221A601023FB18181CFFF70DFF031C7B617B69002B04D0174B7A691A60002326E03B69002B01D1002321E03A69FB689A420CD9D1
:404FC000FFF72EFF0F4B3E221A607B68002B02D07B6801221A60002310E03B69BA68101C191CFFF791FF031C7B617B69002B04D0044B7A691A60002300E03B69181CBD46D2
:4050000006B080BD380F002080B586B000AFF860B9607A603B6002237B61FB681B781B029AB2FB6801331B789BB213439BB29AB2BB681A80BB681B889BB21BB2002B0BDAA3
:405040007B6906337B613B68002B05D03B6802331A88013292B21A80BB681B881A1C8023DB01134017D07B6906337B613B68002B05D03B6820331A88013292B21A807B692B
:4050800006337B613B68002B05D03B6808331A88013292B21A80BB681B881A1C80239B0113400BD07B6906337B613B68002B05D03B681C331A88013292B21A80BB681B8837
:4050C0001A1C80235B0113400BD07B6908337B613B68002B05D03B680A331A88013292B21A80BB681B881A1C80231B0113400BD07B690C337B613B68002B05D03B681E339D
:405100001A88013292B21A80BB681B881A1C8023DB0013400BD07B690E337B613B68002B05D03B6816331A88013292B21A80BB681B881A1C80239B00134002D07B69063355
:405140007B61BB681B881A1C80235B0013400BD07B690E337B613B68002B05D03B6828331A88013292B21A80BB681B881A1C802313400BD07B6906337B613B68002B05D06D
:405180003B680C331A88013292B21A80BB681B881A1C202313400BD07B690C337B613B68002B05D03B6804331A88013292B21A80BB681B881A1C102313400BD07B69043346
:4051C0007B613B68002B05D03B6824331A88013292B21A80BB681B881A1C0823134011D0FB6802331B781B029AB2FB6803331B789BB213439BB29AB27B681A807B69023396
:405200007B6102E07B6800221A807B681B881A1C8023DB01134002D07B6902337B617B681B881A1C80239B01134002D07B6902337B617B681B881A1C80235B01134002D0C7
:405240007B6902337B617B681B881A1C8023DB0013400BD07B6902337B613B68002B05D03B6858331A88013292B21A807B681B881A1C802313400BD07B6906337B613B682F
:40528000002B05D03B685A331A88013292B21A807B6902337B617B69181CBD4606B080BD80B584B000AF021CBB1D1A803B1D0A1C1A800E23FB1800221A800C23FB180022E4
:4052C0001A80BB1D1B88002B02D101235B42BDE00E23FB180E22BA1812885E490A431A800E23FB180E22BA1812888021C9010A431A800E23FB180E22BA1812888021890192
:405300000A431A800E23FB180E22BA181288802149010A431A800E23FB180E22BA181288802109010A431A800E23FB180E22BA1812888021C9000A431A800E23FB180E22BD
:40534000BA181288802189000A431A800E23FB180E22BA181288802149000A431A800E23FB180E22BA18128880210A431A800E23FB180E22BA18128840210A431A800E233E
:40538000FB180E22BA18128820210A431A800E23FB180E22BA18128810210A431A800E23FB180E22BA18128808210A431A80BB1D1B880E22BA181288D243134002D00123B9
:4053C0005B4243E0BB1D1B88082213403DD00C23FB180C22BA1812888021C9010A431A800C23FB180C22BA181288802189010A431A800C23FB180C22BA1812888021490105
:405400000A431A800C23FB180C22BA1812888021C9000A431A800C23FB180C22BA18128880210A431A803B1D1B88002B02D101235B420BE03B1D1B880C22BA181288D243A5
:40544000134002D001235B4200E00023181CBD4604B080BD0080FFFF80B588B000AFF860B9607A600023FB612CE0FA691A4BD0181623F9181423FA187B68FFF7C5FD031CAE
:40548000BB61FA68FB69D21ABB699A421EDB1623FB181A881423FB181B88101C191CFFF7FFFE031E04D0FFF7BBFC01235B420EE0FA69BB69D318FB61BB681B8801339AB291
:4054C000BB681A80FA69FB689A42CEDB0023181CBD4608B080BDC046400F002080B586B000AFF860B9607A6000237B61BB6800221A80FB681B681B4A93421BDCFB681B68A0
:405500008022D200D31A191CFB681A68164BD2181423FB18081C111C1A1CFFF72DFD021CFB681B689B181A1CFB681A607B69002B00D00DE0FB681968BA687B68081C111CE4
:405540001A1CFFF789FF031E00D001E0002304E0FB6800221A6001235B42181CBD4606B080BDC046FF030000400F002090B587B000AFF860B9607A6000233B612A4B7B61B7
:405580007B681B68032B4ADD2749284A284B081C111C1A1C0023FFF737FD031C3B617B681A683B699A4202DA224B1B6838E07B6902337B61204B9A229B5A1A1C08231340BE
:4055C00002D07B6902337B611B4A7B69101C191C00F0AAF8031C1A1C7B699B187B617B681A683B69D21A7B681A607B681B68002B0BD03A690C4BD2187B681B681C1C0A4B4B
:40560000181C111C221C04F0F3FB0B4B9A229A5AFB681A80084B9C229A5ABB681A800023181CBD4607B090BD400F0020A6140020A8140020380F00200C14002080B582B093
:4056400000AF786039603B681B781A063B6801331B781B041A433B6802331B781B0213433A68033212781A437B681A607B6804333A680432127811063A68053212781204C9
:4056800011433A680632127812020A433968073109780A431A607B6808333A680832127811063A6809321278120411433A680A32127812020A4339680B3109780A431A6056
:4056C000BD4602B080BDC04680B582B000AF786039603B681B781B029AB23B6801331B789BB213439AB27B681A807B6802333A6802321278120291B23A680332127892B242
:405700000A4392B21A807B6804333A6804321278120291B23A680532127892B20A4392B21A80BD4602B080BD80B584B000AF786039603B68FB607B689A229B5A9BB21BB272
:40574000002B1CDA7B682C331A1C3B68101C191CFFF7BAFF7B689B8D1BB2DA037B685A637B68DB8D1BB2DA037B689A637B681B8E1BB2DA037B68DA633B6806333B607B6803
:405780009A229B5A1A1C8023DB01134015D07B6840331A1C3B68101C191CFFF795FF3B6806333B607B6846331A1C3B68101C191CFFF78AFF3B6806333B607B689A229B5A9A
:4057C0001A1C80239B01134013D07B6874331A1C3B68101C191CFFF777FF7B6894331A1C3B68101C191C062204F0F9FA3B6806333B607B689A229B5A1A1C80231B01134088
:4058000008D07A683B68101C191CFFF717FF3B680C333B607B689A229B5A1A1C8023DB00134015D07B680C331A1C3B68101C191CFFF704FF3B680C331B781A063B680D33D4
:405840001B781B041A437B689A613B680E333B607B689A229B5A1A1C80235B00134015D07B681C331A1C3B68101C191CFFF7E6FE3B680C331B781A063B680D331B781B044C
:405880001A437B689A623B680E333B607B689A229B5A1A1C2023134013D07B6864331A1C3B68101C191CFFF7C9FE7B6888331A1C3B68101C191C0C2204F091FA3B680C3312
:4058C0003B607B689A229B5A1A1C1023134015D03B681B781A063B6801331B781B041A433B6802331B781B0213433A68033212781A437B681A673B6804333B607B689C2286
:405900009B5A1A1C8023DB0113400FD03B681B781B029AB23B6801331B789BB2134399B27B687A2299523B6802333B607B689C229B5A1A1C80239B0113400FD03B681B7844
:405940001B029AB23B6801331B789BB2134399B27B687C2299523B6802333B607B689C229B5A1A1C80235B0113400FD03B681B781B029AB23B6801331B789BB2134399B293
:405980007B687E2299523B6802333B607B689C229B5A1A1C8023DB0013400FD03B681B781B029AB23B6801331B789BB2134399B27B68862299523B6802333B607B689C2209
:4059C0009B5A1A1C8023134025D03B681B781B029AB23B6801331B789BB213439BB299B27B68842299523B6802331B781A063B6803331B781B041A433B6804331B781B02DC
:405A000013433A68053212781A437B6880215A503B6806333B603B681B781B0299B23B6801331B789AB20A23FB180A431A803B6802333B607B68A022012199503A68FB6808
:405A4000D31A181CBD4604B080BDC04680B582B000AF78607B68002B02D101235B4207E07A68054B101C191C0C2204F0B8F90023181CBD4602B080BD4014002080B582B00A
:405A800000AF78607B68002B02D101235B4211E00A4B40229A5A7B681A807B680233074A4221525A1A807B680433044A4421525A1A800023181CBD4602B080BD0C140020F6
:405AC00080B582B000AF78607B68002B02D101235B4207E07A68054B101C191C062204F07EF90023181CBD4602B080BD5214002080B584B000AFF860B9607A60FB68002B49
:405B000002D101235B4227E0BB68002B02D101235B4221E07B68002B02D101235B421BE0BB681A687B681B68D21AFB681A60FB680433BA68043211687A68043212688A1AD5
:405B40001A60FB680833BA68083211687A68083212688A1A1A600023181CBD4604B080BD80B582B000AF78607B68002B02D101235B4207E07A68054B101C191C0C2204F00D
:405B80002EF90023181CBD4602B080BD0C14002080B582B000AF78607B68002B02D101235B4207E07A68054B101C191C0C2204F016F90023181CBD4602B080BD1814002065
:405BC00080B582B000AF78607B68002B02D101235B4207E07A68054B101C191C0C2204F0FEF80023181CBD4602B080BD2814002080B582B000AF78607B68002B02D10123EB
:405C00005B4207E07A68054B101C191C0C2204F0E6F80023181CBD4602B080BD6414002080B582B000AF78607B68002B02D101235B4207E07A68054B101C191C0C2204F040
:405C4000CEF80023181CBD4602B080BD7014002080B582B000AF78607B68002B02D101235B4205E0044B84229A5A7B681A800023181CBD4602B080BD0C14002080B582B0A6
:405C800000AF78607B68002B02D101235B4205E0044B80229A587B681A600023181CBD4602B080BD0C14002080B582B000AF78607B68002B02D101235B4206E0054B86229F
:405CC0009B5A9AB27B681A800023181CBD4602B080BDC0460C14002080B500AF034B7A229B5A1BB2181CBD4680BDC0460C14002080B500AF034B7C229B5A1BB2181CBD4644
:405D000080BDC0460C14002080B500AF034B7E229B5A1BB2181CBD4680BDC0460C14002080B500AF024B9B6A181CBD4680BDC0460C14002080B500AF024B9B69181CBD4636
:405D400080BDC0460C14002080B582B000AF00237B605A4B762001211A1C00F007FE021C7B6813437B60564B032001211A1C00F0FDFD021C7B6813437B60524B05200121B6
:405D80001A1C00F0F3FD031C7B604F4B102001211A1C00F0EBFD021C7B6813437B604B4B112001211A1C00F0E1FD021C7B6813437B60474B122001211A1C00F0D7FD021C8A
:405DC0007B6813437B60434B662001211A1C00F0CDFD021C7B6813437B603F4B672001211A1C00F0C3FD021C7B6813437B603B4B682001211A1C00F0B9FD021C7B68134389
:405E00007B6080235A00364B101C01211A1C00F0ADFD021C7B6813437B600223FF331A1C304B101C01211A1C00F0A0FD021C7B6813437B6081235A002B4B101C01211A1C76
:405E400000F094FD021C7B6813437B6088235A00264B101C01211A1C00F088FD021C7B6813437B601223FF331A1C214B101C01211A1C00F07BFD021C7B6813437B608A23FA
:405E80005A001C4B101C01211A1C00F06FFD021C7B6813437B601623FF331A1C164B101C01211A1C00F062FD021C7B6813437B607B68181CBD4602B080BDC0464013002086
:405EC0004113002042130020431300204413002045130020461300204713002048130020491300204A1300204B1300204C1300204D1300204E1300204F13002080B582B006
:405F000000AF00237B6007207F2100F0CDFC021C7B6813437B60654B5A7A80235B00181C111C00F0C1FC021C7B6813437B605F4B9A7A0223FF33181C111C00F0B5FC021C0B
:405F40007B6813437B60594BDA7A81235B00181C111C00F0A9FC021C7B6813437B60534B1A7B88235B00181C111C00F09DFC021C7B6813437B604D4B5A7B1223FF33181C91
:405F8000111C00F091FC021C7B6813437B60474B9A7B8A235B00181C111C00F085FC021C7B6813437B60414BDA7B1623FF33181C111C00F079FC021C7B6813437B603B4B88
:405FC0001B787620191C00F06FFC021C7B6813437B60364B9B780520191C00F065FC021C7B6813437B60314BDB781020191C00F05BFC021C7B6813437B602C4B1B7911205C
:40600000191C00F051FC021C7B6813437B60274B9B796620191C00F047FC021C7B6813437B60224BDB796720191C00F03DFC021C7B6813437B6068201F2100F035FC021C37
:406040007B6813437B60194B1B7A6820191C00F02BFC021C7B6813437B60144B5B78DBB21A1C48239A43131CDBB21A1C08231343DBB2DBB20320191C00F016FC021C7B68E8
:4060800013437B601420FBF7A9FBFDF701FE021C7B6813437B60FDF7DFFD021C7B6813437B607B68181CBD4602B080BD4013002080B58EB000AFB9607A603B600F23FB184D
:4060C000021C1A7000233B6300237B630023FB621FE0FB6ABA68D3181B78002B0ED0FB6ABA68D3181B785A1E324B5200D35A191C2023FB18FA6A9200D15007E02023FB1851
:40610000FA6A92000021D15001233B63FB6A0133FB62FB6A022BDCDD0023FB6241E0FB6A9B003A68D3181A68FB6A9B007968CB181B68D11A1423FB18FA6A9200D1503B6B3B
:40614000002B29D11423FB18FA6A9200D2582023FB18F96A8900CB585B109A4201DA01237B630F23FB181B78012B17D01423FB18FA6A9200D2582023FB18F96A8900C9584F
:406180002023FB18F86A8000C3585B10CB189A4204DD01237B6301E001237B63FB6A0133FB62FB6A022BBADD7B6B181CBD460EB080BDC04600DA000080B582B000AF00234C
:4061C0007B600620012100F06FFB021C7B6813437B60FFF7B9FD021C7B6813437B6007207F2100F061FB021C7B6813437B600620802100F059FB021C7B6813437B6064200C
:40620000FBF7ECFA0620012100F04EFB021C7B6813437B607B68002B01D07B6895E00520702100F041FB021C7B6813437B6080235B00181C0A2100F037FB021C7B681343B2
:406240007B600223FF33181C012100F02DFB021C7B6813437B6081235B00181C032100F023FB021C7B6813437B6088235B00181C002100F019FB021C7B6813437B601223EF
:40628000FF33181C0A2100F00FFB021C7B6813437B608A235B00181C392100F005FB021C7B6813437B601623FF33181C022100F0FBFA021C7B6813437B60264B822001215B
:4062C0001A1C00F053FB021C7B6813437B60224B832001211A1C00F049FB021C7B6813437B601E4B842001211A1C00F03FFB021C7B6813437B601A4B8E2001211A1C00F00E
:4063000035FB021C7B6813437B60164B8F2001211A1C00F02BFB021C7B6813437B60124B902001211A1C00F021FB021C7B6813437B600720402100F0B7FA021C7B68134328
:406340007B603220FBF74AFA7B68181CBD4602B080BDC04650130020511300205213002054130020551300205613002080B58AB000AFB9607A600F23FB18021C1A700F2357
:40638000FB181B78012B04D12723FB1833221A7003E02723FB182D221A7047E02723FB181B789AB21023FB18101C06211A1C00F0DDFA031E02D001235B423CE000233B6258
:4063C00029E03B6A5B001022BA18D35C1B0299B23B6A5B0001331022BA18D35C9BB20A1C134399B21823FB183A6A5200D1523B6A9B00BA68D3183A6A9200B9688A18116858
:406400001822BA18386A4000825A12B28A181A603B6A01333B623B6A022BD2DD7B681B685A1C7B681A600A20FBF7D8F97B681B68C72BB3DD0023181CBD460AB080BDC04656
:4064400090B589B000AFB9607A600F23FB18021C1A7000233B610023BB610EE0BB699B00BA68D31800221A60BB699B007A68D31800221A60BB690133BB61BB69022BEDDD04
:406480000F23FB181978BA681023FB18081C111C1A1CFFF76BFF031CFB61FB69002B01D0FB6964E000237B6112E07B699B00BA68D4187B699B00BA68D3181A683B69101CD8
:4064C000191C02F01BFA031C23607B6901337B617B69022BE9DD0F23FB181B78012B08D181235B00181C3B2100F0DEF9031CFB6107E01623FF33181C1E2100F0D5F9031CA3
:40650000FB61FB69002B01D0FB6930E01420FBF765F900233B610F23FB1819787A681023FB18081C111C1A1CFFF720FF031CFB61FB69002B01D0FB6919E000237B6112E025
:406540007B699B007A68D4187B699B007A68D3181A683B69101C191C02F0D0F9031C23607B6901337B617B69022BE9DD0023181CBD4609B090BDC04680B592B000AF3F23E5
:40658000FB1800221A703E23FB1800221A703723FB1800221A70FFF70FFE031C7B647B6C002B00D06FE002233B6412E01C23FA182823FB180120111C1A1CFFF741FF031C73
:4065C0007B647B6C002B03D03B6C013B3B6400E002E03B6C002BE9DC7B6C002B00D052E002233B6411E03A1D1023FB180020111C1A1CFFF725FF031C7B647B6C002B03D016
:406600003B6C013B3B6400E002E03B6C002BEADC7B6C002B00D036E00023BB6313E01C23FB18BA6B9200D158204BBA6B9200D1503B1DBA6B9200D1581D4BBA6B9200D15065
:40664000BB6B0133BB63BB6B022BE8DD19493A1D1023FB180020FFF72BFD031C5A425341DAB23F23FB181A7013491C23FA182823FB180120FFF71CFD031C5A425341DAB25D
:406680003E23FB181A70FFF739FC3723FB181B789A003F23FB181B785B001A433E23FB181B781343181CBD4612B080BD840D0020780D0020541300205013002080B582B0FD
:4066C00000AF021CBB1D1A80BB1D1B88722B09DC702B0EDA052B12DB072B0ADD0F3B012B0DD806E0762B08D009DB7E3B012B06D803E0FDF7B1F8031C03E0002301E0C046B8
:406700000123181CBD4602B080BDC04680B584B000AF021CFB1D1A701C4B1B78FA1D12789A4201D100232CE0184BFA1D12781A70174B7F2001211A1CFBF736F8031CFB6038
:40674000FB68002B01D0FB681BE0114B1B7831229343DAB20E4B1A70FB1D1B781B01DAB20B4B1B78DBB21343DBB2DAB2084B1A70074B7F2001211A1CFAF7FCFF031CFB6011
:40678000FB68181CBD4604B080BDC046910C00205813002090B589B000AFB9607A600E23FB18021C1A800023FB610023BB610E23FB181B88DAB21723FB187F210A401A70F2
:4067C0001623FC18FDF7ECF9031C23701623FB181B780122134005D101200121FDF732F9031CFB610E23FB181B88181CFFF766FF031E07D002200021FDF724F9021CFB6975
:406800001343FB610E23FB181B88DB099BB2DBB2181CFFF77BFF021CFB691343FB6122E0BA68BB69D31A102B00D910233B611723FB181B789AB2BB699BB2D31898B239699D
:406840007A68BB69D3181A1CFAF794FF021CFB691343FB61FB69002B01D0FB691FE03B69BA69D318BB61BA69BB689A42D8D30020FFF74CFF021CFB691343FB610E23FB1802
:406880001B88181CFFF71AFF031E07D002200121FDF7D8F8021CFB691343FB61FB69181CBD4609B090BDC04690B585B000AF021CBB1D1A807B1D0A1C1A700023FB60BB1DC0
:4068C0001B88DAB20B23FB187F210A401A700A23FC18FDF765F9031C23700A23FB181B780122134005D101200121FDF7ABF8031CFB60BB1D1B88181CFFF7E0FE031E07D081
:4069000002200021FDF79EF8021CFB681343FB60BB1D1B88DB099BB2DBB2181CFFF7F6FE021CFB681343FB600B23FB181B789AB27B1D101C01211A1CFAF71CFF021CFB6806
:406940001343FB60BB1D1B88181CFFF7B7FE031E07D002200121FDF775F8021CFB681343FB60FB68181CBD4605B090BD90B58FB000AFB9607A600E23FB18021C1A8000235C
:406980007B6300233B630E23FB181B88DAB22E23FB187F210A401A702D23FC18FDF700F9031C23702D23FB181B780122134005D101200121FDF746F8031C7B630E23FB18F2
:4069C0001B88181CFFF77AFE031E07D002200021FDF738F8021C7B6B13437B630E23FB181B88DB099BB2DBB2181CFFF78FFE021C7B6B13437B633BE0BA683B6BD31A102B1C
:406A000000D91023BB62374BDB7B022B14D12E23FB181B789AB23B6B9BB2D31898B2B96A1423FA183B6BD3181A1CFAF7BDFE021C7B6B13437B6312E02E23FB181B789AB28C
:406A40003B6B9BB2D31898B2B96A7A683B6BD3181A1CFAF7A9FE021C7B6B13437B637B6B002B01D07B6B39E0BB6A3A6BD3183B633A6BBB689A42BFD31A4BDB7B022B1CD113
:406A80002F23FB1800221A7011E07B685A1C7A602F22BA1812780132142179188A5C1A702F23FB181A782F23FB1801321A702F23FB181A78BB689A42E7D30E23FB181B88DB
:406AC000181CFFF7FBFD031E07D002200121FCF7B9FF021C7B6B13437B637B6B181CBD460FB090BDF813002090B58FB000AFB9607A600E23FB18021C1A8000237B630023BB
:406B00003B632E23FC18FDF74BF8031C23707B68002B02D101235B42BEE02E23FB181B780122134005D101200121FCF78BFF031C7B6302200021FCF785FF021C7B6B134315
:406B40007B630020FFF7E2FD021C7B6B13437B630E23FB181B881B0A9BB2DAB21323FB181A701323FB181A784D4B1B789A4214D01323FB187E2001211A1CFAF7FBFD021C46
:406B80007B6B13437B637B6B002B01D07B6B83E01323FB181A78424B1A704FE00E23FB181B88DAB21223FB181A701223FB187C2001211A1CFAF7DEFD021C7B6B13437B63EA
:406BC0007B6B002B01D07B6B66E0BA683B6BD31A102B00D91023BB62324BDB7B022B0ED11423FA183B6BD318BA6A7D20111C1A1CFAF7DAFD021C7B6B13437B630CE07A68C3
:406C00003B6BD318BA6A7D20111C1A1CFAF7CCFD021C7B6B13437B637B6B002B01D07B6B3AE03A6BBB6AD3183B63BB6A99B20E23FB180E22BA1812888A181A803A6BBB6824
:406C40009A42ABD3174BDB7B022B1CD12F23FB1800221A7011E07B685A1C7A602F22BA1812780132142179188A5C1A702F23FB181A782F23FB1801321A702F23FB181A788D
:406C8000BB689A42E7D302200121FCF7DBFE021C7B6B13437B637B6B181CBD460FB090BD900C0020F813002090B58BB000AFB9607A600E23FB18021C1A8000237B62002382
:406CC0003B621F23FC18FCF76BFF031C23707B68002B02D101235B428AE01F23FB181B780122134005D101200121FCF7ABFE031C7B6202200021FCF7A5FE021C7B6A134345
:406D00007B620020FFF702FD021C7B6A13437B620E23FB181B881B0A9BB2DAB21723FB181A701723FB181A78334B1B789A4214D01723FB187E2001211A1CFAF71BFD021C55
:406D40007B6A13437B627B6A002B01D07B6A4FE01723FB181A78284B1A703CE00E23FB181B88DAB21623FB181A701623FB187C2001211A1CFAF7FEFC021C7B6A13437B6264
:406D80007B6A002B01D07B6A32E0BA683B6AD31A102B00D91023BB617A683B6AD318BA697D20111C1A1CFAF7E5FC021C7B6A13437B627B6A002B01D07B6A19E03A6ABB69C0
:406DC000D3183B62BB6999B20E23FB180E22BA1812888A181A803A6ABB689A42BED302200121FCF72FFE021C7B6A13437B627B6A181CBD460BB090BD900C0020B0B58AB033
:406E000000AF786139617B69BB60DB17FB603B693B60DB177B60B868F9683A687B6801F0DDFE021C0B1C3A627B627B6A9B003A6A940F1C437B6A9D17231CFB61FB69181C56
:406E4000BD460AB0B0BDC046B0B584B000AFF860B9607A60FB681A68BB681B68101C191CFFF7CCFF041CFB6804331A68BB6804331B68101C191CFFF7C1FF031CE41AFB68F2
:406E800008331A68BB6808331B68101C191CFFF7B5FF031CE41AFB680C331A68BB680C331B68101C191CFFF7A9FF031CE21A7B681A607B681C1DFB681A68BB6804331B68AE
:406EC000101C191CFFF79AFF051CFB6804331A68BB681B68101C191CFFF790FF031CED18FB6808331A68BB680C331B68101C191CFFF784FF031CED18FB680C331A68BB686B
:406F000008331B68101C191CFFF778FF031CEB1A23607B6808331C1CFB681A68BB6808331B68101C191CFFF769FF051CFB6804331A68BB680C331B68101C191CFFF75EFF6D
:406F4000031CED1AFB6808331A68BB681B68101C191CFFF753FF031CED18FB680C331A68BB6804331B68101C191CFFF747FF031CEB1823607B680C331C1CFB681A68BB68B3
:406F80000C331B68101C191CFFF738FF051CFB6804331A68BB6808331B68101C191CFFF72DFF031CED18FB6808331A68BB6804331B68101C191CFFF721FF031CED1AFB68BF
:406FC0000C331A68BB681B68101C191CFFF716FF031CEB182360BD4604B0B0BD80B582B000AF786039607B681A683B681A603B6804337A680432126852421A603B68083394
:407000007A680832126852421A603B680C337A680C32126852421A60BD4602B080BDC04680B594B000AFF860B9607A602023FB1800221A602023FB181A1DBB68101C191CB4
:407040000C2202F0CCFEF9682023FA184023FB18081C111C1A1CFFF7F7FEFA683023FB18101C191CFFF7BAFF4023F9183023FA181023FB18081C111C1A1CFFF7E5FE7A684F
:407080001023FB180433101C191C0C2202F0A7FEBD4614B080BDC04680B582B000AF786039607B681B16DAB23B681A703B6801337A681214D2B21A703B6802337A68121204
:4070C000D2B21A703B6803337A68D2B21A703B68181CBD4602B080BD80B584B000AF78607B681B781A067B6801331B781B041A437B6802331B781B0213437A680332127885
:407100001343FB60FB68181CBD4604B080BDC04680B582B000AF021C3960BB1D1A80BB1D00229B5E1B129BB2DAB23B681A703B680133BA1D1288D2B21A703B68181CBD4678
:4071400002B080BD90B58BB000AF78607B68002B01DC002394E04C4BFB614C4BBB61C023DB057B613A1D0823FB18101C191C00F091F8031C3B6100233B62BB68002B09DD34
:40718000BB68434A134004D5013B02225242134301333B62BA683B6AD31ABB607B68C022120694466344FB607C687A68FB68101C191CFFF723FE031C5B10E31A7B623B69A7
:4071C000012B3CDDFB685A107B69D31AFA68101C191CFFF713FE021CFB68181C111CFFF70DFE031C5B10FB607A6AFB68101C191CFFF704FE031C5B107A6AD31A7B623B699E
:40720000032B1CD1FB685A107B69D31AFA68101C191CFFF7F3FD021CFB68181C111CFFF7EDFD031C5B10FB607A6AFB68101C191CFFF7E4FD031C5B107A6AD31A7B623B6AE9
