:400000000040002011000000990300009903000008B500F0B3FB00F0DBF9C04638B51222184B1A6001F008FE174801F0D1FB012001F022FE302001F0EFFC144A144B1A604C
:40004000144C8025ED052560134A116802230B431360124A124B1A60124A136808218B431360FA20C00001F029FD0F4801F01CFD802212060D4B1A60802212030C4B1A606E
:40008000256038BD30001040001BB7000600008004010B400C020B4078002E406A2D00007C002E406CF02E40DC05000008010B4000010B4010B572B60022284B1A60002473
:4000C00010E0274863001A195200821891881B195B001A5AC31858880004104300F0DEF90134E4B2012CECD9EE2212061D4B1A6099231B041C4A13601C4A13601C4A1360FD
:400100001C4B197802220A431A701B4802783C218A4328390A430270197816220A431A703022164B1A60164A164B1A6080229200154B1A60E13AFF3A144B1A60C0229202EC
:40014000134B1A60C022134B1A60D8221204124B1A60FFF763FF00F091F910BD6CF02E40B44F01000000024000500F4010500F4030500F4000700F4001700F400000044077
:400180000020DB00080004400C0004400001044008010440000304400803044010B5064C2378002B07D1054B002B02D0044800E000BF0123237010BD2013002000000000BC
:4001C000444E010008B5084B002B03D00748084900E000BF07480368002B00D108BD064B002BFBD09847F9E700000000444E010024130020C00C00200000000038B5114B7F
:400200001B78023B012B1CD8032003F0C1F8051C01F0E7FA041C032D0AD103F0A8FA042803D003F0A4FA062808D101F07FFC05E003F09DFA022801D001F06AFC201C01F05B
:40024000D4FA38BDA425002000B583B04F283AD880001E4B1B589F46002000F059FF32E04B88062B2FD906236A4613805380002393806433D380164B187869460BF0FAFFA7
:4002800021E0002000F044FF1DE00978114802F013F818E0104B1B78042B14D100F06EF900F034F900F024F901F06CFC0BE00B48022201F0F0FF06E00022084B1A7002E039
:4002C00000200FF0D1F803B000BDC046484E0100AC250020884F0100A42500206024002000B585B00A4A13881B0492881343039303AB009304236A469380064B5B881381C2
:4003000068460021002200230FF09EFE05B000BD0C560100AC54010000B583B0124B1A6800929A8869468A809B798B7100220F4B1A6062B60E4800F08FFE022007216A4619
:4003400001F012F90B4B18880FF012FE0A4B18880FF00EFEFFF7C4FF03F022F8FFF74EFF00F0A0FCF8E7C046AC4F01006424002049020000F85501005050010070B5161CCD
:40038000002405E04D1C087800F0AAFC0134291CB442F7DB301C70BDFEE7C04608B5031C094A1068C318094A9A1A8021C9008A4202DC054A136005E001F032FF0C23036017
:4003C0000120404208BDC046C40C0020B825002070B50F4E0F4D13E029686B68AC68002202E001C901C30432A242FAD1E868002202E0002102C304328242FAD11035013E5F
:40040000002EE9D101F012FFFFF786FFFEE7C046010000000457010008B5124A136801218B43136000230AE0032B03D89A000E49505800E00D4899000D4A885001332F2BDE
:40044000F2D9FFF737FE00220A4B1A600A4B1B68002B01D1084B1A60024A116801230B43136008BD00001040000000009903000000000020C8000020C00000200323044A3C
:400480001360044A13600022034B1A607047C0463000304030003140000E3F4008B50A1C002101F001FF08BD7047C046014B18647047C0460000002010B5041C01F091F917
:4004C000044A1368C0218B43A4011C43146001F08CF910BD00E400E00122014B1A60704700E100E00122014B1A60704780E100E008B5FFF7F7FF0448FFF7D8FF0320FFF7E8
:40050000DBFFFFF7E9FF08BDA90400000122014B1A60704780E200E0034A1168034B0B40000318431060704708000440FF8FFFFF04490A68EF231A400001DF3B1840104302
:400540000860704700000440024B1868C006C00F7047C04604000440024B1868C006C00F7047C04600000440034A136883430140194311607047C0460C000440034A1068E0
:400580001023184010600009C0B2704710000440002306E04218013A12789B189BB2013989B20029F6D1584280B2704730B5002307E01C182478E4B2CD5CAC4205D1013334
:4005C0009BB29342F5D3002000E0022030BDC0460047C04608B58022024B1A6001F058FA08BDC046C0000020F0B583B00D1C6B469E1DDA8001230B704870141CAA70130A16
:40060000CB70171DB9B2281CFFF7C2FFE855631D000AE854A31D1722EA540734A1B2281C321C962301F06CF803B0F0BD70B5051C0E1C141C002802D0002001F027FA002031
:4006400004E0013CAB191B5D1818C0B2002CF8D170BDC04608B50C2857D880003A4B1B589F46C9014942394B9C466144012351E0C9014942364B9C46614404234AE0C901A9
:400680004942344B9C466144022343E0C9014942314B9C46614404233CE0C90149422F4B9C466144012335E0C90149422C4B9C46614401232EE0C90149422A4B9C46614461
:4006C000022327E0C9014942274B9C466144022320E0C9014942254B9C466144022319E0C9014942224B9C466144042312E0C9014942204B9C46614401230BE0C9014942E4
:400700001D4B9C466144042304E0002001F0BEF902230021012B02D10878C0B200E00020022B03D10A78487800021043042B0AD10A784B781B021A4388780004031C1343E6
:40074000C8780006184308BDC04F0100C0FF0100C1FF0100C5FF0100C9FF0100D0FF0100D1FF0100D6FF0100D2FF0100D4FF0100D8FF0100DCFF0100E0FF010008B50D4B2E
:400780001B68DB0602D400220B4B1A600A4B1B68802B0ED10022084B1A6002200021FFF759FF002805D002200021FFF753FFFFF70FFF08BD00030B40C000002070B5051C66
:4007C0000320291CFFF746FF441CE4010420291CFFF740FF24180320291CFFF73BFF0130C0010023002608E001784A1ED2B2FD2A00D801265B18DBB20130A042F4D35B427A
:40080000DCB20120291CFFF725FF844203D1002E03D1062002E0062000E0002070BDC046F0B55F4656464D464446F0B4CB4CA544051C00F04DFF62B600239B4600270A2438
:400840009946002D01D1FF2300E02B1C52A896214900C34A02AEB446624400F085FF002D01D0013CE4B2002C01D00028E9D1002800D006E2BA4B02AA944663441B88062BF0
:4008800024D952AA1278012A22D152A9CA78120289780A439146111C07329A421AD896235B009A4218D84A1D52AB9E5C3202081D1E5C164306315B5C172B0FD181B252A846
:4008C000FFF766FEB0420BD100260AE0042608E0042606E0032604E0032602E0042600E00826002E00D075E152AB1A7992465A78131C313BD9B2142900D93FE18B009949F7
:40090000CB589F46012F00D066E14B46002B00D065E10020FFF752FF4342434152AA13710122A7E1012F00D05CE14B46032B02D0832B00D059E152AA93791B02527913432F
:4009400098464B46032B08D0DA1E07A84821FF3102AB9C46614401F09EFC5346012B00D946E158024044C0017F4B984500D90A26002E00D03FE107A98022FFF717FE061C52
:40098000002277E1012F00D037E14B46012B00D036E15346012B00D935E1744B1A6813689278924502D11B04DB0D05E0924501D9002301E080239B0052AA13711B0A537195
:4009C000FF239371FE3BD371042253E1342A0DD1012F00D01AE14B46032B00D019E107A800214C3201F060FC80239B46012F00D012E14B46022B00D811E107A85844DA1E5D
:400A00004821FF3102AB9C46614401F044FC5B464B449BB2832B00D004E152AA93791B02527913439B46504B9B4500D90A26002E00D0FEE053465802584480B24B4B1B6877
:400A40001A68D3099BB2520601D001339BB2984200D2F2E007A900F045FF002800D00A2600239B4680339946002203E1012F00D105E104260022FDE0012F00D0E4E05B4686
:400A80004B4496225200934200D9E0E007A8584453A94A4601F0FFFB5B464B449BB29B460022E7E04B46002B00D0D3E004AA304B03CB03C253AA04AB03CB03C200239B46E8
:400AC00001270822D6E0012F00D0C6E04B46032B00D0C5E052AA93791B02527913439846534659024144C9011F4B984500D90A26002E00D0B7E000208022FFF797FD0190EB
:400B000053465B0243449BB25246012A11D1194A93420ED105200021FFF79CFD019B1B1ADBB2984606200021FFF794FD43461B1AD8B2424252AB1A7101229BE00020FFF748
:400B40003DFE002802D180220B4B1A6000F0C2FD00F09EFF042600228CE0C04684FDFFFF6E020000F44F0100FF010000C80C002048500100FF030000C0000020484B1B681B
:400B8000002B72D0012F73D102A90A700A1C4946518053AA039200210491059104AE069202A8311C9847B2882623FF339A4203D953AB0699994207D0069B002B01D1002A27
:400BC00005D1049BDEB255E00E26002252E00E2600224FE000224DE0042600224AE00426002247E00426002244E00426002241E0092600223EE000223CE00426002239E087
:400C00000426002236E00426002233E00426002230E0042600222DE0042600222AE00426002227E000239B46803399460326002220E08023994600221CE000239B4680335D
:400C400099460A26002215E00426002212E0032600220FE0042600220CE00426002209E00426002206E0002204E00526002201E005260022301C52A9FFF7B6FC01E00023C3
:400C80009B46002D00D1DCE5012F00D1D9E59F239B009D443CBC90469946A246AB46F0BD3C13002008B50020FFF788FD002801D0062200E00022074B1B68402B01D0002A3F
:400CC00005D00022034B1A600020FFF7A9FDFFF781FC08BDC00000200000000000000000FEB5494652465B460EB407462E4909688A462E4A12682E48022101F00FF9030098
:400D00002A480068C0182A4901F008F906001F3EB346234A126801219140C9430C000125002600F05EFD814651460B6823400B605846043000F04CFD3800F040284090406D
:400D40000B68234003430B60584600F041FD0136072EF1D900200130012090400B68234003430B605846063000F032FD484600F03CFDC046C046C0460EBC894692469B4613
:400D8000FEBDC046C046C046C046C046C046C046C046C046C046C046C046C046C046C046D80C0020D40C0020D00C0020CC0F002000C20100C046C046C046C046C046C0463C
:400DC0007047C046014B18607047C0464013002000B585B0002816D1002916D1012A16D11978642915D8C0000C490818418801A80181828001930021002200230FF024F9DB
:400E0000002808D108E0012006E0012004E0012002E0012000E0012005B000BD5050010000B585B0002812D1002912D1012A12D1C0000B490818418801A8018182800193B8
:400E4000002100220FF0CAF8002806D106E0012004E0012002E0012000E0012005B000BD5050010000B585B000281AD100291AD1012A1AD8002A03D1173101AA118105E0B6
:400E8000C0000C4A1018818801AA118101A88380069B0193002100220FF0A0F8002806D106E0012004E0012002E0012000E0012005B000BD5050010030B583B01E4B1B68CD
:400EC000002B32D08389172B31D17E33FF331B4AD358DB0422D5041C04300021221C40230FF0B2F8051E1AD123886A46138000239370D3700193606800F0A0F9C30706D57E
:400F00000D4B1B682420FF306946984707E00A4B1B68922040006946984700E00625084A137801218B43137002E0002500E00025281C03B030BDC046401300206C50010015
:400F4000AF25002030B587B001AC20800C1C1D1C081C111C1A1C0A9BFFF73AFF00281ED1104B1B78022B15D1C733FF330E4AD358586800F063F9C3070FD5E4000B4B1C1968
:400F8000638803A90B810A9B03938D8001980EF059FA04E00420FF3001E08020400007B030BDC046A42500206C5001005050010070B5002905D11A4CE67F0023002200259A
:400FC00010E0174C2034E67FF7E7E25C002A0DD00133DBB2E15C0839012902D99B18DBB200E00125B34201D2002DEED0002D16D0D218D1B20133DBB21A1C02E0A554013200
:40100000D2B28A4209D2D51A455D002DF6D104E0A318002018700132D2B29142F8D870BDDC0C002008B5FFF7CBFE00F0CFFB00F097FA08BD08B50023044A1370044A13702C
:40104000044A1370FFF7EEFF08BDC046AF250020A8250020AE25002010B590B0041C0BA81F49142201F017F91E4B1B78002B04D1FFF7E0FF01221B4B1A70002C2CD01A4B35
:401080001C6008A805AA426006AB0893002101811B311980598017391971002313701231694402F035F8002817D1052300930023019302930D480E49AE2212010BAB02F029
:4010C00095F8002809D101220A4B1A700A4830218F320EF035FF00E0012010B010BDC04658500100441300209025002035130000D0000020A42500206C50010008B502F0B3
:4011000019F90022014B1A7008BDC046A425002008B5022833D81E4B1B78042B31D11D4B1B785B0730D400280CD11B4B1A1C40321E21118290225200596C0A805B6C203220
:401140005A800EE001280CD1134B1A1C403296211182C822D200596C0A805B6CFA2212015A800E4B18700C4840300CF0E9FF00280CD1084A117804230B43137006E001200E
:4011800004E00420FF3001E00420FF3008BDC046A4250020AF250020DC0C0020AE25002008B50DF07FF8034A117808230B43137008BDC046AF2500207047C04610B50028B5
:4011C0001DD0104B9A6B5468998EC9B2002302E0E2540133DBB28B4202D2C25C002AF7D18B4202D2E31800221A70041C0021FFF7DFFE201C0121FFF7DBFE002000E00120ED
:4012000010BDC0466C50010010B5002812D00A4B9B6B5C681978002302E0C2540133DBB28B4202D2E25C002AF7D1C31800221A70002000E0012010BD6C500100037840788D
:40124000000218437047C0460170090A4170704738B583890B2B20D1041C04300021221C35330EF0F1FE051E11D16068FFF7E6FF830706D50A4B1B6882204000211C98475D
:4012800005E0074B1B680620FF30211C9847054A137801218B43137000E00025281C38BD90250020AF250020024B00225A701A707047C046AC25002010B582B0041CFFF731
:4012C000C7FF124B1B78DB0704D5002802D1201CFFF7F2FD0D4B1B78DB0702D5201C00F079F90A4B1B78DB070ED4002809D001A912238B70A3890B80C87020680EF064F8C7
:4013000002E020680EF0FCF802B010BDAF2500208379002B07D000200BE0C25C002A07D10133DBB200E00023052BF6D9002000E001207047F0B583B0051C0C1C794A1178AD
:4013400001230B431370502800D9DAE08300764AD3589F4601AE0727377000237370301C02F074F8377001237370301C02F06EF86E4B1E68301CFFF7CBFF00280CD0301CF9
:4013800002F012F8694E30680021FFF715FF30680121FFF711FF25E0654B1B78654A12783F210A4092010B401343634A127820390A4012031343614A127860310A405204ED
:4013C00013435F4E33701A0A72701B0CB370301C01F0EAFF301C0021FFF7EEFE301C0121FFF7EAFE03200CF05BFD01A83F230370002343700CF072FD0422524B1A7080E053
:401400002278514B1A707CE02378002B79D16378002B07D14D4B0822DA8088329A804C4A1A6063603F4A137801218B43137068E03C4B1B789B0664D4464B1B78102B02D1EB
:401440000522444BDA70444B187842490CF038FE344A117801230B43137052E00222394B1A704EE00422374B1A704AE0354B1B78022B46D02B4A1278D20742D5294A127864
:40148000520708D503222F4B1A70264A137804218B43137035E0234A1278120708D50422284B1A701F4A137808218B43137028E0032B26D10422234B1A7022E02648211CD1
:4014C000022200F0E8FE00221F4B1A7019E0FFF7EBFE16E06188162900D9172120880DF07DFF0EE0201CFFF7E7FE0AE00D4B1B78DB0706D5201C00F0ABF802E0201C00F040
:40150000BFF8084B1A7811231A4209D0054A137801218B431370114B1B68281C211C984703B0F0BDAF250020B4540100300D00207CF1FF0F7DF1FF0F7BF1FF0F78F1FF0F78
:40154000340D0020A4250020A825002048130020B00B0020B80F0020AC250020902500207047C0467047C04600B585B008280FD840000A4B1818438801A803818180019265
:401580000021002200230EF05FFD002802D102E0012000E0012005B000BDC046F855010000B585B008280ED84000094B1818438801A8038181800192002100220EF00EFD0A
:4015C000002802D102E0012000E0012005B000BDF855010010B5021C8389302B12D1E7239B001749CB58DB0405D50430002140230EF02AFD00E00620124A137801218B4364
:4016000013701CE02F2B19D10430002111330EF01BFDEA239B000A4AD3585A680A4B1A60D3781B029278094C1343073323800121A170044A13788B43137000E0002010BD5C
:401640006C500100AF250020B02500205013002008B543681B892F2B0DD1037A012B05D101200DF001FF0022034B1A80034A137801218B43137008BD50130020AF250020CF
:4016800043681A892F2A1BD1427A012A13D11A680C4B1A60D3781B029278134307339BB2094A13800822FF32934201D9064B1A800122054B9A70054A137801218B43137085
:4016C0007047C046B025002050130020AF2500207047C04608B5084B18780CF079FA002802D005E001F05CFE044B1B78022BF9D0FFF704FD08BDC046AC250020A425002057
:40170000F0B585B0061C0C1C151CEF239B00144AD3585868FFF792FDC3071ED5EA239B000F4AD3585F68381C311C221C00F0B3FD01A98C8001972F230B810A4A13785078D7
:40174000000218430DF07EFE002801D12C8005E000232B800120404200E0042005B0F0BD6C500100AC250020F8B5071C0D1C161C64225A43141C1DE001F012FE114B9B7898
:40178000012B13D10F4B00229A701A88AA4209D20D4B1968381C00F07EFD0A4B1B88338000240AE000233380062406E0642000F07BF9643C002CDFD1103401F0F1FD201C30
:4017C000F8BDC04650130020B02500207047C0460230800803D00138FDD1C046C046C0467047EFF3108072B6704780F31088704782B0104B0093104B043301930F4B6A4639
:401800001A600F490F4A1160C0461B681B0F0F2B04D10A4B1B68FF20184008E0074B1B681B0F0A2B02D0054B186800E0002002B07047C046B6E90000541300200800104050
:4018400016000080040010400C4B0D4A1A600D490D4A1160C0461B681B0F0F2B04D1074B1B68FF20184008E0044B1B681B0F0A2B02D0024B186800E0002070470800104063
:40188000B6E80000150000800400104082B0104B0093104B043301930F4B6A461A600F490F4A1160C0461B681B0F0F2B04D10A4B1B68FF20184008E0074B1B681B0F0A2B88
:4018C00002D0054B186800E0002002B07047C046B6EA00005413002008001040170000800400104030B5A5B0002323932293374B984265D8002963D0041C02A8802200F054
:40190000CAFC334B9C4201D9324B00E0324B00937F230193314B6A461A603149314A1160C0461B681B0F0F2B04D12C4B1B68FF22134008E0294B1B681B0F0A2B02D0274B4A
:401940001B6800E000232393239B002B3AD1FFF748FF051CFFF74CFF2290229B002B02D1FFF772FF2390239B002B1FD11E4B0093009B200418430090184B6A461A601B49A1
:40198000184A1160C0461B681B0F0F2B04D1134B1B68FF22134008E0104B1B681B0F0A2B02D00E4B1B6800E000232393229B002B02D1FFF76BFF2290281CFFF716FF01E0B4
:4019C00004232393239825B030BDC046FF030000FF010000B6D70001B6D70000080010400400008004001040B6D800000500008010B5041CFFF7F5FE07231C40E40404499E
:401A00000B68044A134023430B60FFF7EEFE10BD00010B40FFFFC7FF10B586B0041CFFF7E0FE0E4B1B6800930D4B1B680193033C0C4B1B5D02930C4B1B68039304AA0B4B1E
:401A400004936B4605930A4B1A600A490A4A11601B68FFF7CAFE06B010BDC04608010B4000010B401456010030001040B6EA0000080010401700008004001040024B1B6897
:401A8000012018407047C0460C002E4001BE7047034A13681B041B0C02490B43136070470CED00E00400FA0508B5034B1B7A5843FFF78EFE08BDC046C00F002010B5041CF7
:401AC0000F4A116801230B4313600E4A0E4B1A600E4A1368802109020B431360002809D100200CE00120FFF7DFFFFFF7C7FF002804D1013C002CF5D1102000E0002010BDDC
:401B000060F02E400220000078002E4010002E4008B5FFF766FE044A136804218B43136030BFFFF762FE08BD10ED00E030B583B0FFF757FE041C0E4A13685B005B081360AD
:401B40000C4B1B889BB20C4A13600C4A116804230B4313600A4D2B6801930220FFF748FF30BF019B2B60201CFFF73FFE03B030BD00000B4052F1FF0F0C000B4010ED00E0CC
:401B800000010B4008B5FFF72CFE1F4A13689B009B0813601D4A13689B009B0813601C4A13689B009B0813601A4A13689B009B081360194A13689B009B081360174A136847
:401BC0009B009B081360164A13689B009B081360144A1368802109060B431360124B1B889BB2124A1360124A116804230B43136010490B68FF2293430E3A13430B6030BFCA
:401C0000FFF7F3FD08BDC0460800044008010440080204400803044008040440080504400806044000000B4050F1FF0F0C000B4010ED00E02C000B4010B50D4B1A680121C4
:401C40008A431A601A68022082431A60094A10683024A043203C204310601068093CA043014311601A68802109060A431A6010BD00F02E4000FF2E4038B51D4B1B68012426
:401C80001C40002802D0012816D02BE0184B19680122914319601968022081431960154B19682E3081432038014319601968093881430A431A6018E00D4B1A6802218A4359
:401CC0001A600C4A10680725A84301431160116830208143103801431160196801220A431A6002E00020FFF7D1FE201C38BDC04600F02E4000FF2E400160704701607047E2
:401D0000324B1A781202324B1B781A43314B1B781B02314909780B4330498B4201D1072A06D0D42109018B4206D1042A04D102E02B4B042200E02A4B2A490B602A4B1A6039
:401D40002A4B1B781B022A4A1278134380229201934202D0002B02D002E0264B00E0254B254A1360254B1B781B02254A12781343244A934205D0244A934204D0052B05D1E8
:401D800003E0224B02E0214B00E0204B204A1360204B1B681B09204A1268AA2A15D1012B13D9164B1B780E2B0FD11C4B1B781B021B4A127813431B4A13601B4B1B781B023E
:401DC0001A4A127813431A4A13607047D9F0FF0FD8F0FF0FDFF0FF0FDEF0FF0F580B0000580D00006C002E4074002E40DBF0FF0FDAF0FF0F0220000078002E40DDF0FF0F93
:401E0000DCF0FF0F0F0F000005050000050F000080002E40EC0F00F0E00F00F06DF2FF0F6CF2FF0F84002E406FF2FF0F6EF2FF0F94002E4008B5FFF737FE08BD08B500F0D0
:401E40004BF808BD08B500F04FF808BD08B500F04BF8034800F02AF8032000F02DF808BD151F000008B5024800F046F808BDC046151F00000220FF307047C0462B207047DF
:401E80002B2070472B2070472B2070472B2070472B2070472B2070472B2070472B2070472B2070472B2070477047C046014B18677047C0460000002010B5041CFFF791FC41
:401EC000044A1368C0218B43A4011C431460FFF78CFC10BD0CE400E080225201014B1A607047C04600E100E080225201014B1A607047C04680E100E010B5041CFFF7F4FF17
:401F0000201CFFF7D3FF0320FFF7D6FFFFF7E4FF10BDC04608B512F081FF08BD002243088B4274D303098B425FD3030A8B4244D3030B8B4228D3030C8B420DD3FF220902C4
:401F400012BA030C8B4202D31212090265D0030B8B4219D300E0090AC30B8B4201D3CB03C01A5241830B8B4201D38B03C01A5241430B8B4201D34B03C01A5241030B8B426D
:401F800001D30B03C01A5241C30A8B4201D3CB02C01A5241830A8B4201D38B02C01A5241430A8B4201D34B02C01A5241030A8B4201D30B02C01A5241CDD2C3098B4201D326
:401FC000CB01C01A524183098B4201D38B01C01A524143098B4201D34B01C01A524103098B4201D30B01C01A5241C3088B4201D3CB00C01A524183088B4201D38B00C01A81
:40200000524143088B4201D34B00C01A5241411A00D20146524110467047FFE701B5002000F0FCF802BDC0460029F7D003B5FFF775FF0EBC4243891A1847C04603460B43F0
:402040007FD4002243088B4274D303098B425FD3030A8B4244D3030B8B4228D3030C8B420DD3FF22090212BA030C8B4202D31212090265D0030B8B4219D300E0090AC30B69
:402080008B4201D3CB03C01A5241830B8B4201D38B03C01A5241430B8B4201D34B03C01A5241030B8B4201D30B03C01A5241C30A8B4201D3CB02C01A5241830A8B4201D370
:4020C0008B02C01A5241430A8B4201D34B02C01A5241030A8B4201D30B02C01A5241CDD2C3098B4201D3CB01C01A524183098B4201D38B01C01A524143098B4201D34B0172
:40210000C01A524103098B4201D30B01C01A5241C3088B4201D3CB00C01A524183088B4201D38B00C01A524143088B4201D34B00C01A5241411A00D201465241104670478C
:402140005DE0CA0F00D04942031000D34042534000229C4603098B422DD3030A8B4212D3FC22890112BA030A8B420CD3890192118B4208D3890192118B4204D389013AD0F0
:40218000921100E08909C3098B4201D3CB01C01A524183098B4201D38B01C01A524143098B4201D34B01C01A524103098B4201D30B01C01A5241C3088B4201D3CB00C01A61
:4021C000524183088B4201D38B00C01A5241D9D243088B4201D34B00C01A5241411A00D20146634652415B10104601D34042002B00D54942704763465B1000D3404201B5B1
:40220000002000F00BF802BD0029F8D003B5FFF715FF0EBC4243891A1847C0467047C046014B18687047C0461C1300200E4B70B500251E1C0D4CE41AA410A54204D0AB00DF
:40224000F35898470135F8E713F04AFA084B00251E1C084CE41AA410A54204D0AB00F35898470135F8E770BDEC560100EC560100EC560100F456010030B50024944208D083
:40228000035D651C0C5DA34201D0181B02E02C1CF4E7002030BD002310B5934203D0CC5CC4540133F9E710BD031C8218934202D019700133FAE770470FB40B4B13B51C680E
:4022C000002C05D0A369002B02D1201C00F050F805AB201CA168049A019300F05BF916BC08BC04B01847C0461C13002008B5024900F0AEF808BDC046752E0000002310B502
:40230000041C03604360836081814366C281036143618361191C08225C30FFF7C5FF054B24626362044BA362044BE362044B236310BDC046E52A00000D2B0000452B000033
:40234000712B000070B568254B1E5D430E1C291C743100F09FF8041E08D000212A1C016046600C30A0606832FFF79EFF201C70BD836913B5002B28D18364C3640365134B85
:40238000134A1B6882620193984201D101238361041C00F01FF86060201C00F01BF8A060201C00F017F80421E06000226068FFF7A5FFA06809210122FFF7A0FFE068122162
:4023C0000222FFF79BFF0123A36113BD48560100ED220000F8B51D4B061C1D68AB69002B02D1281CFFF7C4FF4835AC686B68013B05D40C22A75E002F10D06834F7E72B68F0
:40240000002B06D1301C0421FFF79CFF2860002801D02D68E9E70C23336016E00123201C5B42E3810233A38167662760A760676027616761A7615C30391C0822FFF734FF92
:40244000201C6763A763A764E764F8BD48560100F7B5041C071C002601914834002C16D06368A5680093009B013B00930DD4AB89012B08D90E22AB5E013304D0381C291C9C
:40248000019B984706436835EDE72468E6E7301CFEBD0000032370B5CC1C9C430834051C0C2C01D20C2405E0002C03DA0C2300202B6042E08C42F9D3204A1368101C191C13
:4024C000002913D00A68121B0DD40B2A02D90A608B181FE08B4202D15A6802601BE04A685A600B1C17E00B1C4968E9E7144E3368002B03D1281C00F0E3FA3060281C211C25
:4025000000F0DEFA031C421CD0D00322C61C964386420AD11C60181C07210B301A1D8843821A0AD05142995007E0311A281C00F0C7FA431CBAD0331CECE770BD5C2400202D
:4025400058240020936810B5013B9360002B05DA9469A34208DBCBB20A2B05D01368581C10601970C8B201E000F008FB10BDF8B5061C0F1C141CD518AC4208D02178301CB5
:402580003A1CFFF7DFFF0134431CF5D100E00020F8BD0000F0B59FB0061C0F1C02920593002804D08369002B01D1FFF7E1FE794B9F4201D1776808E0774B9F4201D1B768E9
:4025C00003E0764B9F4200D1F768BB891B070AD53B69002B07D0002306AD6B6120336B761033AB763DE0301C391C00F033FB0028F1D001204042CAE0059A111D1268059112
:40260000002A7EDB0992013423782E2B00D189E021786348032200F0C5FC002808D0604B0134C01A40238340181C2B68184328602178631C5B4806220293297600F0B2FCC0
:40264000002800D191E0584B002B00D084E00722059B07339343083305936B69039A9B186B61029C2378002B04D1029BE31A049311D003E0252BF8D00134F3E7049B301C12
:40268000391C029AFFF773FF431C7BD06A69049B944663446B612378002B73D00122002352426A6002A95432521801342B60EB60AB601370AB6521783C48052200F072FCC5
:4026C000002809D0394B0134C01A01238340181C2B6818432860EEE72B68DA0604D55322202102A8121811701A0704D553222B2102A81218117022782A2A00D17CE7099BB3
:4027000005E05242EA60022213432B607BE72278303A092A04D80A214B4301349B18F6E7099371E763782A2B09D1059B02341A1D1B680592002B0DDA01235B420AE00023D9
:4027400001342278303A092A04D80A214B4301349B18F6E707935BE705AB0093301C291C3A1C134B00E000BF07E005AB0093301C291C3A1C0E4B00F08BF80390039B01334E
:4027800000D06AE7BB895B0600D532E70B981FB0F0BDC0464C5601006C5601008C560100B2560100B656010000000000AC5601006F250000F7B5171C01930A698B680090E1
:4027C0000C1C934200DA131C221C3B6043321278002A01D001333B6023689B0602D53B6802333B60062523681D401ED0231C43331B785A1E9341226892061CD53020E118CA
:402800004031C870211C5A1C45310978A21840320233D1700FE0221C0123009801991932089EB047431C0ED00135E3683A689B1A9D42F0DBDAE7221C009801994332089D2E
:40284000A847431C02D10120404220E006232068E1683A6803400025042B03D18D1AEB43DB171D40A3682269934201DD9B1AED180027AF420ADA221C0123009801991A328A
:40288000089EB047431CDED00137F2E70020FEBDF0B58BB006920A1C43320793059004920A7E0C1C109B6E2A00D1A8E011D8632A22D009D8002A00D1B2E0582A00D0C2E094
:4028C00045310A707C4A4FE0642A1DD0692A1BD0B9E0732A00D1A7E009D86F2A29D0702A00D0B0E0202209680A43226037E0752A1FD0782A33D0A6E00E1C1A684236111D5B
:40290000196013683370A1E021681A68080606D4490604D5111D19600023D55E02E0111D19601568002D3BDA2D23049A6D42137036E021681A68080606D4490604D5156851
:40294000111D1960ADB202E0111D196015685A4B227E03930A276F2A1DD108271BE0221C782145321170554A19680392081D226818600D68100602D4500600D5ADB2D3071E
:4029800002D520231A4322601027002D03D1202322689A432260231C002243331A7002E00A27454B03936368A360002B03DB0422216891432160002D02D1049E002B0ED09A
:4029C000049E281C391CFFF72FFB039B013E5B5C281C3370391CFFF7A1FA051EF1D1082F09D12368DB0706D563682269934202DC3023013E3370049B9B1B23612BE009684A
:402A00001A68080607D4490605D5111D19601368A28A1A8004E0111D1960136862691A600023049E236116E01A68111D196016680021301C626800F0B5FA002801D0801B7F
:402A40006060636803E0261C42363270012323610023049A1370079B05980093211C069B09AAFFF7A7FE431C02D10120404221E0236905980699321C079DA847431CF4D000
:402A800023689B0705D4099BE068984212DA181C10E00025E368099A9B1A9D42F3DA221C0123059806991932079EB047431CDCD00135EFE70BB0F0BDBD560100CE56010089
:402AC00038B50023064C051C081C2360FDF766FC431C03D12368002B00D02B6038BDC046B425002038B50C1C0E25495F00F0ACFA002803DB636D1B18636503E0A289024B6C
:402B00001340A38138BDC046FFEFFFFFF8B51E1C8B89051C0C1C171CDB0505D50E23C95E0022022300F0D2F9A289054B281C1340A3813A1C0E23E15E331C00F077F8F8BD4D
:402B4000FFEFFFFF38B50C1C0E25495F00F0BEF9A389421C03D1054A1340A38104E0802252011343A381606538BDC046FFEFFFFF08B50E23C95E00F0E1F808BD70B5051CC6
:402B80000E1C141C002804D08369002B01D1FFF7EFFB234B9C4201D16C6808E0214B9C4201D1AC6803E0204B9C4200D1EC68A369A360A3891B070AD52369002B07D0236846
:402BC0002269F6B2981A636998420FDB08E0281C211C00F03FF80028F1D0012040421DE0281C211C00F046F90028F6D1A3680130013BA36023685A1C22601E706369984276
:402C000005D0A389301CDB0708D50A2E06D1281C211C00F02FF90028DFD1301C70BDC0464C5601006C5601008C56010038B5051C0020074C2060081C111C1A1CFDF79EFB2B
:402C4000431C03D12368002B00D02B6038BDC046B4250020354B70B51D68061C0C1C002D05D0AB69002B02D1281CFFF781FB304B9C4201D16C6808E02E4B9C4201D1AC68BA
:402C800003E02D4B9C4200D1EC68A3899AB2110723D4D10607D409220120326037321343A381404240E0530713D5616B002908D0231C4433994202D0301C00F07FF90023D1
:402CC00063632422A3899343A38100236360236923600822A3891343A3812369002B0BD1A023A2899B00134080229200934203D0301C211C00F0FEF80123A289134005D0AC
:402D00000023A36063695B42A36103E0910700D46369A36000202369834205D1130603D540231A43A281013870BDC0461C1300204C5601006C5601008C56010038B50023B3
:402D4000064C051C081C236000F0B6F9431C03D12368002B00D02B6038BDC046B4250020F7B58A89051C0C1C13075ED44B68002B02DC0B6C002B1ADDE76A002F17D000232F
:402D80002E682B6080235B011A4001D0626D15E0281C216A0123B847021C431C0ED12B68002B0BD01D2B01D0162B02D12E6000205EE04021A3890B43A38159E0A3895B073E
:402DC00006D56368D21A636B002B01D0236CD21A0023281C216AE76AB847A389421C06D12A68002A03D01D2A01D0162A19D10022626022692260DB0405D5431C02D12B6819
:402E0000002B00D16065616B2E600029CFD0231C4433994202D0281C00F0D0F80020606326E040221343A38122E00F69002FBED00B680F60DB1B01930023920700D14B69A7
:402E4000A360019B002BB2DD281C216A3A1C019BA66AB047002806DC40220120A38940421343A38104E0019B3F181B1A0193E8E7FEBD000038B50B69051C0C1C002B01D1AB
:402E800000201CE0002804D08369002B01D1FFF76FFA0B4B9C4201D16C6808E0094B9C4201D1AC6803E0084B9C4200D1EC680C22A35E002BE4D0281C211CFFF751FF38BDD5
:402EC0004C5601006C5601008C56010038B5051C0020074C2060081C111C1A1C00F004F9431C03D12368002B00D02B6038BDC046B4250020F0B58B8991B09B0706D50B1C3E
:402F000047330B600B6101234B6145E00C1C0E23C95E061C002904DA8023A5891D4010D10CE001AA00F0A4F80028F5DBF023029D1B021D40194BED186B425D418027FF00F2
:402F400001E000254027301C391CFFF7A3FA00280CD1A3899A051FD402221343A381231C4733236023610123636115E080220C4BB362A38920601343A38120616761002D08
:402F80000AD00E23E15E301C00F084F8002803D00122A3891343A38111B0F0BD00E0FFFFED220000C9B28218904204D003788B4202D00130F8E700207047000030B5002926
:402FC0003ED004390B68002B00DAC9181D4A1368141C002B02D14B60116031E099420DD208680A189A4203D11368C3180B6053684B60216024E08A4203D8131C5A68002A86
:40300000F9D11D685C198C420BD10968691858181960904214D110685268091819605A600EE08C4202D90C23036009E008680C18944203D114685268001908604A605960A0
:4030400030BDC0465C24002038B5051C0020074C2060081C111C1A1C00F04EF8431C03D12368002B00D02B6038BDC046B425002038B50023064C051C081C111C236000F080
:4030800023F8431C03D12368002B00D02B6038BDB425002038B50023064C051C081C236000F01AF8431C03D12368002B00D02B6038BDC046B425002058220120014B4042F6
:4030C0001A607047B425002058220120014B40421A607047B42500205822024B00201A607047C046B425002058220120014B40421A607047B425002058220120014B404200
:403100001A607047B425002000660100A0000000F8B5054633480E460078002802D002242046F8BD002E5BD000242F49002D16D02A89D0070DD02868002808D003881B3B04
:40314000E12B04D24088FB2801D81B2801D2012409E0900707D56868002804D1F7E70020088108604860002CDAD11F482F8907811C481B21801D01804180042101711949B8
:403180000020891C0870F80705D016480622801D2968FFF780F81449B80703D56A681148127882700F480D46801D0860001F486002F0E8FA0B48801D02F0D6FA28890EF096
:4031C0002FF828890EF0A8F90346103300F012FC1F21C018890140180249308088809FE701249DE7D00F002068130020FFB585B0002768460E9D07734C481C46007800288F
:4032000002D0082009B0F0BD10990F9801900095029105A807C800F035FC0028F2D16946264603AB84460873002C19D0002115E08A00B75A082F09D990198078002805D012
:40324000083FB7521878401C187005E0002915D00027B75290198770491CC9B2A942E7D360460028CED10F9800280AD0109901F0A3FD0006000E04D00120C3E70120844654
:40328000EEE702F0FDF92948002101610C300599016021888180022D03D3A1798171A17AC17100211EE0481C19E082008B00A75AE65ABE46BE4211D26F463E80B4461E19C5
:4032C0000296B678BE7001967646E6521719029EBB78B3706646A652019EBE70401CA842E3D3491CA942DED3114800906846037B22460799069800F04DFC002882D168469E
:403300000A4C007B60700A4802F0EAF90028B4D1204607490C3007F099FD0028ADD107F0BBFD0028A9D1012121706BE7D00F00206813002010B507F0A7FD02F0A1F902F025
:40334000EFF900F0B7FC00F0CFFC02490020087010BD0000D00F002010B507F095FD02F08FF902F0DDF900F0A5FC0749074807F06DFD002807D107F08FFD002803D1034A6B
:4033800001210C3A117010BD68130020DC0F002010B502F05FF910BD10B502F071F910BD10B500F07DFC10BD10B50749044609780220002907D1204602F0BFF9002802D1DE
:4033C00020460AF063FE10BD4011002010B502F05FF910BD1CB5FF206946087100200870FFF7DAFF6A4601A9062001F08DFA6946002008561CBD000038B504460120002CF1
:4034000020D0617801291DD800290BD0FF25E535FFF7C2FF0C4828180088C0B22070072803D00EE0FF25CD35F2E7002069460870684601F08BFB69460878012801D10820E0
:403440002070002038BD000000102E40F8B504460120002C26D06178012902D92278092A20D8002905D0FF25E5352078092803D004E0FF25CD35F8E708202070FFF78CFF52
:403480002078114F114E08280DD0002000F01EFA70780128207810D00D4969180880FE2070700020F8BD012000F010FA0720B8810549203188800120F2E7B881024821788D
:4034C00020308180EBE70000C0112E406C10002000102E400121002807D005494A8842804A7842700978017000210846704700000A100020F8B504460120002C52D0217888
:4035000008294FD2617804294CD26088102166283DD800283BD065882348662D45801BD801270026BF020A2D33D90A212846FEF77BFDC0B2072800D907200A2141438D420C
:4035400004D9691ACEB21F2E00D31F264101314339431648FEF7D0FB134D60786870217829701349496A8A0781001148920F11432430FEF7C3FB687800280CD0401E022199
:4035800081401820FEF740FEC000083804E06180C1E72946DCE7B82081B204482030FEF7ADFB0020F8BD00000A100020B8102E4040F02E4070B505460124FFF7EDFE002D76
:4035C00004D0082128460EF077FE0024204670BDF7B582B069460AF05BFB050041D1FFF7DBFE6846008803F02DFD040038D004F0CAF8002834D0FF278820493700593E4607
:40360000002805D01849897A890601D5878AC68A204602F0A9FA01280DD006F0C7F850210A5B617902F058FF283081B233463A46204605F05DFE20464030C28A04998A42EF
:4036400000D9C182C18AA07805F030F80398012801D901200390A078039905F02DF900E00625284605B0F0BDD0170020F8B50E4669460AF00DFB050033D1FFF78DFE6846C1
:40368000008803F0DFFC040019D004F07CF8002826D01548F121807A0840C00621D520464030418A008A491C41430804C00C0F4986420CD326822079072802D011E006258B
:4036C0000FE001200870204603F0C2F809E0002E07D100200870A078002104F0C9FB00E002252846F8BD0000D01700206C100020F8B5012406460D46002925D01348007888
:40370000002808D0FFF748FE694630460AF0C0FA040003D018E000200880F8BD6846008803F090FC06000ED004F02DF800280AD00748F121807A0840C00602D5308A2880F2
:4037400002E0022400E006242046F8BD6C100020D01700200121002807D0C221C1700321017001214170002181700846704710B501F0CAF9012801D101F0CCF910BDF0B529
:4037800089B015460F4606460124FFF705FE002E20D0002F1ED0002D1CD0102239466846FEF779FD1022314604A8FEF774FD102168460EF0A5FF102104A80EF0A1FF2B4670
:4037C000102204A9684605F0A5FF102128460EF097FF0024204609B0F0BD000038B5FEF749FB01F0DBFF03211548FEF787FA0120FEF720FB12483038406A04218007800FC0
:40380000084381B200900E480C38FEF777FAB8210C48FEF773FA0B48032109021438FEF76DFA084C5321D83C2046FEF767FA07210548FEF763FA54212046FEF75FFA38BD44
:4038400070F02E40D8102E4098142E407CB5FF24069E079D00280BD0002909D0002A07D0002D05D0002E03D0002B01D01B2B01D9012406E00096019505F07BFF042800D1A6
:40388000002420467CBD7CB5FF24069E079D00280BD0002909D0002A07D0002E05D0002D03D0002B01D01B2B01D901240BE00096019505F017FF042802D0052802D002E05E
:4038C000292400E0002420467CBD000010B50A4A141D012808D009491046FEF70FFA08492046FEF70BFA10BD04491046891CFEF705FA0349491DF3E788002E4031D00000AA
:403900003AE3000010B5064A012805D01921C9021046FEF7F3F910BD1D21C902F8E7000090002E4001460120002903D0024A002012880A80704700005411002010B5012250
:40394000002803D011490B88984201D9012010BD14234968434359182039C9890C4B994208D0DB1E994205D05B1C994202D05B1C994209D1C108074B44075A5C640F012080
:40398000A04082435A540022104610BD9C11002003280000401E0020014608B5012000290AD0002003460090064A074800F0D8FA0006000E01D0022008BD034A0121521ECC
:4039C000117008BDF1AE0000E510002010B5084C02202178012906D1607800F011FB0006000E01D0022010BD0021217010BD0000E4100020134A1088810703D08107890F4D
:403A0000401A001D11791030484381B25088820703D08207920F801A001D800040180A494030098980B2CA0701D0503080B2890706D504495422091F09785143081880B202
:403A400070470000D60F00206813002070B504460120002C12D02368002B0FD0616800290CD0074D06222889208118462968FEF712FC6968606809780170002070BD000056
:403A800068130020FFB58446384F1C460020BB883F78054602460646002F11D100290ED0029999420BD36146002908D0002C06D00A99002906D02E4B0B99994202D2012066
:403AC00004B0F0BD002144E0AB001F19BF78002F3BD0E35A002B38D07B43591889B22B0000F04AF8050410161C253100A7782388BC46FF27233BEB37BB4222D26346032BBA
:403B00001FD322E0A388002B1FD0302B19D31CE02389002B19D0282B13D316E0A289002A13D01346134F233BBB420AD20DE0268A002A0AD033460F4F233BBB4201D2964272
:403B400003D901200EE0002001E000280AD16D1CEDB2099B9D42B7D31C2463435B1802998B42ACD89642AAD8AAE70000D00F002079020000BAFF000030B47446641E257801
:403B8000641CAB4200D21D46635D5B00E31830BC18470000FFB583B0002469460C801F4606468C80002806D00598002803D004983043800701D0012467E0002FFBD034491F
:403BC000049809888842F6D3FEF74CF9FEF73AF900F06CFC002856D100F0CAFD002852D12C49084601F01CF905042D0C4BD12A480499066081800021C18007810C98007A55
:403C0000C00704D0684601F054FD040007D10C98007A800703D501A801F054FD0446BF1DFEB2002C21D13146059800F089F804001BD10DF07FFC0406240E16D16A46108869
:403C4000928808368518144AF1B29088D288AEB29319984207D3401B801A80B201F0D2FB050007D000E0FF25012400F0B7FA002D04D008E0F8B200F047F9F6E700F0DAFA2D
:403C800006490120087000F023FC204607B0F0BDD40F00202D3E000074130020E40F002010B503480078012801D101F04DFA10BDE40F002010B500F0F9FD002803D100F0E9
:403CC0000BFC002801D0FF2010BD0548007A801DC0B200F031F9034A0020107010BD000074130020E40F002010B500F0FBFD01F0C9F80449002008608880C880088102491C
:403D0000087010BD74130020E40F002070B5084B0446DA889E8800205518B54206D81D68AA182260DA885118D98070BD032070BD7413002001480089704700007413002097
:403D4000F0B587B007460D4600208900009006916846FFF7DBFF844600285DD1304800990160002117E02E4B88001A680629115406D22C4C0419667882185670628805E03E
:403D8000C419203CA67A8218567022891B68C018491C4280C9B2A942E5D300242DE0601CC2B2059025E01E4FA30039689600581840887118039604904E88B04217D93846D9
:403DC0006F46FE80B6464F786E4677710297049F4F800168039F5E18767879184E700168764659184E800068029F18184770521CD2B2AA42D7D30598C4B2AC42CFD3604643
:403E0000002809D168460699FFF780FF8446002802D1054900980860604607B0F0BD0000E80F002018570100EC0F00207047000010B5002809D005494A68002A05D0011F63
:403E400008788000105801F08BFA10BDE80F002010B50446FFF76EFFC0B2801DA0420CD307484068002808D0A100405801F0EAF9002801D00470001D10BD002010BD0000F6
:403E8000E80F0020F8B516460D460446FFF752FFC0B2801DA04203D20020C0430090F8BDB2B2E9B2684601F0F3F90099481C03D0024AA000526811500098F8BDE80F00200B
:403EC000F8B50746FFF736FF801DC6B20A49002005460C680DE06178002907D06188B94202D32078FFF7B4FF002804D1241D6D1CEDB2B542EFD3F8BDE80F002010B50028BE
:403F000001D0FFF795FF10BD70B506460948002504680BE06178002905D062882078121D0023FFF7AFFF241D6D1CEDB2B542F1D370BD0000E80F0020F8B5084F06460024F0
:403F40003D6808E0287879688000085801F0B4FA2D1D641CE4B2B442F4D3F8BDE80F0020FFB581B00A9C16002BD000F0F1F80546042826D0214F002C0BD02046FFF7A0FF77
:403F80002901C919486000281BD022460499FEF782F91A4928010E5046187481019805707D20029CC000444300F0C0F8009004280AD000F071FAA0420ED800F06DFA201A06
:403FC00006E0FF2005B0F0BD204600F0CBFA0020B08135720020F5E700F05EFA074600F0D7FA381B87B23846012100F00BF900980101024808188781E6E700008013002049
:40400000F8B5060117483418217A042903D0A089002802D018E00020F8BD00F03DFA054600F0B6FA00F0A2F804280DD001010D480F18B88941198DB2002100F0E3F800208D
:40404000B881284600F08EFA6068064D002801D0FFF754FF042020720020A8516081A081D9E7000080130020FEB500266A46304601232549050169180D7A042D02D08989CC
:4040800000291BD000211154401CC0B20428F0D300246846005D002830D01B482101081841894768056802910021016041600422418102728181002E02D015E01354E3E78D
:4040C00000F054F804280ED001010F480818019086890021304600F095F8019800218181304600F03FFA0126002D07D038460299A847002F02D03846FFF700FF641CE4B235
:40410000042CC6D3FEBD0000801300200EB5002005216A460090118150810348694600680EF0A9F80EBD0000F00F0020074A0020010189180B7A042B02D08989002903D009
:40414000401CC0B20428F3D370470000801300200549002002015218127A042A03D0401CC0B20428F6D370478013002030B50A4B04200A4C00210A011219157A042D06D0DF
:404180009289002A03D09A4201D808461346491CC9B20429EFD330BDFFFF00008013002070470000F8B500250B4F2E462801C419217A04290AD0042121723E5060680028E9
:4041C00002D0FFF79BFE66606681A6816D1CEDB2042DEBD3F8BD00008013002030B50020074C05460423020111190B72A5504D60401C4D81C0B28D810428F4D330BD00006B
:404200008013002030B5094C00231A011219157A042D04D09589002906D02D1895815B1CDBB2042BF1D330BD2D1AF7E780130020002070471CB5002469460C7014200190A4
:404240002346054A05480EF01BF804480068401C00D1FF2420461CBDB1420000F00F00203EB5124A0146FF2000230124126800290DD0012914D0042908D1042069460093DC
:4042800008814B8110460DF0F6FF80B23EBD6846009304814381694610460DF0E7FFF4E768460093048143816946EBE7F00F002070B545890468416800890300FFF75CFCDB
:4042C00008280509091E22282628002005F0D0FC1EE0022908D0C8B22A4621460CF02CF92046FFF70BFE13E002202A4621460CF023F92946204600F00DF809E000200DF034
:40430000A1FC05E02046FFF7AFFE01E0FDF7CCFD002070BD014B0022DB681847F40F002070B5448905680089022803D0032809D0FF2070BD2246094C0023A4682946012023
:40434000A04708E0FFF728F8241DA2B200232946022006F02CFC002070BD0000F40F002070477047024800214160018041807047F40F002070B50C46002186B0164603912D
:40438000012802D0022859D116E003A9012006F06EFC01281BD1039D324621462846FDF77AFF0095287801900220694608814E816846FFF7B5FF41E0214D002B686809D072
:4043C000049004A9022006F052FC01281DD0022006B070BD002812D0298840182146FDF75AFF28880024801980B228806988091D884206D12C801348FFF792FF03E00320A1
:40440000E6E788421AD96C6018E004986860E278A378110219430B4A698000231060E3565360032313815181A1788170E178C1706178417021780170042028800020C7E7DB
:40444000F40F0020C01300203EB515460C46022803D004280CD000203EBD0091019002206946088107484A8100680DF004FF07E00CF062F8044B0022DB68294620469847C3
:4044800001203EBDF00F0020F40F0020014AD16090607047F40F0020034801688068081A0A21484300097047CC13002010B5FDF7CDFC482204490548FDF7EDFE0349012053
:4044C000C870002010BD000034570100D017002010B5FDF7B3FC10BD0020704770B5134C2368002B08D0207B1149C20705D04008400020738868A08070BD88680B4AA1888D
:4045000080B29268814203D90A4D691A091802E0814202D2411A5118A160A080A0689842EAD30DF0C5FE00F013F870BDCC130020C0102E40FFFF000010B508461946FFF72D
:40454000A5FF10BD704710B5FFF77EFF10BD000003480021016041608160C16070470000CC130020024610B5FF20002A0CD0FFF7EFFF064C0321207B0843207310010A21A7
:40458000FDF752FD2060002010BD0000CC13002000B504480A21806848430209FFF7D8FF104600BDCC1300200248007B8007C00F70470000CC13002010B544490868002808
:4045C00002DA434B01221A70022290430860414800693E49C00B4031096A08425ED0012000F0D0FA3B483C497C30FDF787FB37480E216C30FDF782FB364820218430FDF77E
:404600007DFB344814219C30FDF778FB3148FF21C131A430FDF772FB2E48FF212F31B030FDF76CFB2B482D49BC30FDF767FB29482B49AC30FDF762FB29492648491CB430C7
:40464000FDF75CFB23482749B830FDF757FB21482549CC30FDF752FB1E4824490830FDF74DFB1C482249A830FDF748FB194821498830FDF743FB17481F498C30FDF73EFB48
:4046800014481921C9029030FDF738FBFDF738FBFDF7F0FBC0B2022802D00FE0FF2010BD16491748FDF72AFB15481649001DFDF725FB134800210830FDF720FB542004491B
:4046C000C043891C0870002010BD000000F02E400410002000002E4055650000320300002F3F00003102000010520000EC160000FA12000031D000003AE3000099560000A0
:4047000080012E40F80F000070B50646581C80B245086D00002408E0304600F0C1F81055000A1119A41C4870A4B2AC42F4D3D80705D0D0182038D15CC47FD454C17770BD7A
:4047400030B50A4C002100195B1E07E0541864782502545C2C430480891C89B29942F5DB994201D1515C018030BD000000102E4010B5FF2000F006FA0F49FF2048700E4828
:404780001021801D41800121417001700A490020C91C4870FFF710FF04000AD100F01AF907210648FDF7A8FA044807211830FDF7A3FA204610BD000004100020CC112E4024
:4047C00070B5002405465B1E0AE0284600F068F8010A161971702D1D1055A41CADB2A4B29C42F2DB9C4203D1284600F059F8105570BD000070B500210A4D5B1E0AE05418BB
:4048000064782602545C344346193480001D891C80B289B29942F2DB994202D1515C4019018070BD00102E40F0B50599091FCFB200217E1E0BE0541864782502545C2C4361
:40484000164D45192C80001D891C80B289B2B142F1DBFC0712D01C78515C24020F4A0C4381180C809C785D78001D210280B2294384182180001D80B2D9780CE059781A78D1
:4048800009021143054A84182180001DD9789B78090280B2194380180180F0BD00102E40014940180088704700102E4010B50B490020487000F08EF80020FFF707F80020B4
:4048C000FFF720F807210648FDF716FA044807211830FDF711FA002010BD000007100020CC112E4010B506480078012803D102210448FDF703FA02490020C91E087010BD87
:404900000710002070F02E4010B50B46062812D006DC01280CD0032801D1FFF7C7FF10BD0A28FCD00B28FAD105480078107010BDFFF71EFF10BD1146184600F039F910BD4D
:404940000A100020F8B5204DAC6A0127A0071F4E002816DA307806280ED1286A384328621B480069F903084381B219481030FDF7C5F9042000F006F9134802212830FDF7B7
:40498000BBF9E00711D0062000F0FCF80F49FF20C91E48707078002802D1686B38436863094801212830FDF7A7F9E0050BD53078042802D1052000F0E5F80348FF21013105
:4049C0002830FDF799F9F8BD40F02E400710002000002E4010B503212348FDF78FF90120FDF728FA20483038406A204C80076178800F890001431C480C38FDF77FF960784C
:404A0000002808D0401E022181401820FDF7FCFBC000083800E0B82081B21548FDF76EF91348032109021438FDF768F910481149B830FDF763F9612189010F48FDF75EF9AB
:404A40000D480321001FFDF759F90C490C48FDF755F90B480B496038FDF750F9084801218838FDF74BF910BD70F02E400A100020D8102E4090890000041E2E40FF0F0000A5
:404A800058122E4020900000044800684007400F022801D0002070470120704700010B4000B5FFF7F1FF002805D009480168C908C900016000BD0748016A4908490001626D
:404AC000054801690122D2039143016100BD000000010B4040F02E4000002E400849087806280BD148780749002803D1486B400840004863C86A01221043C8627047000066
:404B00000710002040F02E4001480078704700000710002002484078022800D0012070470410002000B50300FFF726F8080D050D0B070507090D012000BD032000BD0420E0
:404B400000BD022000BDFF2000BD0000074A9168D26889B2064B92B2994204D105498A4201D1012100E000210170704780002E4033D000003FE300000149487070470000B6
:404B80000710002010B50446FDF75CF9072C01D9FF2C01D102480470FDF750F910BD00000710002001494870704700000410002070B50C460546FDF75DF9C0B202280E4971
:404BC000287804D0FF2810D04C280CD810E0FF2809D10A4AD0680004800F032801D0087807E09069000A553803E00878207070BD4F382070087070BD0610002000002E405F
:404C0000F0B50122002830D000292ED00424420600D00524792342065B06D21800D0641C034600221EE00C2516466E43104D00277519AF720E4F002ABB51696007D0661EE4
:404C4000B24209D10B4E86197606760E05E05E06760E8027BE1B00E080269B198919521C2E81D2B2A242DED300221046F0BD00005816002079020000074900200C224243BE
:404C80005218927A012A05D0401CC0B20628F5D3002070470120704758160020F8B50F000446164609D0184D18496868A04202D94018A04201D38E4201D90120F8BD3946E2
:404CC0002046FDF7D9FA00281BD0324639462046FDF7E1FAF0B200210C224A43521913895668F718A74208D90127A41B1B1B9772834206DAC01A1469C0B2491CC9B2062989
:404D0000EAD30020F8BD0000581600207902000010B500F061F80748054AC16806480C46FDF7B9FA04492046FFF76AFF10BD00007902000010100020DC13002010B500F05E
:404D40004BF810BD002070470020054A002902D0012902D002E0506000E09060002070471010002070B5084C154608460549A26889182A46FDF78FFAA0684019A06028B22A
:404D800070BD0000DC130020101000203EB50A226946FFF7E7FF044606480A2200686946FDF76AFA002802D00020C0433EBD20463EBD000010100020002802D0044A9142C6
:404DC00001D2FF20704703490A61C8600020704779020000101000200248002141608160704700001010002070B5074C15460548626880182A46FFF751FF6068401960609C
:404E000028B270BDDC1300201010002010B503490A220968FFF7E8FF10BD00001010002010B50F4A002313600E4A13600E4B18600E4801600E49012008600E4908600002DC
:404E400090600E490C4808600D4914300860FF381538506000F0BEF800F0CCF9002010BD3C1000202410002050100020541000204010002030100020A017002034100020E2
:404E80004810002000207047014610B50020002910D0094B1A689C685118A14209D25868196080188A0704D08A07920F891A091D196010BD002010BD24100020F8B50024E4
:404EC000164E671E321F3D463168136806E01422624310328A58521C1BD0641C9C42F6D36A1C14D02C461422544322460C3288500C214843FFF7C8FF3168002808510AD0EC
:404F000031680020103408517068401C70602846F8BD2546E4E73846F8BD000034100020F3B50026F64381B000281BDB1E490968884217D80299002914D01B4F14220446AE
:404F40003F1D54432546396810354859401C09D0FCF778FF38682F1F4159C359994203DBFCF76CFF3046FEBD214608310091465801590C20704308180C220299FDF78BF958
:404F80000948761C001D0068C159B14200D100260549009A091D865008684159491C4151FCF74CFF0020FEBD30100020002803DB07490968884202D90020C0437047044994
:404FC0001422091D09685043103008587047000030100020F0B500200D4A451E0346171F50600FE014260146714314680E1DA3510C461668083433511668083435511468E1
:40500000401C635039688842ECD30020F0BD000034100020F3B50026F64381B0002841DB2349096888423DD8029900293AD0204F142204463F1D544325463968103548592C
:40504000401C2FD0FCF7FEFE3868415900292BD0211D009146580C21005971430F46C1190C220298FDF717F911480021001D0068761C00590C34C0190160416081600C48AC
:40508000001D00680159B14200D100260849009A091D865008684159491E4151FCF7CEFE0020FEBD3046FEBDFCF7C8FEFAE7000030100020FEB504460D4600201E49089EFB
:4050C0000860471E009001900290002C11D0486885420ED2002A0CD0002E0AD0642E08D808460C3001681C2068430C18207A002801D03846FEBD0120226020721846FFF7F9
:40510000DDFE6060401C13D06681A6810A4827610C3067610179A94200D205710021684601810A462846029B00F040F82846FEBD00202072DDE700003C10002038B501240B
:40514000009400F039F838BDFEB50027164EFF433D4600240EE01C20316860430818017A002906D04068FFF721FF002801D0254603E0641C3079A042EDDA681C12D01C21E4
:4051800030684D434419FCF75DFE69466068FFF741FF0546FCF752FE002DD9D1216868468847D5E7FEBD00004810002038B50024009400F001F838BD1FB500220C49541ED5
:4051C0000A60002811DB496888420ED808491C220C31096850430818406801A9FFF7A0FE401C02D0002004B010BD2046FBE700003C100020F0B50021114A4D1E174611710C
:405200000C3F0B46BD6016E008461C2460431668041D355114680646235014680836A3551468361DA353044616680A34335318301468491C255078688142E5D30020F0BD65
:405240004810002038B500210091002811DB0F49097888420DDA0D4D04010C3529680859002807D0201D0818694600F06FF9002801D0002038BDFCF7E5FD28680F34015D70
:40528000491E0155FCF7DAFD009838BD58100020F7B582B0002502986E1E06602E48D21C024017462D4A2C4610460C380178106805E02301C358002B0FD0641CE4B28C423A
:4052C000F7D3711C28D03401211D40180191039900F02AF900281FD101E02646F1E71F48016820460C300F521C480399026820460E30115419480399026820460F3011545F
:405300000398784300F0A0F8144900280968085102D00024009011E001251AE00F48016801980818009900F02CF9002801D0012502E00098C0190090641CE4B20398844209
:40534000ECD3002D05D10298066004480179491C0171284605B0F0BDFCFF000064100020F8B50D4600216A468C461180002839DB23490978884235DA214B04010C33196808
:405380000A59002A2ED020460C300B5A801C0E5C184670438018954224D3854222D2002006E007465F43BF18AF4206D0401CC0B2B042F6D36046002814D0114E271DC819D1
:4053C0000C366A46294600F006F900280AD168460088012808D030682946C01900F0D1F8002803D00120F8BD0020F8BDFCF72AFD30680F34015D491C0155FCF71FFDF3E7ED
:4054000058100020F8B50F46002400F031F8002817D10C4900220B460C334A600EE021011D680E466A501D680C36AA53B61C1D680F31AA551D68641C6A54E4B2BC42EED3CF
:405440001A71F8BD5810002000280BD0C01C074A81085068890053884118994203D8936851601818704700207047000058100020F8B5064600200F4D009029700C0121467C
:405480006846FEF743FC00280CD129460C3100980860301B001F84B221466846FEF736FC002801D0FF20F8BD6C800098A8600020F8BD000058100020F8B5002827DB19498E
:4054C0000978884223DA174C05010C342168485900281CD028460C30085A009028460E300E5C401C0E5420682F1DC01900F064F800280CD12068002445590EE00948294617
:405500000C300068C01900F03CF8002801D00120F8BD00982D18641CE4B2B442EED30020F8BD00005810002030B50D4604000BD0A800FFF789FF6060002805D00020257045
:40554000C0436080002030BD012030BD70B50D46040005D0002D03D00220205E002801DA012070BDFCF76EFC0221615E60688900405828606088401E6080FCF75FFC0020A7
:4055800070BD70B50D46040007D0002D05D002212078615E401E814201DB012070BDFCF751FC6088401C00B26080616880000D50FCF744FC002070BD10B5040009D022782C
:4055C00000216068FCF770FE0020C0436080002010BD012010BDF0B500231D46002802D00224045F0AE00120F0BD46689F00F6598E4201D1012503E05B1CDBB29C42F4DA26
:4056000015700020F0BD000001480078704700006C1000207CB505460024FDF7BDFEA8796946087000A8062229460130FCF733FE0021684604F0E2FD0C2804D0072804D02C
:405640001F2804D004E0022402E0042400E0272420467CBD10B502280BD0032802D0042809D102E000F0E8F805E000F093F9FF2801D100F0A3F9FFF747FAFFF753FA10BD85
:4056800010B500F0CBF9FFF73FFAFFF74BFA10BD70B504460025FDF77FFE002C06D0A079012803D8214602F06DFC00E00125284670BD01460120002902D050200880002038
:4056C0007047000001460120002905D0034854220078504308800020704700006E10002010B502460D49FE204870032410460DF0E5F8002810D10DF089F800280CD105F0B3
:4057000013FB002808D100F093FB002804D104F0F9FF002800D10024204610BD6C10002010B5FF240DF042F9002804D10DF05CF9002800D10024204610BD70B500250446B4
:4057400000280ED0A07901280BD8FDF725FEA0790028204602D002F0F1FF03E002F0C6FF00E00125284670BD014610B50120002904D006220248FCF78EFD002010BD00004A
:405780007010002001460120002903D00878024908700020704700006E10002010B5002403F0FAF8002800D00124204610BD000070B50E46050001D0002400E00C4C002C38
:4057C00011D0E28A500609D5D107C90F022003F053F8E08A40218843E08204E0D107C90F012003F049F83146284602F027FD70BD38180020F8B50546002004460D4E009052
:4058000013E022466946284601F04AF80098002801D00DF035F8A878214602F0FDFAA878214602F0EBFA641CE4B2308AA042E8D8F8BD0000F0180020FEB54E4DFFF764F944
:40584000012849D14C480078002845D002F07EFC002841D004F04AF900283DD0474C6078C00703D000F0E6FC012835D0207E00287DD16078002600285BD0000706D54048B7
:405880008089070B00F02EF9384370D13B484178684603F095FF044628793A4DA9784018C1B2A14261D802F051FC00285FD0344860300089314F0190203702F09DFA684645
:4058C000008802F0C7FA02F057FB2F490988884203D10120FFF756F949E02C49012008702648807B00281BD00198002818D04037F87E002814D12248603000884000A04222
:405900000AD96878002807D102F0E4FF2049088A03221202104308822878002800D02E7002F0C6FA0120FFF727F900F0F5FB174C15E002F00BFC002819D0102402F01CFB20
:40594000214602F011FA02F085FA104C0120207002F0AEFA0020FFF70FF900F0DDFB20780128B6D1FFF79CF826700020FEBDFF20FEBD0000101800200410002018180020DC
:40598000A0102E407C1000208E10002076100020E0112E4010B50848FF244078002809D102F0D4FB012805D1FEF79CFF0720FFF7E9F80024204610BD1818002038B5FFF790
:4059C000A3F8012801D0002038BD02F0BFFB00280AD0114C6078C00703D000F02BFC012802D0207E002801D0FF2038BD617800290FD0684603F0E4FE022806D96846008820
:405A000002F028FA012002F059FA0320FFF7BAF8D9E70020F7E700001818002038B51E4CFFF772F8042813D0052811D0062812D003282AD007280AD1002069460870024671
:405A40000120FEF761FFFFF75FF80128FBD138BD00F082FB38BD02F049FA00F07DFB02F0C5FA8007800F0228F4D10C4841880029F0D05B21095D0029ECD101210170A07D46
:405A80000140022002F0F8FE38BD02F033FA0120FFF778F838BD0000381800207C100020F8B50646002402F055FF0546304602F06BFF03460A480021068A0DE001228A4049
:405AC0001046174628401F40002803D0002F01D1224394B2491CC9B28E42EFD82046F8BDF018002070B500252C460A4E03E0002C01D0002000E030460079002803D0204687
:405B0000FFF7CEFF0543641C2406240EEFD0284670BD0000381800201CB50020694648706846FDF769FC01AA69460A20FEF7ECFE6946042008561CBD10B50C4601F082FA64
:405B4000002809D00179002906D0C1788078224602F0FAFB002010BD022010BD0148007870470000101800204030C07E002800D00120704700B500F001F800BD8C2148437E
:405B80000749084A40186030417F491CC9B24177D289914201D300214177C8B27047000018180020F018002013B501F04BFA04000BD001F0E8FD002807D0214601AA0A3180
:405BC0000620FEF7A1FE00201CBD02201CBD000010B50C4601F036FA00280AD001F0D3FD002806D0224604490A20FEF78DFE002010BD022010BD0000F9170020F3B581B0BA
:405C0000074601460026029802F09CFE0446002F01D0002500E0154D002D21D0284601F047FA032C04D13946029802F0E7FE06463846029902F0E2F8032C06D0002C10D0DF
:405C40000121384601F03AFB03E03146384603F0D1F8284601F0C0FF0221284601F0D6FFFEBD3846029902F0C9F8FEBD3818002010B5044603F008FD002801D00C2010BDAA
:405C80002078611C02F062FCFF2801D01F2010BD02F0A8FCFF280AD02178621C02F036F8044821780068026B601C904710BD072010BD00009410002010B503F0E5FC00285A
:405CC00001D00C2010BD02F023FC03480068C06A8047002010BD00009410002070B50D46044610210CF00CFD1021601806460CF007FD334610221946204603F00BFD1021EB
:405D000030460CF0FDFC02202870204604F052FC70BD0000F8B504464078217802028006870FE0781143A67809050002090D0643084601F087F900210546F2B2002812D0EF
:405D4000002C10D0022F0ED0032F0CD0002A0AD00279092A07D0002A05D0134A5A23527E1B5C9A4207D82889002104F058FB20460CF086FDFF21002914D10C482246006846
:405D80002946436930469847C0B2FF280AD128464030817EF2B2491C8176FF232146284600F0DDF8F8BD0000D0170020AC1000200020704710B5044603F066FC002801D09A
:405DC0000C2010BD2078611C02F0C0FBFF2808D002F0F8FA044821780068426B601C904710BD1F2010BD00009410002010B504F089FC00F057F9002010BD10B50446007829
:405E00006178E2780843A17811430843217908436179084305D003F029FC002803D00C2010BD122010BD204602F088FC002010BD10B5FCF71FF802F0AFFD044803F0AAFD26
:405E400002F0CAFA012000F003F810BDE0170020F1B586B003A8009005A8019025489F22817A114081726846FDF7F0FD00283FD169460989C90705D01F4806990068C26875
:405E80006846904769460989890706D500282FD11A480068816A06988847002828D1184E0025757075737571F575357675767575B570F570B5713746F5730120BC373873CA
:405EC0001F20F880FF2130467972A0300175457500F076FA00242046069901F0FFFB002803D1641C2406240EF5D0FD72BD72B57307B0F0BDD0170020AC1000209410002088
:405F00001818002070B505460E46084602F022FD0446304602F038FD0121A9400A46224001400A4301D0012070BD002070BD10B50446084602F028FD0121A140014201D0C5
:405F4000012010BD002010BD10B5FEF7DDFD032804D101F0CFFF0120FEF714FE10BDFEB51C4616460F46054601F036FEA878FFF701FE02460190334639460094284600F0F0
:405F80000DF8002808D1A8780199FFF711FCFF2C02D138460CF074FCFEBD0000FFB585B005460E980C46FF2810D02B49C00009680A5840180179C0795278814201D90126A8
:405FC00001E09006860F6846038108E06078A1788006860FE0780002014368460181284601F0DCFB070007D021462846079A00F0EBFB384609B0F0BD304600F099FC04AEB0
:406000000346039002AA29460096204600F025FB3C20405D002818D0284601F0BFFB012813D0684600890096C0B20190A878231DFF22079902F0B6F868460089039BC2B255
:40604000A878079902F0F6FBD3E7684600890021C0B20091E9E70000A8100020F8B5104F002500242846FFF71BFD060012D00EE03046E040C007C00F07D02146284601F050
:40608000B3FE21462846FFF7B9FD641CE4B2388AA042EDD86D1C2D062D0EE2D0F8BD0000F018002010B502F097F90020FFF7D0FE0CF07CFC002010BDF8B5002400F0B4F8B0
:4060C0000123012800D10124104F00203E4620360425082203E0002801D0002100E031460979002907D001290BD002290BD0114681402143CCB2401C0006000EEBD07C70BF
:40610000F8BD1C43F7E72C43F5E700001818002010B5FFF7D1FF10BD70B50E4CFBF761FB0546FEF7F1FC062802D02078012803D02846FBF75AFB70BDFBF7EAFC2846FBF7D2
:4061400054FBFEF7E1FC0628F5D020780028E5D170BD00007610002010B5FBF742FB0446FEF7D2FC012809D0FEF7CEFC022805D0FBF7CEFC2046FBF738FBEEE72046FBF78D
:4061800034FB10BD10B50B4681791943817103D08078114602F01CFB10BD10B582798A43827102D1807802F027FB10BD30B50C4C0220A28A0B4B9978002901D0022906D173
:4061C0001D785B78EB18282B01D9032002E0032900D101205105490DC0020143A18230BDC0112E407710002000B500F023F8002807D0012805D0032801D0042801D0002066
:4062000000BD012000BD014600B50020C90701D000F00AF800BD014600B50020C90701D000F002F800BD000001480088000A704720102E400448008B410501D504207047F5
:406240004007800F7047000000102E4038B50446000610D5FFF7EEFF01280CD1684601F059FE6846007800F0B3FA012001F01CFD0220FFF74DFF034800680169204688476E
:4062800038BD00009410002010B5034A0178117002F0C0F9002010BD7710002070B50446FFF7C2FF002801D00C2070BDA27B01211F48002A827801D00A4301E052085200ED
:4062C00082706279012A14D0C17849084900C170184D2868016820468847207901280CD06188208803F000F82080207904280FD015E0C2780A43C270EAE72868C168E01D98
:406300008847E01D02F006FA0B48808C208006E02868C168E01D8847E01D02F0FBF9074920798870204602F083F9002070BD00001818002094100020D0170020771000208E
:4063400008B50178FFF770FF814201D10C2008BD002914D0072069460870FFF745FF012807D10121684600F08BF8012801D0092008BDFFF71BFF02F08FF9012011E0FFF7A9
:4063800033FF012806D1684601F0C4FD6846007800F052FA02F076F9FFF746FF0028FBD10220FFF7B5FE002008BD000010B5034A0178517002F0ECF9002010BD77100020F2
:4063C00038B568460CF0F2F9002801D01F2038BD01210098C90201804180002505714571857107214173857302F022F9009C202200212046FBF758FF25702A460021601CAF
:40640000FBF752FF204602F005F9204602F0C0F900980CF035FA042200210248FBF744FF002038BD771000200346084800B5834209D8184600F006FE002804D000899842C8
:4064400001D1012000BD002000BD0000FF0E0000074A9179491C8906890E917138220A4092014907090E1143084302490840704718180020FF0E0000C006C00E704700006B
:40648000F8B507460E4600240D4803E0002C01D0002500E005462979002905D0641C2406240EF3D00020F8BD0021204601F016F92E712046FFF7CCFF28813C700120F8BD59
:4064C0003818002010B503F071F90222002100F003F801F02DFF10BD10B5094B40074907000F090F185A595A40185043C0086421FBF79AFD002800D1012080B210BD00001A
:406500007C570100F7B53D20405C88B015460C46002802D02878042802D200200BB0F0BD6946087200262046FFF71EFB012800D00126204603A938300191009023460327C8
:40654000A17E34333246206A03F03EFA02A8089900900B46019120463A4603A9243003F0A1F802466846007A2870204601F0A2F81046D3E7FFB587B00C4605461078694670
:4065800008723D20005D1746002826D000262046FFF7EAFA012800D00126204603A93830019100902346A17E34333246206A03F00BFA02A80090291D019120462B1D03A9B5
:4065C00024300A9A03F06EF802006846007A388002D1204601F06EF810460BB0F0BDF0B505463C20405C89B016460C4600280CD0307869460873002806D000272046FFF7F4
:40660000B3FA012803D003E01F2009B0F0BD012703200890204604A93830019100902346E17E34333A46E06903F0CEF96846007B03A928180290009120462B46019504A9A5
:406640002430089A03F07AF802466846007B3070204601F039F81046D7E7FFB505463C20405C89B016460C46002810D0084601F095F801280BD0308869468883002809D0E9
:4066800000272046FFF770FA012805D005E000200DB0F0BD0220FBE70127204603A93830019100902346E17E34333A46E06903F08BF9291D2B1D07A8129A6D4607C520467B
:4066C00003A924300C9A03F039F802466846808B3080204600F0F8FF1046D9E770B50D460446FFF741FA01280AD0E87AA97A00020143A07801F008FD012808D0002070BD9F
:4067000000222421204602F041FD242070BD28214C200155204600F0A3FB282070BD0000002801D0002000E003484030C07F012800D00020704700003818002001460020DD
:4067400049070ED50021084B03E0002901D0002200E01A461279022A04D0491C0906090EF3D0704701207047381800200146002049070ED50021084B03E0002901D000224E
:4067800000E01A461279022A04D0491C0906090EF3D07047012070473818002010B5044680346068002803D00CF07EF80020606010BD4030417070474030817070474030BC
:4067C000017070470171704792001018C166704770B53C2501F080F9040004D020460021433001F031FCFF222946204600F0D4FB002C02D0A07801F0F1F870BD10B5002811
:4068000001D0002000E00348002802D0008903F04DFE10BD3818002010B5002801D0002000E00448002804D00179072901D100F047F810BD3818002010B501F04DF900282C
:4068400002D0807801F0CAF810BD00207047000070B50546008A00281ED01049F122897A1140C90618D5294640314A8A098A521C4A4392B2D10800D10121540801E0621A60
:4068800094B2A042FBD9FEF7BFFE012804D1298AA878224601F00EFD70BD0000D017002010B50023054C0B60248A944204D992001018C26E0A60C36610BD0000F01800204A
:4068C00038B5044600200090A079002814D14020015D052901D00E290ED168460BF076FF002809D12046009902F02EFC03481021C28A2046FFF746FC38BD0000D01700201B
:4069000010B50B4604460146184602F0ABF8002802D020460BF0BEFF10BD13B5044601AA11460620FDF7F0FF6846818861811CBD002800D10220704770470000F8B50446C9
:406940002346401D543300909A1EA078911E01F0FDFA25464035A88A298A8000FBF764FB401E81B2688A884203D96982A07801F0BDFF20460021433001F066FB2748008821
:40698000E88102F013FFE989891C8AB26179FFF7A3FD01F0CDFC02F009FF2A8A6179FFF79BFD074601F0B8FC688A002806D01C49088A032212021043088202E0002001F0F5
:4069C00089FF1748803801886E8A002E0CD0304648431449FBF718FC0004000C01D0401C80B21149488002E00F4800214180288A704381B2A07801F0D9FEFF2228374932EA
:406A0000B9B21346204602F073FCE98AA07801F04DFEA07801F012FAF8BD000080102E40E0112E40710200007C1000207FB504468034616805460E46183108226846FBF711
:406A40002AFC31462031082202A8FBF724FC102168460BF055FE6068102108300BF050FE60682B46083024331022694602F052FE7FBD10B504460821FFF78FFB1021204625
:406A8000FFF78BFB207905281FD006281DD008281AD12189002003F081FC072020712046FFF762F8014620464030012913D00E21017000210176204600F0A2FF2046FFF712
:406AC0006DFE2046FFF7C4FE10BD20890122002103F048FCE1E70521EAE70000FFB581B01F4604460821FFF758FB10212046FFF754FB2079082803D0092804D0042203E0D1
:406B00000422012501E009220025204600F032FE264600204036307022712046FFF73EFE0398002D02D0012808D00BE001280AD120890022029903F015FC04E02189029869
:406B400003F02CFC012700203076012F04D0204600F056FF05B0F0BD02983073204602F041FB054605480121C28A2046FFF70AFB002DEFD109202071ECE70000D017002042
:406B800070B50C460546FEF7EFFF012809D108212846FFF702FB0023012221462846FFF79DFF70BD10B5044600F0E4FD2046FFF7F5FD00214034217010BD70B505461A24FA
:406BC000FEF7D2FF012809D108212846FFF7E5FA0023012221462846FFF780FF70BD0000F8B50446002000900E4668460BF0EEFD002801D00D20F8BD8420005908212030C3
:406C0000009D00F01AFA20460421383000F015FA002E02D1204600F0E9FD2946204602F022FA0E480821C28A2046FFF7ABFA204600F057FF25464035002808D0204600F0F3
:406C400023F8002801D0092028700020F8BD08202870204600F0C0FFF7E70000D0170020014610B540310A460978082906D0092907D00A2901D100F091F810BD0B2010705C
:406C800010BD00F001F810BD70B50446007925464035052805D0062803D008280FD00C2070BD03220621204602F070FA0D480821C28A2046FFF766FA1120287010E00620AB
:406CC0002873204602F08EFA0646AA8A0A20424301212046FFF756FA002E01D109202071002070BDD017002038B504460020009068460BF06BFD002801D00D2038BD204695
:406D0000009D00F0B1F908202071204600F06EFD2946204602F0DAF900213D2001550F2040210855204600F057FF002038BD00B5024600F01FFD10214032117000BD10B5D7
:406D40000446FEF711FF012809D04020005D112805D100231A4606212046FFF7BFFE10BD10B5FFF786FE10BD38B504460021684600910BF02BFD00280CD12046009902F0AA
:406D800026FA05480821C28A2046FFF7FBF90D204034207038BD0000D017002038B504460021684600910BF011FD002801D00D2038BD2046009902F0FFF905480821C28A0E
:406DC0002046FFF7DFF90C2040342070002038BDD017002000787047F8B50025002801D0002400E01A4C002C28D0204600F0CBFC002823D0207903281CD005281CD026461E
:406E00004036B18AA07801F0DBFCB078012815D10021204601F043FE274680373868002802D00BF041FD3D600020B0702079072805D007E0042000E006202071F8BD2046A3
:406E4000FFF706FD0221204600F0E0FEF8BD00003818002010B54C22115400F04CF810BD10B50446FF21FFF798F909202071A07801F0CCFC10BD000038B5FF216A461180A8
:406E8000002801D0002400E0084C002C0DD011460620FDF739FD684601882046FFF73DFD03480068C1692046884738BD38180020AC10002010B504468079002809D0222165
:406EC0004C200155FF212046FFF767F9204600F012F810BD10B5037902464032002B03D01173092B02D003E0002100E02221117300F001F810BDFEB50446008900270090A6
:406F00002781207926464036002817D0012815D002280AD112E002AA01A9204601F090FD002807D101980BF0B5FC204601F0B0FD0028F0D02046FEF75DFCB77625468035AE
:406F40002868002802D00BF0AFFC2F606868002802D00BF0A9FC6F60317B002919D0009800F064F8A078002100F082FF2046FFF7A9FAA07801F0B2F8A07800F02FFDFF21C7
:406F80002046FFF70AF90B20FFF7C2F800F068FCFEBD1F213173E2E7F8B517460E46054602F000FC04003CD020460C3001F03CF82046062200211830FBF776F92046062287
:406FC00000211230FBF770F91648224600683946436A28469847074626702846FEF7C4FD012148406070002D10D02889608028464030C1782171002E0FD169796171018A17
:40700000E180418A2181808A608106E00648008BC005C00F2071002060803946204603F040F9F8BD9410002000102E400A4610B50146002003F052FA10BD10B50BF03CF92E
:4070400010BD000000B50146FFF716FA002801D0002000E00348002802D002898A4200D0002000BD3818002038B5044680346068002806D168460BF0B9FB002801D10098EE
:407080006060606838BD000010B5014600F086FB0128887802D0FEF771FD10BD8C214843024940186030007F10BD00001818002070B5054604464035A87F012811D1A1782A
:4070C0008C20084A484380186030067F3046FEF719FF002805D10220A877A078314601F0B7F870BD1818002010B50C4CA07A002813D0FEF7B3FF0A48027F417F408B00F0B5
:40710000B7FB012809D10020A07200F019FF05498989090B01D000F03BFA10BDD418002018180020A0102E4070477047490510B5490F0B00FCF720FD060704080C0C0F0774
:407140003E21FFF787FE10BD0821FFF7C3FE10BDFFF7D1FE10BDFFF7ADFE10BDF8B507460025002D01D0002600E0204E00F096FE3046403044890021418100F0AFFE3046FD
:4071800000F001FB01282BD1A00702D52846FFF723FEE00602D52846FFF76EFEA00601D5FEF75CFF600601D500F014FB200602D5284600F01DF8600702D5284600F02CFAF5
:4071C000380402D52846FFF727FB780402D52846FFF714FBE00703D021463046FFF7A6FF6D1C2D062D0EBCD0F8BD000038180020F8B5002801D0002400E0284C002C4BD0F1
:4072000025464035A878012846D1FF278820493700593E46002805D02149897A890601D5878AC68A2046FEF79FFC012834D002F0BDFA2A8A6179FFF74FF9009001F06CF836
